:10000000E4EF22F00000000000EF00F0000000002C
:0A0010000000000000000000F3D71C
:10001C000B820BAE18EF00F00368026801680068F1
:08002C000A360232FF0E120039
:0E003400026A016A006A086A036A000E12007E
:100042000B840BAE2CEF00F0010E036E026A016A04
:0A005200006A0A360232FF0E1200A7
:08005C000AAE029E000E120024
:100064000CB074EF00F00CA21AEF01F00E6A000E4F
:1000740002648BEF00F0F00E0214D8A456EF00F0E7
:10008400023A01380F0B02260138F00B016E0038DA
:100094000F0B01260038F00B006E08380F0B0026FA
:1000A4000838F00B086E0E84D89002BE6FEF00F093
:1000B40008360036013602360E2A02BE6FEF00F013
:1000C40008360036013602360E2A02BE6FEF00F003
:1000D40008360036013602360E2A0E50036410EF3D
:1000E40001F0035E0BBC08AE15EF01F0D880800E62
:1000F40008640030000E002201220222D8A015EF6D
:1001040001F0023201320032034A1AEF01F015EF16
:1001140001F001C002F000C001F008C000F0086A5C
:10012400000E0E860264C2EF00F0F00E0214D8A492
:10013400AAEF00F0023A01380F0B02260138F00B47
:10014400016E00380F0B01260038F00B006E0E8490
:10015400D89002BE6FEF00F00036013602360E2A48
:1001640002BE6FEF00F00036013602360E2A02BEE0
:100174006FEF00F00036013602360E2A6FEF00F002
:1001840001C002F000C001F0006A000E0E960E8855
:100194000264EFEF00F0F00E0214D8A4DAEF00F0DE
:1001A400023A01380F0B02260138F00B016E0E845F
:1001B400D89002BE6FEF00F0013602360E2A02BE5E
:1001C4006FEF00F0013602360E2A02BE6FEF00F028
:1001D400013602360E2A6FEF00F001C002F0016A08
:1001E400000E0E8602641FEF01F0F00E0214D8A474
:1001F400FEEF00F0023A0E84D89002BE6FEF00F0DA
:1002040002360E2A02BE6FEF00F002360E2A02BE3C
:100214006FEF00F002360E2A6FEF00F0010E0C6E45
:100224000EDF22EF01F0020E0C6E16DF22EF01F05A
:10023400040E0C6EF1DE22EF01F0080E0C6EF8DEF7
:020244001200A6
:10024600025006180E6E086A096A0B6A03500764A4
:1002560016EF02F006500A6E068E028E03500B6EE3
:100266000750036E000E0B6466EF01F00B50075E3D
:10027600D8B407EF02F0070E0764D5EF01F0075E6A
:1002860000C008F001C000F002C001F0026A074E8B
:1002960007EF02F00764AAEF01F0075E00C008F05E
:1002A60001C000F0016A074E07EF02F0076488EF0D
:1002B60001F0075E00C008F0006A074E07EF02F083
:1002C60007646FEF01F00AC002F005C001F004C038
:1002D60000F0086A30EF03F0030E07647AEF01F0CE
:1002E600075E08380F0B086E074E07EF02F0D8902E
:1002F6000832074E07EF02F0D8900832074E07EF94
:1003060002F0D890083207EF02F0030E076499EF67
:1003160001F0075E08380F0B086E0038F00B082650
:1003260000380F0B006E074E07EF02F0D890003230
:100336000832074E07EF02F0D89000320832074E17
:1003460007EF02F0D8900032083207EF02F0030EF2
:100356000764C1EF01F0075E08380F0B086E00381E
:10036600F00B082600380F0B006E0138F00B002644
:1003760001380F0B016E074E07EF02F0D8900132DD
:1003860000320832074E07EF02F0D89001320032F1
:100396000832074E07EF02F0D890013200320832D9
:1003A60007EF02F0030E0764F2EF01F0075E08386C
:1003B6000F0B086E0038F00B082600380F0B006E86
:1003C6000138F00B002601380F0B016E0238F00BD6
:1003D600012602380F0B026E074E07EF02F0D89087
:1003E6000232013200320832074E07EF02F0D8908F
:1003F6000232013200320832074E07EF02F0D8907F
:100406000232013200320832096A000E0EAEFBEFEC
:1004160002F0081E001E011E021E082A00220122EA
:100426000222FBEF02F00750D8A41CEF02F030EFD7
:1004360003F0096A02C00AF0028E068E0750035CBA
:10044600076ED8B4EEEF02F0070E0764BCEF02F0B9
:10045600075E0450096E0550046E0650056E066A66
:10046600074EEEEF02F0070E076491EF02F0075E0B
:100476000450096E0550046E056A074EEEEF02F051
:10048600070E07646FEF02F0075E0450096E046AF8
:10049600074EEEEF02F0070E076456EF02F00AC0B1
:1004A60002F030EF03F0030E076461EF02F0075E1F
:1004B60009380F0B096E074EEEEF02F0D89009329D
:1004C600074EEEEF02F0D8900932074EEEEF02F03B
:1004D600D8900932EEEF02F0030E076480EF02F0C7
:1004E600075E09380F0B096E0438F00B092604382D
:1004F6000F0B046E074EEEEF02F0D890043209326D
:10050600074EEEEF02F0D89004320932074EEEEFB6
:1005160002F0D89004320932EEEF02F0030E0764BF
:10052600A8EF02F0075E09380F0B096E0438F00BCE
:10053600092604380F0B046E0538F00B042605381F
:100546000F0B056E074EEEEF02F0D890053204321F
:100556000932074EEEEF02F0D89005320432093226
:10056600074EEEEF02F0D890053204320932EEEF74
:1005760002F0030E0764D9EF02F0075E09380F0B8D
:10058600096E0438F00B092604380F0B046E053883
:10059600F00B042605380F0B056E0638F00B052602
:1005A60006380F0B066E074EEEEF02F0D8900632B5
:1005B600053204320932074EEEEF02F0D8900632C9
:1005C600053204320932074EEEEF02F0D8900632B9
:1005D600053204320932086A000E0EAEFBEF02F055
:1005E600091E041E051E061E092A042205220622CD
:1005F6000950082604500022055001220650022206
:100606000EBE12EF03F0D8A021EF03F00232013242
:1006160000320832033E21EF03F02BEF03F0D8B08F
:1006260026EF03F0000E081E001E011E021E082AF9
:100636000022012202220A7E26EF03F0010E0C6E32
:100646000EDD32EF03F0020E0C6E09DD32EF03F021
:10065600040E0C6EE0DC32EF03F0000E0C6E12009E
:10066600086A096A000E07620364B8EF03F00250D5
:1006760006180A6E075003267E0ED8A049EF03F02F
:10068600035ED8B0BCEF03F04DEF03F0035ED8A0D5
:10069600C0EF03F0028E068E02C00EF001C00BF012
:1006A60000C00DF000500402F4CF0CF0015005021A
:1006B600F4CF00F0F3CF08F00402F3500C26F45008
:1006C6000822000E00220D500502F3500C26F450AD
:1006D6000822000E002202500402F3500826F450AD
:1006E600002202500502016A000E0122F350002684
:1006F600F45001220D500602F3500826F450002251
:10070600026A000E012202220B500602F350002656
:10071600F4500122000E02220E500602F35001266A
:10072600F450022202BEA0EF03F00836003601366E
:1007360002360306D8B4C0EF03F0B3EF03F0D88057
:10074600800E08640030000E002201220222D8A08A
:10075600B3EF03F0023201320032034ABCEF03F07A
:100766000AAE029E000EC2EF03F0010E60DCC2EF7D
:1007760003F0020E50DCC2EF03F0040E5FDC120041
:10078600086A080E0C6E003408360450085ED8B0AD
:0E07960002D00826D89000360C2EF5D712009F
:1007A4000D6A086A0050D8B4000C04180A6E0ABE18
:1007B4000D1E0B6A04AE02D0041E042A00A002D04F
:1007C400001E002A005004100A6E0ABE1FD00450F6
:1007D400085E003600340836045008260036060E3B
:1007E4000C6E00340836045000B0085E00A00826E1
:1007F40000360C2EF6D700A008260BB015D00DAE8F
:10080400000C001E002A081E082A000C04AE09D0A1
:1008140000BE04D00050086E006AF1D7006A002AB6
:10082400000C001E0B2AD3D7082A0450085CD8A455
:0E083400E6D7086A002A00AEE2D7FF0C1200D9
:100842000F0E0C6E470E0D6E0D2EFED70C2EFCD722
:060852000000000012008E
:0608580000000000120088
:0A085E00210E0D6E0D2EFED71200C4
:080868000B6A0B86FF0E120063
:100870000B800BAE44EF04F0026A0AAEFF0E026E6C
:0C088000016E006E0A360232FF0E1200FC
:10088C000134083609360450085E0550D8A0053CE2
:10089C00095E003601360F0E0C6E0134083609362F
:1008AC00045000A006D0085E0550D8A0053C095E97
:1008BC0005D008260550D8B0053C0926003601366F
:1008CC000C2EEBD700B006D0045008260550D8B03B
:0808DC00053C09260000120092
:1008E400C7B409D01F0EC514016E0150000A03E1FC
:0A08F400010E006E1200006A1200EF
:1008FE000B6A0C6A0A6A086A0350D8B407EF05F04F
:10090E00028E9E0E035E03BE92EF04F0D8B492EFF9
:10091E0004F0F7EF04F0036C080E035CD8A0C4EFEC
:10092E0004F0036E083600C008F001C000F002C0EB
:10093E0001F0026A080E035CD8A0C4EF04F0036E47
:10094E00083600C008F001C000F0016A080E035C12
:10095E00D8A0C4EF04F0036E083600C008F0006A99
:10096E00080E035CD8A0C4EF04F0036E0836086AC4
:10097E000350D8A4D890D0EF04F00350D8B4D0EFE1
:10098E0004F0D8900232013200320832032EC8EF42
:10099E0004F00BBC08A0E1EF04F0D8A0E1EF04F0E6
:1009AE00082AD8B4002AD8B4012AD8B4022A02BE22
:1009BE000BEF05F00AAE07EF05F0021E011E001E3A
:1009CE00081E082AD8B4002AD8B4012AD8B4022A9C
:1009DE0007EF05F0026A016A006A086A07EF05F080
:1009EE000B800BAE10EF05F0026A0AAE10EF05F0A9
:1009FE00026E016E006E086E0A36023210EF05F0BE
:100A0E00000E0C6A11EF05F0010E0C6E2ADF11EFCD
:100A1E0005F0FF0E0250036E0150026E0050016E83
:060A2E000850006E1200EA
:100A34000A6A0350D8A40A800750D8A40A820A502C
:100A4400D8B47DEF05F0030AD8B436EF05F00AB048
:100A540031EF05F006AE7BEF05F079EF05F002AE5D
:100A640079EF05F07BEF05F00250800B0A6E029ED1
:100A74000650800B069E0A18D8B447EF05F00A50BA
:100A8400D8B479EF05F07BEF05F00750035CD8B4D8
:100A940051EF05F0D8A06DEF05F073EF05F00650A7
:100AA400025CD8B45BEF05F0D8A06DEF05F073EFEE
:100AB40005F00550015CD8B465EF05F0D8A06DEFE2
:100AC40005F073EF05F00450005CD8B47DEF05F039
:100AD400D8B073EF05F00A52D8B47BEF05F079EF84
:100AE40005F00A52D8B479EF05F07BEF05F0D88011
:0E0AF4001200D8901200D880D8841200120090
:100B02000050086E0150006E0250016E0350026EDA
:100B1200036A0B6A0C6A9E0E036E0A6A020E0C6E60
:060B220032EC00F01200AD
:100B280001013B51390806E3300E3B5D03E3010E3A
:080B3800006E01D0006A1200FA
:100B400001013BBF02D0839E01D0838E3BBD02D00A
:100B5000839C01D0838C3BBB02D0839A01D0838AD3
:100B60003BB902D0839801D083880001DBB102D069
:100B7000848001D0849084826FDE849201013BB72F
:100B800002D0839E01D0838E3BB502D0839C01D0DE
:100B9000838C3BB302D0839A01D0838A3BB102D0CD
:100BA000839801D083880001DBB102D0848001D01A
:100BB0008490848251DE8492DBA102D042DE01D097
:040BC0004EDE1200F3
:100BC4000B6A0A6A096A00500402F4CF09F0F3CFF1
:100BD40008F001500502F4CF0BF0F3CF0AF00050F7
:100BE4000502F3500926F4500A22E86A0B22015048
:100BF4000402F3500926F4500A22E86A0B2208C0C2
:100C040000F009C001F00AC002F00BC003F01200AA
:100C14000B6A0A6A096A086A0E6A033408360450C1
:100C2400085E0550D8A0053C095E0650D8A0063CD5
:100C34000A5E0750D8A0073C0B5EE86AD8A0010EF4
:100C44000E5E0336070E0C6E0334083609360A3678
:100C54000B360E36045003A012D0085E0550D8A0FF
:100C6400053C095E0650D8A0063C0A5E0750D8A091
:100C7400073C0B5EE86AD8A0010E0E5E11D0082670
:100C84000550D8B0053C09260650D8B0063C0A26C3
:100C94000750D8B0073C0B26E86AD8B0010E0E26E0
:100CA40003360C2ED1D70234083609360A360B36F1
:100CB4000E36045003A012D0085E0550D8A0053C9F
:100CC400095E0650D8A0063C0A5E0750D8A0073C2F
:100CD4000B5EE86AD8A0010E0E5E11D008260550FE
:100CE400D8B0053C09260650D8B0063C0A26075061
:100CF400D8B0073C0B26E86AD8B0010E0E2602369F
:100D0400070E0C6E0234083609360A360B360E36D8
:100D1400045002A012D0085E0550D8A0053C095E1C
:100D24000650D8A0063C0A5E0750D8A0073C0B5ECC
:100D3400E86AD8A0010E0E5E11D008260550D8B07E
:100D4400053C09260650D8B0063C0A260750D8B000
:100D5400073C0B26E86AD8B0010E0E2602360C2E8C
:100D6400D1D70134083609360A360B360E3604500C
:100D740002A012D0085E0550D8A0053C095E0650BA
:100D8400D8A0063C0A5E0750D8A0073C0B5EE86A70
:100D9400D8A0010E0E5E11D008260550D8B0053C2F
:100DA40009260650D8B0063C0A260750D8B0073C9E
:100DB4000B26E86AD8B0010E0E260136070E0C6E1B
:100DC4000134083609360A360B360E36045001A0B3
:100DD40012D0085E0550D8A0053C095E0650D8A084
:100DE400063C0A5E0750D8A0073C0B5EE86AD8A010
:100DF400010E0E5E11D008260550D8B0053C092618
:100E04000650D8B0063C0A260750D8B0073C0B263B
:100E1400E86AD8B0010E0E2601360C2ED1D7003464
:100E2400083609360A360B360E36045001A012D0A5
:100E3400085E0550D8A0053C095E0650D8A0063CC3
:100E44000A5E0750D8A0073C0B5EE86AD8A0010EE2
:100E54000E5E11D008260550D8B0053C0926065070
:100E6400D8B0063C0A260750D8B0073C0B26E86ADF
:100E7400D8B0010E0E260036070E0C6E003408366C
:100E840009360A360B360E36045000A012D0085E1E
:100E94000550D8A0053C095E0650D8A0063C0A5E61
:100EA4000750D8A0073C0B5EE86AD8A0010E0E5E7E
:100EB40011D008260550D8B0053C09260650D8B0F4
:100EC400063C0A260750D8B0073C0B26E86AD8B07F
:100ED400010E0E2600360C2ED1D700B00ED00450D1
:100EE40008260550D8B0053C09260650D8B0063C63
:0C0EF4000A260750D8B0073C0B2612005D
:100F00006E0E01013B5DD8A0C9D0640E046E3BC1DA
:100F100000F039DC120E0024056E066A000E06226F
:100F200005C000F006C001F0000E06BEFF0E026E06
:100F3000036E00360090013602360336003600900C
:100F40000136023603364E0E0024F66E4A0E01209C
:100F5000F76E000E0220F86E0900F5CF00F00900D0
:100F6000F5CF01F00900F5CF02F00900F5CF03F04D
:100F7000000E046E000E056E000E066E7E0E076EED
:100F800033EC03F000C03CF101C03DF102C03EF182
:100F900003C03FF1640E046E3BC100F0C3EC03F0EC
:100FA00008C000F00A0E046EC3EC03F0090E002422
:100FB000056E066A000E062205C000F006C001F0AC
:100FC000000E06BEFF0E026E036E00360090013664
:100FD00002360336003600900136023603364E0ED6
:100FE0000024F66E4A0E0120F76E000E0220F86E05
:100FF0000900F5CF00F00900F5CF01F00900F5CFA9
:1010000002F00900F5CF03F03CC104F03DC105F04A
:101010003EC106F03FC107F033EC03F000C03CF1E5
:1010200001C03DF102C03EF103C03FF10A0E046E63
:101030003BC100F0C3EC03F008C000F000C001F0B9
:10104000000E026E036E046E013601900236033606
:101050000436013601900236033604364E0E012462
:10106000F66E4A0E0220F76E000E0320F86E09009D
:10107000F5CF00F00900F5CF01F00900F5CF02F03F
:101080000900F5CF03F03CC104F03DC105F03EC1BD
:1010900006F03FC107F033EC03F012003B510A08A1
:1010A0007EE20A0E046E3BC100F0C3EC03F0090EB1
:1010B0000024056E066A000E062205C000F006C078
:1010C00001F0000E06BEFF0E026E036E00360090A9
:1010D00001360236033600360090013602360336FA
:1010E0004E0E0024F66E4A0E0120F76E000E02200E
:1010F000F86E0900F5CF00F00900F5CF01F0090006
:10110000F5CF02F00900F5CF03F0000E046E000EDB
:10111000056E000E066E7E0E076E33EC03F000C007
:101120003CF101C03DF102C03EF103C03FF10A0EA7
:10113000046E3BC100F0C3EC03F008C000F000C037
:1011400001F0000E026E036E046E0136019002364D
:1011500003360436013601900236033604364E0E4D
:101160000124F66E4A0E0220F76E000E0320F86E80
:101170000900F5CF00F00900F5CF01F00900F5CF27
:1011800002F00900F5CF03F03CC104F03DC105F0C9
:101190003EC106F03FC107F033EC03F012003BC143
:1011A00000F0000E016E026E036E003600900136F4
:1011B00002360336003600900136023603364E0EF4
:1011C0000024F66E4A0E0120F76E000E0220F86E23
:1011D0000900F5CF00F00900F5CF01F00900F5CFC7
:1011E00002F00900F5CF03F0000E046E000E056E4C
:0E11F000000E066E7E0E076E33EC03F012004A
:1011FE00086A096A100E0C6E01340836093604505E
:10120E00085E0550D8A0053C095ED8B007D0045042
:10121E0008260550D8B0053C0926D8900036013670
:06122E000C2EEAD71200AD
:10123400800E01013B19006E800E000A005CD8B0DC
:101244006DD13B510008016E01C03BF1800E0118C5
:10125400006E800E6E0A005CD8A0C0D0640E046ECE
:101264003BC100F0D2EC03F0120E0024056E000E18
:1012740000BEFF0E066E000E062205C000F006C07A
:1012840001F0000E06BEFF0E026E036E00360090E3
:101294000136023603360036009001360236033634
:1012A4004E0E0024F66E4A0E0120F76E000E022048
:1012B400F86E0900F5CF3CF10900F5CF3DF10900C6
:1012C400F5CF3EF10900F5CF3FF1640E046E3BC14A
:1012D40000F0D2EC03F008C000F00A0E046ED2EC69
:1012E40003F0090E0024056E000E00BEFF0E066E0C
:1012F400000E062205C000F006C001F0000E06BE76
:10130400FF0E026E036E003600900136023603367D
:10131400003600900136023603364E0E0024F66E77
:101324004A0E0120F76E000E0220F86E0900F5CF78
:1013340000F00900F5CF01F00900F5CF02F0090033
:10134400F5CF03F03CC104F03DC105F03EC106F009
:101354003FC107F033EC03F000C03CF101C03DF1A4
:1013640002C03EF103C03FF10A0E046E3BC100F01F
:10137400D2EC03F008C000F000C001F0000E00BE83
:10138400FF0E026E036E046E0136019002360336C0
:101394000436013601900236033604364E0E01241B
:1013A400F66E4A0E0220F76E000E0320F86E090056
:1013B400F5CF00F00900F5CF01F00900F5CF02F0F8
:1013C4000900F5CF03F03CC104F03DC105F03EC176
:1013D40006F03FC107F033EC03F01200800E0A0A56
:1013E400006E800E3B19005C71E20A0E046E3BC174
:1013F40000F0D2EC03F0090E0024056E000E00BECE
:10140400FF0E066E000E062205C000F006C001F0B5
:10141400000E06BEFF0E026E036E0036009001360B
:1014240002360336003600900136023603364E0E7D
:101434000024F66E4A0E0120F76E000E0220F86EAC
:101444000900F5CF3CF10900F5CF3DF10900F5CFD6
:101454003EF10900F5CF3FF10A0E046E3BC100F0E6
:10146400D2EC03F008C000F000C001F0000E00BE92
:10147400FF0E026E036E046E0136019002360336CF
:101484000436013601900236033604364E0E01242A
:10149400F66E4A0E0220F76E000E0320F86E090065
:1014A400F5CF00F00900F5CF01F00900F5CF02F007
:1014B4000900F5CF03F03CC104F03DC105F03EC185
:1014C40006F03FC107F033EC03F012003BC100F01B
:1014D400000E3BBFFF0E016E026E036E00360090DD
:1014E40001360236033600360090013602360336E2
:1014F4004E0E0024F66E4A0E0120F76E000E0220F6
:10150400F86E0900F5CF00F00900F5CF01F00900ED
:10151400F5CF02F00900F5CF03F01200800E3B195D
:10152400006E800E6E0A005CD8A0C0D0640E046EFB
:101534003BC100F0D2EC03F0120E0024056E000E45
:1015440000BEFF0E066E000E062205C000F006C0A7
:1015540001F0000E06BEFF0E026E036E0036009010
:101564000136023603360036009001360236033661
:10157400820E0024F66E4A0E0120F76E000E022041
:10158400F86E0900F5CF3CF10900F5CF3DF10900F3
:10159400F5CF3EF10900F5CF3FF1640E046E3BC177
:1015A40000F0D2EC03F008C000F00A0E046ED2EC96
:1015B40003F0090E0024056E000E00BEFF0E066E39
:1015C400000E062205C000F006C001F0000E06BEA3
:1015D400FF0E026E036E00360090013602360336AB
:1015E40000360090013602360336820E0024F66E71
:1015F4004A0E0120F76E000E0220F86E0900F5CFA6
:1016040000F00900F5CF01F00900F5CF02F0090060
:10161400F5CF03F03CC104F03DC105F03EC106F036
:101624003FC107F033EC03F000C03CF101C03DF1D1
:1016340002C03EF103C03FF10A0E046E3BC100F04C
:10164400D2EC03F008C000F000C001F0000E00BEB0
:10165400FF0E026E036E046E0136019002360336ED
:10166400043601360190023603360436820E012414
:10167400F66E4A0E0220F76E000E0320F86E090083
:10168400F5CF00F00900F5CF01F00900F5CF02F025
:101694000900F5CF03F03CC104F03DC105F03EC1A3
:1016A40006F03FC107F033EC03F01200800E0A0A83
:1016B400006E800E3B19005C71E20A0E046E3BC1A1
:1016C40000F0D2EC03F0090E0024056E000E00BEFB
:1016D400FF0E066E000E062205C000F006C001F0E3
:1016E400000E06BEFF0E026E036E00360090013639
:1016F4000236033600360090013602360336820E77
:101704000024F66E4A0E0120F76E000E0220F86ED9
:101714000900F5CF3CF10900F5CF3DF10900F5CF03
:101724003EF10900F5CF3FF10A0E046E3BC100F013
:10173400D2EC03F008C000F000C001F0000E00BEBF
:10174400FF0E026E036E046E0136019002360336FC
:10175400043601360190023603360436820E012423
:10176400F66E4A0E0220F76E000E0320F86E090092
:10177400F5CF00F00900F5CF01F00900F5CF02F034
:101784000900F5CF03F03CC104F03DC105F03EC1B2
:1017940006F03FC107F033EC03F012003BC100F048
:1017A400000E3BBFFF0E016E026E036E003600900A
:1017B400013602360336003600900136023603360F
:1017C400820E0024F66E4A0E0120F76E000E0220EF
:1017D400F86E0900F5CF00F00900F5CF01F009001B
:0C17E400F5CF02F00900F5CF03F0120071
:1017F0000B6A0C6A086A0350D8B47CEF0CF002C084
:101800000AF0028E9E0E035E03AE6CEF0CF0036CCA
:10181000080E035CD8A039EF0CF0036E083600C048
:1018200008F001C000F002C001F0026A080E035C7B
:10183000D8A039EF0CF0036E083600C008F001C0E4
:1018400000F0016A080E035CD8A039EF0CF0036EBB
:10185000083600C008F0006A080E035CD8A039EF13
:101860000CF0036E0836086A0350D8A4D89045EFF0
:101870000CF00350D8B445EF0CF0D890023201328E
:1018800000320832032E3DEF0CF00BBC08A056EFDF
:101890000CF0D8A056EF0CF0082AD8B4002AD8B41F
:1018A000012AD8B4022A02BE80EF0CF00AAE7CEF07
:1018B0000CF0021E011E001E081E082AD8B4002AC1
:1018C000D8B4012AD8B4022A7CEF0CF0026A016A6B
:1018D000006A086A7CEF0CF00B800BAE87EF0CF00F
:1018E000026A0AAE87EF0CF0026E016E006E086E9F
:1018F0000A36023287EF0CF00C6A000E88EF0CF00B
:10190000010E0C6E000E38EC04F088EF0CF0FF0EA8
:101910000250036E0150026E0050016E0850006EBE
:021920001200B3
:101922000450000A08E10550000A05E1FF0E006EAE
:101932007F0E016E12000D6A096A086A01500010DA
:10194200D8B4000C015005180A6E0ABE0D1E0B6AAF
:1019520005AE05D0041E051E042AD8B4052A01AE20
:1019620005D0001E011E002AD8B4012A015005101C
:101972000A6E0ABE10D046EC04F00BB020D00DAEB9
:10198200000C001E011E002AD8B4012A081E091EDE
:10199200082AD8B4092A000C05AE0DD001BE07D022
:1019A2000150096E0050086E016A006AE8D7016AA8
:1019B200006A002A000C011E001E0B2ADDD7082A2D
:1019C200D8B4092A0450085CD8A4D9D70550095CB8
:1019D200D8A4D5D7096A086A002AD8B4012A01AE68
:0819E200CED70000FF0C12003B
:0819EA00067E23EC01F012005F
:1019F20003500718D8A40DEF0DF002500618D8A412
:101A02000DEF0DF001500518D8A40DEF0DF00050A8
:0E1A12000418D8B4D8841200D8941200120020
:101A20000450000A12E10550000A0FE10650000AB6
:101A30000CE10750000A09E1FF0E006EFF0E016E77
:101A40007F0E026EFF0E036E1200086A096A0750CD
:101A5000D8B4BBEF0DF00350D8B4C0EF0DF0025076
:101A600006180A6E028E068E0E6A02C008F001C0C9
:101A70000CF000C00DF004500D5E0550D8A0053CE0
:101A80000C5E0650D8A0063C085E086A0C6A0D6A17
:101A9000D8A052EF0DF0D890023201320032083255
:101AA000010E0E6E0750035ED8A05FEF0DF07E0EA4
:101AB0000E240326D8B0C5EF0DF065EF0DF07E0EB5
:101AC0000E240326D8A0CAEF0DF0180E0B6E0D36AB
:101AD0000C3608360036013602360E360450005EEB
:101AE0000550D8A0053C015E0650D8A0063C025E19
:101AF00006340E120EA080EF0DF00D808BEF0DF06E
:101B0000045000260550D8B0053C01260650D8B038
:101B1000062802260D900B2E67EF0DF0B1EF0DF0A9
:101B2000D8900036013602360E360450005E05505D
:101B3000D8A0053C015E0650D8A0063C025E0634E3
:101B40000E10010B0D26D8B00C2AD8B4082AD8A440
:101B5000B1EF0DF008320C320D32032AD8B4C5EFC4
:101B60000DF00AAE089E0850026E0C50016E0D502A
:101B7000006ECDEF0DF0010E34EC04F0CDEF0DF062
:101B8000020E1AEC00F0CDEF0DF0040E0EEC00F09A
:0C1B9000CDEF0DF0080E21EC00F012006B
:041B9C00C5841200EA
:101BA0009E9614C1C9FFC7A401D0FDD79EB601D02F
:101BB000FDD7C5BC02D0006A1200C584020E006EBB
:021BC000120011
:101BC200AECFDCF0ABA202D0AB98AB88DCC000F0A9
:021BD2001200FF
:101BD4000001DB9114C13BF1A0EC05F0DB811200A4
:0C1BE4000E0E0D6E0D2EFED7000012003C
:101BF000020E0B6E040E0C6EBA0E0D6E0D2EFED77D
:0C1C00000C2EFCD70B2EFAD700001200AF
:101C0C000101336B346B206B216B16C100F017C1D3
:101C1C0001F018C102F0010E1627000E172318232D
:101C2C0000C0F6FF01C0F7FF02C0F8FF0900F5CFB6
:101C3C0000F000C01DF10052D8B41AEF1EF01D5177
:101C4C00250A0BE014C1E1FF15C1E2FF1DC1E6FF3F
:101C5C00144B152B334B342BD8D71E6B1F6B206BAF
:101C6C00216B23D02087010E1627000E1723182373
:101C7C0059D02081010E1627000E1723182352D09D
:101C8C002083010E1627000E172318234BD0218713
:101C9C00010E1627000E1723182344D02085010EA1
:101CAC001627000E172318233DD016C1F6FF17C1B7
:101CBC00F7FF18C1F8FF0900F5CF01F001502D0A0C
:101CCC00D1E016C1F6FF17C1F7FF18C1F8FF0900E4
:101CDC00F5CF01F00150200ACCE016C1F6FF17C178
:101CEC00F7FF18C1F8FF0900F5CF01F001502B0ADE
:101CFC00C7E016C1F6FF17C1F7FF18C1F8FF0900BE
:101D0C00F5CF01F00150230AC2E016C1F6FF17C14E
:101D1C00F7FF18C1F8FF0900F5CF01F00150300AA8
:101D2C00BDE001D09ED720A301D0209120A701D0E7
:101D3C00209516C1F6FF17C1F7FF18C1F8FF09006F
:101D4C00F5CF00F0000E016E00C03BF194EC05F0F5
:101D5C00005236E01E6B1F6B1EC100F01FC101F05C
:101D6C000A0E046E000E056EE2EC05F016C1F6FFCD
:101D7C0017C1F7FF18C1F8FF0900F5CF02F00250A8
:101D8C0000241E6F000E01201F6F300E1E5F000E10
:101D9C001F5B010E1627000E1723182316C1F6FF22
:101DAC0017C1F7FF18C1F8FF0900F5CF00F0000EBE
:101DBC00016E00C03BF194EC05F00052CDE133D044
:101DCC0016C1F6FF17C1F7FF18C1F8FF0900F5CFD0
:101DDC0001F001502A0A27E119C1E9FF1AC1EAFFF3
:101DEC00EECF00F0EECF01F000C0E9FF01C0EAFF3A
:101DFC00EECF1EF1EECF1FF119C1E9FF1AC1EAFFB8
:101E0C00020EEE24006E000EEE20016E19C1E1FFF1
:101E1C001AC1E2FF00C0E6FF01C0E6FF010E162763
:101E2C00000E1723182316C1F6FF17C1F7FF18C1B0
:101E3C00F8FF0900F5CF01F001502E0A70E1010EF8
:101E4C001627000E1723182316C1F6FF17C1F7FF2C
:101E5C0018C1F8FF0900F5CF01F001502A0A28E15A
:101E6C0019C1E9FF1AC1EAFFEECF00F0EECF01F085
:101E7C0000C0E9FF01C0EAFFEECF1BF1EECF1CF171
:101E8C0019C1E9FF1AC1EAFF020EEE24006E000E22
:101E9C00EE20016E19C1E1FF1AC1E2FF00C0E6FF9E
:101EAC0001C0E6FF010E1627000E1723182336D0AB
:101EBC001B6B1C6B16C1F6FF17C1F7FF18C1F8FF9F
:101ECC000900F5CF00F0000E016E00C03BF194EC60
:101EDC0005F0005223E01BC100F01CC101F00A0EFA
:101EEC00046E000E056EE2EC05F016C1F6FF17C18C
:101EFC00F7FF18C1F8FF0900F5CF02F002500024DB
:101F0C001B6F000E01201C6F300E1B5F000E1C5B44
:101F1C00010E1627000E17231823CCD703D01B6BEA
:101F2C001C6B218916C100F017C101F018C102F019
:101F3C00010E1627000E1723182300C0F6FF01C050
:101F4C00F7FF02C0F8FF0900F5CF1DF105D133C131
:101F5C0000F034C101F012002089E4D7218537D17B
:101F6C00208B218134D1218332D1208D30D12FD1BE
:101F7C00208B208F2CD119C1E9FF1AC1EAFFEECFBB
:101F8C0000F0EECF01F000C0E9FF01C0EAFFEECF98
:101F9C0028F1EECF29F119C1E9FF1AC1EAFF020EAF
:101FAC00EE24006E000EEE20016E19C1E1FF1AC185
:101FBC00E2FF00C0E6FF01C0E6FF000E291902E1B6
:101FCC00000E281911E1280E2C6F6E0E2D6F750E58
:101FDC002E6F6C0E2F6F6C0E306F290E316F326BB3
:101FEC002C0E286F010E296F2A6B2B6B2A5128257A
:101FFC00E96E2B512921EA6EEE520BE0010E2A25D7
:10200C00006E000E2B21016E00C02AF101C02BF1D5
:10201C00EDD71B511C110AE02B511C5D02E12A511A
:10202C001B5D04E21BC12AF11CC12BF11F512B5D5E
:10203C0002E11E512A5D05E22A511E5F2B511F5BE6
:10204C0002D01E6B1F6B20B716D01EC100F01FC133
:10205C0001F0010E1E5F000E1F5B005001100BE023
:10206C0014C1E1FF15C1E2FF200EE66E144B152BD7
:10207C00334B342BEAD72AC102F02BC103F0010EEB
:10208C002A5D006E000E2B59016E00C02AF101C0B2
:10209C002BF10250031019E028C1E9FF29C1EAFF16
:1020AC0014C1E1FF15C1E2FFEECFE6FF144B152B77
:1020BC00010E2825006E000E2921016E00C028F1AA
:1020CC0001C029F1334B342BD6D720A716D01EC113
:1020DC0000F01FC101F0010E1E5F000E1F5B0050CF
:1020EC0001100BE014C1E1FF15C1E2FF200EE66EFA
:1020FC00144B152B334B342BEAD787D519C1E9FF79
:10210C001AC1EAFFEECF00F0EECF01F000C0E9FFFC
:10211C0001C0EAFFEECF1DF119C1E9FF1AC1EAFFB8
:10212C00020EEE24006E000EEE20016E19C1E1FFCE
:10213C001AC1E2FF00C0E6FF01C0E6FF1D0E286FCA
:10214C00010E296F010E2A6F000E2B6F62D7C00E85
:10215C002013000E21133BD01D51000AD8B4F7D622
:10216C001D516C0AD8B4F8D61D51660AD8B4F6D6EF
:10217C001D51450AD8B4F4D61D51650AD8B4F1D610
:10218C001D51670AD8B4EFD61D516F0AD8B4EDD6DD
:10219C001D51640AD8B4EBD61D51690AD8B4E7D6E0
:1021AC001D51700AD8B4E4D61D51580AD8B4E0D6E3
:1021BC001D51780AD8B4DDD61D51730AD8B4DBD6BC
:1021CC001D51630A9BE01D51750AC1E0B7D7000E83
:1021DC002015006E2151070B016E00500110D8B470
:1021EC00C5EF19F021A904D0060E1B6F000E1C6F51
:1021FC0019C1E9FF1AC1EAFFEECF00F0EECF01F0F2
:10220C0000C0E9FF01C0EAFFEECF22F1EECF23F1CF
:10221C00EECF24F1EECF25F119C1E9FF1AC1EAFF87
:10222C00040EEE24006E000EEE20016E19C1E1FFCB
:10223C001AC1E2FF00C0E6FF01C0E6FF046A056AAE
:10224C00066A076A22C100F023C101F024C102F022
:10225C0025C103F01AEC05F0010ED8B0000E006E8B
:10226C00005205E0247F030E2013000E2113266B71
:10227C00276B22C100F023C101F024C102F025C15B
:10228C0003F0046A056A066A076AF9EC0CF0000EA2
:10229C00D8A4010E006E0052D8B48AD025C100F02B
:1022AC00016A026A036AFF0E0016000E01167E0E0A
:1022BC00005E000E015A00C026F101C027F1010E8C
:1022CC00005E000E015A00C026F101C027F1030E7A
:1022DC00046E000E056EE2EC05F000C026F101C0A4
:1022EC0027F10A0E046E000E056E91EC0CF000C086
:1022FC0026F101C027F1800E0118026E800E025CDF
:10230C0002E1000E005C05E2010E0101265F000EE9
:10231C00275B0101265100083B6F1AEC09F022C122
:10232C0004F023C105F024C106F025C107F033ECFD
:10233C0003F000C028F101C029F102C02AF103C04A
:10234C002BF1000E046E000E056E000E066E7F0E55
:10235C00076E28C100F029C101F02AC102F02BC17F
:10236C0003F01AEC05F0010ED8B0000E006E00520E
:10237C0005E0010E265F000E275B1AD0000E046EDE
:10238C00000E056E200E066E820E076E28C100F040
:10239C0029C101F02AC102F02BC103F01AEC05F09F
:1023AC00000ED8B0010E006E005202E0264B272B17
:1023BC00800E006E800E2719005C02E12651000889
:1023CC0003E3010E1D6F02D026C11DF121B118D0FF
:1023DC0021A315D0800E2719006E7F0E005C02E140
:1023EC00FC0E265D0BE3800E2719006E800E1C1967
:1023FC00005C02E11B51265D01E201D001D0F1D35A
:10240C001B511C1106E021A304D0010E1B5F000E12
:10241C001C5B000E006E1C51005C02E11B51080895
:10242C0003E2080E1D6F02D01BC11DF122C100F08A
:10243C0023C101F024C102F025C103F0046A056A2E
:10244C00066A076AF9EC0CF0000ED8A4010E006EB7
:10245C000052D8B44BD126C13BF11AEC09F000C0A4
:10246C0004F001C005F002C006F003C007F022C161
:10247C0000F023C101F024C102F025C103F010ECDF
:10248C000DF000C022F101C023F102C024F103C001
:10249C0025F101011D5100083B6F1AEC09F000C039
:1024AC0004F001C005F002C006F003C007F022C121
:1024BC0000F023C101F024C102F025C103F010EC9F
:1024CC000DF000C035F101C036F102C037F103C088
:1024DC0038F135C122F136C123F137C124F138C1AD
:1024EC0025F135C100F036C101F037C102F038C119
:1024FC0003F07FEC04F081EC05F000C004F001C0A7
:10250C0005F002C006F003C007F035C100F036C17B
:10251C0001F037C102F038C103F0F5EC0CF0000EFD
:10252C00046E000E056E000E066E7E0E076E1AEC23
:10253C0005F0000ED8B0010E006E00521AE022C158
:10254C0000F023C101F024C102F025C103F0000EFC
:10255C00046E000E056E000E066E7E0E076E23ECEA
:10256C0001F000C022F101C023F102C024F103C02C
:10257C0025F122C100F023C101F024C102F025C1D4
:10258C0003F07FEC04F001011D51010F096E0A6A82
:10259C00000E0A2209C004F00AC005F0000E0ABEA3
:1025AC00FF0E066E076E04360490053606360736A7
:1025BC0004360490053606360736E60E0424F66E0D
:1025CC004A0E0520F76E000E0620F86E0900F5CFB6
:1025DC0005F00900F5CF06F00900F5CF07F009006A
:1025EC00F5CF08F00850035C08E10750025C05E1E8
:1025FC000650015C02E10550005C1EE3010122C1A2
:10260C0000F023C101F024C102F025C103F0CD0E6E
:10261C00046ECC0E056E4C0E066E7B0E076E33EC04
:10262C0003F000C022F101C023F102C024F103C069
:10263C0025F1264B272B5AD022C100F023C101F0E3
:10264C0024C102F025C103F07FEC04F01DC104F09D
:10265C00000E056E066E076E0436049005360636BF
:10266C00073604360490053606360736E60E042483
:10267C00F66E4A0E0520F76E000E0620F86E090065
:10268C00F5CF05F00900F5CF06F00900F5CF07F0FE
:10269C000900F5CF08F00850035C08E10750025C14
:1026AC0005E10650015C02E10550005C1FE20101EE
:1026BC0022C100F023C101F024C102F025C103F0B6
:1026CC00000E046E000E056E200E066E820E076E56
:1026DC0033EC03F000C022F101C023F102C024F15D
:1026EC0003C025F1010E265F000E275B010121A31B
:1026FC0093D021B791D0800E000A006E800E1C1969
:10270C00005C02E11B510A0804E20A0E1B6F000E6A
:10271C001C6F22C100F023C101F024C102F025C1BD
:10272C0003F07FEC04F000C028F101C029F102C0D5
:10273C002AF103C02BF1285129112A112B1142E047
:10274C000A0E046E000E056E066E076E28C100F0B0
:10275C0029C101F02AC102F02BC103F00AEC06F0EA
:10276C0008C000F009C001F00AC002F00BC003F071
:10277C00000E046E031808E10450021805E1045021
:10278C00011802E10050000A1DE1010E1B5F000E52
:10279C001C5B0A0E046E000E056E066E076E28C1D9
:1027AC0000F029C101F02AC102F02BC103F00AECA0
:1027BC0006F000C028F101C029F102C02AF103C0C3
:1027CC002BF1B9D7800E1C19006E800E005C02E153
:1027DC001D511B5D21E21B511D5D3B6F1AEC09F075
:1027EC0000C004F001C005F002C006F003C007F001
:1027FC0022C100F023C101F024C102F025C103F075
:10280C0010EC0DF000C022F101C023F102C024F144
:10281C0003C025F11BC11DF1050E01011B25006E26
:10282C00000E1C21016E00501E5F01501F5B1B51DE
:10283C001C1103E121B701D004D0010E1E5F000E64
:10284C001F5B030E2015006E21C101F0000E011656
:10285C000050011004E0010E1E5F000E1F5B20A54E
:10286C0039D020A312D020A103D02D0E006E02D09F
:10287C002B0E006E14C1E1FF15C1E2FF00C0E6FF94
:10288C00144B152B334B342B0CD020A10AD014C174
:10289C00E1FF15C1E2FF200EE66E144B152B334BF6
:1028AC00342B800E006E800E1F19005C02E11E514D
:1028BC0000080FE214C1E1FF15C1E2FF300EE66E15
:1028CC00144B152B334B342B010E1E5F000E1F5B6C
:1028DC00E8D73AD020B718D0800E006E800E1F19A2
:1028EC00005C02E11E5100080FE214C1E1FF15C1AA
:1028FC00E2FF200EE66E144B152B334B342B010EDE
:10290C001E5F000E1F5BE8D720A312D020A103D0BE
:10291C002D0E006E02D02B0E006E14C1E1FF15C1FE
:10292C00E2FF00C0E6FF144B152B334B342B0CD0BD
:10293C0020A10AD014C1E1FF15C1E2FF200EE66E02
:10294C00144B152B334B342B22C100F023C101F057
:10295C0024C102F025C103F07FEC04F000C028F183
:10296C0001C029F102C02AF103C02BF11DC100F0F6
:10297C00000E016E026E036E0036009001360236B8
:10298C00033600360090013602360336E60E00247C
:10299C00F66E4A0E0120F76E000E0220F86E09004A
:1029AC00F5CF04F00900F5CF05F00900F5CF06F0DE
:1029BC000900F5CF07F028C100F029C101F02AC1A8
:1029CC0002F02BC103F00AEC06F0300E002614C105
:1029DC00E1FF15C1E2FF00C0E6FF144B152B334B92
:1029EC00342B1B511C1103E121B701D06FD014C142
:1029FC00E1FF15C1E2FF2E0EE66E144B152B334B87
:102A0C00342B1D511B5F000E1C5B1D534DE01D072D
:102A1C001DC100F0000E016E026E036E00360090B8
:102A2C000136023603360036009001360236033684
:102A3C00E60E0024F66E4A0E0120F76E000E022000
:102A4C00F86E0900F5CF04F00900F5CF05F0090088
:102A5C00F5CF06F00900F5CF07F028C100F029C129
:102A6C0001F02AC102F02BC103F00AEC06F00A0EA9
:102A7C00046E000E056E066E076E0AEC06F008C0BA
:102A8C0000F009C001F00AC002F00BC003F0300ED8
:102A9C00002614C1E1FF15C1E2FF00C0E6FF144B94
:102AAC00152B334B342BB1D71B511C110FE014C118
:102ABC00E1FF15C1E2FF300EE66E144B152B334BC4
:102ACC00342B010E1B5F000E1C5BEED720AB0BD022
:102ADC0014C1E1FF15C1E2FF450EE66E144B152B38
:102AEC00334B342B0AD014C1E1FF15C1E2FF650E44
:102AFC00E66E144B152B334B342B800E2719006EBE
:102B0C00800E005C02E1000E265D11E226510008E9
:102B1C00266F2751000E275714C1E1FF15C1E2FFA4
:102B2C002D0EE66E144B152B334B342B0AD014C1DF
:102B3C00E1FF15C1E2FF2B0EE66E144B152B334B48
:102B4C00342B0A0E046E000E056E26C100F027C150
:102B5C0001F091EC0CF0300E002614C1E1FF15C110
:102B6C00E2FF00C0E6FF0101144B152B334B342B55
:102B7C000A0E046E000E056E26C100F027C101F08E
:102B8C0091EC0CF008C000F009C001F0300E0026EA
:102B9C0014C1E1FF15C1E2FF00C0E6FF0101144BB7
:102BAC00152B334B342B20A71AD0800E006E800EC1
:102BBC001F19005C02E11E51000811E214C1E1FF73
:102BCC0015C1E2FF200EE66E144B152B334B342B44
:102BDC00010E1E5F000E1F5B1E511F11EFE10BEF6C
:102BEC000EF021A3F3D0800E2719006E800E005C2E
:102BFC0002E1000E265D0AE2010E265D006E000E5B
:102C0C002759016E00501B5F01501C5B22C100F064
:102C1C0023C101F024C102F025C103F07FEC04F0C4
:102C2C0000C028F101C029F102C02AF103C02BF128
:102C3C00010E1D6F1D510A0A34E01DC100F0000E7B
:102C4C00016E026E036E00360090013602360336BA
:102C5C0000360090013602360336E60E0024F66E7E
:102C6C004A0E0120F76E000E0220F86E0900F5CF17
:102C7C0001F00900F5CF02F00900F5CF03F00900CF
:102C8C00F5CF04F004502B5D08E103502A5D05E1FB
:102C9C000250295D02E10150285D01E202D01D2B9A
:102CAC00C9D71D511B5D396F000E1C593A6F39C1C4
:102CBC001BF13AC11CF128C100F029C101F02AC155
:102CCC0002F02BC103F081EC05F000C004F001C050
:102CDC0005F002C006F003C007F022C100F023C1CA
:102CEC0001F024C102F025C103F0F5EC0CF000C09A
:102CFC0035F101C036F102C037F103C038F139C1EA
:102D0C003BF11AEC09F035C104F036C105F037C1BE
:102D1C0006F038C107F033EC03F0000E046E000E21
:102D2C00056E000E066E7E0E076E23EC01F07FEC36
:102D3C0004F000C028F101C029F102C02AF103C03F
:102D4C002BF11B511C1142E00A0E046E000E056E95
:102D5C00066E076E28C100F029C101F02AC102F0ED
:102D6C002BC103F00AEC06F008C000F009C001F01A
:102D7C000AC002F00BC003F0000E046E031808E149
:102D8C000450021805E10450011802E10050000A39
:102D9C001DE10A0E046E000E056E066E076E28C14C
:102DAC0000F029C101F02AC102F02BC103F00AEC9A
:102DBC0006F000C028F101C029F102C02AF103C0BD
:102DCC002BF1010E1B5F000E1C5BBBD7800E006E3F
:102DDC00800E1C19005C02E11B510C0816E31BC190
:102DEC003BF180EC07F022C104F023C105F024C1B3
:102DFC0006F025C107F023EC01F000C022F101C060
:102E0C0023F102C024F103C025F122C100F023C13B
:102E1C0001F024C102F025C103F0046A056A066AB8
:102E2C00076AF9EC0CF0000ED8A4010E006E0052EB
:102E3C00D8B477D022C100F023C101F024C102F034
:102E4C0025C103F07FEC04F0000E046E031808E1BA
:102E5C000450021805E10450011802E10050000A68
:102E6C0060E1800E006E800E2719005C02E1265195
:102E7C00010857E226C13BF11AEC09F000C004F03E
:102E8C0001C005F002C006F003C007F022C100F03B
:102E9C0023C101F024C102F025C103F010EC0DF0A8
:102EAC005F0E046E700E056E090E066E810E076EB7
:102EBC001AEC05F0010ED8B0000E006E005206E0C0
:102ECC00090E0101265F000E275B05D00101080EDB
:102EDC00265F000E275B26C13BF11AEC09F000C0FF
:102EEC0004F001C005F002C006F003C007F022C1D7
:102EFC0000F023C101F024C102F025C103F010EC55
:102F0C000DF07FEC04F000C028F101C029F102C0E3
:102F1C002AF103C02BF10101226B236B246B256B6F
:102F2C0038D022C100F023C101F024C102F025C128
:102F3C0003F07FEC04F000C028F101C029F102C0BD
:102F4C002AF103C02BF128C100F029C101F02AC1DC
:102F5C0002F02BC103F081EC05F000C004F001C0BD
:102F6C0005F002C006F003C007F022C100F023C137
:102F7C0001F024C102F025C103F0F5EC0CF000C007
:102F8C0022F101C023F102C024F103C025F1266B0C
:102F9C00276B010E1D6F1D510A0A34E01DC100F094
:102FAC00000E016E026E036E003600900136023682
:102FBC00033600360090013602360336E60E002446
:102FCC00F66E4A0E0120F76E000E0220F86E090014
:102FDC00F5CF01F00900F5CF02F00900F5CF03F0B1
:102FEC000900F5CF04F004502B5D08E103502A5D75
:102FFC0005E10250295D02E10150285D01E202D099
:10300C001D2BC9D71D511B25006E000E1C21016EF6
:10301C00265100262751012200501E5F01501F5BD4
:10302C0021B704D01B511C1101E104D0010E1E5F0D
:10303C00000E1F5B030E2015006E21C101F0000E67
:10304C0001160050011004E0010E1E5F000E1F5B04
:10305C0020A539D020A312D020A103D02D0E006EB4
:10306C0002D02B0E006E14C1E1FF15C1E2FF00C0AF
:10307C00E6FF144B152B334B342B0CD020A10AD06C
:10308C0014C1E1FF15C1E2FF200EE66E144B152BA7
:10309C00334B342B800E006E800E1F19005C02E146
:1030AC001E5100080FE214C1E1FF15C1E2FF300E02
:1030BC00E66E144B152B334B342B010E1E5F000E9A
:1030CC001F5BE8D73AD020B718D0800E006E800E68
:1030DC001F19005C02E11E5100080FE214C1E1FF50
:1030EC0015C1E2FF200EE66E144B152B334B342B1F
:1030FC00010E1E5F000E1F5BE8D720A312D020A18B
:10310C0003D02D0E006E02D02B0E006E14C1E1FF09
:10311C0015C1E2FF00C0E6FF144B152B334B342BCB
:10312C000CD020A10AD014C1E1FF15C1E2FF200E82
:10313C00E66E144B152B334B342B1DC100F01D07C1
:10314C0000524CE01DC100F0000E016E026E036EC9
:10315C0000360090013602360336003600900136F8
:10316C0002360336E60E0024F66E4A0E0120F76E88
:10317C00000E0220F86E0900F5CF04F00900F5CF1F
:10318C0005F00900F5CF06F00900F5CF07F028C1CE
:10319C0000F029C101F02AC102F02BC103F00AECA6
:1031AC0006F00A0E046E000E056E066E076E0AEC33
:1031BC0006F008C000F009C001F00AC002F00BC014
:1031CC0003F0300E002614C1E1FF15C1E2FF00C070
:1031DC00E6FF144B152B334B342BAFD7800E006E00
:1031EC00800E2719005C02E1265100080FE214C181
:1031FC00E1FF15C1E2FF300EE66E144B152B334B7D
:10320C00342B010E265F000E275BE8D7800E000AD8
:10321C00006E800E1C19005C02E11B51080803E2D1
:10322C00080E1D6F02D01BC11DF11D511B5F000E3E
:10323C001C5B1D5303E121B701D00AD014C1E1FF7F
:10324C0015C1E2FF2E0EE66E144B152B334B342BAF
:10325C001DC13BF11AEC09F022C104F023C105F0A9
:10326C0024C106F025C107F033EC03F0F8EC0BF0A9
:10327C0000C028F101C029F102C02AF103C02BF1D2
:10328C001D534DE01D071DC100F0000E016E026EB6
:10329C00036E00360090013602360336003600907D
:1032AC00013602360336E60E0024F66E4A0E012075
:1032BC00F76E000E0220F86E0900F5CF04F009003D
:1032CC00F5CF05F00900F5CF06F00900F5CF07F0B2
:1032DC0028C100F029C101F02AC102F02BC103F072
:1032EC000AEC06F00A0E046E000E056E066E076EF2
:1032FC000AEC06F008C000F009C001F00AC002F0A8
:10330C000BC003F0300E002614C1E1FF15C1E2FF23
:10331C0000C0E6FF144B152B334B342BB1D71B518C
:10332C001C110FE014C1E1FF15C1E2FF300EE66E77
:10333C00144B152B334B342B010E1B5F000E1C5BF7
:10334C00EED720A71AD0800E006E800E1F19005CDD
:10335C0002E11E51000811E214C1E1FF15C1E2FFA8
:10336C00200EE66E144B152B334B342B010E1E5FC7
:10337C00000E1F5B1E511F11EFE10BEF0EF0C00E84
:10338C002015016E21C102F0000E0216000E02186B
:10339C0002E1000E0118D8A47CD020A927D019C1B5
:1033AC00E9FF1AC1EAFFEECF00F0EECF01F000C04A
:1033BC00E9FF01C0EAFFEECF28F1EECF29F1EECF05
:1033CC002AF1EECF2BF119C1E9FF1AC1EAFF040E65
:1033DC00EE24006E000EEE20016E19C1E1FF1AC141
:1033EC00E2FF00C0E6FF01C0E6FF2BD019C1E9FFE8
:1033FC001AC1EAFFEECF00F0EECF01F000C0E9FFFA
:10340C0001C0EAFFEECF00F0EECF01F000C028F1D2
:10341C0001C029F1000E01BEFF0E2A6F2B6F19C1DE
:10342C00E9FF1AC1EAFF020EEE24006E000EEE2038
:10343C00016E19C1E1FF1AC1E2FF00C0E6FF01C035
:10344C00E6FF800E2B19006E800E005C08E1000E6A
:10345C002A5D05E1000E295D02E1000E285D18E2EF
:10346C00030E2013000E2113006A016A026A036A1C
:10347C002851005E2951015A2A51025A2B51035AE4
:10348C0000C028F101C029F102C02AF103C02BF1C0
:10349C004ED020A927D019C1E9FF1AC1EAFFEECFFF
:1034AC0000F0EECF01F000C0E9FF01C0EAFFEECF63
:1034BC0028F1EECF29F1EECF2AF1EECF2BF119C185
:1034CC00E9FF1AC1EAFF040EEE24006E000EEE2096
:1034DC00016E19C1E1FF1AC1E2FF00C0E6FF01C095
:1034EC00E6FF25D019C1E9FF1AC1EAFFEECF00F0C3
:1034FC00EECF01F000C0E9FF01C0EAFFEECF28F1EA
:10350C00EECF29F1000E2A6F2B6F19C1E9FF1AC1FA
:10351C00EAFF020EEE24006E000EEE20016E19C1C1
:10352C00E1FF1AC1E2FF00C0E6FF01C0E6FF000E9A
:10353C001C1902E1000E1B190FE1000E006E2B1975
:10354C0008E100502A1905E10050291902E128511F
:10355C00000A02E11B4B1C2BC00E2015006E00C094
:10356C0005F0AED0010E1D6F1D510A0A34E01DC1CD
:10357C0000F0000E016E026E036E003600900136F4
:10358C000236033600360090013602360336E60E5C
:10359C000024F66E4A0E0120F76E000E0220F86E23
:1035AC000900F5CF01F00900F5CF02F00900F5CFC5
:1035BC0003F00900F5CF04F004502B5D08E1035033
:1035CC002A5D05E10250295D02E10150285D01E20E
:1035DC0002D01D2BC9D782D0010E1D6F1D51080AB8
:1035EC0034E01DC100F0000E016E026E036E003659
:1035FC000090013602360336003600900136023652
:10360C0003360E0E0024F66E4B0E0120F76E000EE4
:10361C000220F86E0900F5CF01F00900F5CF02F099
:10362C000900F5CF03F00900F5CF04F004502B5D31
:10363C0008E103502A5D05E10250295D02E10150C9
:10364C00285D01E202D01D2BC9D748D0010E1D6F99
:10365C001D510C0A34E01DC100F0000E016E026E0B
:10366C00036E0036009001360236033600360090A9
:10367C00013602360336B60E0024F66E4A0E0120D1
:10368C00F76E000E0220F86E0900F5CF01F009006C
:10369C00F5CF02F00900F5CF03F00900F5CF04F0E7
:1036AC0004502B5D08E103502A5D05E10250295DB1
:1036BC0002E10150285D01E202D01D2BC9D70ED0CA
:1036CC000550000AD8B44ED70550C00AD8B44AD712
:1036DC000550800A81E00550400AB8E0800E006E6B
:1036EC00800E1C19005C02E11B511D5D03E21BC125
:1036FC001DF10DD0800E1C19006E800E005C02E1D5
:10370C001D511B5D04E21DC11BF1000E1C6F1E51EF
:10371C001F110EE0030E2015006E21C101F0000EEA
:10372C0001160050011004E0010E1E5F000E1F5B1D
:10373C00800E1C19006E800E1F19005C02E11E51D8
:10374C001B5D05E21B511E5F1C511F5B02D01E6BE3
:10375C001F6BC40E2015016E2151080B026E025016
:10376C00080A02E1400E011808E11E511F1104E085
:10377C00010E1E5F000E1F5B1CD0C00E2015016ECB
:10378C002151080B026E0250080A02E1800E01184A
:10379C0010E1800E006E800E1F19005C02E11E51BC
:1037AC00020805E2020E1E5F000E1F5B02D01E6BAC
:1037BC001F6B20A55DD020A312D020A103D02D0E0D
:1037CC00006E02D02B0E006E14C1E1FF15C1E2FF9A
:1037DC0000C0E6FF144B152B334B342B34D020A1F7
:1037EC000BD014C1E1FF15C1E2FF200EE66E144BA5
:1037FC00152B334B342B27D0C00E2015016E2151C5
:10380C00080B026E0250080A02E1800E01181BE13F
:10381C0014C1E1FF15C1E2FF300EE66E144B152BFF
:10382C00334B342B20AB03D0580E006E02D0780EE5
:10383C00006E14C1E1FF15C1E2FF00C0E6FF144B9E
:10384C00152B334B342B1E511F1111E014C1E1FF0A
:10385C0015C1E2FF300EE66E144B152B334B342B97
:10386C00010E1E5F000E1F5B1E511F11EFE174D085
:10387C001E511F1113E020B711D014C1E1FF15C167
:10388C00E2FF200EE66E144B152B334B342B010E3E
:10389C001E5F000E1F5B1E511F11EFE120A312D003
:1038AC0020A103D02D0E006E02D02B0E006E14C181
:1038BC00E1FF15C1E2FF00C0E6FF144B152B334BA3
:1038CC00342B0CD020A10AD014C1E1FF15C1E2FFAA
:1038DC00200EE66E144B152B334B342BC00E2015DB
:1038EC00016E2151080B026E0250080A02E1400ED3
:1038FC0001180BE114C1E1FF15C1E2FF300EE66EB9
:10390C00144B152B334B342B27D0C00E2015016EC6
:10391C002151080B026E0250080A02E1800E0118B8
:10392C001BE114C1E1FF15C1E2FF300EE66E144B32
:10393C00152B334B342B20AB03D0580E006E02D01A
:10394C00780E006E14C1E1FF15C1E2FF00C0E6FF66
:10395C00144B152B334B342B800E006E800E1C1920
:10396C00005C02E11B511D5D0BE214C1E1FF15C1AE
:10397C00E2FF300EE66E144B152B334B342BECD789
:10398C001BC100F01CC101F0010E1B5F000E1C5B83
:10399C0000500110D8B42AD1C00E2015006E00C002
:1039AC0035F10AD11BC100F01CC101F0000E1CBF87
:1039BC00FF0E026E036E003600900136023603369F
:1039CC0000360090013602360336E60E0024F66E01
:1039DC004A0E0120F76E000E0220F86E0900F5CF9A
:1039EC0004F00900F5CF05F00900F5CF06F0090049
:1039FC00F5CF07F028C100F029C101F02AC102F06F
:103A0C002BC103F00AEC06F00A0E046E000E056ED4
:103A1C00066E076E0AEC06F008C000F009C001F053
:103A2C000AC002F00BC003F0300E00241D6FD3D07F
:103A3C0020AB45D01BC100F01CC101F0000E1CBF17
:103A4C00FF0E026E036E003600900136023603360E
:103A5C00003600900136023603360E0E0024F66E48
:103A6C004B0E0120F76E000E0220F86E0900F5CF08
:103A7C0004F00900F5CF05F00900F5CF06F00900B8
:103A8C00F5CF07F028C100F029C101F02AC102F0DE
:103A9C002BC103F00AEC06F00F0E0016000E0116F7
:103AAC00021603163F0E0024F66E4B0E0120F76E25
:103ABC00000E0220F86E0900F5CF1DF144D01BC199
:103ACC0000F01CC101F0000E1CBFFF0E026E036E55
:103ADC00003600900136023603360036009001366F
:103AEC00023603360E0E0024F66E4B0E0120F76ED6
:103AFC00000E0220F86E0900F5CF04F00900F5CF96
:103B0C0005F00900F5CF06F00900F5CF07F028C144
:103B1C0000F029C101F02AC102F02BC103F00AEC1C
:103B2C0006F00F0E0016000E0116021603162E0ECE
:103B3C000024F66E4B0E0120F76E000E0220F86E7C
:103B4C000900F5CF1DF147D01BC100F01CC101F0DD
:103B5C00000E1CBFFF0E026E036E00360090013685
:103B6C000236033600360090013602360336B60EA6
:103B7C000024F66E4A0E0120F76E000E0220F86E3D
:103B8C000900F5CF04F00900F5CF05F00900F5CFD9
:103B9C0006F00900F5CF07F028C100F029C101F0AB
:103BAC002AC102F02BC103F00AEC06F0070E001438
:103BBC001D6F300E1D270FD03551000AD8B4F2D628
:103BCC003551C00AD8B4EED63551800AD8B430D7A6
:103BDC003551400AB9E014C1E1FF15C1E2FF1DC126
:103BEC00E6FF144B152B334B342BCAD620A71AD017
:103BFC00800E006E800E1F19005C02E11E51000841
:103C0C0011E214C1E1FF15C1E2FF200EE66E144B68
:103C1C00152B334B342B010E1E5F000E1F5B1E51F8
:103C2C001F11EFE10BEF0EF033C100F034C101F0C6
:023C3C00120074
:103C3E000C6A0E6A0250D8A438EF1EF001C002F0D2
:103C4E0000C001F0006A0E860250D8A438EF1EF0B4
:103C5E0001C002F0016A0E960E880250D8B44AEFE7
:103C6E001EF00E50035ED8A4D8A050EF1EF0D890D0
:103C7E0002BE56EF1EF0003601360236032E3FEF1F
:103C8E001EF050EF1EF0010E0C6E1AEC00F05AEF03
:103C9E001EF0020E0C6E21EC00F05AEF1EF0040E18
:083CAE000C6E2EEC00F0120078
:0E3CB600ACB202D00000FCD714C1ADFF12006A
:103CC4000101146B156B1551120802E114518E0891
:103CD40009E372EC04F0005201E004D00101144B3A
:103CE400152BF1D70101120E155D02E18F0E145D43
:103CF40003E37B0E006E1200C580C5A001D0FDD782
:043D0400006A12003F
:0A3D0800000E9EBA010E006E1200BC
:103D12000101186B050E185D0AE218511625E16EB5
:103D2200000E1721E26E200EE66E182BF3D7185103
:103D32001625E16E000E1721E26EE66A1807185189
:103D42001625196F000E17211A6F0A0E046E000E47
:103D5200056E14C100F015C101F0FFEC08F008C0B7
:103D620000F009C001F0300E002619C1E1FF1AC1AE
:103D7200E2FF00C0E6FF0A0E046E000E056E14C1DB
:103D820000F015C101F0FFEC08F000C014F101C011
:103D920015F1000E011802E1000E001801E102D037
:063DA2001807CDD7120046
:103DA8009E96C5869EB601D0FDD7C9CF01F0010108
:103DB8001451000A02E1C58A01D0C59A9E96C588A9
:0C3DC8009EB601D0FDD701C000F0120033
:0A3DD400C582C5A201D0FDD7120080
:103DDE000C0E0101126F010E136F07C114F108C111
:103DEE0015F109C116F10AC117F10BC118F1120E26
:103DFE00196F010E1A6F06EC0EF000C010F101C023
:103E0E0011F100500725E16E01500821E26EE66ABD
:0A3E1E0010C100F011C101F0120004
:103E280010D0800E0101076F1AD0C00E076F17D08F
:103E3800940E076F14D0D40E076F11D0800E076F41
:103E48000ED001010751010AECE00751020AEDE02A
:103E58000751030AEDE00751040AEDE0EFD7080522
:103E6800006E0751002600C007F100C03BF1A0EC2E
:103E780005F0DB9101010B6B0B510925E96E000E72
:103E88000A21EA6EEE520DE00B510925E96E000E8B
:103E98000A21EA6EEECF14F1EAEC0DF001010B2BCA
:083EA800EBD70001DB811200E1
:103EB00009DFD00E146FD0EC0DF007C114F1D0EC77
:103EC0000DF088DFD10E0101146FD0EC0DF001016F
:103ED000146B6ADF00C009F1000E01010A6FCEEC1D
:0C3EE0000DF009C100F00AC101F0120051
:103EEC0007C1E9FF08C1EAFFEECF09F1000E01019D
:103EFC000A6F000E0A6F000E0A1902E1200E091952
:103F0C0007E0000E0A1902E1090E091901E003D0BD
:103F1C00074B082BE5D70B6B0C6B0D6B0E6B000E68
:103F2C000A1902E12D0E091905E10D4B0E2B074B59
:103F3C00082B08D0000E0A1902E12B0E091902E118
:103F4C00074B082B07C1E9FF08C1EAFFEECF09F1C7
:103F5C00000E0A6F000E0A6F09C13BF194EC05F0DC
:103F6C00005219E00BC100F00CC101F00A0E046EF6
:103F7C00000E056EE2EC05F0300E095D026E000ECF
:103F8C000A59036E025000240B6F035001200C6F72
:103F9C00074B082BD7D70D510E1108E00B51000819
:103FAC00006E0CC101F0000E015612000BC100F0A6
:063FBC000CC101F012002F
:103FC20001010D6B0E6B07C10FF108C110F1800EDC
:103FD2000819006E800E005C02E1000E075D0BE224
:103FE200010E0D6F000E0E6F075100080F6F08C112
:103FF20010F1000E10570FC114F110C115F109C1D3
:1040020016F10AC117F184DE060E0B6F000E0C6F5B
:10401200000E006E0C51005C02E10B51000819E227
:104022000B510925E16E0C510A21E26E010E0B5D66
:10403200006E000E0C59016E00500925E96E015008
:104042000A21EA6EEECFE6FF010E0B5F000E0C5B5B
:10405200DFD709C1E1FF0AC1E2FF200EE66E0D5172
:104062000E111AE00B6B0C6B0B510925E96E0C510A
:104072000A21EA6EEE50200A03E10B4B0C2BF4D717
:10408200010E0B5F000E0C5B0B510925E16E0C510A
:0A4092000A21E26E2D0EE66E120008
:10409C0007C1E9FF08C1EAFFEECF03F0F00E0314ED
:1040AC00026E02C000F00032009E0032009E003210
:1040BC00009E0032009E0A0E0002F3CF01F00F0E9C
:1040CC000314006E07C1E1FF08C1E2FF0050012498
:1040DC00E66E09C1E9FF0AC1EAFFEECF03F0F00E6C
:1040EC000314026E02C000F00032009E0032009EEB
:1040FC000032009E0032009E0A0E0002F3CF01F047
:10410C000F0E0314006E09C1E1FF0AC1E2FF00505B
:10411C000124E66E0BC1E9FF0CC1EAFFEECF03F000
:10412C00F00E0314026E02C000F00032009E00324A
:10413C00009E0032009E0032009E0A0E0002F3CF59
:10414C0001F00F0E0314006E0BC1E1FF0CC1E2FF76
:08415C0000500124E66E120080
:104164000B6A0C6A0A6A0350D8B4E7EF20F00A9E7F
:10417400028E860E035E03BEC5EF20F0D8B4C5EFF1
:1041840020F0EAEF20F0036C080E035CD8A0D3EF14
:1041940020F0036E0236026A0350D8A4D890DCEFF4
:1041A40020F00350D8B4DCEF20F0D8900232032E74
:1041B400D7EF20F00BBC02A0E7EF20F0D8A0E7EF88
:1041C40020F0022AD8B4F1EF20F0016AF7EF20F0D2
:1041D4000B800BAEFBEF20F0016AFBEF20F0010E29
:1041E4000C6E38EC04F0FDEF20F0000E0C6EFDEFC9
:0C41F40020F0FF0E0C6E0250006E120056
:104200000101076B086B800E0819006E800E005CC0
:1042100002E1010E075D0AE21C0E3B6FA0EC05F007
:10422000F8EC0DF00101074B082BEDD7076B086B7D
:10423000800E0819006E800E005C02E1010E075D21
:104240000AE2180E3B6FA0EC05F0F8EC0DF001014E
:08425000074B082BEDD712000B
:10425800C26A070EC012C08E07C100F00036009077
:10426800003600900050C212C280F2EC0DF0C282FB
:10427800C2A201D0FDD7C4CF01F0006AC35000121A
:08428800000E0112C2901200A9
:104290000050086E0150006E016A026A036A0B6AE0
:1042A0000C6A960E036E0A6A00C001F008C000F0A6
:0842B000086A026AC4DC120076
:1042B80001010D6B0E6B0B5343E00B51FF0A01E03C
:1042C8000B071EDD0050000A01E1FBD7E1EC0DF001
:1042D80000C00CF101010D510725E16E000E082107
:1042E800E26E00C0E6FF0D2B0E510925E96E000EA7
:1042F8000A21EA6EEE500C1902E10E2B09D00E6B62
:1043080009C1E9FF0AC1EAFFEE500C1901E10E2BC1
:104318000E510925E96E000E0A21EA6EEE50000AD8
:104328000EE10E510D5D006E016A000E015A00503B
:104338000725E16E01500821E26EE66A1200BBD73C
:0C43480007C1E1FF08C1E2FFE66A1200B5
:10435400949894968B988B9694889486C79EC79CC1
:06436400380EC66E1200C7
:10436A00969296909598959A959C959E849284900B
:10437A00839E839C839A839821EC04F021EC04F0B9
:10438A0021EC04F0838A838884822CEC04F08492E2
:10439A0021EC04F084822CEC04F0849221EC04F0E9
:1043AA0084822CEC04F0849221EC04F083988482B9
:1043BA002CEC04F0849221EC04F084822CEC04F0BE
:1043CA008492839A838E84822CEC04F0849221EC6A
:1043DA0004F0839E838884822CEC04F08492839870
:1043EA0084822CEC04F0849221EC04F084822CEC7C
:1043FA0004F08492838884822CEC04F0849221EC69
:10440A0004F0839884822CEC04F08492838E838C4B
:10441A00838A838884822CEC04F0849221EC04F051
:06442A000001DB8112001D
:104430000900F5CFE6FF0006FBE10106F9E11200F5
:10444000B60E0001D76F3C0ED86F140ED96F010E57
:10445000DA6FC20ED36F1B0ED46F000ED56F000E35
:10446000D66F080EE16F3D0EE26F000EE36F000E97
:10447000E46FFF0EDD6FFF0EDE6F000EDF6F000ECC
:10448000E06FAC8A900EAB6E948E949C9EAA03D083
:08449000AECF00F0FBD71200D3
:10449800400E01013B6FA0EC05F00101076B0751CD
:1044A800070813E36A0E0725F66E4B0EF76E000E2B
:1044B800F722000EF86E000EF8220900F5CF14F16D
:1044C800EAEC0DF00101072BEAD7076B0751070843
:1044D80013E3720E0725F66E4B0EF76E000EF722E9
:1044E800000EF86E000EF8220900F5CF14F1EAEC80
:1044F8000DF00101072BEAD7020E3B6FA0EC05F087
:0245080012009F
:10450A000D0E0101146F5BEC1EF00A0E0101146F0F
:06451A005BEC1EF0120034
:1045200062EC1EF0A00E146FD0EC0DF007C114F178
:10453000D0EC0DF04FDCA10E0101146FD0EC0DF0AA
:104540000101146B31DC00C009F1000E01010A6F9A
:0E455000CEEC0DF009C100F00AC101F012001E
:10455E0062EC1EF0A00E146FD0EC0DF007C114F13A
:10456E00D0EC0DF009C114F1D0EC0DF0CEEC0DF045
:10457E001A0E0C6EF80E0D6E0D2EFED70C2EFCD7ED
:04458E000000120017
:1045920001010A6B07C1E9FF08C1EAFFEECF09F189
:1045A2000951000A0FE009C114F15BEC1EF0010190
:1045B2000A2B0A510725E96E000E0821EA6EEECF9A
:0645C20009F1EED7120022
:1045C800BDEC25F0190EAF6EAC8436DF140EC86E44
:1045D800BDDE0E0EC16E0F0E936E816AC2DE0C0E2A
:1045E80001013B6FA0EC05F053DF8150040A23E181
:1045F8000101076B086BFF0E096F000E0A6FABDF36
:10460800010E0101076F000E086FFF0E096F000E03
:104618000A6FA1DF020E0101076F000E086FFF0E7F
:10462800096F000E0A6F97DF5E0E0101076F000E1B
:10463800086FABDF66DF0101076B086B6DDF000EEB
:10464800011802E1FF0E001817E0010E076F000EB7
:10465800086F62DF000E011802E1FF0E00180CE07F
:10466800020E076F000E086F57DF000E011802E1F7
:10467800FF0E001801E090D0430E076F000E086F80
:1046880084DF84EC1EF00050010A01E0FAD7AE0E78
:10469800076F000E086F870E096F000E0A6F200E55
:1046A8000B6F06DEAE0E076F000E086F6EDF29DF98
:1046B800AE0E0101076F000E086F14DC00C0CFF0CA
:1046C80001C0D0F0076B086B00C009F101C00AF106
:1046D80042DF730E0101076F000E086F56DF84EC8E
:1046E8001EF00050010A01E0FAD78B0E076F000E8A
:1046F800086F870E096F000E0A6F200E0B6FD8DD4A
:104708008B0E076F000E086F40DFFBDE8B0E01017A
:10471800076F000E086F76EC1FF000C089F001C02B
:104728008AF0010E076F000E086F00C009F101C082
:104738000AF111DF150E0101076F000E086F25DF62
:1047480084EC1EF00050010A01E0FAD78B0E076FC7
:10475800000E086F870E096F000E0A6F200E0B6F90
:10476800A7DD8B0E076F000E086F0FDFCADE8B0EFA
:104778000101076F000E086F76EC1FF000C0ACF067
:1047880001C0ADF0020E076F000E086F00C009F1FE
:1047980001C00AF1E0DE23D00101076B086BBCDE23
:1047A80000C0CFF001C0D0F000C007F101C008F18F
:1047B800AE0E096F000E0A6F00DC010E076F000EC7
:1047C800086FAADE00C089F001C08AF0020E076FE8
:1047D800000E086FA1DE00C0ACF001C0ADF0010111
:1047E800010E076F010E086F360E096F000E0A6F73
:1047F80014EC1FF0020E0101076F010E086F2B0E5B
:10480800096F000E0A6F14EC1FF0020E0101076F0A
:104818000D0E086FAE0E096F000E0A6F14EC1FF034
:104828000101146BEAEC0DF0430E0101146FEAEC80
:104838000DF00101076B086B58EC1FF000C0D1F0B8
:1048480001C0D2F0010E076F000E086F58EC1FF080
:1048580000C0FBF001C0FCF0020E076F000E086FED
:1048680058EC1FF000C0F9F001C0FAF0D10E076F44
:10487800000E086FFB0E096F000E0A6FF90E0B6F22
:10488800000E0C6F07DCE50E076F000E086F500E68
:10489800096F4B0E0A6F000E0B6FF9C00CF1FAC0CE
:1048A8000DF1FBC00EF1FCC00FF1EFEC1EF0040E91
:1048B800076F010E086FE50E096F000E0A6F14EC02
:1048C8001FF0E50E0101076F000E086F5D0E096FFE
:1048D8004B0E0A6F000E0B6F89C00CF18AC00DF1E8
:1048E800ACC00EF1ADC00FF1EFEC1EF0040E076F77
:1048F8000D0E086FE50E096F000E0A6F14EC1FF01D
:104908000101076BA5DC00C005F101C006F1BCDCA4
:10491800000E046E000E056E200E066E810E076EE8
:1049280033EC03F0000E046E000E056E000E066EEA
:10493800890E076E10EC0DF0000E046E000E056E69
:10494800480E066E850E076E33EC03F007DC00C0D8
:1049580004F100C007F1000E0101086FFD0E096F98
:10496800000E0A6FE1EC1FF0010E076F0D0E086FC5
:10497800FD0E096F000E0A6F14EC1FF00101146B95
:10498800EAEC0DF0430E0101146FEAEC0DF0800E15
:10499800006E800ED019005C03E1CF510101045D67
:1049A80016E3800E0001FA19006E800E8A19005C69
:1049B80002E18951F95D0BE3800EFC19006E800E4F
:1049C800AD19005C02E1AC51FB5D01E315DC31D7A8
:0249D800FFD707
:104B7A0010EE15F0740E006E010E016EDA0EF66E6E
:0E4B8A00490EF76E000EF86E18EC22F01200C5
:1049DA005155414C204F204D494E55544F204D4181
:0649EA0058494D4F0D007D
:0B49F00054454D502E204D41583A0018
:0D49FB0054454D502E20415455414C3A007A
:104A08005155414C20412054454D50455241545533
:0B4A18005241204D4158494D410D0016
:104A230041206D656D6F72696120666F69206C69E5
:054A33006D706121001F
:104A38005155414C204120484F5241204D41584941
:044A48004D410D00CF
:024A4C000D005B
:104A4E000000007FCDCC4C7B0AD723786F12037504
:104A5E0017B75171ACC5276EBD37066B95BF56673C
:104A6E0077CC2B645F700961FFE65B5D08E53C3C2B
:044A7E006042221B55
:104A82000000007F000020820000488500007A8834
:104A920000401C8C0050438F00247492809618961C
:104AA20020BC3E99286B6E9CF90215A0EC782DC1B2
:044AB200CAF249E219
:104AB60001000000080000004000000000020000A5
:104AC600001000000080000000000400000020002C
:104AD6000000000100000008000000400000000087
:104AE600010000000A00000064000000E803000066
:104AF60010270000A086010040420F008096980013
:084B060000E1F50500CA9A3B2D
:104B0E000100000010000000000100000010000075
:104B1E000000010000001000000000010000001065
:104B2E003031323334353637383961626364656615
:014B3E000076
:104B3F0030313233343536373839414243444546C4
:014B4F000065
:0D4B5000543A20253032643A25303264009A
:0D4B5D004D3A20253032643A253032640094
:084B6A0003030000000000003D
:084B7200010101010101010133
:020000040030CA
:0D000100021F1EFF8381FF0FC00FE00F40A4
:00000001FF
