:0400000097EF2FF057
:1000080000C022F001C021F002C020F003C01FF0A0
:1000180004C01EF005C01DF006C01CF007C01BF090
:1000280008C01AF009C019F00AC018F00BC017F080
:100038000CC016F00DC015F0E1CF27F0E2CF28F084
:10004800E9CF25F0EACF26F0F3CF23F0F4CF24F060
:10005800F2A203D087EC2EF0F29223C0F3FF24C063
:10006800F4FF22C000F021C001F020C002F01FC040
:1000780003F01EC004F01DC005F01CC006F01BC034
:1000880007F01AC008F019C009F018C00AF017C024
:100098000BF016C00CF015C00DF025C0E9FF26C006
:0C00A800EAFF27C0E1FF28C0E2FF1100C2
:0800B4000AAE029E000E1200CC
:1000BC000B820BAE68EF00F0036802680168006801
:0800CC000A360232FF0E120099
:0E00D400026A016A006A086A036A000E1200DE
:1000E2000B840BAE7CEF00F0010E036E026A016A14
:0A00F200006A0A360232FF0E120007
:1000FC000CB0C0EF00F00CA266EF01F00E6A000E1F
:10010C000264D7EF00F0F00E0214D8A4A2EF00F0B6
:10011C00023A01380F0B02260138F00B016E003841
:10012C000F0B01260038F00B006E08380F0B002661
:10013C000838F00B086E0E84D89002BEBBEF00F0AE
:10014C0008360036013602360E2A02BEBBEF00F02E
:10015C0008360036013602360E2A02BEBBEF00F01E
:10016C0008360036013602360E2A0E5003645CEF58
:10017C0001F0035E0BBC08AE61EF01F0D880800E7D
:10018C0008640030000E002201220222D8A061EF88
:10019C0001F0023201320032034A66EF01F061EFE6
:1001AC0001F001C002F000C001F008C000F0086AC4
:1001BC00000E0E8602640EEF01F0F00E0214D8A4AD
:1001CC00F6EF00F0023A01380F0B02260138F00B63
:1001DC00016E00380F0B01260038F00B006E0E84F8
:1001EC00D89002BEBBEF00F00036013602360E2A64
:1001FC0002BEBBEF00F00036013602360E2A02BEFC
:10020C00BBEF00F00036013602360E2ABBEF00F0D1
:10021C0001C002F000C001F0006A000E0E960E88BC
:10022C0002643BEF01F0F00E0214D8A426EF01F0AB
:10023C00023A01380F0B02260138F00B016E0E84C6
:10024C00D89002BEBBEF00F0013602360E2A02BE79
:10025C00BBEF00F0013602360E2A02BEBBEF00F0F7
:10026C00013602360E2ABBEF00F001C002F0016A23
:10027C00000E0E8602646BEF01F0F00E0214D8A48F
:10028C004AEF01F0023A0E84D89002BEBBEF00F0A8
:10029C0002360E2A02BEBBEF00F002360E2A02BE58
:1002AC00BBEF00F002360E2ABBEF00F0010E0C6E15
:1002BC0012DF6EEF01F0020E0C6EF6DE6EEF01F047
:1002CC00040E0C6EF5DE6EEF01F0080E0C6EFCDE0B
:0202DC0012000E
:0602DE0000000000120008
:1002E4000F0E0C6E470E0D6E0D2EFED70C2EFCD786
:0602F400000000001200F2
:0A02FA00210E0D6E0D2EFED712002E
:10030400025006180E6E086A096A0B6A03500764E5
:1003140075EF02F006500A6E068E028E03500B6EC5
:100324000750036E000E0B64C5EF01F00B50075E1F
:10033400D8B466EF02F0070E076434EF02F0075EEC
:1003440000C008F001C000F002C001F0026A074ECC
:1003540066EF02F0076409EF02F0075E00C008F0E0
:1003640001C000F0016A074E66EF02F00764E7EF90
:1003740001F0075E00C008F0006A074E66EF02F065
:100384000764CEEF01F00AC002F005C001F004C01A
:1003940000F0086A8FEF03F0030E0764D9EF01F051
:1003A400075E08380F0B086E074E66EF02F0D89010
:1003B4000832074E66EF02F0D8900832074E66EF17
:1003C40002F0D890083266EF02F0030E0764F8EFEB
:1003D40001F0075E08380F0B086E0038F00B082692
:1003E40000380F0B006E074E66EF02F0D890003213
:1003F4000832074E66EF02F0D89000320832074EFA
:1004040066EF02F0D8900032083266EF02F0030E75
:10041400076420EF02F0075E08380F0B086E0038FF
:10042400F00B082600380F0B006E0138F00B002685
:1004340001380F0B016E074E66EF02F0D8900132BF
:1004440000320832074E66EF02F0D89001320032D3
:100454000832074E66EF02F0D890013200320832BB
:1004640066EF02F0030E076451EF02F0075E0838EE
:100474000F0B086E0038F00B082600380F0B006EC7
:100484000138F00B002601380F0B016E0238F00B17
:10049400012602380F0B026E074E66EF02F0D89069
:1004A4000232013200320832074E66EF02F0D89071
:1004B4000232013200320832074E66EF02F0D89061
:1004C4000232013200320832096A000E0EAE5AEFCF
:1004D40003F0081E001E011E021E082A002201222B
:1004E40002225AEF03F00750D8A47BEF02F08FEFFB
:1004F40003F0096A02C00AF0028E068E0750035CFC
:10050400076ED8B44DEF03F0070E07641BEF03F03A
:10051400075E0450096E0550046E0650056E066AA7
:10052400074E4DEF03F0070E0764F0EF02F0075E8D
:100534000450096E0550046E056A074E4DEF03F032
:10054400070E0764CEEF02F0075E0450096E046ADA
:10055400074E4DEF03F0070E0764B5EF02F00AC033
:1005640002F08FEF03F0030E0764C0EF02F0075EA2
:1005740009380F0B096E074E4DEF03F0D89009327E
:10058400074E4DEF03F0D8900932074E4DEF03F0BC
:10059400D89009324DEF03F0030E0764DFEF02F049
:1005A400075E09380F0B096E0438F00B092604386E
:1005B4000F0B046E074E4DEF03F0D890043209324E
:1005C400074E4DEF03F0D89004320932074E4DEF39
:1005D40003F0D890043209324DEF03F0030E0764A0
:1005E40007EF03F0075E09380F0B096E0438F00BB0
:1005F400092604380F0B046E0538F00B0426053861
:100604000F0B056E074E4DEF03F0D8900532043200
:100614000932074E4DEF03F0D89005320432093207
:10062400074E4DEF03F0D8900532043209324DEFF6
:1006340003F0030E076438EF03F0075E09380F0B6D
:10064400096E0438F00B092604380F0B046E0538C4
:10065400F00B042605380F0B056E0638F00B052643
:1006640006380F0B066E074E4DEF03F0D890063296
:10067400053204320932074E4DEF03F0D8900632AA
:10068400053204320932074E4DEF03F0D89006329A
:10069400053204320932086A000E0EAE5AEF03F036
:1006A400091E041E051E061E092A0422052206220E
:1006B4000950082604500022055001220650022247
:1006C4000EBE71EF03F0D8A080EF03F002320132C6
:1006D40000320832033E80EF03F08AEF03F0D8B013
:1006E40085EF03F0000E081E001E011E021E082ADC
:1006F4000022012202220A7E85EF03F0010E0C6E15
:10070400FBDC91EF03F0020E0C6EF6DC91EF03F0CC
:10071400040E0C6ED1DC91EF03F0000E0C6E12008F
:100724000134083609360450085E0550D8A0053C4B
:10073400095E003601360F0E0C6E01340836093698
:10074400045000A006D0085E0550D8A0053C095E00
:1007540005D008260550D8B0053C092600360136D8
:100764000C2EEBD700B006D0045008260550D8B0A4
:08077400053C092600001200FB
:10077C000B800BAECAEF03F0026A0AAEFF0E026EDC
:0C078C00016E006E0A360232FF0E1200F1
:080798000B6A0B86FF0E120034
:1007A000B9C103F1BAC104F1000E0101056F066F72
:0807B000010E0001FF6F1200B1
:0C07B8000001F2510101B915006E1200A1
:1007C400220E0C6E086A096A0A6A0B6A0C06D8B40F
:1007D4001FD0D8900B320A32093208320332023267
:1007E40001320032D8A0F2D70C06D8B409D0045094
:1007F40008260550092206500A2207500B22EAD780
:10080400045008260550092206500A2207500B22DC
:020814001200D0
:10081600086A096A000E0762036490EF04F002504A
:1008260006180A6E075003267E0ED8A021EF04F0A4
:10083600035ED8B095EF04F025EF04F0035ED8A070
:100846009AEF04F0028E068E02C00EF001C00BF085
:1008560000C00DF000500402F4CF0CF00150050268
:10086600F4CF00F0F3CF08F00402F3500C26F45056
:100876000822000E00220D500502F3500C26F450FB
:100886000822000E002202500402F3500826F450FB
:10089600002202500502016A000E0122F3500026D2
:1008A600F45001220D500602F3500826F45000229F
:1008B600026A000E012202220B500602F3500026A5
:1008C600F4500122000E02220E500602F3500126B9
:1008D600F450022202BE78EF04F0083600360136E4
:1008E60002360306D8B49AEF04F08BEF04F0D880F2
:1008F600800E08640030000E002201220222D8A0D9
:100906008BEF04F0023201320032034A95EF04F015
:100916000AAE029E000E9DEF04F0010E6AEC00F096
:100926009DEF04F0020E5EEC00F09DEF04F0040E65
:0609360071EC00F012005C
:10093C000D6A086A0050D8B4000C04180A6E0ABE7E
:10094C000D1E0B6A04AE02D0041E042A00A002D0B5
:10095C00001E002A005004100A6E0ABE1FD004505C
:10096C00085E003600340836045008260036060EA1
:10097C000C6E00340836045000B0085E00A0082647
:10098C0000360C2EF6D700A008260BB015D00DAEF5
:10099C00000C001E002A081E082A000C04AE09D008
:1009AC0000BE04D00050086E006AF1D7006A002A1D
:1009BC00000C001E0B2AD3D7082A0450085CD8A4BC
:0E09CC00E6D7086A002A00AEE2D7FF0C120040
:1009DA00086A080E0C6E003408360450085ED8B057
:0E09EA0002D00826D89000360C2EF5D7120049
:1009F8000050086E0150006E0250016E0350026EE6
:100A0800036A0B6A0C6A9E0E036E0A6A020E0C6E6B
:060A18007EEC00F012006C
:060A1E00067E71DC1200EF
:100A24000B6A0A6A096A086A0E6A033408360450B3
:100A3400085E0550D8A0053C095E0650D8A0063CC7
:100A44000A5E0750D8A0073C0B5EE86AD8A0010EE6
:100A54000E5E0336070E0C6E0334083609360A366A
:100A64000B360E36045003A012D0085E0550D8A0F1
:100A7400053C095E0650D8A0063C0A5E0750D8A083
:100A8400073C0B5EE86AD8A0010E0E5E11D0082662
:100A94000550D8B0053C09260650D8B0063C0A26B5
:100AA4000750D8B0073C0B26E86AD8B0010E0E26D2
:100AB40003360C2ED1D70234083609360A360B36E3
:100AC4000E36045003A012D0085E0550D8A0053C91
:100AD400095E0650D8A0063C0A5E0750D8A0073C21
:100AE4000B5EE86AD8A0010E0E5E11D008260550F0
:100AF400D8B0053C09260650D8B0063C0A26075053
:100B0400D8B0073C0B26E86AD8B0010E0E26023690
:100B1400070E0C6E0234083609360A360B360E36CA
:100B2400045002A012D0085E0550D8A0053C095E0E
:100B34000650D8A0063C0A5E0750D8A0073C0B5EBE
:100B4400E86AD8A0010E0E5E11D008260550D8B070
:100B5400053C09260650D8B0063C0A260750D8B0F2
:100B6400073C0B26E86AD8B0010E0E2602360C2E7E
:100B7400D1D70134083609360A360B360E360450FE
:100B840002A012D0085E0550D8A0053C095E0650AC
:100B9400D8A0063C0A5E0750D8A0073C0B5EE86A62
:100BA400D8A0010E0E5E11D008260550D8B0053C21
:100BB40009260650D8B0063C0A260750D8B0073C90
:100BC4000B26E86AD8B0010E0E260136070E0C6E0D
:100BD4000134083609360A360B360E36045001A0A5
:100BE40012D0085E0550D8A0053C095E0650D8A076
:100BF400063C0A5E0750D8A0073C0B5EE86AD8A002
:100C0400010E0E5E11D008260550D8B0053C092609
:100C14000650D8B0063C0A260750D8B0073C0B262D
:100C2400E86AD8B0010E0E2601360C2ED1D7003456
:100C3400083609360A360B360E36045001A012D097
:100C4400085E0550D8A0053C095E0650D8A0063CB5
:100C54000A5E0750D8A0073C0B5EE86AD8A0010ED4
:100C64000E5E11D008260550D8B0053C0926065062
:100C7400D8B0063C0A260750D8B0073C0B26E86AD1
:100C8400D8B0010E0E260036070E0C6E003408365E
:100C940009360A360B360E36045000A012D0085E10
:100CA4000550D8A0053C095E0650D8A0063C0A5E53
:100CB4000750D8A0073C0B5EE86AD8A0010E0E5E70
:100CC40011D008260550D8B0053C09260650D8B0E6
:100CD400063C0A260750D8B0073C0B26E86AD8B071
:100CE400010E0E2600360C2ED1D700B00ED00450C3
:100CF40008260550D8B0053C09260650D8B0063C55
:0C0D04000A260750D8B0073C0B2612004E
:100D10000B6A0C6A0A6A086A0350D8B410EF07F02D
:100D2000028E9E0E035E03BE9BEF06F0D8B49BEFCF
:100D300006F000EF07F0036C080E035CD8A0CDEFBF
:100D400006F0036E083600C008F001C000F002C0D3
:100D500001F0026A080E035CD8A0CDEF06F0036E26
:100D6000083600C008F001C000F0016A080E035CFC
:100D7000D8A0CDEF06F0036E083600C008F0006A78
:100D8000080E035CD8A0CDEF06F0036E0836086AA3
:100D90000350D8A4D890D9EF06F00350D8B4D9EFB7
:100DA00006F0D8900232013200320832032ED1EF21
:100DB00006F00BBC08A0EAEF06F0D8A0EAEF06F0B8
:100DC000082AD8B4002AD8B4012AD8B4022A02BE0C
:100DD00014EF07F00AAE10EF07F0021E011E001E0E
:100DE000081E082AD8B4002AD8B4012AD8B4022A86
:100DF00010EF07F0026A016A006A086A10EF07F054
:100E00000B800BAE19EF07F0026A0AAE19EF07F07C
:100E1000026E016E006E086E0A36023219EF07F09C
:100E2000000E0C6A1AEF07F0010E0C6EA7DC1AEF29
:100E300007F0FF0E0250036E0150026E0050016E6B
:060E40000850006E1200D4
:100E460003500718D8A437EF07F002500618D8A4A5
:100E560037EF07F001500518D8A437EF07F0005018
:0E0E66000418D8B4D8841200D89412001200D8
:100E74000A6A0350D8A40A800750D8A40A820A50E8
:100E8400D8B49DEF07F0030AD8B456EF07F00AB0C0
:100E940051EF07F006AE9BEF07F099EF07F002AEB3
:100EA40099EF07F09BEF07F00250800B0A6E029E49
:100EB4000650800B069E0A18D8B467EF07F00A5054
:100EC400D8B499EF07F09BEF07F00750035CD8B450
:100ED40071EF07F0D8A08DEF07F093EF07F00650FD
:100EE400025CD8B47BEF07F0D8A08DEF07F093EF46
:100EF40007F00550015CD8B485EF07F0D8A08DEF5A
:100F040007F093EF07F00450005CD8B49DEF07F0AE
:100F1400D8B093EF07F00A52D8B49BEF07F099EFDB
:100F240007F00A52D8B499EF07F09BEF07F0D88086
:0E0F34001200D8901200D880D884120012004B
:100F42000450000A12E10550000A0FE10650000A9F
:100F52000CE10750000A09E1FF0E006EFF0E016E60
:100F62007F0E026EFF0E036E1200086A096A0750B6
:100F7200D8B44CEF08F00350D8B451EF08F0025047
:100F820006180A6E028E068E0E6A02C008F001C0B2
:100F92000CF000C00DF004500D5E0550D8A0053CC9
:100FA2000C5E0650D8A0063C085E086A0C6A0D6A00
:100FB200D8A0E3EF07F0D8900232013200320832B3
:100FC200010E0E6E0750035ED8A0F0EF07F07E0E02
:100FD2000E240326D8B056EF08F0F6EF07F07E0E87
:100FE2000E240326D8A05BEF08F0180E0B6E0D3608
:100FF2000C3608360036013602360E360450005ED4
:101002000550D8A0053C015E0650D8A0063C025E01
:1010120006340E120EA011EF08F00D801CEF08F03E
:10102200045000260550D8B0053C01260650D8B021
:10103200062802260D900B2EF8EF07F042EF08F07B
:10104200D8900036013602360E360450005E055046
:10105200D8A0053C015E0650D8A0063C025E0634CC
:101062000E10010B0D26D8B00C2AD8B4082AD8A429
:1010720042EF08F008320C320D32032AD8B456EF90
:1010820008F00AAE089E0850026E0C50016E0D5018
:10109200006E5EEF08F0010ECCEC03F05EEF08F09C
:1010A200020E6AEC00F05EEF08F0040E5EEC00F057
:0C10B2005EEF08F0080E71EC00F0120078
:1010BE006E0E0101AE5DD8A0C7D0640E046EAEC137
:1010CE0000F084DC120E0024056E066A000E062265
:1010DE0005C000F006C001F0000E06BEFF0E026E47
:1010EE00036E00360090013602360336003600904D
:1010FE000136023603365F0E0024F66E610E0120B5
:10110E00F76E000E0220F86E0900F5CF00F0090010
:10111E00F5CF01F00900F5CF02F00900F5CF03F08D
:10112E00000E046E000E056E000E066E7E0E076E2D
:10113E000BEC04F000C0AFF101C0B0F102C0B1F190
:10114E0003C0B2F1640E046EAEC100F03FDC08C005
:10115E0000F00A0E046E3ADC090E0024056E066AD3
:10116E00000E062205C000F006C001F0000E06BEFD
:10117E00FF0E026E036E0036009001360236033605
:10118E00003600900136023603365F0E0024F66EEE
:10119E00610E0120F76E000E0220F86E0900F5CFE9
:1011AE0000F00900F5CF01F00900F5CF02F00900BB
:1011BE00F5CF03F0AFC104F0B0C105F0B1C106F038
:1011CE00B2C107F00BEC04F000C0AFF101C0B0F1FA
:1011DE0002C0B1F103C0B2F10A0E046EAEC100F04E
:1011EE00EDEC04F008C000F000C001F0000E026E3D
:1011FE00036E046E01360190023603360436013654
:10120E0001900236033604365F0E0124F66E610E2F
:10121E000220F76E000E0320F86E0900F5CF00F0E5
:10122E000900F5CF01F00900F5CF02F00900F5CF66
:10123E0003F0AFC104F0B0C105F0B1C106F0B2C108
:10124E0007F00BEC04F01200AE510A087EE20A0E13
:10125E00046EAEC100F0EDEC04F0090E0024056E34
:10126E00066A000E062205C000F006C001F0000E50
:10127E0006BEFF0E026E036E003600900136023679
:10128E000336003600900136023603365F0E002418
:10129E00F66E610E0120F76E000E0220F86E090048
:1012AE00F5CF00F00900F5CF01F00900F5CF02F0FF
:1012BE000900F5CF03F0000E046E000E056E000E51
:1012CE00066E7E0E076E0BEC04F000C0AFF101C08F
:1012DE00B0F102C0B1F103C0B2F10A0E046EAEC19C
:1012EE0000F0EDEC04F008C000F000C001F0000EBC
:1012FE00026E036E046E013601900236033604361A
:10130E00013601900236033604365F0E0124F66E66
:10131E00610E0220F76E000E0320F86E0900F5CF65
:10132E0000F00900F5CF01F00900F5CF02F0090039
:10133E00F5CF03F0AFC104F0B0C105F0B1C106F0B6
:10134E00B2C107F00BEC04F01200AEC100F0000EBB
:10135E00016E026E036E00360090013602360336C1
:10136E00003600900136023603365F0E0024F66E0C
:10137E00610E0120F76E000E0220F86E0900F5CF07
:10138E0000F00900F5CF01F00900F5CF02F00900D9
:10139E00F5CF03F0000E046E000E056E000E066E05
:0A13AE007E0E076E0BEC04F0120037
:1013B800B8C1B9F1DCEC03F00050020A03E1010EF8
:0813C800006E1200006A120021
:0C13D0000001F1510101B815006E12007F
:1013DC000001FF5307E1010E0101B96F000EBA6F56
:1013EC00D0EC03F003C100F004C101F005C102F020
:1013FC0006C103F06D0E046E4E0E056EC60E066E23
:10140C00410E076EE2EC03F0390E0024056E300E2F
:10141C000120066E000E0220076E000E0320086EDF
:10142C0007C000F008C001F0000E08BEFF0E036EEE
:10143C00FF0E00167F0E0116000E0216031600C0DA
:10144C0003F101C004F102C005F103C006F1120062
:10145C00010E0101B815016E0150010A03E1010EE4
:08146C00006E1200006A12007C
:101474000B6A0C6A086A0350D8B4BEEF0AF002C0C3
:101484000AF0028E9E0E035E03AEAEEF0AF0036C0A
:10149400080E035CD8A07BEF0AF0036E083600C088
:1014A40008F001C000F002C001F0026A080E035CFB
:1014B400D8A07BEF0AF0036E083600C008F001C024
:1014C40000F0016A080E035CD8A07BEF0AF0036EFB
:1014D400083600C008F0006A080E035CD8A07BEF51
:1014E4000AF0036E0836086A0350D8A4D89087EF30
:1014F4000AF00350D8B487EF0AF0D89002320132D0
:1015040000320832032E7FEF0AF00BBC08A098EFDC
:101514000AF0D8A098EF0AF0082AD8B4002AD8B460
:10152400012AD8B4022A02BEC2EF0AF00AAEBEEF04
:101534000AF0021E011E001E081E082AD8B4002A42
:10154400D8B4012AD8B4022ABEEF0AF0026A016AAA
:10155400006A086ABEEF0AF00B800BAEC9EF0AF00E
:10156400026A0AAEC9EF0AF0026E016E006E086EDE
:101574000A360232C9EF0AF00C6A000ECAEF0AF00A
:10158400010E0C6E000EBEEC03F0CAEF0AF0FF0E63
:101594000250036E0150026E0050016E0850006E3E
:0215A400120033
:0C15A6000001B0510101B815006E1200E8
:1015B200030E0101B815016E0150030A03E1010E89
:0815C200006E1200006A120025
:1015CA000101AE51390806E3300EAE5D03E3010EA8
:0815DA00006E01D0006A12004E
:1015E2000450000A6CE10550000A69E1FF0E006E2A
:1015F2007F0E016E12000D6A096A086A015000101E
:10160200D8B4000C015005180A6E0ABE0D1E0B6AF2
:1016120005AE05D0041E051E042AD8B4052A01AE63
:1016220005D0001E011E002AD8B4012A015005105F
:101632000A6E0ABE10D092EC03F00BB020D00DAEB1
:10164200000C001E011E002AD8B4012A081E091E21
:10165200082AD8B4092A000C05AE0DD001BE07D065
:101662000150096E0050086E016A006AE8D7016AEB
:10167200006A002A000C011E001E0B2ADDD7082A70
:10168200D8B4092A0450085CD8A4D9D70550095CFB
:10169200D8A4D5D7096A086A002AD8B4012A01AEAB
:1016A200CED70000FF0C12000450000A08E10550DA
:1016B200000A05E1FF0E006E7F0E016E12000D6A38
:1016C200096A086A01500010D8B4000C01500518CC
:1016D2000A6E0ABE0D1E0B6A05AE05D0041E051E5B
:1016E200042AD8B4052A01AE05D0001E011E002A24
:1016F200D8B4012A015005100A6E0ABE10D092EC2D
:1017020003F00BB020D00DAE000C001E011E002A0B
:10171200D8B4012A081E091E082AD8B4092A000CC6
:1017220005AE0DD001BE07D00150096E0050086E03
:10173200016A006AE8D7016A006A002A000C011EE9
:10174200001E0B2ADDD7082AD8B4092A0450085CE7
:10175200D8A4D9D70550095CD8A4D5D7096A086A94
:10176200002AD8B4012A01AECED70000FF0C120025
:0A177200020E0101B811006E120012
:10177C00800E0101AE19006E800E000A005CD8B01C
:10178C006DD1AE510008016E01C0AEF1800E011892
:10179C00006E800E6E0A005CD8A0C0D0640E046E81
:1017AC00AEC100F09EEC04F0120E0024056E000E8B
:1017BC0000BEFF0E066E000E062205C000F006C02D
:1017CC0001F0000E06BEFF0E026E036E0036009096
:1017DC0001360236033600360090013602360336E7
:1017EC005F0E0024F66E610E0120F76E000E0220D3
:1017FC00F86E0900F5CFAFF10900F5CFB0F1090093
:10180C00F5CFB1F10900F5CFB2F1640E046EAEC1A3
:10181C0000F09EEC04F008C000F00A0E046E9EEC82
:10182C0004F0090E0024056E000E00BEFF0E066EBD
:10183C00000E062205C000F006C001F0000E06BE28
:10184C00FF0E026E036E0036009001360236033630
:10185C00003600900136023603365F0E0024F66E19
:10186C00610E0120F76E000E0220F86E0900F5CF14
:10187C0000F00900F5CF01F00900F5CF02F00900E6
:10188C00F5CF03F0AFC104F0B0C105F0B1C106F063
:10189C00B2C107F00BEC04F000C0AFF101C0B0F125
:1018AC0002C0B1F103C0B2F10A0E046EAEC100F079
:1018BC009EEC04F008C000F000C001F0000E00BE69
:1018CC00FF0E026E036E046E013601900236033673
:1018DC000436013601900236033604365F0E0124BD
:1018EC00F66E610E0220F76E000E0320F86E0900F2
:1018FC00F5CF00F00900F5CF01F00900F5CF02F0AB
:10190C000900F5CF03F0AFC104F0B0C105F0B1C1CF
:10191C0006F0B2C107F00BEC04F01200800E0A0ABC
:10192C00006E800EAE19005C71E20A0E046EAEC140
:10193C0000F09EEC04F0090E0024056E000E00BEB3
:10194C00FF0E066E000E062205C000F006C001F068
:10195C00000E06BEFF0E026E036E003600900136BE
:10196C0002360336003600900136023603365F0E1F
:10197C000024F66E610E0120F76E000E0220F86E48
:10198C000900F5CFAFF10900F5CFB0F10900F5CFA3
:10199C00B1F10900F5CFB2F10A0E046EAEC100F040
:1019AC009EEC04F008C000F000C001F0000E00BE78
:1019BC00FF0E026E036E046E013601900236033682
:1019CC000436013601900236033604365F0E0124CC
:1019DC00F66E610E0220F76E000E0320F86E090001
:1019EC00F5CF00F00900F5CF01F00900F5CF02F0BA
:1019FC000900F5CF03F0AFC104F0B0C105F0B1C1DF
:101A0C0006F0B2C107F00BEC04F01200AEC100F00E
:101A1C00000EAEBFFF0E016E026E036E003600901C
:101A2C000136023603360036009001360236033694
:101A3C005F0E0024F66E610E0120F76E000E022080
:101A4C00F86E0900F5CF00F00900F5CF01F00900A0
:101A5C00F5CF02F00900F5CF03F01200800EAE199D
:101A6C00006E800E6E0A005CD8A0C0D0640E046EAE
:101A7C00AEC100F09EEC04F0120E0024056E000EB8
:101A8C0000BEFF0E066E000E062205C000F006C05A
:101A9C0001F0000E06BEFF0E026E036E00360090C3
:101AAC000136023603360036009001360236033614
:101ABC00930E0024F66E610E0120F76E000E0220CC
:101ACC00F86E0900F5CFAFF10900F5CFB0F10900C0
:101ADC00F5CFB1F10900F5CFB2F1640E046EAEC1D1
:101AEC0000F09EEC04F008C000F00A0E046E9EECB0
:101AFC0004F0090E0024056E000E00BEFF0E066EEB
:101B0C00000E062205C000F006C001F0000E06BE55
:101B1C00FF0E026E036E003600900136023603365D
:101B2C0000360090013602360336930E0024F66E12
:101B3C00610E0120F76E000E0220F86E0900F5CF41
:101B4C0000F00900F5CF01F00900F5CF02F0090013
:101B5C00F5CF03F0AFC104F0B0C105F0B1C106F090
:101B6C00B2C107F00BEC04F000C0AFF101C0B0F152
:101B7C0002C0B1F103C0B2F10A0E046EAEC100F0A6
:101B8C009EEC04F008C000F000C001F0000E00BE96
:101B9C00FF0E026E036E046E0136019002360336A0
:101BAC00043601360190023603360436930E0124B6
:101BBC00F66E610E0220F76E000E0320F86E09001F
:101BCC00F5CF00F00900F5CF01F00900F5CF02F0D8
:101BDC000900F5CF03F0AFC104F0B0C105F0B1C1FD
:101BEC0006F0B2C107F00BEC04F01200800E0A0AEA
:101BFC00006E800EAE19005C71E20A0E046EAEC16E
:101C0C0000F09EEC04F0090E0024056E000E00BEE0
:101C1C00FF0E066E000E062205C000F006C001F095
:101C2C00000E06BEFF0E026E036E003600900136EB
:101C3C000236033600360090013602360336930E18
:101C4C000024F66E610E0120F76E000E0220F86E75
:101C5C000900F5CFAFF10900F5CFB0F10900F5CFD0
:101C6C00B1F10900F5CFB2F10A0E046EAEC100F06D
:101C7C009EEC04F008C000F000C001F0000E00BEA5
:101C8C00FF0E026E036E046E0136019002360336AF
:101C9C00043601360190023603360436930E0124C5
:101CAC00F66E610E0220F76E000E0320F86E09002E
:101CBC00F5CF00F00900F5CF01F00900F5CF02F0E7
:101CCC000900F5CF03F0AFC104F0B0C105F0B1C10C
:101CDC0006F0B2C107F00BEC04F01200AEC100F03C
:101CEC00000EAEBFFF0E016E026E036E003600904A
:101CFC0001360236033600360090013602360336C2
:101D0C00930E0024F66E610E0120F76E000E022079
:101D1C00F86E0900F5CF00F00900F5CF01F00900CD
:0C1D2C00F5CF02F00900F5CF03F0120023
:101D38000B6A0A6A096A00500402F4CF09F0F3CF6B
:101D480008F001500502F4CF0BF0F3CF0AF0005071
:101D58000502F3500926F4500A22E86A0B220150C2
:101D68000402F3500926F4500A22E86A0B2208C03C
:101D780000F009C001F00AC002F00BC003F0120025
:101D88000101AEBF02D0839E01D0838EAEBD02D0CA
:101D9800839C01D0838CAEBB02D0839A01D0838A06
:101DA800AEB902D0839801D0838800B102D0848074
:101DB80001D0849084826FEC01F08492AEB702D097
:101DC800839E01D0838EAEB502D0839C01D0838CD4
:101DD800AEB302D0839A01D0838AAEB102D0839881
:101DE80001D0838800B102D0848001D0849084829D
:101DF8006FEC01F0849200A103D072EC01F002D0E4
:061E08007DEC01F0120068
:101E0E00B6C101F001360190013601900001F35187
:101E1E004810006E01016C510016005001106C6FDD
:021E2E001200A0
:0C1E30000001B05101018715006E120086
:0A1E3C00FD0E0101B615006E120044
:101E46000001FA51DB1924E119C100F01AC101F0B1
:101E5600140E046E000E056E6CDF1B0E0026010EBE
:101E66000122010117510024026E18510120036E50
:101E760002C0E9FF03C0EAFFF30EEE14006E29501C
:101E8600001202C0E1FF03C0E2FF00C0E6FF75D00A
:101E96000001FA51C81924E119C100F01AC101F074
:101EA600140E046E000E056E44DF1B0E0026010E96
:101EB6000122010117510024026E18510120036E00
:101EC60002C0E9FF03C0EAFFF30EEE14006E3950BC
:101ED600001202C0E1FF03C0E2FF00C0E6FF4DD0E2
:101EE6000001FA51291825E119C100F01AC101F0C3
:101EF600140E046E000E056E1CDF1B0E0026010E6E
:101F06000122010117510024026E18510120036EAF
:101F160002C0E9FF03C0EAFFF30EEE14006E0001F3
:101F2600C851001202C0E1FF03C0E2FF00C0E6FF95
:101F360024D019C100F01AC101F0140E046E000E6F
:101F4600056EF7DE1B0E0026010E01220101175158
:101F56000024026E18510120036E02C0E9FF03C07F
:101F6600EAFFF30EEE14006E0001DB51001202C010
:0C1F7600E1FF03C0E2FF00C0E6FF120024
:101F8200B6C100F00032009E0032009E0032009E78
:061F92000032009E120067
:101F980019C1FBF01AC1FCF017C1FDF018C1FEF021
:101FA80019C100F01AC101F0140E046E000E056E7E
:101FB800BFDE1B0E0026010E01220101175100246D
:101FC800E96E18510120EA6EEECFB8F1E8EC09F09D
:101FD80000C0FAF000500001DB190EE1FD4BFE2BAA
:101FE800800EFE19006E800E005C02E1140EFD5D8D
:101FF80002E3FD6BFE6B37D0FA51C81912E1010EEE
:10200800FD5F000EFE5B800EFE19006E800E005C08
:1020180002E1000EFD5D04E2130EFD6F000EFE6F7F
:1020280022D0FA5129180EE1FB4BFC2B800EFC192B
:10203800006E800E005C02E1040EFB5D02E3FB6BA8
:10204800FC6B11D0010EFB5F000EFC5B800EFC19CF
:10205800006E800E005C02E1000EFB5D04E2030EE0
:08206800FB6F000EFC6F12007B
:0C2070000001F25101018715006E120002
:10207C00B6C1B8F1D3EC0AF00050000A03E1010E2E
:08208C00006E1200006A120050
:10209400EEEC09F0040E046E000E056EF1EC0AF08D
:1020A40008C000F009C001F000C019F101C01AF124
:1020B400EEEC09F0140E046E000E056EF1EC0AF05D
:1020C40008C000F009C001F000C017F101C018F108
:1020D40019C100F01AC101F0140E046E000E056E51
:1020E40029DE1B0E0026010E0122010117510024D6
:1020F400E96E18510120EA6EEECFB8F1DCEC09F07C
:10210400005216E019C100F01AC101F0140E046E59
:10211400000E056E0FDE1B0E0026010E0122175164
:102124000024E16E18510120E26E010EE66E01D02A
:04213400AFD712000F
:0E213800ACB202D00000FCD787C1ADFF120090
:10214600B6C1B9F1DCEC03F00050060A03E1010E5A
:08215600006E1200006A120085
:0E215E000101009187C1AEF110DE0081120078
:10216C006CC100F00032009E0032009E12006CC167
:0C217C0000F00032009E0032009E1200B5
:102188000101A66BA76B936B946B89C100F08AC1A0
:1021980001F08BC102F0010E8927000E8A238B23E0
:1021A80000C0F6FF01C0F7FF02C0F8FF0900F5CF35
:1021B80000F000C090F10052D8B4D6EF20F0905152
:1021C800250A0BE087C1E1FF88C1E2FF90C1E6FF65
:1021D800874B882BA64BA72BD8D7916B926B936B09
:1021E800946B23D09387010E8927000E8A238B23B3
:1021F80059D09381010E8927000E8A238B2352D050
:102208009383010E8927000E8A238B234BD0948752
:10221800010E8927000E8A238B2344D09385010E53
:102228008927000E8A238B233DD089C1F6FF8AC1F6
:10223800F7FF8BC1F8FF0900F5CF01F001502D0A17
:10224800D1E089C1F6FF8AC1F7FF8BC1F8FF090009
:10225800F5CF01F00150200ACCE089C1F6FF8AC110
:10226800F7FF8BC1F8FF0900F5CF01F001502B0AE9
:10227800C7E089C1F6FF8AC1F7FF8BC1F8FF0900E3
:10228800F5CF01F00150230AC2E089C1F6FF8AC1E7
:10229800F7FF8BC1F8FF0900F5CF01F00150300AB4
:1022A800BDE001D09ED793A301D0939193A701D00D
:1022B800939589C1F6FF8AC1F7FF8BC1F8FF090022
:1022C800F5CF00F0000E016E00C0AEF1E5EC0AF0AB
:1022D800005235E0916B926B91C100F092C101F010
:1022E8000A0E046E000E056E23DD89C1F6FF8AC151
:1022F800F7FF8BC1F8FF0900F5CF02F00250002468
:10230800916F000E0120926F300E915F000E925B6C
:10231800010E8927000E8A238B2389C1F6FF8AC103
:10232800F7FF8BC1F8FF0900F5CF00F0000E016E32
:1023380000C0AEF1E5EC0AF00052CEE133D089C11D
:10234800F6FF8AC1F7FF8BC1F8FF0900F5CF01F04E
:1023580001502A0A27E18CC1E9FF8DC1EAFFEECFBF
:1023680000F0EECF01F000C0E9FF01C0EAFFEECFB8
:1023780091F1EECF92F18CC1E9FF8DC1EAFF020E17
:10238800EE24006E000EEE20016E8CC1E1FF8DC1BF
:10239800E2FF00C0E6FF01C0E6FF010E8927000E3C
:1023A8008A238B2389C1F6FF8AC1F7FF8BC1F8FF07
:1023B8000900F5CF01F001502E0A6FE1010E8927BF
:1023C800000E8A238B2389C1F6FF8AC1F7FF8BC1D0
:1023D800F8FF0900F5CF01F001502A0A28E18CC165
:1023E800E9FF8DC1EAFFEECF00F0EECF01F000C0AB
:1023F800E9FF01C0EAFFEECF8EF1EECF8FF18CC17D
:10240800E9FF8DC1EAFF020EEE24006E000EEE20F9
:10241800016E8CC1E1FF8DC1E2FF00C0E6FF01C083
:10242800E6FF010E8927000E8A238B2335D08E6B99
:102438008F6B89C1F6FF8AC1F7FF8BC1F8FF0900CE
:10244800F5CF00F0000E016E00C0AEF1E5EC0AF029
:10245800005222E08EC100F08FC101F00A0E046E16
:10246800000E056E65DC89C1F6FF8AC1F7FF8BC1D6
:10247800F8FF0900F5CF02F0025000248E6F000E1D
:1024880001208F6F300E8E5F000E8F5B010E892743
:10249800000E8A238B23CDD703D08E6B8F6B948944
:1024A80089C100F08AC101F08BC102F0010E8927B1
:1024B800000E8A238B2300C0F6FF01C0F7FF02C07D
:1024C800F8FF0900F5CF90F105D1A6C100F0A7C12A
:1024D80001F012009389E4D7948537D1938B9481C6
:1024E80034D1948332D1938D30D12FD1938B938F64
:1024F8002CD18CC1E9FF8DC1EAFFEECF00F0EECF01
:1025080001F000C0E9FF01C0EAFFEECF9BF1EECF7A
:102518009CF18CC1E9FF8DC1EAFF020EEE24006E2A
:10252800000EEE20016E8CC1E1FF8DC1E2FF00C0FC
:10253800E6FF01C0E6FF000E9C1902E1000E9B19A0
:1025480011E1280E9F6F6E0EA06F750EA16F6C0EB5
:10255800A26F6C0EA36F290EA46FA56B9F0E9B6FC5
:10256800010E9C6F9D6B9E6B9D519B25E96E9E5144
:102578009C21EA6EEE520BE0010E9D25006E000EC6
:102588009E21016E00C09DF101C09EF1EDD78E51D4
:102598008F110AE09E518F5D02E19D518E5D04E22C
:1025A8008EC19DF18FC19EF192519E5D02E19151C4
:1025B8009D5D05E29D51915F9E51925B02D0916BAA
:1025C800926B93B716D091C100F092C101F0010E41
:1025D800915F000E925B005001100BE087C1E1FF94
:1025E80088C1E2FF200EE66E874B882BA64BA72BEF
:1025F800EAD79DC102F09EC103F0010E9D5D006EF9
:10260800000E9E59016E00C09DF101C09EF102505E
:10261800031019E09BC1E9FF9CC1EAFF87C1E1FFF4
:1026280088C1E2FFEECFE6FF874B882B010E9B2582
:10263800006E000E9C21016E00C09BF101C09CF150
:10264800A64BA72BD6D793A716D091C100F092C15D
:1026580001F0010E915F000E925B005001100BE03B
:1026680087C1E1FF88C1E2FF200EE66E874B882B09
:10267800A64BA72BEAD789D58CC1E9FF8DC1EAFF04
:10268800EECF00F0EECF01F000C0E9FF01C0EAFF95
:10269800EECF90F18CC1E9FF8DC1EAFF020EEE2466
:1026A800006E000EEE20016E8CC1E1FF8DC1E2FFCD
:1026B80000C0E6FF01C0E6FF900E9B6F010E9C6F05
:1026C800010E9D6F000E9E6F62D7C00E9313000E11
:1026D80094133BD09051000AD8B4F7D690516C0AA5
:1026E800D8B4F8D69051660AD8B4F6D69051450AAF
:1026F800D8B4F4D69051650AD8B4F1D69051670A87
:10270800D8B4EFD690516F0AD8B4EDD69051640A78
:10271800D8B4EBD69051690AD8B4E7D69051700A6C
:10272800D8B4E4D69051580AD8B4E0D69051780A73
:10273800D8B4DDD69051730AD8B4DBD69051630A69
:102748009BE09051750AC1E0B7D7000E9315006E53
:102758009451070B016E00500110D8B481EF1CF0A2
:1027680094A904D0060E8E6F000E8F6F8CC1E9FFFE
:102778008DC1EAFFEECF00F0EECF01F000C0E9FF17
:1027880001C0EAFFEECF95F1EECF96F1EECF97F1CB
:10279800EECF98F18CC1E9FF8DC1EAFF040EEE245B
:1027A800006E000EEE20016E8CC1E1FF8DC1E2FFCC
:1027B80000C0E6FF01C0E6FF046A056A066A076A08
:1027C80095C100F096C101F097C102F098C103F0DD
:1027D8003AEC07F0010ED8B0000E006E005205E08A
:1027E800977F030E9313000E9413996B9A6B95C100
:1027F80000F096C101F097C102F098C103F0046A95
:10280800056A066A076A23EC07F0000ED8A4010ED1
:10281800006E0052D8B48AD098C100F0016A026AEA
:10282800036AFF0E0016000E01167E0E005E000EF3
:10283800015A00C099F101C09AF1010E005E000E24
:10284800015A00C099F101C09AF1030E046E000EFE
:10285800056E9CEC0EF000C099F101C09AF10A0EC9
:10286800046E000E056EF1EC0AF000C099F101C08B
:102878009AF1800E0118026E800E025C02E1000ED1
:10288800005C05E2010E0101995F000E9A5B0101EF
:1028980099510008AE6FBEEC0BF095C104F096C1DB
:1028A80005F097C106F098C107F00BEC04F000C0E2
:1028B8009BF101C09CF102C09DF103C09EF1000E86
:1028C800046E000E056E000E066E7F0E076E9BC12D
:1028D80000F09CC101F09DC102F09EC103F03AECEA
:1028E80007F0010ED8B0000E006E005205E0010E90
:1028F800995F000E9A5B1AD0000E046E000E056EEA
:10290800200E066E820E076E9BC100F09CC101F07E
:102918009DC102F09EC103F03AEC07F0000ED8B05A
:10292800010E006E005202E0994B9A2B800E006E49
:10293800800E9A19005C02E19951000803E3010E28
:10294800906F02D099C190F194B118D094A315D08A
:10295800800E9A19006E7F0E005C02E1FC0E995DF4
:102968000BE3800E9A19006E800E8F19005C02E14D
:102978008E51995D01E201D001D0F1D38E518F11B2
:1029880006E094A304D0010E8E5F000E8F5B000E4C
:10299800006E8F51005C02E18E51080803E2080EB8
:1029A800906F02D08EC190F195C100F096C101F0F0
:1029B80097C102F098C103F0046A056A066A076ABB
:1029C80023EC07F0000ED8A4010E006E0052D8B414
:1029D8004BD199C1AEF1BEEC0BF000C004F001C0C0
:1029E80005F002C006F003C007F095C100F096C1DB
:1029F80001F097C102F098C103F0A1EC07F000C004
:102A080095F101C096F102C097F103C098F1010158
:102A180090510008AE6FBEEC0BF000C004F001C08E
:102A280005F002C006F003C007F095C100F096C19A
:102A380001F097C102F098C103F0A1EC07F000C0C3
:102A4800A8F101C0A9F102C0AAF103C0ABF1A8C165
:102A580095F1A9C196F1AAC197F1ABC198F1A8C1A6
:102A680000F0A9C101F0AAC102F0ABC103F088ECE3
:102A780006F0FCEC04F000C004F001C005F002C050
:102A880006F003C007F0A8C100F0A9C101F0AAC16F
:102A980002F0ABC103F00FEC05F0000E046E000E5F
:102AA800056E000E066E7E0E076E3AEC07F0000EFD
:102AB800D8B0010E006E00521AE095C100F096C120
:102AC80001F097C102F098C103F0000E046E000EE9
:102AD800056E000E066E7E0E076E82EC01F000C0D9
:102AE80095F101C096F102C097F103C098F195C124
:102AF80000F096C101F097C102F098C103F088EC8C
:102B080006F001019051010F096E0A6A000E0A22AF
:102B180009C004F00AC005F0000E0ABEFF0E066EDA
:102B2800076E0436049005360636073604360490D8
:102B3800053606360736F70E0424F66E610E0520B4
:102B4800F76E000E0620F86E0900F5CF05F00900B3
:102B5800F5CF06F00900F5CF07F00900F5CF08F02A
:102B68000850035C08E10750025C05E10650015C6F
:102B780002E10550005C1EE3010195C100F096C119
:102B880001F097C102F098C103F0CD0E046ECC0E8F
:102B9800056E4C0E066E7B0E076E0BEC04F000C043
:102BA80095F101C096F102C097F103C098F1994BD5
:102BB8009A2B5AD095C100F096C101F097C102F046
:102BC80098C103F088EC06F090C104F0000E056E81
:102BD800066E076E04360490053606360736043648
:102BE8000490053606360736F70E0424F66E610E95
:102BF8000520F76E000E0620F86E0900F5CF05F0E7
:102C08000900F5CF06F00900F5CF07F00900F5CF68
:102C180008F00850035C08E10750025C05E1065023
:102C2800015C02E10550005C1FE2010195C100F062
:102C380096C101F097C102F098C103F0000E046E2E
:102C4800000E056E200E066E820E076E0BEC04F069
:102C580000C095F101C096F102C097F103C098F148
:102C6800010E995F000E9A5B010194A393D094B76B
:102C780091D0800E000A006E800E8F19005C02E170
:102C88008E510A0804E20A0E8E6F000E8F6F95C1EE
:102C980000F096C101F097C102F098C103F088ECEA
:102CA80006F000C09BF101C09CF102C09DF103C079
:102CB8009EF19B519C119D119E1142E00A0E046EDB
:102CC800000E056E066E076E9BC100F09CC101F0F8
:102CD8009DC102F09EC103F012EC05F008C000F09F
:102CE80009C001F00AC002F00BC003F0000E046E28
:102CF800031808E10450021805E10450011802E124
:102D08000050000A1DE1010E8E5F000E8F5B0A0E57
:102D1800046E000E056E066E076E9BC100F09CC126
:102D280001F09DC102F09EC103F012EC05F000C055
:102D38009BF101C09CF102C09DF103C09EF1B9D77F
:102D4800800E8F19006E800E005C02E190518E5D3E
:102D580021E28E51905DAE6FBEEC0BF000C004F026
:102D680001C005F002C006F003C007F095C100F0ED
:102D780096C101F097C102F098C103F0A1EC07F0E9
:102D880000C095F101C096F102C097F103C098F117
:102D98008EC190F1050E01018E25006E000E8F2167
:102DA800016E0050915F0150925B8E518F1103E1CB
:102DB80094B701D004D0010E915F000E925B030E10
:102DC8009315006E94C101F0000E01160050011019
:102DD80004E0010E915F000E925B93A539D093A396
:102DE80012D093A103D02D0E006E02D02B0E006ED0
:102DF80087C1E1FF88C1E2FF00C0E6FF874B882B4F
:102E0800A64BA72B0CD093A10AD087C1E1FF88C19C
:102E1800E2FF200EE66E874B882BA64BA72B800E71
:102E2800006E800E9219005C02E1915100080FE2D9
:102E380087C1E1FF88C1E2FF300EE66E874B882B21
:102E4800A64BA72B010E915F000E925BE8D73AD0F4
:102E580093B718D0800E006E800E9219005C02E1C4
:102E6800915100080FE287C1E1FF88C1E2FF200EFF
:102E7800E66E874B882BA64BA72B010E915F000EA1
:102E8800925BE8D793A312D093A103D02D0E006EC6
:102E980002D02B0E006E87C1E1FF88C1E2FF00C09F
:102EA800E6FF874B882BA64BA72B0CD093A10AD003
:102EB80087C1E1FF88C1E2FF200EE66E874B882BB1
:102EC800A64BA72B95C100F096C101F097C102F05F
:102ED80098C103F088EC06F000C09BF101C09CF19A
:102EE80002C09DF103C09EF190C100F0000E016E7A
:102EF800026E036E00360090013602360336003645
:102F08000090013602360336F70E0024F66E610E85
:102F18000120F76E000E0220F86E0900F5CF04F0CC
:102F28000900F5CF05F00900F5CF06F00900F5CF47
:102F380007F09BC100F09CC101F09DC102F09EC149
:102F480003F012EC05F0300E002687C1E1FF88C1BE
:102F5800E2FF00C0E6FF874B882BA64BA72B8E51BC
:102F68008F1103E194B701D06FD087C1E1FF88C109
:102F7800E2FF2E0EE66E874B882BA64BA72B9051AF
:102F88008E5F000E8F5B90534DE0900790C100F06C
:102F9800000E016E026E036E003600900136023696
:102FA800033600360090013602360336F70E002449
:102FB800F66E610E0120F76E000E0220F86E090011
:102FC800F5CF04F00900F5CF05F00900F5CF06F0BC
:102FD8000900F5CF07F09BC100F09CC101F09DC12D
:102FE80002F09EC103F012EC05F00A0E046E000E0A
:102FF800056E066E076E12EC05F008C000F009C0F9
:1030080001F00AC002F00BC003F0300E002687C1A1
:10301800E1FF88C1E2FF00C0E6FF874B882BA64B83
:10302800A72BB1D78E518F110FE087C1E1FF88C15F
:10303800E2FF300EE66E874B882BA64BA72B010EBE
:103048008E5F000E8F5BEED793AB0BD087C1E1FF8D
:1030580088C1E2FF450EE66E874B882BA64BA72B4F
:103068000AD087C1E1FF88C1E2FF650EE66E874B93
:10307800882BA64BA72B800E9A19006E800E005C39
:1030880002E1000E995D11E299510008996F9A5179
:10309800000E9A5787C1E1FF88C1E2FF2D0EE66E48
:1030A800874B882BA64BA72B0AD087C1E1FF88C185
:1030B800E2FF2B0EE66E874B882BA64BA72B0A0E3A
:1030C800046E000E056E99C100F09AC101F0F1EC92
:1030D8000AF0300E002687C1E1FF88C1E2FF00C078
:1030E800E6FF0101874B882BA64BA72B0A0E046E1F
:1030F800000E056E99C100F09AC101F0F1EC0AF0DA
:1031080008C000F009C001F0300E002687C1E1FFB9
:1031180088C1E2FF00C0E6FF0101874B882BA64B60
:10312800A72B93A71AD0800E006E800E9219005C10
:1031380002E19151000811E287C1E1FF88C1E2FF75
:10314800200EE66E874B882BA64BA72B010E915FAE
:10315800000E925B91519211EFE1C9EF10F094A328
:10316800F3D0800E9A19006E800E005C02E1000E0A
:10317800995D0AE2010E995D006E000E9A59016E82
:1031880000508E5F01508F5B95C100F096C101F031
:1031980097C102F098C103F088EC06F000C09BF1DB
:1031A80001C09CF102C09DF103C09EF1010E906F19
:1031B80090510A0A34E090C100F0000E016E026ED0
:1031C800036E003600900136023603360036009052
:1031D800013602360336F70E0024F66E610E012022
:1031E800F76E000E0220F86E0900F5CF01F0090015
:1031F800F5CF02F00900F5CF03F00900F5CF04F090
:1032080004509E5D08E103509D5D05E102509C5D00
:1032180002E101509B5D01E202D0902BC9D7905189
:103228008E5DAC6F000E8F59AD6FACC18EF1ADC124
:103238008FF19BC100F09CC101F09DC102F09EC1BD
:1032480003F0FCEC04F000C004F001C005F002C07B
:1032580006F003C007F095C100F096C101F097C1D0
:1032680002F098C103F00FEC05F000C0A8F101C00E
:10327800A9F102C0AAF103C0ABF1ACC1AEF1BEEC3A
:103288000BF0A8C104F0A9C105F0AAC106F0ABC1B2
:1032980007F00BEC04F0000E046E000E056E000E35
:1032A800066E7E0E076E82EC01F088EC06F000C018
:1032B8009BF101C09CF102C09DF103C09EF18E51AB
:1032C8008F1142E00A0E046E000E056E066E076E40
:1032D8009BC100F09CC101F09DC102F09EC103F0AA
:1032E80012EC05F008C000F009C001F00AC002F0B5
:1032F8000BC003F0000E046E031808E10450021816
:1033080005E10450011802E10050000A1DE10A0E0F
:10331800046E000E056E066E076E9BC100F09CC120
:1033280001F09DC102F09EC103F012EC05F000C04F
:103338009BF101C09CF102C09DF103C09EF1010EFA
:103348008E5F000E8F5BBBD7800E006E800E8F19CC
:10335800005C02E18E510C0816E38EC1AEF15FEC01
:1033680008F095C104F096C105F097C106F098C120
:1033780007F082EC01F000C095F101C096F102C09F
:1033880097F103C098F195C100F096C101F097C17B
:1033980002F098C103F0046A056A066A076A23EC1A
:1033A80007F0000ED8A4010E006E0052D8B477D0F2
:1033B80095C100F096C101F097C102F098C103F0E1
:1033C80088EC06F0000E046E031808E10450021899
:1033D80005E10450011802E10050000A60E1800E86
:1033E800006E800E9A19005C02E19951010857E2BB
:1033F80099C1AEF1BEEC0BF000C004F001C005F0BD
:1034080002C006F003C007F095C100F096C101F0B4
:1034180097C102F098C103F0A1EC07F05F0E046EAB
:10342800700E056E090E066E810E076E3AEC07F0F7
:10343800010ED8B0000E006E005206E0090E010120
:10344800995F000E9A5B05D00101080E995F000E86
:103458009A5B99C1AEF1BEEC0BF000C004F001C05C
:1034680005F002C006F003C007F095C100F096C150
:1034780001F097C102F098C103F0A1EC07F088ECC5
:1034880006F000C09BF101C09CF102C09DF103C091
:103498009EF10101956B966B976B986B38D095C12F
:1034A80000F096C101F097C102F098C103F088ECD2
:1034B80006F000C09BF101C09CF102C09DF103C061
:1034C8009EF19BC100F09CC101F09DC102F09EC11C
:1034D80003F0FCEC04F000C004F001C005F002C0E9
:1034E80006F003C007F095C100F096C101F097C13E
:1034F80002F098C103F00FEC05F000C095F101C08F
:1035080096F102C097F103C098F1996B9A6B010E7E
:10351800906F90510A0A34E090C100F0000E016EDD
:10352800026E036E0036009001360236033600360E
:103538000090013602360336F70E0024F66E610E4F
:103548000120F76E000E0220F86E0900F5CF01F099
:103558000900F5CF02F00900F5CF03F00900F5CF17
:1035680004F004509E5D08E103509D5D05E10250A2
:103578009C5D02E101509B5D01E202D0902BC9D70E
:1035880090518E25006E000E8F21016E99510026F4
:103598009A5101220050915F0150925B94B704D078
:1035A8008E518F1101E104D0010E915F000E925BE4
:1035B800030E9315006E94C101F0000E0116005021
:1035C800011004E0010E915F000E925B93A539D0C3
:1035D80093A312D093A103D02D0E006E02D02B0E10
:1035E800006E87C1E1FF88C1E2FF00C0E6FF874B9C
:1035F800882BA64BA72B0CD093A10AD087C1E1FF3B
:1036080088C1E2FF200EE66E874B882BA64BA72BBE
:10361800800E006E800E9219005C02E19151000844
:103628000FE287C1E1FF88C1E2FF300EE66E874BEB
:10363800882BA64BA72B010E915F000E925BE8D753
:103648003AD093B718D0800E006E800E9219005CA5
:1036580002E1915100080FE287C1E1FF88C1E2FF52
:10366800200EE66E874B882BA64BA72B010E915F89
:10367800000E925BE8D793A312D093A103D02D0E2E
:10368800006E02D02B0E006E87C1E1FF88C1E2FFF9
:1036980000C0E6FF874B882BA64BA72B0CD093A125
:1036A8000AD087C1E1FF88C1E2FF200EE66E874B92
:1036B800882BA64BA72B90C100F0900700524CE036
:1036C80090C100F0000E016E026E036E003600908D
:1036D80001360236033600360090013602360336CC
:1036E800F70E0024F66E610E0120F76E000E022020
:1036F800F86E0900F5CF04F00900F5CF05F00900D0
:10370800F5CF06F00900F5CF07F09BC100F09CC18A
:1037180001F09DC102F09EC103F012EC05F00A0E03
:10372800046E000E056E066E076E12EC05F008C0FA
:1037380000F009C001F00AC002F00BC003F0300E1F
:10374800002687C1E1FF88C1E2FF00C0E6FF874B82
:10375800882BA64BA72BAFD7800E006E800E9A1928
:10376800005C02E1995100080FE287C1E1FF88C1BE
:10377800E2FF300EE66E874B882BA64BA72B010E77
:10378800995F000E9A5BE8D7800E000A006E800EE3
:103798008F19005C02E18E51080803E2080E906F51
:1037A80002D08EC190F190518E5F000E8F5B9053C6
:1037B80003E194B701D00AD087C1E1FF88C1E2FFD5
:1037C8002E0EE66E874B882BA64BA72B90C1AEF129
:1037D800BEEC0BF095C104F096C105F097C106F058
:1037E80098C107F00BEC04F03AEC0AF000C09BF12A
:1037F80001C09CF102C09DF103C09EF190534DE0C1
:10380800900790C100F0000E016E026E036E003644
:103818000090013602360336003600900136023633
:103828000336F70E0024F66E610E0120F76E000EC7
:103838000220F86E0900F5CF04F00900F5CF05F075
:103848000900F5CF06F00900F5CF07F09BC100F09D
:103858009CC101F09DC102F09EC103F012EC05F07D
:103868000A0E046E000E056E066E076E12EC05F069
:1038780008C000F009C001F00AC002F00BC003F054
:10388800300E002687C1E1FF88C1E2FF00C0E6FFD5
:10389800874B882BA64BA72BB1D78E518F110FE0E2
:1038A80087C1E1FF88C1E2FF300EE66E874B882BA7
:1038B800A64BA72B010E8E5F000E8F5BEED793A74A
:1038C8001AD0800E006E800E9219005C02E19151B0
:1038D800000811E287C1E1FF88C1E2FF200EE66E11
:1038E800874B882BA64BA72B010E915F000E925B8E
:1038F80091519211EFE1C9EF10F0C00E9315016ECE
:1039080094C102F0000E0216000E021802E1000E29
:103918000118D8A47CD093A927D08CC1E9FF8DC108
:10392800EAFFEECF00F0EECF01F000C0E9FF01C0E2
:10393800EAFFEECF9BF1EECF9CF1EECF9DF1EECFFB
:103948009EF18CC1E9FF8DC1EAFF040EEE24006EE2
:10395800000EEE20016E8CC1E1FF8DC1E2FF00C0B8
:10396800E6FF01C0E6FF2BD08CC1E9FF8DC1EAFF5D
:10397800EECF00F0EECF01F000C0E9FF01C0EAFF92
:10398800EECF00F0EECF01F000C09BF101C09CF13A
:10399800000E01BEFF0E9D6F9E6F8CC1E9FF8DC1A9
:1039A800EAFF020EEE24006E000EEE20016E8CC1BE
:1039B800E1FF8DC1E2FF00C0E6FF01C0E6FF800E17
:1039C8009E19006E800E005C08E1000E9D5D05E109
:1039D800000E9C5D02E1000E9B5D18E2030E93133E
:1039E800000E9413006A016A026A036A9B51005E22
:1039F8009C51015A9D51025A9E51035A00C09BF195
:103A080001C09CF102C09DF103C09EF14ED093A964
:103A180027D08CC1E9FF8DC1EAFFEECF00F0EECFD1
:103A280001F000C0E9FF01C0EAFFEECF9BF1EECF45
:103A38009CF1EECF9DF1EECF9EF18CC1E9FF8DC1D7
:103A4800EAFF040EEE24006E000EEE20016E8CC11B
:103A5800E1FF8DC1E2FF00C0E6FF01C0E6FF25D00F
:103A68008CC1E9FF8DC1EAFFEECF00F0EECF01F087
:103A780000C0E9FF01C0EAFFEECF9BF1EECF9CF159
:103A8800000E9D6F9E6F8CC1E9FF8DC1EAFF020E8B
:103A9800EE24006E000EEE20016E8CC1E1FF8DC198
:103AA800E2FF00C0E6FF01C0E6FF000E8F1902E149
:103AB800000E8E190FE1000E006E9E1908E10050ED
:103AC8009D1905E100509C1902E19B51000A02E191
:103AD8008E4B8F2BC00E9315006E00C005F0AED034
:103AE800010E906F90510A0A34E090C100F0000E68
:103AF800016E026E036E0036009001360236033600
:103B080000360090013602360336F70E0024F66EB2
:103B1800610E0120F76E000E0220F86E0900F5CF45
:103B280001F00900F5CF02F00900F5CF03F0090014
:103B3800F5CF04F004509E5D08E103509D5D05E15A
:103B480002509C5D02E101509B5D01E202D0902B86
:103B5800C9D782D0010E906F9051080A34E090C105
:103B680000F0000E016E026E036E00360090013602
:103B780002360336003600900136023603361F0E31
:103B88000024F66E620E0120F76E000E0220F86E19
:103B98000900F5CF01F00900F5CF02F00900F5CFD3
:103BA80003F00900F5CF04F004509E5D08E10350CE
:103BB8009D5D05E102509C5D02E101509B5D01E2C3
:103BC80002D0902BC9D748D0010E906F90510C0AA3
:103BD80034E090C100F0000E016E026E036E0036F4
:103BE8000090013602360336003600900136023660
:103BF8000336C70E0024F66E610E0120F76E000E24
:103C08000220F86E0900F5CF01F00900F5CF02F0A7
:103C18000900F5CF03F00900F5CF04F004509E5DCC
:103C280008E103509D5D05E102509C5D02E10150F1
:103C38009B5D01E202D0902BC9D70ED00550000A37
:103C4800D8B44ED70550C00AD8B44AD70550800A10
:103C580081E00550400AB8E0800E006E800E8F1992
:103C6800005C02E18E51905D03E28EC190F10DD0AF
:103C7800800E8F19006E800E005C02E190518E5DFF
:103C880004E290C18EF1000E8F6F915192110EE0F7
:103C9800030E9315006E94C101F0000E011600503A
:103CA800011004E0010E915F000E925B800E8F19E7
:103CB800006E800E9219005C02E191518E5D05E262
:103CC8008E51915F8F51925B02D0916B926BC40EB3
:103CD8009315016E9451080B026E0250080A02E116
:103CE800400E011808E19151921104E0010E915F14
:103CF800000E925B1CD0C00E9315016E9451080BF8
:103D0800026E0250080A02E1800E011810E1800ECE
:103D1800006E800E9219005C02E19151020805E2E2
:103D2800020E915F000E925B02D0916B926B93A58D
:103D38005DD093A312D093A103D02D0E006E02D0B4
:103D48002B0E006E87C1E1FF88C1E2FF00C0E6FFCD
:103D5800874B882BA64BA72B34D093A10BD087C1B8
:103D6800E1FF88C1E2FF200EE66E874B882BA64B49
:103D7800A72B27D0C00E9315016E9451080B026E25
:103D88000250080A02E1800E01181BE187C1E1FF19
:103D980088C1E2FF300EE66E874B882BA64BA72B17
:103DA80093AB03D0580E006E02D0780E006E87C118
:103DB800E1FF88C1E2FF00C0E6FF874B882BA64BD6
:103DC800A72B9151921111E087C1E1FF88C1E2FF51
:103DD800300EE66E874B882BA64BA72B010E915F02
:103DE800000E925B91519211EFE174D091519211B2
:103DF80013E093B711D087C1E1FF88C1E2FF200E1D
:103E0800E66E874B882BA64BA72B010E915F000E01
:103E1800925B91519211EFE193A312D093A103D039
:103E28002D0E006E02D02B0E006E87C1E1FF88C1F7
:103E3800E2FF00C0E6FF874B882BA64BA72B0CD0D0
:103E480093A10AD087C1E1FF88C1E2FF200EE66E88
:103E5800874B882BA64BA72BC00E9315016E945148
:103E6800080B026E0250080A02E1400E01180BE12D
:103E780087C1E1FF88C1E2FF300EE66E874B882BD1
:103E8800A64BA72B27D0C00E9315016E9451080B93
:103E9800026E0250080A02E1800E01181BE187C178
:103EA800E1FF88C1E2FF300EE66E874B882BA64BF8
:103EB800A72B93AB03D0580E006E02D0780E006E7D
:103EC80087C1E1FF88C1E2FF00C0E6FF874B882B6E
:103ED800A64BA72B800E006E800E8F19005C02E1A6
:103EE8008E51905D0BE287C1E1FF88C1E2FF300E81
:103EF800E66E874B882BA64BA72BECD78EC100F01C
:103F08008FC101F0010E8E5F000E8F5B0050011013
:103F1800D8B42AD1C00E9315006E00C0A8F10AD1FA
:103F28008EC100F08FC101F0000E8FBFFF0E026E30
:103F3800036E0036009001360236033600360090D4
:103F4800013602360336F70E0024F66E610E0120A4
:103F5800F76E000E0220F86E0900F5CF04F0090094
:103F6800F5CF05F00900F5CF06F00900F5CF07F009
:103F78009BC100F09CC101F09DC102F09EC103F0FD
:103F880012EC05F00A0E046E000E056E066E076E42
:103F980012EC05F008C000F009C001F00AC002F0F8
:103FA8000BC003F0300E0024906FD3D093AB45D0F4
:103FB8008EC100F08FC101F0000E8FBFFF0E026EA0
:103FC800036E003600900136023603360036009044
:103FD8000136023603361F0E0024F66E620E0120EB
:103FE800F76E000E0220F86E0900F5CF04F0090004
:103FF800F5CF05F00900F5CF06F00900F5CF07F079
:104008009BC100F09CC101F09DC102F09EC103F06C
:1040180012EC05F00F0E0016000E0116021603161C
:104028003F0E0024F66E620E0120F76E000E02208D
:10403800F86E0900F5CF90F144D08EC100F08FC121
:1040480001F0000E8FBFFF0E026E036E0036009067
:104058000136023603360036009001360236033642
:104068001F0E0024F66E620E0120F76E000E02206D
:10407800F86E0900F5CF04F00900F5CF05F0090046
:10408800F5CF06F00900F5CF07F09BC100F09CC101
:1040980001F09DC102F09EC103F012EC05F00F0E75
:1040A8000016000E011602160316500E0024F66EB6
:1040B800620E0120F76E000E0220F86E0900F5CF9F
:1040C80090F147D08EC100F08FC101F0000E8FBF74
:1040D800FF0E026E036E003600900136023603367C
:1040E80000360090013602360336C70E0024F66EFD
:1040F800610E0120F76E000E0220F86E0900F5CF60
:1041080004F00900F5CF05F00900F5CF06F0090025
:10411800F5CF07F09BC100F09CC101F09DC102F0F2
:104128009EC103F012EC05F0070E0014906F300EDC
:1041380090270FD0A851000AD8B4F2D6A851C00AC7
:10414800D8B4EED6A851800AD8B430D7A851400ABE
:10415800B9E087C1E1FF88C1E2FF90C1E6FF874B64
:10416800882BA64BA72BCAD693A71AD0800E006E11
:10417800800E9219005C02E19151000811E287C19A
:10418800E1FF88C1E2FF200EE66E874B882BA64B25
:10419800A72B010E915F000E925B91519211EFE1F6
:0E41A800C9EF10F0A6C100F0A7C101F012008F
:1041B600EEEC09F0040E046E000E056EF1EC0AF04A
:1041C60008C000F009C001F000C019F101C01AF1E1
:1041D600EEEC09F0140E046E000E056EF1EC0AF01A
:1041E60008C000F009C001F000C017F101C018F1C5
:1041F60019C100F01AC101F0140E046E000E056E0E
:104206009CEC0EF01B0E0026010E01220101175137
:104216000024E96E18510120EA6EEECFB8F1DCEC0D
:1042260009F0005217E019C100F01AC101F0140E8E
:10423600046E000E056E9CEC0EF01B0E0026010EA1
:10424600012217510024E16E18510120E26EEEC0E2
:10425600E6FF58D019C100F01AC101F0140E046E21
:10426600000E056E9CEC0EF01B0E0026010E0122C0
:1042760017510024E96E18510120EA6EEECFB8F10D
:104286002EEC0AF000523DE019C100F01AC101F00F
:10429600140E046E000E056E9CEC0EF01B0E00262E
:1042A600010E012217510024E96E18510120EA6E11
:1042B600EECFB8F1D9EC0AF0005223E119C100F0B3
:1042C6001AC101F0140E046E000E056E9CEC0EF081
:1042D6001B0E0026010E012217510024B66F18513D
:1042E6000120B76FB6C1E9FFB7C1EAFFEECFB8F15B
:1042F600B9EC0BF0B6C1E1FFB7C1E2FF00C0E6FFC3
:0643060001D056D71200A1
:10430C00B6C100F0003600900036009000360090E8
:06431C00003600901200C3
:10432200080E0101B615026E080EB715016E025095
:10433200011802E0006A1200080EB615026E080E9D
:10434200B715016E0250011803E0010E006E120053
:04435200006A1200EB
:10435600B6C1B9F1DCEC03F000500A0A03E1010E24
:08436600006E1200006A120053
:10436E000101196B1A6B800E1A19006E800E005C1B
:10437E0002E1040E195D47E2176B186B800E1819D7
:10438E00006E800E005C02E1140E175D39E219C159
:10439E0000F01AC101F0140E046E000E056E9CECB6
:1043AE000EF01B0E0026010E012217510024B46FD1
:1043BE0018510120B56FF0C0B6F1A1DF00C0B3F106
:1043CE0019C100F01AC101F0140E046E000E056E34
:1043DE009CEC0EF01B0E0026010E0122175100243C
:1043EE00D96E18510120DA6EDE50B311006EB4C1D1
:1043FE00E1FFB5C1E2FF00C0E6FF174B182BBED799
:08440E00194B1A2BB0D7120064
:0A441600485001016C15006E120001
:104420000101196B1A6B800E1A19006E800E005C68
:1044300002E1040E195D74E2176B186B800E1819F7
:10444000006E800E005C02E1140E175D66E219C179
:1044500000F01AC101F0140E046E000E056E9CEC03
:104460000EF01B0E0026010E012217510024E96EEA
:1044700018510120EA6EEECFB6F1C1EC0FF00050FA
:104480000001F01924E019C100F01AC101F0140E66
:10449000046E000E056E9CEC0EF01B0E0026010E45
:1044A0000122010117510024B36F18510120B46F8C
:1044B000B3C1E9FFB4C1EAFFEECFB6F1C1EC0FF032
:1044C000B3C1E1FFB4C1E2FF00C0E6FF23D00101A8
:1044D00019C100F01AC101F0140E046E000E056E31
:1044E0009CEC0EF01B0E0026010E01221751002439
:1044F000B36F18510120B46FB3C1E9FFB4C1EAFF33
:10450000EECFB9F1DCEC03F0B3C1E1FFB4C1E2FFDF
:1045100000C0E6FF174B182B91D7194B1A2B83D7E6
:02452000120087
:104522000101196B1A6B800E1A19006E800E005C65
:1045320002E1040E195DD8B07DD0176B186B800EA6
:104542001819006E800E005C02E1140E175D6FE216
:1045520019511725006E1A511821016E060E046EAC
:10456200000E056EF1EC0AF008C000F009C001F07F
:104572000050011028E0040E046E000E056E17C1F3
:1045820000F018C101F0F1EC0AF008C000F009C017
:1045920001F000C0B3F101C0B4F1030E046E000ECD
:1045A200056E19C100F01AC101F0F1EC0AF008C061
:1045B20000F009C001F00101B451011802E10050FC
:1045C200B31901E01BD0010119511A1117E019C1E9
:1045D20000F01AC101F0140E046E000E056E9CEC80
:1045E2000EF01B0E0026010E012217510024E16E6F
:1045F20018510120E26EEFC0E6FF16D019C100F09B
:104602001AC101F0140E046E000E056E9CEC0EF041
:104612001B0E0026010E012217510024E16E1851D3
:104622000120E26EEDC0E6FF174B182B88D7194B1D
:104632001A2B79D7BFDD4AEC10F01B6B6C6B1200A2
:1046420010D0800E01017C6F1AD0C00E7C6F17D083
:10465200940E7C6F14D0D40E7C6F11D0800E7C6FC0
:104662000ED001017C51010AECE07C51020AEDE01E
:104672007C51030AEDE07C51040AEDE0EFD77D05A1
:10468200006E7C51002600C07CF1008100C0AEF1BA
:10469200C4EC0EF000917EC1AEF1C4EC0EF00081CC
:0246A200120004
:1046A4007CC187F138EC10F00050060A03E1010EDA
:0846B400006E1200006A120002
:1046BC00010E01017C15016E0150010A03E1010E8E
:0846CC00006E1200006A1200EA
:1046D40010D0800E01017C6F1AD0C00E7C6F17D0F1
:1046E400940E7C6F14D0D40E7C6F11D0800E7C6F2E
:1046F4000ED001017C51010AECE07C51020AEDE08C
:104704007C51030AEDE07C51040AEDE0EFD77D050E
:10471400006E7C51002600C07CF100C0AEF1C4ECF8
:104724000EF00091806B80517E25E96E000E7F2192
:10473400EA6EEE520CE080517E25E96E000E7F2178
:10474400EA6EEECF87F1AFEC10F0802BECD700814E
:02475400120051
:104756007CC187F138EC10F000500A0A03E1010E23
:08476600006E1200006A12004F
:10476E007CC187F118EC0FF00050000A03E1010E36
:08477E00006E1200006A120037
:10478600810E0101856F010E866F7CC187F17DC1A7
:1047960088F17EC189F17FC18AF180C18BF1850ED6
:1047A6008C6F010E8D6FC4EC10F000C083F101C058
:1047B60084F100507C25E16E01507D21E26EE66AAF
:0A47C60083C100F084C101F012006D
:1047D00001017F6B7CC1E9FF7DC1EAFFEECF7EF175
:1047E0007E51000A0FE07EC187F19CEC10F00101C0
:1047F0007F2B7F517C25E96E000E7D21EA6EEECF86
:064800007EF1EED712006C
:104806000D0E0101876F9CEC10F00A0E0101876FF7
:064816009CEC10F0120002
:10481C000101016B026B800E0219006E800E005CB0
:10482C0002E1050E015D44E2CCEC0FF0FBC000F0A0
:10483C00FCC001F0140E046E000E056E9CEC0EF024
:10484C001B0E0026010E0122FD510024E96EFE51C3
:10485C000120EA6EEECFB6F1A3EC10F0005220E18D
:10486C00FBC000F0FCC001F0140E046E000E056ECF
:10487C009CEC0EF01B0E0026010E01220001FD51D6
:10488C000024E96EFE510120EA6EEECFB6F1C1ECC8
:10489C000FF000C0B8F12EEC0AF0005201E103D089
:1048AC0023EC0FF001D004D00101014B022BB3D744
:1048BC00FBC000F0FCC001F0140E046E000E056E7F
:1048CC009CEC0EF01B0E0026010E01220001FD5186
:1048DC000024E96EFE510120EA6EEECFB6F1A3EC96
:1048EC0010F0005220E1FBC000F0FCC001F0140EEF
:1048FC00046E000E056E9CEC0EF01B0E0026010ED5
:10490C0001220001FD510024E96EFE510120EA6EE6
:10491C00EECFB6F1C1EC0FF000C0B8F12EEC0AF0FE
:10492C00005201E101D012000001FBC000F0FCC0FC
:10493C0001F0140E046E000E056E9CEC0EF01B0EB6
:10494C000026010E0122FD510024E96EFE510120CA
:10495C00EA6EEECFB6F1C1EC0FF000C0B6F13EEC52
:10496C0010F0005206E00001F35101016C1328EF26
:10497C002AF0FBC000F0FCC001F0140E046E000E17
:10498C00056E9CEC0EF01B0E0026010E01220001A0
:10499C00FD510024E96EFE510120EA6EEECFB8F114
:1049AC002EEC0AF00052D8B49AD2FBC000F0FCC036
:1049BC0001F0140E046E000E056E9CEC0EF01B0E36
:1049CC000026010E01220001FD510024E96EFE516A
:1049DC000120EA6EEECFB8F1E8EC09F000C0B7F1B7
:1049EC00FAC0B6F198DC0052D8B444D119C100F029
:1049FC001AC101F0140E046E000E056E9CEC0EF044
:104A0C001B0E0026010E012217510024E96E1851CD
:104A1C000120EA6EEECFB8F1D9EC0AF00052010E8B
:104A2C00D8A4000EB36FFBC000F0FCC001F0140E54
:104A3C00046E000E056E9CEC0EF01B0E0026010E93
:104A4C0001220001FD510024E96EFE510120EA6EA5
:104A5C00EECFB8F1D9EC0AF0B351001646E0FBC02A
:104A6C0000F0FCC001F0140E046E000E056E9CEC00
:104A7C000EF01B0E0026010E01220001FD51002438
:104A8C000101B46F0001FE5101200101B56FB4C1E9
:104A9C00E9FFB5C1EAFFEECFB9F1DCEC03F000C0E1
:104AAC00B3F119C100F01AC101F0140E046E000E1E
:104ABC00056E9CEC0EF01B0E0026010E0122175108
:104ACC000024E96E18510120EA6EEECFB8F1B9EC72
:104ADC000BF000C0B6F114DCB3510012B4C1E1FF0D
:104AEC00B5C1E2FF00C0E6FFC4D019C100F01AC185
:104AFC0001F0140E046E000E056E9CEC0EF01B0EF5
:104B0C000026010E012217510024E96E18510120D4
:104B1C00EA6EEECFB8F1D9EC0AF000C0B3F1FBC0ED
:104B2C0000F0FCC001F0140E046E000E056E9CEC3F
:104B3C000EF01B0E0026010E01220001FD51002477
:104B4C00E96EFE510120EA6EEECFB8F1D9EC0AF015
:104B5C000052010ED8A4000E006EB351001647E0AF
:104B6C00FBC000F0FCC001F0140E046E000E056ECC
:104B7C009CEC0EF01B0E0026010E01220001FD51D3
:104B8C0000240101B46F0001FE5101200101B56F39
:104B9C00B4C1E9FFB5C1EAFFEECFB9F1DCEC03F02B
:104BAC0000C0B3F119C100F01AC101F0140E046E6B
:104BBC00000E056E9CEC0EF01B0E0026010E012261
:104BCC0017510024E96E18510120EA6EEECFB6F1B0
:104BDC001EEC0FF000C0B6F186EC21F0B3510012C0
:104BEC00B4C1E1FFB5C1E2FF00C0E6FF42D0FBC09B
:104BFC0000F0FCC001F0140E046E000E056E9CEC6F
:104C0C000EF01B0E0026010E01220001FD510024A6
:104C1C000101B46F0001FE5101200101B56FB4C157
:104C2C00E9FFB5C1EAFFEECFB9F1DCEC03F000C04F
:104C3C00B3F119C100F01AC101F0140E046E000E8C
:104C4C00056E9CEC0EF01B0E0026010E0122175176
:104C5C000024E96E18510120EA6EEECFB6F186EC15
:104C6C0021F0B3510012B4C1E1FFB5C1E2FF00C0A5
:104C7C00E6FF34D1FBC000F0FCC001F0140E046E52
:104C8C00000E056E9CEC0EF01B0E0026010E012290
:104C9C000001FD510024E96EFE510120EA6EEECFB9
:104CAC00B8F1D9EC0AF0005247E0FBC000F0FCC0B0
:104CBC0001F0140E046E000E056E9CEC0EF01B0E33
:104CCC000026010E01220001FD5100240101B46FE8
:104CDC000001FE5101200101B56FB4C1E9FFB5C15E
:104CEC00EAFFEECFB9F1DCEC03F000C0B3F119C16F
:104CFC0000F01AC101F0140E046E000E056E9CEC4F
:104D0C000EF01B0E0026010E012217510024E96E35
:104D1C0018510120EA6EEECFB8F1B9EC0BF000C0DF
:104D2C00B6F186EC21F0B3510012B4C1E1FFB5C16C
:104D3C00E2FF00C0E6FF46D0FBC000F0FCC001F073
:104D4C00140E046E000E056E9CEC0EF01B0E00266D
:104D5C00010E01220001FD5100240101B46F00017C
:104D6C00FE5101200101B56FB4C1E9FFB5C1EAFFE5
:104D7C00EECFB9F1DCEC03F000C0B3F119C100F0D7
:104D8C001AC101F0140E046E000E056E9CEC0EF0B0
:104D9C001B0E0026010E012217510024E96E18513A
:104DAC000120EA6EEECFB6F11EEC0FF000C0B6F1AA
:104DBC0086EC21F0B3510012B4C1E1FFB5C1E2FFA2
:104DCC0000C0E6FF19C100F01AC101F0140E046E08
:104DDC00000E056E9CEC0EF01B0E0026010E01223F
:104DEC0017510024E96E18510120EA6EEECFB6F18E
:104DFC00C1EC0FF000500001F01970E119C100F086
:104E0C001AC101F0140E046E000E056E9CEC0EF02F
:104E1C001B0E0026010E0122010117510024E96E20
:104E2C0018510120EA6EEECFB8F1D9EC0AF000521D
:104E3C002BE019C100F01AC101F0140E046E000E23
:104E4C00056E9CEC0EF01B0E0026010E0122175174
:104E5C000024B46F18510120B56FB4C1E9FFB5C17E
:104E6C00EAFFEECFB9F1DCEC03F000C0B3F1EEC019
:104E7C00B6F186EC21F0B3510012B4C1E1FFB5C11B
:104E8C00E2FF00C0E6FF2AD019C100F01AC101F000
:104E9C00140E046E000E056E9CEC0EF01B0E00261C
:104EAC00010E012217510024B46F18510120B56F67
:104EBC00B4C1E9FFB5C1EAFFEECFB9F1DCEC03F008
:104ECC0000C0B3F1EDC0B6F186EC21F0B351001285
:104EDC00B4C1E1FFB5C1E2FF00C0E6FFB3D2FBC035
:104EEC0000F0FCC001F0140E046E000E056E9CEC7C
:104EFC000EF01B0E0026010E01220001FD510024B4
:104F0C00E96EFE510120EA6EEECFB6F1ABEC21F06A
:104F1C000052D8B449D119C100F01AC101F0140ED5
:104F2C00046E000E056E9CEC0EF01B0E0026010E9E
:104F3C00012217510024E96E18510120EA6EEECFC0
:104F4C00B8F1D9EC0AF00052D8B4A0D0FBC000F0F4
:104F5C00FCC001F0140E046E000E056E9CEC0EF0FD
:104F6C001B0E0026010E01220001FD51002401013F
:104F7C00B46F0001FE5101200101B56FB4C1E9FF0E
:104F8C00B5C1EAFFEECFB9F1DCEC03F000C0B3F130
:104F9C0019C100F01AC101F0140E046E000E056E5A
:104FAC009CEC0EF01B0E0026010E01221751002462
:104FBC00E96E18510120EA6EEECFB6F186EC21F0C5
:104FCC00B3510012B4C1E1FFB5C1E2FF00C0E6FF6E
:104FDC0019C100F01AC101F0140E046E000E056E1A
:104FEC009CEC0EF01B0E0026010E01221751002422
:104FFC00E96E18510120EA6EEECFB6F1C1EC0FF05C
:10500C0000500001F01941E119C100F01AC101F082
:10501C00140E046E000E056E9CEC0EF01B0E00269A
:10502C00010E0122010117510024B46F1851012007
:10503C00B56FB4C1E9FFB5C1EAFFEECFB9F1DCEC55
:10504C0003F000C0B3F1FBC000F0FCC001F0140E83
:10505C00046E000E056E9CEC0EF01B0E0026010E6D
:10506C0001220001FD510024E96EFE510120EA6E7F
:10507C00EECFB6F186EC21F00101B3510012B4C1B0
:10508C00E1FFB5C1E2FF00C0E6FF8DD0FBC000F030
:10509C00FCC001F0140E046E000E056E9CEC0EF0BC
:1050AC001B0E0026010E01220001FD5100240101FE
:1050BC00B46F0001FE5101200101B56FB4C1E9FFCD
:1050CC00B5C1EAFFEECFB9F1DCEC03F000C0B3F1EF
:1050DC0019C100F01AC101F0140E046E000E056E19
:1050EC009CEC0EF01B0E0026010E01221751002421
:1050FC00E96E18510120EA6EEECFB8F1B9EC0BF065
:10510C0000C0B6F186EC21F0B3510012B4C1E1FF3E
:10511C00B5C1E2FF00C0E6FF19C100F01AC101F0F1
:10512C00140E046E000E056E9CEC0EF01B0E002689
:10513C00010E012217510024E96E18510120EA6E6C
:10514C00EECFB6F1C1EC0FF000500001F0192BE1DD
:10515C0019C100F01AC101F0140E046E000E056E98
:10516C009CEC0EF01B0E0026010E012201011751C2
:10517C000024B46F18510120B56FB4C1E9FFB5C15B
:10518C00EAFFEECFB9F1DCEC03F000C0B3F1EDC0F7
:10519C00B6F186EC21F0B3510012B4C1E1FFB5C1F8
:1051AC00E2FF00C0E6FF4ED1FBC000F0FCC001F0F6
:1051BC00140E046E000E056E9CEC0EF01B0E0026F9
:1051CC00010E01220001FD510024E96EFE51012067
:1051DC00EA6EEECFB8F1DCEC09F00052D8B432D163
:1051EC0019C100F01AC101F0140E046E000E056E08
:1051FC009CEC0EF01B0E0026010E01221751002410
:10520C00E96E18510120EA6EEECFB8F1D9EC0AF034
:10521C000052D8B48ED0FBC000F0FCC001F0140ECC
:10522C00046E000E056E9CEC0EF01B0E0026010E9B
:10523C0001220001FD5100240101B46F0001FE5157
:10524C0001200101B56FB4C1E9FFB5C1EAFFEECF92
:10525C00B9F1DCEC03F000C0B3F119C100F01AC1D4
:10526C0001F0140E046E000E056E9CEC0EF01B0E7D
:10527C000026010E012217510024E96E185101205D
:10528C00EA6EEECFB6F11EEC0FF000C0B6F186EC74
:10529C0021F0B3510012B4C1E1FFB5C1E2FF00C06F
:1052AC00E6FF19C100F01AC101F0140E046E000ED5
:1052BC00056E9CEC0EF01B0E0026010E0122175100
:1052CC000024E96E18510120EA6EEECFB6F1C1EC64
:1052DC000FF000500001F0192BE119C100F01AC1B8
:1052EC0001F0140E046E000E056E9CEC0EF01B0EFD
:1052FC000026010E0122010117510024B46F185130
:10530C000120B56FB4C1E9FFB5C1EAFFEECFB9F129
:10531C00DCEC03F000C0B3F1EEC0B6F186EC21F08A
:10532C00B3510012B4C1E1FFB5C1E2FF00C0E6FF0A
:10533C0089D0FBC000F0FCC001F0140E046E000E0E
:10534C00056E9CEC0EF01B0E0026010E01220001D6
:10535C00FD5100240101B46F0001FE510120010137
:10536C00B56FB4C1E9FFB5C1EAFFEECFB9F1DCEC22
:10537C0003F000C0B3F119C100F01AC101F0140E12
:10538C00046E000E056E9CEC0EF01B0E0026010E3A
:10539C00012217510024E96E18510120EA6EEECF5C
:1053AC00B6F186EC21F0B3510012B4C1E1FFB5C1E6
:1053BC00E2FF00C0E6FF19C100F01AC101F0140EA3
:1053CC00046E000E056E9CEC0EF01B0E0026010EFA
:1053DC00012217510024E96E18510120EA6EEECF1C
:1053EC00B6F1C1EC0FF000500001F0192BE119C11E
:1053FC0000F01AC101F0140E046E000E056E9CEC48
:10540C000EF01B0E0026010E012201011751002483
:10541C00B46F18510120B56FB4C1E9FFB5C1EAFFF3
:10542C00EECFB9F1DCEC03F000C0B3F1EDC0B6F196
:10543C0086EC21F0B3510012B4C1E1FFB5C1E2FF1B
:06544C0000C0E6FF1200A3
:1054520001016B51000828E219C100F01AC101F0E4
:10546200140E046E000E056E9CEC0EF01B0E002650
:10547200010E012217510024B46F18510120B56F9B
:10548200B4C1E9FFB5C1EAFFF30EEE14B36F6BC10D
:10549200B8F1E8EC09F0B3510012B4C1E1FFB5C1B3
:1054A200E2FF00C0E6FF6B6BCCEC0FF0FBC000F03C
:1054B200FCC001F0140E046E000E056E9CEC0EF0A2
:1054C2001B0E0026010E0122FD510024E96EFE5141
:1054D2000120EA6EEECFB6F1C1EC0FF000C0B8F1D8
:1054E2002EEC0AF0005205E00001F35101016C13A9
:1054F20012000001FBC000F0FCC001F0140E046EAB
:10550200000E056E9CEC0EF01B0E0026010E012211
:10551200FD510024E96EFE510120EA6EEECFB8F192
:105522002EEC0AF0005237E019C100F01AC101F066
:10553200140E046E000E056E9CEC0EF01B0E00267F
:10554200010E012217510024E96E18510120EA6E62
:10555200EECFB6F1FBC000F0FCC001F0140E046EF9
:10556200000E056E9CEC0EF01B0E0026010E0122B1
:105572000001FD510024E96EFE510120EA6EEECFDA
:10558200B7F191EC21F0005205E00001F351010165
:105592006C13120004D1FBC000F0FCC001F0140E29
:1055A200046E000E056E9CEC0EF01B0E0026010E22
:1055B20001220001FD510024E96EFE510120EA6E34
:1055C200EECFB6F1A3EC10F000523FE019C100F0AB
:1055D2001AC101F0140E046E000E056E9CEC0EF062
:1055E2001B0E0026010E012217510024B46F185120
:1055F2000120B56FB4C1E9FFB5C1EAFFEECFB9F141
:10560200DCEC03F000C0B3F119C100F01AC101F0E3
:10561200140E046E000E056E9CEC0EF01B0E00269E
:10562200010E012217510024E96E18510120EA6E81
:10563200EECFB6F186EC21F0B3510012B4C1E1FF16
:10564200B5C1E2FF00C0E6FFAAD0FBC000F0FCC07B
:1056520001F0140E046E000E056E9CEC0EF01B0E93
:105662000026010E01220001FD5100240101B46F48
:105672000001FE5101200101B56FB4C1E9FFB5C1BE
:10568200EAFFEECFB9F1DCEC03F000C0B3F119C1CF
:1056920000F01AC101F0140E046E000E056E9CECAF
:1056A2000EF01B0E0026010E012217510024E96E96
:1056B20018510120EA6EEECFB6F186EC21F0B3511B
:1056C2000012B4C1E1FFB5C1E2FF00C0E6FF19C19B
:1056D20000F01AC101F0140E046E000E056E9CEC6F
:1056E2000EF01B0E0026010E012217510024B46F8A
:1056F20018510120B56FB4C1E9FFB5C1EAFFEECF81
:10570200B9F1DCEC03F000C0B3F1EDC0B6F186EC08
:1057120021F0B3510012B4C1E1FFB5C1E2FF00C0F4
:10572200E6FFFBC000F0FCC001F0140E046E000E98
:10573200056E9CEC0EF01B0E0026010E01220001EC
:10574200FD510024E96EFE510120EA6EEECFB8F160
:10575200D9EC0AF000521CE1FBC000F0FCC001F0E1
:10576200140E046E000E056E9CEC0EF01B0E00264D
:10577200010E01220001FD510024E96EFE510120BB
:10578200EA6EEECFB6F1ABEC21F0005201E107D0A8
:10579200B6EC10F00050010FB66F07EC0FF01200DC
:1057A2000001F35101016C15006E12000001F3516A
:0857B20001016C15006E1200EC
:1057BA00F3C06BF1010E0101AE6FC4EC0EF01200E2
:1057CA00100E836E80AA06D080AA01D0FDD7370EAC
:1057DA00006E120081A206D081A201D0FDD7380E38
:1057EA00006E120081A406D081A401D0FDD7390E23
:1057FA00006E120081A606D081A601D0FDD7250E23
:10580A00006E1200200E836E80AA06D080AA01D0F4
:10581A00FDD7340E006E120081A206D081A201D0FB
:10582A00FDD7350E006E120081A406D081A401D0E6
:10583A00FDD7360E006E120081A606D081A601D0D1
:10584A00FDD72A0E006E1200400E836E80AA06D083
:10585A0080AA01D0FDD7310E006E120081A206D0B7
:10586A0081A201D0FDD7320E006E120081A406D0AB
:10587A0081A401D0FDD7330E006E120081A606D096
:10588A0081A601D0FDD72D0E006E1200800E836E08
:10589A0080AA06D080AA01D0FDD7430E006E12005E
:1058AA0081A206D081A201D0FDD7300E006E12006F
:1058BA0081A406D081A401D0FDD73D0E006E12004E
:1058CA0081A606D081A601D0FDD72B0E006E12004C
:0658DA00FF0E006E12003B
:1058E0000900F5CFE6FF0006FBE10106F9E1120031
:1058F000380E01010F6F210E106F870E116F010E10
:10590000126FFF0E076FFF0E086F000E096F000E7B
:105910000A6FFF0E0B6FFF0E0C6F000E0D6F000E67
:105920000E6FFF0E136FFF0E146F000E156F000E3B
:10593000166FAC8A900EAB6E948E949C9EAA03D088
:08594000AECF00F0FBD712000E
:1059480001016E6B6F6B800E6F19006E800E005C2C
:1059580002E1040E6E5DD8B0B0D0706B716B800E32
:105968007119006E800E005C02E1140E705DD8B0F3
:10597800A1D06EC100F06FC101F0140E046E000ECC
:10598800056E9CEC0EF01B0E0026010E01227051D4
:105998000024E96E71510120EA6EEECF7CF15EECD5
:1059A80023F000520BE06E51010F7C6F7051010F14
:1059B8007D6FF4C07EF121EC23F079D06EC100F048
:1059C8006FC101F0140E046E000E056E9CEC0EF013
:1059D8001B0E0026010E012270510024E96E715140
:1059E8000120EA6EEECF7CF152EC23F000520BE07E
:1059F8006E51010F7C6F7051010F7D6FF8C07EF101
:105A080021EC23F054D06EC100F06FC101F0140EE8
:105A1800046E000E056E9CEC0EF01B0E0026010EA7
:105A2800012270510024E96E71510120EA6EEECF17
:105A38007CF1B7EC23F000520BE06E51010F7C6F44
:105A48007051010F7D6FF9C07EF121EC23F02FD04A
