:040000008BEF22F070
:020006001200E6
:1000080000C015F081A007D0BDEC0AF000C085F152
:0C00180007EC21F0819015C000F01100F1
:06002400000000001200C4
:0E002A00026A016A006A086A036A000E120088
:0A003800210E0D6E0D2EFED71200F2
:100042000F0E0C6E470E0D6E0D2EFED70C2EFCD72A
:0600520000000000120096
:100058000B820BAE36EF00F0036802680168006897
:080068000A360232FF0E1200FD
:100070000B840BAE43EF00F0010E036E026A016ABF
:0A008000006A0A360232FF0E120079
:08008A000AAE029E000E1200F6
:100092000CB08BEF00F00CA231EF01F00E6A000EF3
:1000A2000264A2EF00F0F00E0214D8A46DEF00F08B
:1000B200023A01380F0B02260138F00B016E0038AC
:1000C2000F0B01260038F00B006E08380F0B0026CC
:1000D2000838F00B086E0E84D89002BE86EF00F04E
:1000E20008360036013602360E2A02BE86EF00F0CE
:1000F20008360036013602360E2A02BE86EF00F0BE
:1001020008360036013602360E2A0E50036427EFF7
:1001120001F0035E0BBC08AE2CEF01F0D880800E1C
:1001220008640030000E002201220222D8A02CEF27
:1001320001F0023201320032034A31EF01F02CEFBA
:1001420001F001C002F000C001F008C000F0086A2E
:10015200000E0E860264D9EF00F0F00E0214D8A44D
:10016200C1EF00F0023A01380F0B02260138F00B02
:10017200016E00380F0B01260038F00B006E0E8462
:10018200D89002BE86EF00F00036013602360E2A03
:1001920002BE86EF00F00036013602360E2A02BE9B
:1001A20086EF00F00036013602360E2A86EF00F0A6
:1001B20001C002F000C001F0006A000E0E960E8827
:1001C200026406EF01F0F00E0214D8A4F1EF00F081
:1001D200023A01380F0B02260138F00B016E0E8431
:1001E200D89002BE86EF00F0013602360E2A02BE19
:1001F20086EF00F0013602360E2A02BE86EF00F0CC
:10020200013602360E2A86EF00F001C002F0016AC2
:10021200000E0E86026436EF01F0F00E0214D8A42E
:1002220015EF01F0023A0E84D89002BE86EF00F07C
:1002320002360E2A02BE86EF00F002360E2A02BEF7
:1002420086EF00F002360E2A86EF00F0010E0C6EE9
:100252000EDF39EF01F0020E0C6E16DF39EF01F0FE
:10026200040E0C6EF8DE39EF01F0080E0C6EDCDEC7
:02027200120078
:10027400010184BF02D0839E01D0838E84BD02D04D
:10028400839C01D0838C84BB02D0839A01D0838A5F
:1002940084B902D0839801D0838813B102D08480BA
:1002A40001D084908482BCDE849284B702D0839E81
:1002B40001D0838E84B502D0839C01D0838C84B317
:1002C40002D0839A01D0838A84B102D0839801D06A
:1002D400838813B102D0848001D084908482A0DE0C
:0E02E400849213A102D0ABDE01D0A4DE120082
:1002F2000134083609360450085E0550D8A0053C82
:10030200095E003601360F0E0C6E013408360936CE
:10031200045000A006D0085E0550D8A0053C095E36
:1003220005D008260550D8B0053C0926003601360E
:100332000C2EEBD700B006D0045008260550D8B0DA
:08034200053C09260000120031
:10034A000D6A086A0050D8B4000C04180A6E0ABE76
:10035A000D1E0B6A04AE02D0041E042A00A002D0AD
:10036A00001E002A005004100A6E0ABE1FD0045054
:10037A00085E003600340836045008260036060E99
:10038A000C6E00340836045000B0085E00A008263F
:10039A0000360C2EF6D700A008260BB015D00DAEED
:1003AA00000C001E002A081E082A000C04AE09D000
:1003BA0000BE04D00050086E006AF1D7006A002A15
:1003CA00000C001E0B2AD3D7082A0450085CD8A4B4
:0E03DA00E6D7086A002A00AEE2D7FF0C120038
:1003E800086A080E0C6E003408360450085ED8B04F
:0E03F80002D00826D89000360C2EF5D7120041
:10040600025006180E6E086A096A0B6A03500764E2
:10041600F6EF02F006500A6E068E028E03500B6E41
:100426000750036E000E0B6446EF02F00B50075E9A
:10043600D8B4E7EF02F0070E0764B5EF02F0075EE7
:1004460000C008F001C000F002C001F0026A074EC9
:10045600E7EF02F007648AEF02F0075E00C008F0DB
:1004660001C000F0016A074EE7EF02F0076468EF8B
:1004760002F0075E00C008F0006A074EE7EF02F0E0
:1004860007644FEF02F00AC002F005C001F004C095
:1004960000F0086A10EF04F0030E07645AEF02F04A
:1004A600075E08380F0B086E074EE7EF02F0D8908C
:1004B6000832074EE7EF02F0D8900832074EE7EF12
:1004C60002F0D8900832E7EF02F0030E076479EFE6
:1004D60002F0075E08380F0B086E0038F00B08268E
:1004E60000380F0B006E074EE7EF02F0D89000328F
:1004F6000832074EE7EF02F0D89000320832074E76
:10050600E7EF02F0D89000320832E7EF02F0030E70
:100516000764A1EF02F0075E08380F0B086E00387B
:10052600F00B082600380F0B006E0138F00B002682
:1005360001380F0B016E074EE7EF02F0D89001323B
:1005460000320832074EE7EF02F0D890013200324F
:100556000832074EE7EF02F0D89001320032083237
:10056600E7EF02F0030E0764D2EF02F0075E0838E9
:100576000F0B086E0038F00B082600380F0B006EC4
:100586000138F00B002601380F0B016E0238F00B14
:10059600012602380F0B026E074EE7EF02F0D890E5
:1005A6000232013200320832074EE7EF02F0D890ED
:1005B6000232013200320832074EE7EF02F0D890DD
:1005C6000232013200320832096A000E0EAEDBEF4B
:1005D60003F0081E001E011E021E082A0022012228
:1005E6000222DBEF03F00750D8A4FCEF02F010EF75
:1005F60004F0096A02C00AF0028E068E0750035CF8
:10060600076ED8B4CEEF03F0070E07649CEF03F035
:10061600075E0450096E0550046E0650056E066AA4
:10062600074ECEEF03F0070E076471EF03F0075E87
:100636000450096E0550046E056A074ECEEF03F0AE
:10064600070E07644FEF03F0075E0450096E046A55
:10065600074ECEEF03F0070E076436EF03F00AC02D
:1006660002F010EF04F0030E076441EF03F0075E9B
:1006760009380F0B096E074ECEEF03F0D8900932FA
:10068600074ECEEF03F0D8900932074ECEEF03F0B7
:10069600D8900932CEEF03F0030E076460EF03F043
:1006A600075E09380F0B096E0438F00B092604386B
:1006B6000F0B046E074ECEEF03F0D89004320932CA
:1006C600074ECEEF03F0D89004320932074ECEEF34
:1006D60003F0D89004320932CEEF03F0030E07641C
:1006E60088EF03F0075E09380F0B096E0438F00B2C
:1006F600092604380F0B046E0538F00B042605385E
:100706000F0B056E074ECEEF03F0D890053204327C
:100716000932074ECEEF03F0D89005320432093283
:10072600074ECEEF03F0D890053204320932CEEFF1
:1007360003F0030E0764B9EF03F0075E09380F0BE9
:10074600096E0438F00B092604380F0B046E0538C1
:10075600F00B042605380F0B056E0638F00B052640
:1007660006380F0B066E074ECEEF03F0D890063212
:10077600053204320932074ECEEF03F0D890063226
:10078600053204320932074ECEEF03F0D890063216
:10079600053204320932086A000E0EAEDBEF03F0B2
:1007A600091E041E051E061E092A0422052206220B
:1007B6000950082604500022055001220650022244
:1007C6000EBEF2EF03F0D8A001EF04F002320132C0
:1007D60000320832033E01EF04F00BEF04F0D8B00C
:1007E60006EF04F0000E081E001E011E021E082A57
:1007F6000022012202220A7E06EF04F0010E0C6E90
:1008060045DC12EF04F0020E0C6E40DC12EF04F031
:10081600040E0C6E1EDC12EF04F0000E0C6E1200BD
:100826000B800BAE1FEF04F0026A0AAEFF0E026EDB
:0C083600016E006E0A360232FF0E120046
:10084200086A096A000E07620364A6EF04F0025008
:1008520006180A6E075003267E0ED8A037EF04F062
:10086200035ED8B0ABEF04F03BEF04F0035ED8A018
:10087200B0EF04F0028E068E02C00EF001C00BF043
:1008820000C00DF000500402F4CF0CF0015005023C
:10089200F4CF00F0F3CF08F00402F3500C26F4502A
:1008A2000822000E00220D500502F3500C26F450CF
:1008B2000822000E002202500402F3500826F450CF
:1008C200002202500502016A000E0122F3500026A6
:1008D200F45001220D500602F3500826F450002273
:1008E200026A000E012202220B500602F350002679
:1008F200F4500122000E02220E500602F35001268D
:10090200F450022202BE8EEF04F0083600360136A1
:1009120002360306D8B4B0EF04F0A1EF04F0D88099
:10092200800E08640030000E002201220222D8A0AC
:10093200A1EF04F0023201320032034AABEF04F0BD
:100942000AAE029E000EB3EF04F0010E15EC00F0A9
:10095200B3EF04F0020E2CEC00F0B3EF04F0040E3F
:0609620038EC00F0120069
:080968000B6A0B86FF0E120062
:0E0970000101139183C184F17DDC138112001B
:10097E0003500718D8A4D3EF04F002500618D8A4D9
:10098E00D3EF04F001500518D8A4D3EF04F00050B3
:0E099E000418D8B4D8841200D89412001200A5
:1009AC000A6A0350D8A40A800750D8A40A820A50B5
:1009BC00D8B439EF05F0030AD8B4F2EF04F00AB05A
:1009CC00EDEF04F006AE37EF05F035EF05F002AEB3
:1009DC0035EF05F037EF05F00250800B0A6E029EE2
:1009EC000650800B069E0A18D8B403EF05F00A5087
:1009FC00D8B435EF05F037EF05F00750035CD8B4E9
:100A0C000DEF05F0D8A029EF05F02FEF05F00650FB
:100A1C00025CD8B417EF05F0D8A029EF05F02FEF42
:100A2C0005F00550015CD8B421EF05F0D8A029EFF2
:100A3C0005F02FEF05F00450005CD8B439EF05F049
:100A4C00D8B02FEF05F00A52D8B437EF05F035EFD8
:100A5C0005F00A52D8B435EF05F037EF05F0D88021
:0E0A6C001200D8901200D880D8841200120018
:100A7A00C7B409D01F0EC514016E0150000A03E164
:0A0A8A00010E006E1200006A120057
:100A94000B6A0A6A096A086A0E6A03340836045043
:100AA400085E0550D8A0053C095E0650D8A0063C57
:100AB4000A5E0750D8A0073C0B5EE86AD8A0010E76
:100AC4000E5E0336070E0C6E0334083609360A36FA
:100AD4000B360E36045003A012D0085E0550D8A081
:100AE400053C095E0650D8A0063C0A5E0750D8A013
:100AF400073C0B5EE86AD8A0010E0E5E11D00826F2
:100B04000550D8B0053C09260650D8B0063C0A2644
:100B14000750D8B0073C0B26E86AD8B0010E0E2661
:100B240003360C2ED1D70234083609360A360B3672
:100B34000E36045003A012D0085E0550D8A0053C20
:100B4400095E0650D8A0063C0A5E0750D8A0073CB0
:100B54000B5EE86AD8A0010E0E5E11D0082605507F
:100B6400D8B0053C09260650D8B0063C0A260750E2
:100B7400D8B0073C0B26E86AD8B0010E0E26023620
:100B8400070E0C6E0234083609360A360B360E365A
:100B9400045002A012D0085E0550D8A0053C095E9E
:100BA4000650D8A0063C0A5E0750D8A0073C0B5E4E
:100BB400E86AD8A0010E0E5E11D008260550D8B000
:100BC400053C09260650D8B0063C0A260750D8B082
:100BD400073C0B26E86AD8B0010E0E2602360C2E0E
:100BE400D1D70134083609360A360B360E3604508E
:100BF40002A012D0085E0550D8A0053C095E06503C
:100C0400D8A0063C0A5E0750D8A0073C0B5EE86AF1
:100C1400D8A0010E0E5E11D008260550D8B0053CB0
:100C240009260650D8B0063C0A260750D8B0073C1F
:100C34000B26E86AD8B0010E0E260136070E0C6E9C
:100C44000134083609360A360B360E36045001A034
:100C540012D0085E0550D8A0053C095E0650D8A005
:100C6400063C0A5E0750D8A0073C0B5EE86AD8A091
:100C7400010E0E5E11D008260550D8B0053C092699
:100C84000650D8B0063C0A260750D8B0073C0B26BD
:100C9400E86AD8B0010E0E2601360C2ED1D70034E6
:100CA400083609360A360B360E36045001A012D027
:100CB400085E0550D8A0053C095E0650D8A0063C45
:100CC4000A5E0750D8A0073C0B5EE86AD8A0010E64
:100CD4000E5E11D008260550D8B0053C09260650F2
:100CE400D8B0063C0A260750D8B0073C0B26E86A61
:100CF400D8B0010E0E260036070E0C6E00340836EE
:100D040009360A360B360E36045000A012D0085E9F
:100D14000550D8A0053C095E0650D8A0063C0A5EE2
:100D24000750D8A0073C0B5EE86AD8A0010E0E5EFF
:100D340011D008260550D8B0053C09260650D8B075
:100D4400063C0A260750D8B0073C0B26E86AD8B000
:100D5400010E0E2600360C2ED1D700B00ED0045052
:100D640008260550D8B0053C09260650D8B0063CE4
:0C0D74000A260750D8B0073C0B261200DE
:080D8000067E03EC02F01200F4
:100D88000050086E0150006E0250016E0350026E52
:100D9800036A0B6A0C6A9E0E036E0A6A020E0C6ED8
:060DA80049EC00F012000E
:100DAE0010D0800E01017E6F1AD0C00E7E6F17D04C
:100DBE00940E7E6F14D0D40E7E6F11D0800E7E6F87
:100DCE000ED001017E51010AECE07E51020AEDE0E7
:100DDE007E51030AEDE07E51040AEDE0EFD77F0568
:100DEE00006E7E51002600C07EF100C084F13AEC08
:100DFE0001F01391826B82518025E96E000E8121E4
:100E0E00EA6EEE520BE082518025E96E000E8121D2
:100E1E00EA6EEECF83F1A5DD822BEDD713811200A2
:100E2E0001017E51390806E3300E7E5D03E3010EAB
:080E3E00006E01D0006A1200F1
:100E4600800E01017E19006E800E000A005CD8B08B
:100E56006BD17E510008016E01C07EF1800E011833
:100E6600006E800E6E0A005CD8A0BED0640E046EC2
:100E76007EC100F0A5EC01F0120E0024056E000EF6
:100E860000BEFF0E066E000E062205C000F006C06C
:100E960001F0000E06BEFF0E026E036E00360090D5
:100EA6000136023603360036009001360236033626
:100EB600880E0024F66E4B0E0120F76E000E0220FF
:100EC600F86E0900F5CF7FF10900F5CF80F1090032
:100ED600F5CF81F10900F5CF82F1640E046E7EC173
:100EE60000F0A5EC01F008C000F00A0E046EA5ECB7
:100EF60001F0090E0024056E000E00BEFF0E066E00
:100F0600000E062205C000F006C001F0000E06BE67
:100F1600FF0E026E036E003600900136023603366F
:100F260000360090013602360336880E0024F66E2F
:100F36004B0E0120F76E000E0220F86E0900F5CF69
:100F460000F00900F5CF01F00900F5CF02F0090025
:100F5600F5CF03F07FC104F080C105F081C106F032
:100F660082C107F06BDC00C07FF101C080F102C0D6
:100F760081F103C082F10A0E046E7EC100F0A5EC79
:100F860001F008C000F000C001F0000E00BEFF0E28
:100F9600026E036E046E0136019002360336043685
:100FA60001360190023603360436880E0124F66EA9
:100FB6004B0E0220F76E000E0320F86E0900F5CFE7
:100FC60000F00900F5CF01F00900F5CF02F00900A5
:100FD600F5CF03F07FC104F080C105F081C106F0B2
:100FE60082C107F02BDC1200800E0A0A006E800E0A
:100FF6007E19005C71E20A0E046E7EC100F0A5EC5B
:1010060001F0090E0024056E000E00BEFF0E066EEE
:10101600000E062205C000F006C001F0000E06BE56
:10102600FF0E026E036E003600900136023603365E
:1010360000360090013602360336880E0024F66E1E
:101046004B0E0120F76E000E0220F86E0900F5CF58
:101056007FF10900F5CF80F10900F5CF81F1090094
:10106600F5CF82F10A0E046E7EC100F0A5EC01F008
:1010760008C000F000C001F0000E00BEFF0E026EB8
:10108600036E046E013601900236033604360136CD
:101096000190023603360436880E0124F66E4B0E96
:1010A6000220F76E000E0320F86E0900F5CF00F05F
:1010B6000900F5CF01F00900F5CF02F00900F5CFE0
:1010C60003F07FC104F080C105F081C106F082C142
:1010D60007F021EC04F012007EC100F0000E7EBF86
:1010E600FF0E016E026E036E003600900136023668
:1010F600033600360090013602360336880E002489
:10110600F66E4B0E0120F76E000E0220F86E0900F7
:10111600F5CF00F00900F5CF01F00900F5CF02F098
:101126000900F5CF03F01200800E7E19006E800EC6
:101136006E0A005CD8A0C0D0640E046E7EC100F0BA
:10114600A5EC01F0120E0024056E000E00BEFF0E87
:10115600066E000E062205C000F006C001F0000E65
:1011660006BEFF0E026E036E003600900136023692
:10117600033600360090013602360336BC0E0024D4
:10118600F66E4B0E0120F76E000E0220F86E090077
:10119600F5CF7FF10900F5CF80F10900F5CF81F198
:1011A6000900F5CF82F1640E046E7EC100F0A5EC55
:1011B60001F008C000F00A0E046EA5EC01F0090E5D
:1011C6000024056E000E00BEFF0E066E000E0622FF
:1011D60005C000F006C001F0000E06BEFF0E026E4E
:1011E600036E003600900136023603360036009054
:1011F600013602360336BC0E0024F66E4B0E012075
:10120600F76E000E0220F86E0900F5CF00F0090017
:10121600F5CF01F00900F5CF02F00900F5CF03F094
:101226007FC104F080C105F081C106F082C107F0DC
:1012360021EC04F000C07FF101C080F102C081F111
:1012460003C082F10A0E046E7EC100F0A5EC01F027
:1012560008C000F000C001F0000E00BEFF0E026ED6
:10126600036E046E013601900236033604360136EB
:101276000190023603360436BC0E0124F66E4B0E80
:101286000220F76E000E0320F86E0900F5CF00F07D
:101296000900F5CF01F00900F5CF02F00900F5CFFE
:1012A60003F07FC104F080C105F081C106F082C160
:1012B60007F021EC04F01200800E0A0A006E800E80
:1012C6007E19005C71E20A0E046E7EC100F0A5EC88
:1012D60001F0090E0024056E000E00BEFF0E066E1C
:1012E600000E062205C000F006C001F0000E06BE84
:1012F600FF0E026E036E003600900136023603368C
:1013060000360090013602360336BC0E0024F66E17
:101316004B0E0120F76E000E0220F86E0900F5CF85
:101326007FF10900F5CF80F10900F5CF81F10900C1
:10133600F5CF82F10A0E046E7EC100F0A5EC01F035
:1013460008C000F000C001F0000E00BEFF0E026EE5
:10135600036E046E013601900236033604360136FA
:101366000190023603360436BC0E0124F66E4B0E8F
:101376000220F76E000E0320F86E0900F5CF00F08C
:101386000900F5CF01F00900F5CF02F00900F5CF0D
:1013960003F07FC104F080C105F081C106F082C16F
:1013A60007F021EC04F012007EC100F0000E7EBFB3
:1013B600FF0E016E026E036E003600900136023695
:1013C600033600360090013602360336BC0E002482
:1013D600F66E4B0E0120F76E000E0220F86E090025
:1013E600F5CF00F00900F5CF01F00900F5CF02F0C6
:0813F6000900F5CF03F012001D
:1013FE000450000A12E10550000A0FE10650000ADF
:10140E000CE10750000A09E1FF0E006EFF0E016E9F
:10141E007F0E026EFF0E036E1200086A096A0750F5
:10142E00D8B4AAEF0AF00350D8B4AFEF0AF00250C6
:10143E0006180A6E028E068E0E6A02C008F001C0F1
:10144E000CF000C00DF004500D5E0550D8A0053C08
:10145E000C5E0650D8A0063C085E086A0C6A0D6A3F
:10146E00D8A041EF0AF0D890023201320032083291
:10147E00010E0E6E0750035ED8A04EEF0AF07E0EE0
:10148E000E240326D8B0B4EF0AF054EF0AF07E0E05
:10149E000E240326D8A0B9EF0AF0180E0B6E0D36E7
:1014AE000C3608360036013602360E360450005E13
:1014BE000550D8A0053C015E0650D8A0063C025E41
:1014CE0006340E120EA06FEF0AF00D807AEF0AF0BE
:1014DE00045000260550D8B0053C01260650D8B061
:1014EE00062802260D900B2E56EF0AF0A0EF0AF0FA
:1014FE00D8900036013602360E360450005E055086
:10150E00D8A0053C015E0650D8A0063C025E06340B
:10151E000E10010B0D26D8B00C2AD8B4082AD8A468
:10152E00A0EF0AF008320C320D32032AD8B4B4EF11
:10153E000AF00AAE089E0850026E0C50016E0D5055
:10154E00006EBCEF0AF0010EB4EC04F0BCEF0AF032
:10155E00020E15EC00F0BCEF0AF0040E2CEC00F0BD
:0C156E00BCEF0AF0080E38EC00F0120090
:10157A00100E836E80AA06D080AA01D0FDD7370E3E
:10158A00006E120081A206D081A201D0FDD7380ECA
:10159A00006E120081A406D081A401D0FDD7390EB5
:1015AA00006E120081A606D081A601D0FDD7250EB5
:1015BA00006E1200200E836E80AA06D080AA01D087
:1015CA00FDD7340E006E120081A206D081A201D08E
:1015DA00FDD7350E006E120081A406D081A401D079
:1015EA00FDD7360E006E120081A606D081A601D064
:1015FA00FDD72A0E006E1200400E836E80AA06D016
:10160A0080AA01D0FDD7310E006E120081A206D049
:10161A0081A201D0FDD7320E006E120081A406D03D
:10162A0081A401D0FDD7330E006E120081A606D028
:10163A0081A601D0FDD72D0E006E1200800E836E9A
:10164A0080AA06D080AA01D0FDD7430E006E1200F0
:10165A0081A206D081A201D0FDD7300E006E120001
:10166A0081A406D081A401D0FDD73D0E006E1200E0
:10167A0081A606D081A601D0FDD72B0E006E1200DE
:06168A00FF0E006E1200CD
:101690000450000A08E10550000A05E1FF0E006E43
:1016A0007F0E016E12000D6A096A086A015000106F
:1016B000D8B4000C015005180A6E0ABE0D1E0B6A44
:1016C00005AE05D0041E051E042AD8B4052A01AEB5
:1016D00005D0001E011E002AD8B4012A01500510B1
:1016E0000A6E0ABE10D079EC01F00BB020D00DAE1E
:1016F000000C001E011E002AD8B4012A081E091E73
:10170000082AD8B4092A000C05AE0DD001BE07D0B6
:101710000150096E0050086E016A006AE8D7016A3C
:10172000006A002A000C011E001E0B2ADDD7082AC1
:10173000D8B4092A0450085CD8A4D9D70550095C4C
:10174000D8A4D5D7096A086A002AD8B4012A01AEFC
:08175000CED70000FF0C1200CF
:101758000B6A0C6A086A0350D8B430EF0CF002C068
:101768000AF0028E9E0E035E03AE20EF0CF0036CAF
:10177800080E035CD8A0EDEF0BF0036E083600C02E
:1017880008F001C000F002C001F0026A080E035C14
:10179800D8A0EDEF0BF0036E083600C008F001C0CA
:1017A80000F0016A080E035CD8A0EDEF0BF0036EA1
:1017B800083600C008F0006A080E035CD8A0EDEFF8
:1017C8000BF0036E0836086A0350D8A4D890F9EFD6
:1017D8000BF00350D8B4F9EF0BF0D8900232013275
:1017E80000320832032EF1EF0BF00BBC08A00AEF11
:1017F8000CF0D8A00AEF0CF0082AD8B4002AD8B404
:10180800012AD8B4022A02BE34EF0CF00AAE30EF37
:101818000CF0021E011E001E081E082AD8B4002A59
:10182800D8B4012AD8B4022A30EF0CF0026A016A4F
:10183800006A086A30EF0CF00B800BAE3BEF0CF03F
:10184800026A0AAE3BEF0CF0026E016E006E086E83
:101858000A3602323BEF0CF00C6A000E3CEF0CF03B
:10186800010E0C6E000E13EC04F03CEF0CF0FF0EB2
:101878000250036E0150026E0050016E0850006E57
:0218880012004C
:10188A000B6A0A6A096A00500402F4CF09F0F3CF1E
:10189A0008F001500502F4CF0BF0F3CF0AF0005024
:1018AA000502F3500926F4500A22E86A0B22015075
:1018BA000402F3500926F4500A22E86A0B2208C0EF
:1018CA0000F009C001F00AC002F00BC003F01200D8
:1018DA006E0E01017E5DD8A0CAD0640E046E7EC170
:1018EA0000F0F4EC01F0120E0024056E066A000EF8
:1018FA00062205C000F006C001F0000E06BEFF0E6B
:10190A00026E036E00360090013602360336003648
:10191A000090013602360336880E0024F66E4B0E0E
:10192A000120F76E000E0220F86E0900F5CF00F0D4
:10193A000900F5CF01F00900F5CF02F00900F5CF53
:10194A0003F0000E046E000E056E000E066E7E0E8B
:10195A00076E21EC04F000C07FF101C080F102C0E3
:10196A0081F103C082F1640E046E7EC100F0F4ECD2
:10197A0001F008C000F00A0E046EF4EC01F0090E42
:10198A000024056E066A000E062205C000F006C095
:10199A0001F0000E06BEFF0E026E036E00360090C6
:1019AA000136023603360036009001360236033617
:1019BA00880E0024F66E4B0E0120F76E000E0220F0
:1019CA00F86E0900F5CF00F00900F5CF01F0090023
:1019DA00F5CF02F00900F5CF03F07FC104F080C112
:1019EA0005F081C106F082C107F021EC04F000C0C5
:1019FA007FF101C080F102C081F103C082F10A0EB9
:101A0A00046E7EC100F0F4EC01F008C000F000C0E2
:101A1A0001F0000E026E036E046E0136019002366A
:101A2A000336043601360190023603360436880E30
:101A3A000124F66E4B0E0220F76E000E0320F86E9C
:101A4A000900F5CF00F00900F5CF01F00900F5CF44
:101A5A0002F00900F5CF03F07FC104F080C105F060
:101A6A0081C106F082C107F021EC04F012007E5118
:101A7A000A087EE20A0E046E7EC100F0F4EC01F060
:101A8A00090E0024056E066A000E062205C000F043
:101A9A0006C001F0000E06BEFF0E026E036E00368F
:101AAA0000900136023603360036009001360236BF
:101ABA000336880E0024F66E4B0E0120F76E000ED8
:101ACA000220F86E0900F5CF00F00900F5CF01F009
:101ADA000900F5CF02F00900F5CF03F0000E046EFD
:101AEA00000E056E000E066E7E0E076E21EC04F0E7
:101AFA0000C07FF101C080F102C081F103C082F110
:101B0A000A0E046E7EC100F0F4EC01F008C000F089
:101B1A0000C001F0000E026E036E046E01360190E1
:101B2A00023603360436013601900236033604368D
:101B3A00880E0124F66E4B0E0220F76E000E03206B
:101B4A00F86E0900F5CF00F00900F5CF01F00900A1
:101B5A00F5CF02F00900F5CF03F07FC104F080C190
:101B6A0005F081C106F082C107F021EC04F01200F1
:101B7A007EC100F0000E016E026E036E0036009008
:101B8A000136023603360036009001360236033635
:101B9A00880E0024F66E4B0E0120F76E000E02200E
:101BAA00F86E0900F5CF00F00900F5CF01F0090041
:101BBA00F5CF02F00900F5CF03F0000E046E000E17
:101BCA00056E000E066E7E0E076E21EC04F0120002
:101BDA000B6A0C6A0A6A086A0350D8B475EF0EF0E9
:101BEA00028E9E0E035E03BE00EF0EF0D8B400EF25
:101BFA000EF065EF0EF0036C080E035CD8A032EF0E
:101C0A000EF0036E083600C008F001C000F002C0F2
:101C1A0001F0026A080E035CD8A032EF0EF0036EE0
:101C2A00083600C008F001C000F0016A080E035C23
:101C3A00D8A032EF0EF0036E083600C008F0006A32
:101C4A00080E035CD8A032EF0EF0036E0836086A5D
:101C5A000350D8A4D8903EEF0EF00350D8B43EEF0C
:101C6A000EF0D8900232013200320832032E36EFDB
:101C7A000EF00BBC08A04FEF0EF0D8A04FEF0EF0FD
:101C8A00082AD8B4002AD8B4012AD8B4022A02BE33
:101C9A0079EF0EF00AAE75EF0EF0021E011E001E5D
:101CAA00081E082AD8B4002AD8B4012AD8B4022AAD
:101CBA0075EF0EF0026A016A006A086A75EF0EF0A3
:101CCA000B800BAE7FEF0EF0026A0AAE7FEF0EF0CA
:101CDA00026E016E006E086E0A3602327FEF0EF057
:101CEA00000E0C6A80EF0EF0010E0C6E13EC04F07D
:101CFA0080EF0EF0FF0E0250036E0150026E00508C
:081D0A00016E0850006E12008A
:0C1D12000E0E0D6E0D2EFED7000012000C
:101D1E000C6A0E6A0250D8A4A8EF0EF001C002F0B1
:101D2E0000C001F0006A0E860250D8A4A8EF0EF093
:101D3E0001C002F0016A0E960E880250D8B4BAEFB6
:101D4E000EF00E50035ED8A4D8A0C0EF0EF0D890BF
:101D5E0002BEC6EF0EF0003601360236032EAFEF8E
:101D6E000EF0C0EF0EF0010E0C6E15EC00F0CAEF87
:101D7E000EF0020E0C6E38EC00F0CAEF0EF0040EF0
:081D8E000C6E45EC00F01200A0
:101D9600020E0B6E040E0C6EBA0E0D6E0D2EFED7D5
:0C1DA6000C2EFCD70B2EFAD70000120008
:101DB2000101766B776B636B646B59C100F05AC19A
:101DC20001F05BC102F0010E5927000E5A235B237A
:101DD20000C0F6FF01C0F7FF02C0F8FF0900F5CF0F
:101DE20000F000C060F10052D8B4ECEF1EF0605178
:101DF200250A0BE057C1E1FF58C1E2FF60C1E6FFCF
:101E0200574B582B764B772BD8D7616B626B636B32
:101E1200646B23D06387010E5927000E5A235B237C
:101E220059D06381010E5927000E5A235B2352D0E9
:101E32006383010E5927000E5A235B234BD064871C
:101E4200010E5927000E5A235B2344D06385010EED
:101E52005927000E5A235B233DD059C1F6FF5AC1C0
:101E6200F7FF5BC1F8FF0900F5CF01F001502D0A21
:101E7200D1E059C1F6FF5AC1F7FF5BC1F8FF090073
:101E8200F5CF01F00150200ACCE059C1F6FF5AC14A
:101E9200F7FF5BC1F8FF0900F5CF01F001502B0AF3
:101EA200C7E059C1F6FF5AC1F7FF5BC1F8FF09004D
:101EB200F5CF01F00150230AC2E059C1F6FF5AC121
:101EC200F7FF5BC1F8FF0900F5CF01F00150300ABE
:101ED200BDE001D09ED763A301D0639163A701D077
:101EE200639559C1F6FF5AC1F7FF5BC1F8FF0900BC
:101EF200F5CF00F0000E016E00C07EF117EC07F086
:101F0200005235E0616B626B61C100F062C101F0A9
:101F12000A0E046E000E056EB7DC59C1F6FF5AC1F7
:101F2200F7FF5BC1F8FF0900F5CF02F00250002471
:101F3200616F000E0120626F300E615F000E625B06
:101F4200010E5927000E5A235B2359C1F6FF5AC1CD
:101F5200F7FF5BC1F8FF0900F5CF00F0000E016E3C
:101F620000C07EF117EC07F00052CEE133D059C128
:101F7200F6FF5AC1F7FF5BC1F8FF0900F5CF01F088
:101F820001502A0A27E15CC1E9FF5DC1EAFFEECFF9
:101F920000F0EECF01F000C0E9FF01C0EAFFEECF92
:101FA20061F1EECF62F15CC1E9FF5DC1EAFF020EB1
:101FB200EE24006E000EEE20016E5CC1E1FF5DC1F9
:101FC200E2FF00C0E6FF01C0E6FF010E5927000E46
:101FD2005A235B2359C1F6FF5AC1F7FF5BC1F8FFD1
:101FE2000900F5CF01F001502E0A70E1010E5927C8
:101FF200000E5A235B2359C1F6FF5AC1F7FF5BC19A
:10200200F8FF0900F5CF01F001502A0A28E15CC16E
:10201200E9FF5DC1EAFFEECF00F0EECF01F000C0B4
:10202200E9FF01C0EAFFEECF5EF1EECF5FF15CC1E6
:10203200E9FF5DC1EAFF020EEE24006E000EEE2003
:10204200016E5CC1E1FF5DC1E2FF00C0E6FF01C0BD
:10205200E6FF010E5927000E5A235B2336D05E6B32
:102062005F6B59C1F6FF5AC1F7FF5BC1F8FF090068
:10207200F5CF00F0000E016E00C07EF117EC07F004
:10208200005223E05EC100F05FC101F00A0E046E4F
:10209200000E056E45EC0CF059C1F6FF5AC1F7FF70
:1020A2005BC1F8FF0900F5CF02F0025000245E6F19
:1020B200000E01205F6F300E5E5F000E5F5B010E4F
:1020C2005927000E5A235B23CCD703D05E6B5F6B7C
:1020D200648959C100F05AC101F05BC102F0010EDE
:1020E2005927000E5A235B2300C0F6FF01C0F7FFF9
:1020F20002C0F8FF0900F5CF60F105D176C100F00A
:1021020077C101F012006389E4D7648537D1638B0C
:10211200648134D1648332D1638D30D12FD1638B0A
:10212200638F2CD15CC1E9FF5DC1EAFFEECF00F005
:10213200EECF01F000C0E9FF01C0EAFFEECF6BF184
:10214200EECF6CF15CC1E9FF5DC1EAFF020EEE2445
:10215200006E000EEE20016E5CC1E1FF5DC1E2FF88
:1021620000C0E6FF01C0E6FF000E6C1902E1000E9E
:102172006B1911E1280E6F6F6E0E706F750E716F15
:102182006C0E726F6C0E736F290E746F756B6F0E1F
:102192006B6F010E6C6F6D6B6E6B6D516B25E96E23
:1021A2006E516C21EA6EEE520BE0010E6D25006E4F
:1021B200000E6E21016E00C06DF101C06EF1EDD70F
:1021C2005E515F110AE06E515F5D02E16D515E5D2D
:1021D20004E25EC16DF15FC16EF162516E5D02E1BA
:1021E20061516D5D05E26D51615F6E51625B02D0BE
:1021F200616B626B63B716D061C100F062C101F01E
:10220200010E615F000E625B005001100BE057C1CE
:10221200E1FF58C1E2FF200EE66E574B582B764B7A
:10222200772BEAD76DC102F06EC103F0010E6D5D2E
:10223200006E000E6E59016E00C06DF101C06EF1AC
:102242000250031019E06BC1E9FF6CC1EAFF57C1EC
:10225200E1FF58C1E2FFEECFE6FF574B582B010ECC
:102262006B25006E000E6C21016E00C06BF101C087
:102272006CF1764B772BD6D763A716D061C100F0ED
:1022820062C101F0010E615F000E625B005001103D
:102292000BE057C1E1FF58C1E2FF200EE66E574B3B
:1022A200582B764B772BEAD788D55CC1E9FF5DC105
:1022B200EAFFEECF00F0EECF01F000C0E9FF01C06F
:1022C200EAFFEECF60F15CC1E9FF5DC1EAFF020EF9
:1022D200EE24006E000EEE20016E5CC1E1FF5DC1D6
:1022E200E2FF00C0E6FF01C0E6FF600E6B6F010E69
:1022F2006C6F010E6D6F000E6E6F62D7C00E6313AE
:10230200000E64133BD06051000AD8B4F7D6605176
:102312006C0AD8B4F8D66051660AD8B4F6D66051C1
:10232200450AD8B4F4D66051650AD8B4F1D66051E2
:10233200670AD8B4EFD660516F0AD8B4EDD66051AF
:10234200640AD8B4EBD66051690AD8B4E7D66051B2
:10235200700AD8B4E4D66051580AD8B4E0D66051B5
:10236200780AD8B4DDD66051730AD8B4DBD660518E
:10237200630A9BE06051750AC1E0B7D7000E63158E
:10238200006E6451070B016E00500110D8B497EF34
:102392001AF064A904D0060E5E6F000E5F6F5CC176
:1023A200E9FF5DC1EAFFEECF00F0EECF01F000C021
:1023B200E9FF01C0EAFFEECF65F1EECF66F1EECFA5
:1023C20067F1EECF68F15CC1E9FF5DC1EAFF040E7F
:1023D200EE24006E000EEE20016E5CC1E1FF5DC1D5
:1023E200E2FF00C0E6FF01C0E6FF046A056A066A72
:1023F200076A65C100F066C101F067C102F068C1F9
:1024020003F0D6EC04F0010ED8B0000E006E0052BC
:1024120005E0677F030E6313000E6413696B6A6B3A
:1024220065C100F066C101F067C102F068C103F046
:10243200046A056A066A076ABFEC04F0000ED8A4B3
:10244200010E006E0052D8B48AD068C100F0016A51
:10245200026A036AFF0E0016000E01167E0E005E6F
:10246200000E015A00C069F101C06AF1010E005E5E
:10247200000E015A00C069F101C06AF1030E046E38
:10248200000E056E45EC0CF000C069F101C06AF166
:102492000A0E046E000E056E48EC0BF000C069F1E6
:1024A20001C06AF1800E0118026E800E025C02E128
:1024B200000E005C05E2010E0101695F000E6A5B1D
:1024C2000101695100087E6F23EC07F065C104F039
:1024D20066C105F067C106F068C107F021EC04F09F
:1024E20000C06BF101C06CF102C06DF103C06EF16E
:1024F200000E046E000E056E000E066E7F0E076E55
:102502006BC100F06CC101F06DC102F06EC103F04D
:10251200D6EC04F0010ED8B0000E006E005205E0B9
:10252200010E695F000E6A5B1AD0000E046E000E87
:10253200056E200E066E820E076E6BC100F06CC136
:1025420001F06DC102F06EC103F0D6EC04F0000E92
:10255200D8B0010E006E005202E0694B6A2B800E69
:10256200006E800E6A19005C02E16951000803E303
:10257200010E606F02D069C160F164B118D064A32A
:1025820015D0800E6A19006E7F0E005C02E1FC0E0F
:10259200695D0BE3800E6A19006E800E5F19005CA4
:1025A20002E15E51695D01E201D001D0F1D35E51D9
:1025B2005F1106E064A304D0010E5E5F000E5F5B54
:1025C200000E006E5F51005C02E15E51080803E2FA
:1025D200080E606F02D05EC160F165C100F066C195
:1025E20001F067C102F068C103F0046A056A066A75
:1025F200076ABFEC04F0000ED8A4010E006E005270
:10260200D8B44BD169C17EF123EC07F000C004F0CD
:1026120001C005F002C006F003C007F065C100F07A
:1026220066C101F067C102F068C103F0FFEC09F076
:1026320000C065F101C066F102C067F103C068F134
:102642000101605100087E6F23EC07F000C004F026
:1026520001C005F002C006F003C007F065C100F03A
:1026620066C101F067C102F068C103F0FFEC09F036
:1026720000C078F101C079F102C07AF103C07BF1A8
:1026820078C165F179C166F17AC167F17BC168F100
:1026920078C100F079C101F07AC102F07BC103F088
:1026A200EDEC0DF0C4EC06F000C004F001C005F042
:1026B20002C006F003C007F078C100F079C101F052
:1026C2007AC102F07BC103F0C0EC06F0000E046E8A
:1026D200000E056E000E066E7E0E076ED6EC04F03E
:1026E200000ED8B0010E006E00521AE065C100F073
:1026F20066C101F067C102F068C103F0000E046E0A
:10270200000E056E000E066E7E0E076E03EC02F0E2
:1027120000C065F101C066F102C067F103C068F153
:1027220065C100F066C101F067C102F068C103F043
:10273200EDEC0DF001016051010F096E0A6A000E05
:102742000A2209C004F00AC005F0000E0ABEFF0EFC
:10275200066E076E043604900536063607360436D2
:102762000490053606360736200E0424F66E4C0E0B
:102772000520F76E000E0620F86E0900F5CF05F071
:102782000900F5CF06F00900F5CF07F00900F5CFF3
:1027920008F00850035C08E10750025C05E10650AE
:1027A200015C02E10550005C1EE3010165C100F01D
:1027B20066C101F067C102F068C103F0CD0E046E7C
:1027C200CC0E056E4C0E066E7B0E076E21EC04F0ED
:1027D20000C065F101C066F102C067F103C068F193
:1027E200694B6A2B5AD065C100F066C101F067C11E
:1027F20002F068C103F0EDEC0DF060C104F0000ED0
:10280200056E066E076E04360490053606360736E8
:1028120004360490053606360736200E0424F66E7A
:102822004C0E0520F76E000E0620F86E0900F5CF5B
:1028320005F00900F5CF06F00900F5CF07F0090011
:10284200F5CF08F00850035C08E10750025C05E18F
:102852000650015C02E10550005C1FE2010165C106
:1028620000F066C101F067C102F068C103F0000E1A
:10287200046E000E056E200E066E820E076E21ECAF
:1028820004F000C065F101C066F102C067F103C047
:1028920068F1010E695F000E6A5B010164A393D0C7
:1028A20064B791D0800E000A006E800E5F19005C42
:1028B20002E15E510A0804E20A0E5E6F000E5F6FCB
:1028C20065C100F066C101F067C102F068C103F0A2
:1028D200EDEC0DF000C06BF101C06CF102C06DF1C6
:1028E20003C06EF16B516C116D116E1142E00A0E54
:1028F200046E000E056E066E076E6BC100F06CC1B1
:1029020001F06DC102F06EC103F04AEC05F008C09F
:1029120000F009C001F00AC002F00BC003F0000E83
:10292200046E031808E10450021805E1045001186E
:1029320002E10050000A1DE1010E5E5F000E5F5BC6
:102942000A0E046E000E056E066E076E6BC100F075
:102952006CC101F06DC102F06EC103F04AEC05F0EA
:1029620000C06BF101C06CF102C06DF103C06EF1E9
:10297200B9D7800E5F19006E800E005C02E16051D3
:102982005E5D21E25E51605D7E6F23EC07F000C068
:1029920004F001C005F002C006F003C007F065C1F3
:1029A20000F066C101F067C102F068C103F0FFECFC
:1029B20009F000C065F101C066F102C067F103C011
:1029C20068F15EC160F1050E01015E25006E000E28
:1029D2005F21016E0050615F0150625B5E515F11C9
:1029E20003E164B701D004D0010E615F000E625BA7
:1029F200030E6315006E64C101F0000E0116005053
:102A0200011004E0010E615F000E625B63A539D024
:102A120063A312D063A103D02D0E006E02D02B0E41
:102A2200006E57C1E1FF58C1E2FF00C0E6FF574BFD
:102A3200582B764B772B0CD063A10AD057C1E1FFFC
:102A420058C1E2FF200EE66E574B582B764B772B80
:102A5200800E006E800E6219005C02E16151000876
:102A62000FE257C1E1FF58C1E2FF300EE66E574B4D
:102A7200582B764B772B010E615F000E625BE8D715
:102A82003AD063B718D0800E006E800E6219005CD7
:102A920002E1615100080FE257C1E1FF58C1E2FFB4
:102AA200200EE66E574B582B764B772B010E615F4B
:102AB200000E625BE8D763A312D063A103D02D0E90
:102AC200006E02D02B0E006E57C1E1FF58C1E2FF2B
:102AD20000C0E6FF574B582B764B772B0CD063A1E7
:102AE2000AD057C1E1FF58C1E2FF200EE66E574BF4
:102AF200582B764B772B65C100F066C101F067C198
:102B020002F068C103F0EDEC0DF000C06BF101C002
:102B12006CF102C06DF103C06EF160C100F0000EF5
:102B2200016E026E036E00360090013602360336E5
:102B320000360090013602360336200E0024F66E6F
:102B42004C0E0120F76E000E0220F86E0900F5CF40
:102B520004F00900F5CF05F00900F5CF06F00900F1
:102B6200F5CF07F06BC100F06CC101F06DC102F04E
:102B72006EC103F04AEC05F0300E002657C1E1FFAA
:102B820058C1E2FF00C0E6FF574B582B764B772B1C
:102B92005E515F1103E164B701D06FD057C1E1FF0D
:102BA20058C1E2FF2E0EE66E574B582B764B772B11
:102BB20060515E5F000E5F5B60534DE0600760C175
:102BC20000F0000E016E026E036E003600900136B8
:102BD2000236033600360090013602360336200EE6
:102BE2000024F66E4C0E0120F76E000E0220F86EE5
:102BF2000900F5CF04F00900F5CF05F00900F5CF83
:102C020006F00900F5CF07F06BC100F06CC101F0CE
:102C12006DC102F06EC103F04AEC05F00A0E046EBB
:102C2200000E056E066E076E4AEC05F008C000F055
:102C320009C001F00AC002F00BC003F0300E0026FA
:102C420057C1E1FF58C1E2FF00C0E6FF574B582BC6
:102C5200764B772BB1D75E515F110FE057C1E1FF81
:102C620058C1E2FF300EE66E574B582B764B772B4E
:102C7200010E5E5F000E5F5BEED763AB0BD057C1F8
:102C8200E1FF58C1E2FF450EE66E574B582B764BDB
:102C9200772B0AD057C1E1FF58C1E2FF650EE66EFD
:102CA200574B582B764B772B800E6A19006E800E8D
:102CB200005C02E1000E695D11E269510008696F72
:102CC2006A51000E6A5757C1E1FF58C1E2FF2D0E4B
:102CD200E66E574B582B764B772B0AD057C1E1FF44
:102CE20058C1E2FF2B0EE66E574B582B764B772BD3
:102CF2000A0E046E000E056E69C100F06AC101F091
:102D020048EC0BF0300E002657C1E1FF58C1E2FF3C
:102D120000C0E6FF0101574B582B764B772B0A0E6A
:102D2200046E000E056E69C100F06AC101F048EC44
:102D32000BF008C000F009C001F0300E002657C1A8
:102D4200E1FF58C1E2FF00C0E6FF0101574B582BDB
:102D5200764B772B63A71AD0800E006E800E621915
:102D6200005C02E16151000811E257C1E1FF58C164
:102D7200E2FF200EE66E574B582B764B772B010E57
:102D8200615F000E625B61516211EFE1DEEF0EF0F6
:102D920064A3F3D0800E6A19006E800E005C02E11B
:102DA200000E695D0AE2010E695D006E000E6A594D
:102DB200016E00505E5F01505F5B65C100F066C14D
:102DC20001F067C102F068C103F0EDEC0DF000C044
:102DD2006BF101C06CF102C06DF103C06EF1010E26
:102DE200606F60510A0A34E060C100F0000E016EAB
:102DF200026E036E0036009001360236033600364C
:102E02000090013602360336200E0024F66E4C0E78
:102E12000120F76E000E0220F86E0900F5CF01F0D6
:102E22000900F5CF02F00900F5CF03F00900F5CF54
:102E320004F004506E5D08E103506D5D05E102503F
:102E42006C5D02E101506B5D01E202D0602BC9D7DB
:102E520060515E5D7C6F000E5F597D6F7CC15EF1DB
:102E62007DC15FF16BC100F06CC101F06DC102F078
:102E72006EC103F0C4EC06F000C004F001C005F01E
:102E820002C006F003C007F065C100F066C101F0A0
:102E920067C102F068C103F0C0EC06F000C078F12F
:102EA20001C079F102C07AF103C07BF17CC17EF1ED
:102EB20023EC07F078C104F079C105F07AC106F07D
:102EC2007BC107F021EC04F0000E046E000E056ECB
:102ED200000E066E7E0E076E03EC02F0EDEC0DF0B6
:102EE20000C06BF101C06CF102C06DF103C06EF164
:102EF2005E515F1142E00A0E046E000E056E066E10
:102F0200076E6BC100F06CC101F06DC102F06EC1C1
:102F120003F04AEC05F008C000F009C001F00AC055
:102F220002F00BC003F0000E046E031808E1045017
:102F3200021805E10450011802E10050000A1DE1E7
:102F42000A0E046E000E056E066E076E6BC100F06F
:102F52006CC101F06DC102F06EC103F04AEC05F0E4
:102F620000C06BF101C06CF102C06DF103C06EF1E3
:102F7200010E5E5F000E5F5BBBD7800E006E800E9F
:102F82005F19005C02E15E510C0816E35EC17EF13E
:102F92006DEC0CF065C104F066C105F067C106F086
:102FA20068C107F003EC02F000C065F101C066F1F0
:102FB20002C067F103C068F165C100F066C101F0AB
:102FC20067C102F068C103F0046A056A066A076A0B
:102FD200BFEC04F0000ED8A4010E006E0052D8B46B
:102FE20077D065C100F066C101F067C102F068C127
:102FF20003F0EDEC0DF0000E046E031808E104502E
:10300200021805E10450011802E10050000A60E1D3
:10301200800E006E800E6A19005C02E1695101089F
:1030220057E269C17EF123EC07F000C004F001C051
:1030320005F002C006F003C007F065C100F066C1EA
:1030420001F067C102F068C103F0FFEC09F05F0E06
:10305200046E700E056E090E066E810E076ED6ECBA
:1030620004F0010ED8B0000E006E005206E0090E08
:103072000101695F000E6A5B05D00101080E695FFC
:10308200000E6A5B69C17EF123EC07F000C004F018
:1030920001C005F002C006F003C007F065C100F0F0
:1030A20066C101F067C102F068C103F0FFEC09F0EC
:1030B200EDEC0DF000C06BF101C06CF102C06DF1DE
:1030C20003C06EF10101656B666B676B686B38D08C
:1030D20065C100F066C101F067C102F068C103F08A
:1030E200EDEC0DF000C06BF101C06CF102C06DF1AE
:1030F20003C06EF16BC100F06CC101F06DC102F052
:103102006EC103F0C4EC06F000C004F001C005F08B
:1031120002C006F003C007F065C100F066C101F00D
:1031220067C102F068C103F0C0EC06F000C065F1AF
:1031320001C066F102C067F103C068F1696B6A6B96
:10314200010E606F60510A0A34E060C100F0000EA7
:10315200016E026E036E00360090013602360336AF
:1031620000360090013602360336200E0024F66E39
:103172004C0E0120F76E000E0220F86E0900F5CF0A
:1031820001F00900F5CF02F00900F5CF03F00900C4
:10319200F5CF04F004506E5D08E103506D5D05E16A
:1031A20002506C5D02E101506B5D01E202D0602BC6
:1031B200C9D760515E25006E000E5F21016E695114
:1031C20000266A5101220050615F0150625B64B7C0
:1031D20004D05E515F1101E104D0010E615F000E67
:1031E200625B030E6315006E64C101F0000E0116EE
:1031F2000050011004E0010E615F000E625B63A5E6
:1032020039D063A312D063A103D02D0E006E02D079
:103212002B0E006E57C1E1FF58C1E2FF00C0E6FF6E
:10322200574B582B764B772B0CD063A10AD057C142
:10323200E1FF58C1E2FF200EE66E574B582B764B4A
:10324200772B800E006E800E6219005C02E16151E4
:1032520000080FE257C1E1FF58C1E2FF300EE66EEF
:10326200574B582B764B772B010E615F000E625B3A
:10327200E8D73AD063B718D0800E006E800E62197C
:10328200005C02E1615100080FE257C1E1FF58C141
:10329200E2FF200EE66E574B582B764B772B010E32
:1032A200615F000E625BE8D763A312D063A103D013
:1032B2002D0E006E02D02B0E006E57C1E1FF58C1D9
:1032C200E2FF00C0E6FF574B582B764B772B0CD012
:1032D20063A10AD057C1E1FF58C1E2FF200EE66E9A
:1032E200574B582B764B772B60C100F0600700528A
:1032F2004CE060C100F0000E016E026E036E0036FB
:10330200009001360236033600360090013602364E
:103312000336200E0024F66E4C0E0120F76E000ECE
:103322000220F86E0900F5CF04F00900F5CF05F090
:103332000900F5CF06F00900F5CF07F06BC100F0E8
:103342006CC101F06DC102F06EC103F04AEC05F0F0
:103352000A0E046E000E056E066E076E4AEC05F04C
:1033620008C000F009C001F00AC002F00BC003F06F
:10337200300E002657C1E1FF58C1E2FF00C0E6FF50
:10338200574B582B764B772BAFD7800E006E800EA3
:103392006A19005C02E1695100080FE257C1E1FFBE
:1033A20058C1E2FF300EE66E574B582B764B772B07
:1033B200010E695F000E6A5BE8D7800E000A006E9C
:1033C200800E5F19005C02E15E51080803E2080EFC
:1033D200606F02D05EC160F160515E5F000E5F5BA4
:1033E200605303E164B701D00AD057C1E1FF58C16D
:1033F200E2FF2E0EE66E574B582B764B772B60C1B1
:103402007EF123EC07F065C104F066C105F067C1E7
:1034120006F068C107F021EC04F0ACEC0BF000C040
:103422006BF101C06CF102C06DF103C06EF160532B
:103432004DE0600760C100F0000E016E026E036E87
:10344200003600900136023603360036009001360F
:1034520002360336200E0024F66E4C0E0120F76E63
:10346200000E0220F86E0900F5CF04F00900F5CF36
:1034720005F00900F5CF06F00900F5CF07F06BC1A2
:1034820000F06CC101F06DC102F06EC103F04AECB4
:1034920005F00A0E046E000E056E066E076E4AEC0B
:1034A20005F008C000F009C001F00AC002F00BC02C
:1034B20003F0300E002657C1E1FF58C1E2FF00C001
:1034C200E6FF574B582B764B772BB1D75E515F11E6
:1034D2000FE057C1E1FF58C1E2FF300EE66E574BD5
:1034E200582B764B772B010E5E5F000E5F5BEED79B
:1034F20063A71AD0800E006E800E6219005C02E192
:103502006151000811E257C1E1FF58C1E2FF200EEC
:10351200E66E574B582B764B772B010E615F000EF0
:10352200625B61516211EFE1DEEF0EF0C00E6315D6
:10353200016E64C102F0000E0216000E021802E1D2
:10354200000E0118D8A47CD063A927D05CC1E9FF82
:103552005DC1EAFFEECF00F0EECF01F000C0E9FF5F
:1035620001C0EAFFEECF6BF1EECF6CF1EECF6DF161
:10357200EECF6EF15CC1E9FF5DC1EAFF040EEE24FD
:10358200006E000EEE20016E5CC1E1FF5DC1E2FF44
:1035920000C0E6FF01C0E6FF2BD05CC1E9FF5DC1C0
:1035A200EAFFEECF00F0EECF01F000C0E9FF01C06C
:1035B200EAFFEECF00F0EECF01F000C06BF101C0E8
:1035C2006CF1000E01BEFF0E6D6F6E6F5CC1E9FF04
:1035D2005DC1EAFF020EEE24006E000EEE20016EC7
:1035E2005CC1E1FF5DC1E2FF00C0E6FF01C0E6FF92
:1035F200800E6E19006E800E005C08E1000E6D5D9B
:1036020005E1000E6C5D02E1000E6B5D18E2030E37
:103612006313000E6413006A016A026A036A6B5143
:10362200005E6C51015A6D51025A6E51035A00C02C
:103632006BF101C06CF102C06DF103C06EF14ED0AE
:1036420063A927D05CC1E9FF5DC1EAFFEECF00F0BC
:10365200EECF01F000C0E9FF01C0EAFFEECF6BF14F
:10366200EECF6CF1EECF6DF1EECF6EF15CC1E9FF02
:103672005DC1EAFF040EEE24006E000EEE20016E24
:103682005CC1E1FF5DC1E2FF00C0E6FF01C0E6FFF1
:1036920025D05CC1E9FF5DC1EAFFEECF00F0EECFBD
:1036A20001F000C0E9FF01C0EAFFEECF6BF1EECFFF
:1036B2006CF1000E6D6F6E6F5CC1E9FF5DC1EAFFD8
:1036C200020EEE24006E000EEE20016E5CC1E1FFE0
:1036D2005DC1E2FF00C0E6FF01C0E6FF000E5F1918
:1036E20002E1000E5E190FE1000E006E6E1908E194
:1036F20000506D1905E100506C1902E16B51000A8E
:1037020002E15E4B5F2BC00E6315006E00C005F038
:10371200AED0010E606F60510A0A34E060C100F061
:10372200000E016E026E036E003600900136023604
:10373200033600360090013602360336200E00248E
:10374200F66E4C0E0120F76E000E0220F86E090094
:10375200F5CF01F00900F5CF02F00900F5CF03F033
:103762000900F5CF04F004506E5D08E103506D5D71
:1037720005E102506C5D02E101506B5D01E202D095
:10378200602BC9D782D0010E606F6051080A34E005
:1037920060C100F0000E016E026E036E00360090F2
:1037A2000136023603360036009001360236033601
:1037B200480E0024F66E4C0E0120F76E000E022019
:1037C200F86E0900F5CF01F00900F5CF02F009000B
:1037D200F5CF03F00900F5CF04F004506E5D08E167
:1037E20003506D5D05E102506C5D02E101506B5DBD
:1037F20001E202D0602BC9D748D0010E606F605140
:103802000C0A34E060C100F0000E016E026E036E1D
:10381200003600900136023603360036009001363B
:1038220002360336F00E0024F66E4B0E0120F76EC0
:10383200000E0220F86E0900F5CF01F00900F5CF65
:1038420002F00900F5CF03F00900F5CF04F00450AF
:103852006E5D08E103506D5D05E102506C5D02E1B1
:1038620001506B5D01E202D0602BC9D70ED005502A
:10387200000AD8B44ED70550C00AD8B44AD705506A
:10388200800A81E00550400AB8E0800E006E800E8A
:103892005F19005C02E15E51605D03E25EC160F1AE
:1038A2000DD0800E5F19006E800E005C02E1605147
:1038B2005E5D04E260C15EF1000E5F6F61516211F4
:1038C2000EE0030E6315006E64C101F0000E0116D6
:1038D2000050011004E0010E615F000E625B800E79
:1038E2005F19006E800E6219005C02E161515E5D3B
:1038F20005E25E51615F5F51625B02D0616B626B98
:10390200C40E6315016E6451080B026E0250080A60
:1039120002E1400E011808E16151621104E0010E5A
:10392200615F000E625B1CD0C00E6315016E6451B4
:10393200080B026E0250080A02E1800E011810E123
:10394200800E006E800E6219005C02E16151020875
:1039520005E2020E615F000E625B02D0616B626B78
:1039620063A55DD063A312D063A103D02D0E006EB8
:1039720002D02B0E006E57C1E1FF58C1E2FF00C01A
:10398200E6FF574B582B764B772B34D063A10BD0E5
:1039920057C1E1FF58C1E2FF200EE66E574B582B8C
:1039A200764B772B27D0C00E6315016E6451080B3E
:1039B200026E0250080A02E1800E01181BE157C193
:1039C200E1FF58C1E2FF300EE66E574B582B764BA3
:1039D200772B63AB03D0580E006E02D0780E006EC8
:1039E20057C1E1FF58C1E2FF00C0E6FF574B582B19
:1039F200764B772B6151621111E057C1E1FF58C13B
:103A0200E2FF300EE66E574B582B764B772B010EAA
:103A1200615F000E625B61516211EFE174D061512E
:103A2200621113E063B711D057C1E1FF58C1E2FF41
:103A3200200EE66E574B582B764B772B010E615FAB
:103A4200000E625B61516211EFE163A312D063A1C8
:103A520003D02D0E006E02D02B0E006E57C1E1FF77
:103A620058C1E2FF00C0E6FF574B582B764B772B2D
:103A72000CD063A10AD057C1E1FF58C1E2FF200E6A
:103A8200E66E574B582B764B772BC00E6315016EA3
:103A92006451080B026E0250080A02E1400E01183E
:103AA2000BE157C1E1FF58C1E2FF300EE66E574B02
:103AB200582B764B772B27D0C00E6315016E6451BD
:103AC200080B026E0250080A02E1800E01181BE187
:103AD20057C1E1FF58C1E2FF300EE66E574B582B3B
:103AE200764B772B63AB03D0580E006E02D0780E64
:103AF200006E57C1E1FF58C1E2FF00C0E6FF574B1D
:103B0200582B764B772B800E006E800E5F19005C6F
:103B120002E15E51605D0BE257C1E1FF58C1E2FF75
:103B2200300EE66E574B582B764B772BECD75EC197
:103B320000F05FC101F0010E5E5F000E5F5B00509E
:103B42000110D8B42AD1C00E6315006E00C078F1FE
:103B52000AD15EC100F05FC101F0000E5FBFFF0E2F
:103B6200026E036E003600900136023603360036CE
:103B72000090013602360336200E0024F66E4C0EFB
:103B82000120F76E000E0220F86E0900F5CF04F056
:103B92000900F5CF05F00900F5CF06F00900F5CFD1
:103BA20007F06BC100F06CC101F06DC102F06EC193
:103BB20003F04AEC05F00A0E046E000E056E066E66
:103BC200076E4AEC05F008C000F009C001F00AC017
:103BD20002F00BC003F0300E0024606FD3D063AB51
:103BE20045D05EC100F05FC101F0000E5FBFFF0E65
:103BF200026E036E0036009001360236033600363E
:103C02000090013602360336480E0024F66E4C0E42
:103C12000120F76E000E0220F86E0900F5CF04F0C5
:103C22000900F5CF05F00900F5CF06F00900F5CF40
:103C320007F06BC100F06CC101F06DC102F06EC102
:103C420003F04AEC05F00F0E0016000E01160216E4
:103C52000316680E0024F66E4C0E0120F76E000E5D
:103C62000220F86E0900F5CF60F144D05EC100F089
:103C72005FC101F0000E5FBFFF0E026E036E0036E1
:103C820000900136023603360036009001360236C5
:103C92000336480E0024F66E4C0E0120F76E000E1D
:103CA2000220F86E0900F5CF04F00900F5CF05F007
:103CB2000900F5CF06F00900F5CF07F06BC100F05F
:103CC2006CC101F06DC102F06EC103F04AEC05F067
:103CD2000F0E0016000E011602160316790E0024AE
:103CE200F66E4C0E0120F76E000E0220F86E0900EF
:103CF200F5CF60F147D05EC100F05FC101F0000E68
:103D02005FBFFF0E026E036E003600900136023670
:103D1200033600360090013602360336F00E0024D8
:103D2200F66E4B0E0120F76E000E0220F86E0900AF
:103D3200F5CF04F00900F5CF05F00900F5CF06F044
:103D42000900F5CF07F06BC100F06CC101F06DC145
:103D520002F06EC103F04AEC05F0070E0014606F2A
:103D6200300E60270FD07851000AD8B4F2D67851BD
:103D7200C00AD8B4EED67851800AD8B430D7785178
:103D8200400AB9E057C1E1FF58C1E2FF60C1E6FF56
:103D9200574B582B764B772BCAD663A71AD0800E77
:103DA200006E800E6219005C02E16151000811E2AE
:103DB20057C1E1FF58C1E2FF200EE66E574B582B68
:103DC200764B772B010E615F000E625B61516211CF
:103DD200EFE1DEEF0EF076C100F077C101F01200E4
:103DE2000001E86BE96B800EE919006E800E005C41
:103DF20002E1020EE85D0EE2E85101015725E16E93
:103E02000001E95101015821E26EE66A0001E84B26
:103E1200E92BE9D7E86BE96BBDEC0AF000C047F18A
:103E220000503D0A4EE001014751FF0A49E0475167
:103E32002A0A29E1800E006E800E0001E919005C59
:103E420002E1E851000804E2010EE85F000EE95BBE
:103E5200E85101015725E16E0001E95101015821A4
:103E6200E26EE66A59515A110DE05BC17EF1000122
:103E7200E85101015D257F6FE60E806F000E816FB4
:103E8200D7EC06F01DD00001E85101015725E16E83
:103E92000001E95101015821E26E47C1E6FF00012C
:103EA200E84BE92B010159515A110AE05BC17EF13D
:103EB2005DC17FF157C180F158C181F1D7EC06F0A5
:043EC200ABD7120068
:103EC6009E9657C1C9FFC7A401D0FDD79EB601D0A3
:103ED600FDD7C5BC02D0006A1200C584020E006E72
:023EE6001200C8
:0A3EE800C582C5A201D0FDD712006B
:103EF2009E96C5869EB601D0FDD7C9CF01F00101BD
:103F02005751000A02E1C58A01D0C59A9E96C5881A
:0C3F12009EB601D0FDD701C000F01200E7
:043F1E00C584120044
:103F22000101576B586B5851120802E157518E0824
:103F320009E33DEC05F0005201E004D00101574BCA
:103F4200582BF1D70101120E585D02E18F0E575D19
:103F520003E37B0E006E1200C580C5A001D0FDD721
:043F6200006A1200DF
:103F66004D0E0101556F010E566F48C157F149C1FB
:103F760058F14AC159F14BC15AF14CC15BF1550E8A
:103F86005C6F010E5D6FD9EC0EF000C053F101C0FD
:103F960054F100504825E16E01504921E26EE66A6F
:0A3FA60053C100F054C101F01200F5
:103FB000B8DFD00E576F87DF48C157F184DF94DF39
:103FC000D10E0101576F7FDF0101576B92DF00C0F7
:103FD0004AF1000E01014B6FA2DF4AC100F04BC154
:043FE00001F01200DA
:103FE40048C1E9FF49C1EAFFEECF03F0F00E031424
:103FF400026E02C000F00032009E0032009E0032C9
:10400400009E0032009E0A0E0002F3CF01F00F0E54
:104014000314006E48C1E1FF49C1E2FF00500124CE
:10402400E66E4AC1E9FF4BC1EAFFEECF03F0F00EA2
:104034000314026E02C000F00032009E0032009EA3
:104044000032009E0032009E0A0E0002F3CF01F0FF
:104054000F0E0314006E4AC1E1FF4BC1E2FF005092
:104064000124E66E4CC1E9FF4DC1EAFFEECF03F037
:10407400F00E0314026E02C000F00032009E003203
:10408400009E0032009E0032009E0A0E0002F3CF12
:1040940001F00F0E0314006E4CC1E1FF4DC1E2FFAD
:0840A40000500124E66E120039
:1040AC0048C1E9FF49C1EAFFEECF4AF1000E010118
:1040BC004B6F000E4B6F000E4B1902E1200E4A198C
:1040CC0007E0000E4B1902E1090E4A1901E003D07A
:1040DC00484B492BE5D74C6B4D6B4E6B4F6B000E21
:1040EC004B1902E12D0E4A1905E14E4B4F2B484B53
:1040FC00492B08D0000E4B1902E12B0E4A1902E194
:10410C00484B492B48C1E9FF49C1EAFFEECF4AF1C0
:10411C00000E4B6F000E4B6F4AC17EF117EC07F08F
:10412C00005219E04CC100F04DC101F00A0E046EB2
:10413C00000E056E45EC0CF0300E4A5D026E000E62
:10414C004B59036E025000244C6F035001204D6FED
:10415C00484B492BD7D74E514F1108E04C51000812
:10416C00006E4DC101F0000E015612004CC100F062
:06417C004DC101F012002C
:10418200C26A070EC012C08E48C100F0003600900D
:10419200003600900050C212C28089EC0EF0C2823A
:1041A200C2A201D0FDD7C4CF01F0006AC3500012F1
:0841B200000E0112C290120080
:1041BA000101486B496B800E4919006E800E005C44
:1041CA0002E1010E485D09E21C0E846F3AEC01F02F
:1041DA00CBEC0EF0484B492BEED7486B496B800E5F
:1041EA004919006E800E005C02E1010E485D09E289
:1041FA00180E846F3AEC01F0CBEC0EF0484B492BC9
:04420A00EED71200D9
:0E420E00ACB202D00000FCD785C1ADFF12009B
:10421C000050086E0150006E016A026A036A0B6A54
:10422C000C6A960E036E0A6A00C001F008C000F01A
:0A423C00086A026A8FEC0EF012000F
:104246000B6A0C6A0A6A0350D8B458EF21F00A9E2A
:10425600028E860E035E03BE36EF21F0D8B436EF2B
:1042660021F05BEF21F0036C080E035CD8A044EF4D
:1042760021F0036E0236026A0350D8A4D8904DEF9F
:1042860021F00350D8B44DEF21F0D8900232032E1E
:1042960048EF21F00BBC02A058EF21F0D8A058EF50
:1042A60021F0022AD8B462EF21F0016A68EF21F00A
:1042B6000B800BAE6CEF21F0016A6CEF21F0010E62
:1042C6000C6E13EC04F06EEF21F0000E0C6E6EEF28
:0C42D60021F0FF0E0C6E0250006E120072
:1042E200949894968B988B9694889486C79EC79C34
:0642F200380EC66E12003A
:1042F800969296909598959A959C959E849284907E
:10430800839E839C839A839821EC00F021EC00F033
:1043180021EC00F0838A8388848212EC00F0849276
:1043280021EC00F0848212EC00F0849221EC00F081
:10433800848212EC00F0849221EC00F0839884824D
:1043480012EC00F0849221EC00F0848212EC00F070
:104358008492839A838E848212EC00F0849221ECFA
:1043680000F0839E8388848212EC00F08492839804
:10437800848212EC00F0849221EC00F0848212EC2A
:1043880000F084928388848212EC00F0849221ECFD
:1043980000F08398848212EC00F08492838E838CE0
:1043A800838A8388848212EC00F0849221EC00F0E6
:0643B80001011381120057
:1043BE000E0E0101326F420E336F850E346F010EF9
:1043CE00356FFF0E366FFF0E376F000E386F000E13
:1043DE00396FFF0E2A6FFF0E2B6F000E2C6F000E23
:1043EE002D6FFF0E2E6FFF0E2F6F000E306F000E13
:1043FE00316FAC8A900EAB6E948E949C9EAA03D0B5
:08440E00AECF00F0FBD7120055
:104416000900F5CFE6FF0006FBE10106F9E112000F
:10442600400E0101846F3AEC01F0486B48510708D1
:1044360012E3AB0E4825F66E4C0EF76E000EF72211
:10444600000EF86E000EF8220900F5CF83F1B8ECE5
:1044560004F0482BEBD7486B4851070812E3A30E2C
:104466004825F66E4C0EF76E000EF722000EF86E1B
:10447600000EF8220900F5CF83F1B8EC04F0482BC2
:0C448600EBD7020E846F3AEC01F012003C
:1044920047DDA00E576F16DD48C157F113DD23DD4E
:1044A200A10E0101576F0EDD0101576B21DD00C026
:1044B2004AF1000E01014B6F31DD4AC100F04BC1E0
:0444C20001F01200F3
:1044C60048C157F149C158F1010E0101596F000E5B
:1044D6005A6F4AC15BF14BC15CF14CC15DF14DC1F4
:0644E6005EF17CDC120017
:1044EC001ADDA00E576FE9DC48C157F1E6DC4AC172
:1044FC0057F1E3DC0EDD1A0E0C6EF80E0D6E0D2E60
:0A450C00FED70C2EFCD700001200B1
:104516005FEC26F0D00EF26E190EAF6EAC844CDF57
:10452600140EC86EDBDE0E0EC16E0F0E936E210EDC
:10453600926EDFDE0C0E846F3AEC01F071DF03EC55
:1045460000F0BDEC0AF000C00FF10050430A38E15C
:10455600010E0101846F3AEC01F0020E7E6F020E2D
:104566007F6F730E806F000E816FD7EC06F00B0E17
:104576000B6E260E0C6E5D0E0D6E0D2EFED70C2EDE
:10458600FCD70B2EFAD700000000486B496BFF0ED4
:104596004A6F000E4B6FA7DF010E0101486F000E38
:1045A600496FFF0E4A6F000E4B6F9DDF020E010131
:1045B600486F000E496FFF0E4A6F000E4B6F93DF78
:1045C6000101486B496B62DF00C00BF101C00CF1C1
:1045D600010E486F000E496F59DF00C00DF101C092
:1045E6000EF1020E486F000E496F50DF00C010F149
:1045F60001C011F1000E0C1902E1FF0E0B1965E165
:10460600010E846F3AEC01F0010E7E6F020E7F6F91
:10461600A40E806F000E816FD7EC06F0020E7E6F3F
:10462600020E7F6F850E806F000E816FD7EC06F04D
:10463600150E0B6E4B0E0C6EBE0E0D6E0D2EFED7AE
:104646000C2EFCD70B2EFAD70000010E846F3AEC25
:1046560001F0010E7E6F020E7F6F910E806F000ECD
:10466600816FD7EC06F0020E7E6F020E7F6F6B0E27
:10467600806F000E816FD7EC06F0030E7E6F020E80
:104686007F6F300E806F000E816FD7EC06F0EA0E5A
:10469600486F000E496F030E4A6F000E4B6F060EF1
:1046A6004C6F000E4D6F0CDFEA0E0101486F000ED5
:1046B600496FF9DC00C00BF101C00CF1486B496B86
:1046C60000C04AF101C04BF10EDF000E01010E19C8
:1046D60002E1FF0E0D19D8A4A6D0000E111902E1B1
:1046E600FF0E1019D8A49FD0010E846F3AEC01F08A
:1046F600010E7E6F020E7F6F160E806F000E816FA9
:10470600D7EC06F0020E7E6F020E7F6F250E806FCD
:10471600000E816FD7EC06F0030E7E6F020E7F6FE0
:10472600500E806F000E816FD7EC06F0150E0B6EE3
:104736004B0E0C6EBE0E0D6E0D2EFED70C2EFCD73C
:104746000B2EFAD70000010E846F3AEC01F0010E31
:104756007E6F020E7F6F5E0E806F000E816FD7EC4C
:1047660006F0020E7E6F020E7F6F370E806F000E10
:10477600816FD7EC06F0EA0E486F000E496F020E05
:104786004A6F000E4B6F060E4C6F000E4D6F98DE93
:10479600EA0E0101486F000E496F85DC00C00DF17D
:1047A60001C00EF1030E7E6F020E7F6F3E0E806F0C
:1047B600000E816FD7EC06F0040E7E6F020E7F6F3F
:1047C600B40E806F000E816FD7EC06F0EA0E486FCC
:1047D600000E496F040E4A6F000E4B6F060E4C6FAB
:1047E600000E4D6F6DDEEA0E0101486F000E496F37
:1047F6005ADC00C010F101C011F1010E486F000E25
:10480600496F0DC14AF10EC14BF16DDE020E010179
:10481600486F000E496F10C14AF111C14BF163DEBA
:10482600010E0001CE6F0001CE532FE0010E0101F3
:10483600846F3AEC01F0010E7E6F020E7F6FCF0E91
:10484600806F000E816FD7EC06F0020E7E6F020EAF
:104856007F6FBB0E806F000E816FD7EC06F0030EE4
:104866007E6F020E7F6FC60E806F000E816FD7ECD3
:1048760006F0040E7E6F020E7F6FDC0E806F000E58
:10488600816FD7EC06F00001CE6B01010F512B0AA8
:1048960009E10B4B0C2B486B496B0BC14AF10CC160
:1048A6004BF121DE01010F512D0A0BE1010E0B5FC9
:1048B600000E0C5B486B496B0BC14AF10CC14BF106
:1048C60012DE400E0101486F010E496FB80E4A6FA5
:1048D6004C0E4B6F000E4C6F0BC14DF10CC14EF1DF
:1048E600B3EC1FF0020E7E6F0D0E7F6F400E806FD1
:1048F600010E816FD7EC06F0836BB8EC04F0430E23
:10490600836FB8EC04F0400E486F010E496F990EA4
:104916004A6F4C0E4B6F000E4C6F0DC14DF10EC120
:104926004EF110C14FF111C150F1B3EC1FF0030E5F
:104936007E6F0A0E7F6F400E806F010E816FD7EC7F
:1049460006F0486B496BD8EC1FF000C03CF101C083
:104956003DF1010E486F000E496FD8EC1FF000C004
:104966003EF101C03FF1020E486F000E496FD8ECD0
:104976001FF000C03AF101C03BF13C0E486F010E3A
:10498600496F3E0E4A6F010E4B6F3A0E4C6F010E89
:104996004D6FF2EC1FF0140E486F010E496F8A0E30
:1049A6004A6F4C0E4B6F000E4C6F3AC14DF13BC136
:1049B6004EF13EC14FF13FC150F13CC151F13DC1F5
:1049C60052F1B3EC1FF0040E7E6F0C0E7F6F140EC7
:1049D600806F010E816FD7EC06F0486BC1EC20F0BA
:1049E60000C028F101C029F116DC000E046E000E8D
:1049F600056E200E066E810E076E21EC04F0000E89
:104A0600046E000E056E000E066E890E076EFFEC34
:104A160009F0000E046E000E056E480E066E850E39
:104A2600076E21EC04F00CDC00C012F1400E01010F
:104A3600486F010E496FB30E4A6F4C0E4B6F000E56
:104A46004C6F00C04DF1B3EC1FF0010E7E6F0F0EE0
:104A56007F6F400E806F010E816FD7EC06F0836B7F
:104A6600B8EC04F0430E836FB8EC04F0800E0C191A
:104A7600006E800E005C02E112510B5D16E2800EA4
:104A86003B19006E800E0E19005C02E10D513A5D75
:104A96000CE3800E3F19006E800E1119005C02E1D6
:0E4AA60010513E5D02E3DDEC20F04BD5FFD752
:104CBE0010EE16F0D40E006E010E016EB40EF66EEE
:0E4CCE004A0EF76E000EF86E0BEC22F012008C
:0F4AB400434F4E4649475552414E444F204F0005
:0B4AC300484F524152494F20444F0021
:074ACE00522E3A205F5F0049
:074AD500522E3A205F5F0042
:104ADC005155414953204F53204D494E55544F5336
:024AEC003F0089
:0E4AEE004D4F4E49544F52414D454E544F00CE
:0D4AFC005155414C204120484F52413F0090
:084B09004D4158494D413F00A8
:104B11004D4F444F20434F4E464947555241434123
:024B21004F0043
:0C4B230054454D5045524154555241003C
:104B2F005155414C20412054454D5045524154550B
:034B3F00524100E0
:104B4200434F4E4649475552414E444F2041200063
:074B5200522E3A205F5F00C4
:0B4B590054454D502E204D41583A00AD
:084B6400482E204D4F4E3A008F
:014B6C000147
:0D4B6D0054454D502E20415455414C3A0006
:0A4B7A00482E20415455414C3A00EA
:024B840020000F
:024B860000002D
:104B88000000007FCDCC4C7B0AD723786F120375C9
:104B980017B75171ACC5276EBD37066B95BF566701
:104BA80077CC2B645F700961FFE65B5D08E53C3CF0
:044BB8006042221B1A
:104BBC000000007F000020820000488500007A88F9
:104BCC0000401C8C0050438F0024749280961896E1
:104BDC0020BC3E99286B6E9CF90215A0EC782DC177
:044BEC00CAF249E2DE
:104BF000010000000800000040000000000200006A
:104C000000100000008000000000040000002000F0
:104C1000000000010000000800000040000000004B
:104C2000010000000A00000064000000E80300002A
:104C300010270000A086010040420F0080969800D7
:084C400000E1F50500CA9A3BF2
:104C4800010000001000000000010000001000003A
:104C5800000001000000100000000001000000102A
:104C6800303132333435363738394142434445469A
:014C7800003B
:104C790030313233343536373839616263646566C9
:014C8900002A
:0F4C8A00253032643A253032643A2530326400E6
:0A4C9900253032643A253032640001
:084CA300010101010101010101
:084CAB000303000000000000FB
:054CB300253032640011
:054CB80025303264000C
:020000040030CA
:0D000100021F1EFF8381FF0FC00FE00F40A4
:00000001FF
