:04000000C2EF22F039
:1000080000C015F081A007D004EC09F000C0DAF1B7
:0C001800F1EC20F0819015C000F0110008
:0A002400210E0D6E0D2EFED7120006
:0E002E00026A016A006A086A036A000E120084
:06003C00000000001200AC
:100042000F0E0C6E470E0D6E0D2EFED70C2EFCD72A
:0600520000000000120096
:100058000B840BAE37EF00F0010E036E026A016AE3
:0A006800006A0A360232FF0E120091
:080072000AAE029E000E12000E
:10007A000B820BAE47EF00F0036802680168006864
:08008A000A360232FF0E1200DB
:100092000CB08BEF00F00CA231EF01F00E6A000EF3
:1000A2000264A2EF00F0F00E0214D8A46DEF00F08B
:1000B200023A01380F0B02260138F00B016E0038AC
:1000C2000F0B01260038F00B006E08380F0B0026CC
:1000D2000838F00B086E0E84D89002BE86EF00F04E
:1000E20008360036013602360E2A02BE86EF00F0CE
:1000F20008360036013602360E2A02BE86EF00F0BE
:1001020008360036013602360E2A0E50036427EFF7
:1001120001F0035E0BBC08AE2CEF01F0D880800E1C
:1001220008640030000E002201220222D8A02CEF27
:1001320001F0023201320032034A31EF01F02CEFBA
:1001420001F001C002F000C001F008C000F0086A2E
:10015200000E0E860264D9EF00F0F00E0214D8A44D
:10016200C1EF00F0023A01380F0B02260138F00B02
:10017200016E00380F0B01260038F00B006E0E8462
:10018200D89002BE86EF00F00036013602360E2A03
:1001920002BE86EF00F00036013602360E2A02BE9B
:1001A20086EF00F00036013602360E2A86EF00F0A6
:1001B20001C002F000C001F0006A000E0E960E8827
:1001C200026406EF01F0F00E0214D8A4F1EF00F081
:1001D200023A01380F0B02260138F00B016E0E8431
:1001E200D89002BE86EF00F0013602360E2A02BE19
:1001F20086EF00F0013602360E2A02BE86EF00F0CC
:10020200013602360E2A86EF00F001C002F0016AC2
:10021200000E0E86026436EF01F0F00E0214D8A42E
:1002220015EF01F0023A0E84D89002BE86EF00F07C
:1002320002360E2A02BE86EF00F002360E2A02BEF7
:1002420086EF00F002360E2A86EF00F0010E0C6EE9
:1002520002DF39EF01F0020E0C6E0ADF39EF01F016
:10026200040E0C6E09DF39EF01F0080E0C6EDEDEB3
:02027200120078
:100274000101D9BF02D0839E01D0838ED9BD02D0A3
:10028400839C01D0838CD9BB02D0839A01D0838A0A
:10029400D9B902D0839801D0838863B102D0848015
:1002A40001D084908482C8DE8492D9B702D0839E20
:1002B40001D0838ED9B502D0839C01D0838CD9B36D
:1002C40002D0839A01D0838AD9B102D0839801D015
:1002D400838863B102D0848001D084908482ACDEB0
:0E02E400849263A102D0ABDE01D09ADE12003C
:1002F2000134083609360450085E0550D8A0053C82
:10030200095E003601360F0E0C6E013408360936CE
:10031200045000A006D0085E0550D8A0053C095E36
:1003220005D008260550D8B0053C0926003601360E
:100332000C2EEBD700B006D0045008260550D8B0DA
:08034200053C09260000120031
:10034A000D6A086A0050D8B4000C04180A6E0ABE76
:10035A000D1E0B6A04AE02D0041E042A00A002D0AD
:10036A00001E002A005004100A6E0ABE1FD0045054
:10037A00085E003600340836045008260036060E99
:10038A000C6E00340836045000B0085E00A008263F
:10039A0000360C2EF6D700A008260BB015D00DAEED
:1003AA00000C001E002A081E082A000C04AE09D000
:1003BA0000BE04D00050086E006AF1D7006A002A15
:1003CA00000C001E0B2AD3D7082A0450085CD8A4B4
:0E03DA00E6D7086A002A00AEE2D7FF0C120038
:1003E800025006180E6E086A096A0B6A0350076401
:1003F800E7EF02F006500A6E068E028E03500B6E6F
:100408000750036E000E0B6437EF02F00B50075EC7
:10041800D8B4D8EF02F0070E0764A6EF02F0075E23
:1004280000C008F001C000F002C001F0026A074EE7
:10043800D8EF02F007647BEF02F0075E00C008F017
:1004480001C000F0016A074ED8EF02F0076459EFC7
:1004580002F0075E00C008F0006A074ED8EF02F00D
:10046800076440EF02F00AC002F005C001F004C0C2
:1004780000F0086A01EF04F0030E07644BEF02F086
:10048800075E08380F0B086E074ED8EF02F0D890B9
:100498000832074ED8EF02F0D8900832074ED8EF4E
:1004A80002F0D8900832D8EF02F0030E07646AEF22
:1004B80002F0075E08380F0B086E0038F00B0826AC
:1004C80000380F0B006E074ED8EF02F0D8900032BC
:1004D8000832074ED8EF02F0D89000320832074EA3
:1004E800D8EF02F0D89000320832D8EF02F0030EAD
:1004F800076492EF02F0075E08380F0B086E0038A9
:10050800F00B082600380F0B006E0138F00B0026A0
:1005180001380F0B016E074ED8EF02F0D890013268
:1005280000320832074ED8EF02F0D890013200327C
:100538000832074ED8EF02F0D89001320032083264
:10054800D8EF02F0030E0764C3EF02F0075E083825
:100558000F0B086E0038F00B082600380F0B006EE2
:100568000138F00B002601380F0B016E0238F00B32
:10057800012602380F0B026E074ED8EF02F0D89012
:100588000232013200320832074ED8EF02F0D8901A
:100598000232013200320832074ED8EF02F0D8900A
:1005A8000232013200320832096A000E0EAECCEF78
:1005B80003F0081E001E011E021E082A0022012246
:1005C8000222CCEF03F00750D8A4EDEF02F001EFC0
:1005D80004F0096A02C00AF0028E068E0750035C16
:1005E800076ED8B4BFEF03F0070E07648DEF03F072
:1005F800075E0450096E0550046E0650056E066AC3
:10060800074EBFEF03F0070E076462EF03F0075EC3
:100618000450096E0550046E056A074EBFEF03F0DB
:10062800070E076440EF03F0075E0450096E046A82
:10063800074EBFEF03F0070E076427EF03F00AC069
:1006480002F001EF04F0030E076432EF03F0075ED7
:1006580009380F0B096E074EBFEF03F0D890093227
:10066800074EBFEF03F0D8900932074EBFEF03F0F3
:10067800D8900932BFEF03F0030E076451EF03F07F
:10068800075E09380F0B096E0438F00B0926043889
:100698000F0B046E074EBFEF03F0D89004320932F7
:1006A800074EBFEF03F0D89004320932074EBFEF70
:1006B80003F0D89004320932BFEF03F0030E076449
:1006C80079EF03F0075E09380F0B096E0438F00B59
:1006D800092604380F0B046E0538F00B042605387C
:1006E8000F0B056E074EBFEF03F0D89005320432AA
:1006F8000932074EBFEF03F0D890053204320932B1
:10070800074EBFEF03F0D890053204320932BFEF2D
:1007180003F0030E0764AAEF03F0075E09380F0B16
:10072800096E0438F00B092604380F0B046E0538DF
:10073800F00B042605380F0B056E0638F00B05265E
:1007480006380F0B066E074EBFEF03F0D89006323F
:10075800053204320932074EBFEF03F0D890063253
:10076800053204320932074EBFEF03F0D890063243
:10077800053204320932086A000E0EAECCEF03F0DF
:10078800091E041E051E061E092A04220522062229
:100798000950082604500022055001220650022262
:1007A8000EBEE3EF03F0D8A0F2EF03F002320132FD
:1007B80000320832033EF2EF03F0FCEF03F0D8B04A
:1007C800F7EF03F0000E081E001E011E021E082A85
:1007D8000022012202220A7EF7EF03F0010E0C6EBE
:1007E80054DC03EF04F0020E0C6E4FDC03EF04F050
:1007F800040E0C6E3EDC03EF04F0000E0C6E1200CB
:10080800086A080E0C6E003408360450085ED8B02A
:0E08180002D00826D89000360C2EF5D712001C
:100826000B800BAE1FEF04F0026A0AAEFF0E026EDB
:0C083600016E006E0A360232FF0E120046
:10084200086A096A000E07620364A6EF04F0025008
:1008520006180A6E075003267E0ED8A037EF04F062
:10086200035ED8B0ABEF04F03BEF04F0035ED8A018
:10087200B0EF04F0028E068E02C00EF001C00BF043
:1008820000C00DF000500402F4CF0CF0015005023C
:10089200F4CF00F0F3CF08F00402F3500C26F4502A
:1008A2000822000E00220D500502F3500C26F450CF
:1008B2000822000E002202500402F3500826F450CF
:1008C200002202500502016A000E0122F3500026A6
:1008D200F45001220D500602F3500826F450002273
:1008E200026A000E012202220B500602F350002679
:1008F200F4500122000E02220E500602F35001268D
:10090200F450022202BE8EEF04F0083600360136A1
:1009120002360306D8B4B0EF04F0A1EF04F0D88099
:10092200800E08640030000E002201220222D8A0AC
:10093200A1EF04F0023201320032034AABEF04F0BD
:100942000AAE029E000EB3EF04F0010E17EC00F0A7
:10095200B3EF04F0020E3DEC00F0B3EF04F0040E2E
:060962002CEC00F0120075
:080968000B6A0B86FF0E120062
:0E09700001016391D8C1D9F17DDC63811200D1
:10097E0003500718D8A4D3EF04F002500618D8A4D9
:10098E00D3EF04F001500518D8A4D3EF04F00050B3
:0E099E000418D8B4D8841200D89412001200A5
:1009AC000A6A0350D8A40A800750D8A40A820A50B5
:1009BC00D8B439EF05F0030AD8B4F2EF04F00AB05A
:1009CC00EDEF04F006AE37EF05F035EF05F002AEB3
:1009DC0035EF05F037EF05F00250800B0A6E029EE2
:1009EC000650800B069E0A18D8B403EF05F00A5087
:1009FC00D8B435EF05F037EF05F00750035CD8B4E9
:100A0C000DEF05F0D8A029EF05F02FEF05F00650FB
:100A1C00025CD8B417EF05F0D8A029EF05F02FEF42
:100A2C0005F00550015CD8B421EF05F0D8A029EFF2
:100A3C0005F02FEF05F00450005CD8B439EF05F049
:100A4C00D8B02FEF05F00A52D8B437EF05F035EFD8
:100A5C0005F00A52D8B435EF05F037EF05F0D88021
:0E0A6C001200D8901200D880D8841200120018
:100A7A000450000A08E10550000A05E1FF0E006E65
:100A8A007F0E016E12000D6A096A086A0150001091
:100A9A00D8B4000C015005180A6E0ABE0D1E0B6A66
:100AAA0005AE05D0041E051E042AD8B4052A01AED7
:100ABA0005D0001E011E002AD8B4012A01500510D3
:100ACA000A6E0ABE10D010DC0BB020D00DAE000C9E
:100ADA00001E011E002AD8B4012A081E091E082A6F
:100AEA00D8B4092A000C05AE0DD001BE07D00150BA
:100AFA00096E0050086E016A006AE8D7016A006A46
:100B0A00002A000C011E001E0B2ADDD7082AD8B4C1
:100B1A00092A0450085CD8A4D9D70550095CD8A47E
:100B2A00D5D7096A086A002AD8B4012A01AECED7F5
:060B3A000000FF0C120098
:100B40000050086E0150006E0250016E0350026E9C
:100B5000036A0B6A0C6A9E0E036E0A6A020E0C6E22
:060B600049EC00F0120058
:100B66000B6A0C6A086A0350D8B437EF06F002C065
:100B76000AF0028E9E0E035E03AE27EF06F0036CAC
:100B8600080E035CD8A0F4EF05F0036E083600C02B
:100B960008F001C000F002C001F0026A080E035C12
:100BA600D8A0F4EF05F0036E083600C008F001C0C7
:100BB60000F0016A080E035CD8A0F4EF05F0036E9E
:100BC600083600C008F0006A080E035CD8A0F4EFEF
:100BD60005F0036E0836086A0350D8A4D89000EFD3
:100BE60006F00350D8B400EF06F0D8900232013276
:100BF60000320832032EF8EF05F00BBC08A011EF07
:100C060006F0D8A011EF06F0082AD8B4002AD8B406
:100C1600012AD8B4022A02BE3BEF06F00AAE37EF2D
:100C260006F0021E011E001E081E082AD8B4002A5D
:100C3600D8B4012AD8B4022A37EF06F0026A016A4C
:100C4600006A086A37EF06F00B800BAE41EF06F03C
:100C5600026A0AAE41EF06F0026E016E006E086E81
:100C66000A36023241EF06F00C6A000E42EF06F039
:100C7600010E0C6E000ED4DD42EF06F0FF0E0250A0
:100C8600036E0150026E0050016E0850006E120095
:100C96000B6A0A6A096A086A0E6A0334083604503F
:100CA600085E0550D8A0053C095E0650D8A0063C53
:100CB6000A5E0750D8A0073C0B5EE86AD8A0010E72
:100CC6000E5E0336070E0C6E0334083609360A36F6
:100CD6000B360E36045003A012D0085E0550D8A07D
:100CE600053C095E0650D8A0063C0A5E0750D8A00F
:100CF600073C0B5EE86AD8A0010E0E5E11D00826EE
:100D06000550D8B0053C09260650D8B0063C0A2640
:100D16000750D8B0073C0B26E86AD8B0010E0E265D
:100D260003360C2ED1D70234083609360A360B366E
:100D36000E36045003A012D0085E0550D8A0053C1C
:100D4600095E0650D8A0063C0A5E0750D8A0073CAC
:100D56000B5EE86AD8A0010E0E5E11D0082605507B
:100D6600D8B0053C09260650D8B0063C0A260750DE
:100D7600D8B0073C0B26E86AD8B0010E0E2602361C
:100D8600070E0C6E0234083609360A360B360E3656
:100D9600045002A012D0085E0550D8A0053C095E9A
:100DA6000650D8A0063C0A5E0750D8A0073C0B5E4A
:100DB600E86AD8A0010E0E5E11D008260550D8B0FC
:100DC600053C09260650D8B0063C0A260750D8B07E
:100DD600073C0B26E86AD8B0010E0E2602360C2E0A
:100DE600D1D70134083609360A360B360E3604508A
:100DF60002A012D0085E0550D8A0053C095E065038
:100E0600D8A0063C0A5E0750D8A0073C0B5EE86AED
:100E1600D8A0010E0E5E11D008260550D8B0053CAC
:100E260009260650D8B0063C0A260750D8B0073C1B
:100E36000B26E86AD8B0010E0E260136070E0C6E98
:100E46000134083609360A360B360E36045001A030
:100E560012D0085E0550D8A0053C095E0650D8A001
:100E6600063C0A5E0750D8A0073C0B5EE86AD8A08D
:100E7600010E0E5E11D008260550D8B0053C092695
:100E86000650D8B0063C0A260750D8B0073C0B26B9
:100E9600E86AD8B0010E0E2601360C2ED1D70034E2
:100EA600083609360A360B360E36045001A012D023
:100EB600085E0550D8A0053C095E0650D8A0063C41
:100EC6000A5E0750D8A0073C0B5EE86AD8A0010E60
:100ED6000E5E11D008260550D8B0053C09260650EE
:100EE600D8B0063C0A260750D8B0073C0B26E86A5D
:100EF600D8B0010E0E260036070E0C6E00340836EA
:100F060009360A360B360E36045000A012D0085E9B
:100F16000550D8A0053C095E0650D8A0063C0A5EDE
:100F26000750D8A0073C0B5EE86AD8A0010E0E5EFB
:100F360011D008260550D8B0053C09260650D8B071
:100F4600063C0A260750D8B0073C0B26E86AD8B0FC
:100F5600010E0E2600360C2ED1D700B00ED004504E
:100F660008260550D8B0053C09260650D8B0063CE0
:0C0F76000A260750D8B0073C0B261200DA
:080F8200067EF4EC01F0120000
:100F8A000101D351390806E3300ED35D03E3010EA4
:080F9A00006E01D0006A120094
:100FA200C7B409D01F0EC514016E0150000A03E137
:0A0FB200010E006E1200006A12002A
:100FBC000450000A12E10550000A0FE10650000A25
:100FCC000CE10750000A09E1FF0E006EFF0E016EE6
:100FDC007F0E026EFF0E036E1200086A096A07503C
:100FEC00D8B489EF08F00350D8B48DEF08F0025054
:100FFC0006180A6E028E068E0E6A02C008F001C038
:10100C000CF000C00DF004500D5E0550D8A0053C4E
:10101C000C5E0650D8A0063C085E086A0C6A0D6A85
:10102C00D8A020EF08F0D8900232013200320832FA
:10103C00010E0E6E0750035ED8A02DEF08F07E0E49
:10104C000E240326D8B092EF08F033EF08F07E0E92
:10105C000E240326D8A097EF08F0180E0B6E0D3651
:10106C000C3608360036013602360E360450005E59
:10107C000550D8A0053C015E0650D8A0063C025E87
:10108C0006340E120EA04EEF08F00D8059EF08F04A
:10109C00045000260550D8B0053C01260650D8B0A7
:1010AC00062802260D900B2E35EF08F07FEF08F086
:1010BC00D8900036013602360E360450005E0550CC
:1010CC00D8A0053C015E0650D8A0063C025E063452
:1010DC000E10010B0D26D8B00C2AD8B4082AD8A4AF
:1010EC007FEF08F008320C320D32032AD8B492EF9D
:1010FC0008F00AAE089E0850026E0C50016E0D509E
:10110C00006E9AEF08F0010E29DC9AEF08F0020E3F
:10111C0017EC00F09AEF08F0040E3DEC00F09AEF9B
:0A112C0008F0080E2CEC00F0120091
:101136000B6A0A6A096A00500402F4CF09F0F3CF79
:1011460008F001500502F4CF0BF0F3CF0AF000507F
:101156000502F3500926F4500A22E86A0B220150D0
:101166000402F3500926F4500A22E86A0B2208C04A
:1011760000F009C001F00AC002F00BC003F0120033
:1011860010D0800E0101D36F1AD0C00ED36F17D0C6
:10119600940ED36F14D0D40ED36F11D0800ED36FAC
:1011A6000ED00101D351010AECE0D351020AEDE061
:1011B600D351030AEDE0D351040AEDE0EFD7D4058D
:1011C600006ED351002600C0D3F100C0D9F13AEC2D
:1011D60001F06391D76BD751D525E96E000ED62164
:1011E600EA6EEE520CE0D751D525E96E000ED621F7
:1011F600EA6EEECFD8F1B8EC04F0D72BECD76381CA
:021206001200D4
:10120800100E836E80AA06D080AA01D0FDD7370EB3
:10121800006E120081A206D081A201D0FDD7380E3F
:10122800006E120081A406D081A401D0FDD7390E2A
:10123800006E120081A606D081A601D0FDD7250E2A
:10124800006E1200200E836E80AA06D080AA01D0FC
:10125800FDD7340E006E120081A206D081A201D003
:10126800FDD7350E006E120081A406D081A401D0EE
:10127800FDD7360E006E120081A606D081A601D0D9
:10128800FDD72A0E006E1200400E836E80AA06D08B
:1012980080AA01D0FDD7310E006E120081A206D0BF
:1012A80081A201D0FDD7320E006E120081A406D0B3
:1012B80081A401D0FDD7330E006E120081A606D09E
:1012C80081A601D0FDD72D0E006E1200800E836E10
:1012D80080AA06D080AA01D0FDD7430E006E120066
:1012E80081A206D081A201D0FDD7300E006E120077
:1012F80081A406D081A401D0FDD73D0E006E120056
:1013080081A606D081A601D0FDD72B0E006E120053
:06131800FF0E006E120042
:10131E00800E0101D319006E800E000A005CD8B059
:10132E006DD1D3510008016E01C0D3F1800E0118AA
:10133E00006E800E6E0A005CD8A0C0D0640E046EE3
:10134E00D3C100F0A5EC01F0120E0024056E000EC4
:10135E0000BEFF0E066E000E062205C000F006C08F
:10136E0001F0000E06BEFF0E026E036E00360090F8
:10137E000136023603360036009001360236033649
:10138E00480E0024F66E4C0E0120F76E000E022061
:10139E00F86E0900F5CFD4F10900F5CFD5F10900AB
:1013AE00F5CFD6F10900F5CFD7F1640E046ED3C197
:1013BE0000F0A5EC01F008C000F00A0E046EA5ECDA
:1013CE0001F0090E0024056E000E00BEFF0E066E23
:1013DE00000E062205C000F006C001F0000E06BE8B
:1013EE00FF0E026E036E0036009001360236033693
:1013FE0000360090013602360336480E0024F66E93
:10140E004C0E0120F76E000E0220F86E0900F5CF8B
:10141E0000F00900F5CF01F00900F5CF02F0090048
:10142E00F5CF03F0D4C104F0D5C105F0D6C106F056
:10143E00D7C107F021EC04F000C0D4F101C0D5F102
:10144E0002C0D6F103C0D7F10A0E046ED3C100F06C
:10145E00A5EC01F008C000F000C001F0000E00BEC7
:10146E00FF0E026E036E046E0136019002360336D5
:10147E00043601360190023603360436480E012436
:10148E00F66E4C0E0220F76E000E0320F86E090069
:10149E00F5CF00F00900F5CF01F00900F5CF02F00D
:1014AE000900F5CF03F0D4C104F0D5C105F0D6C1C3
:1014BE0006F0D7C107F021EC04F01200800E0A0AE4
:1014CE00006E800ED319005C71E20A0E046ED3C159
:1014DE0000F0A5EC01F0090E0024056E000E00BE12
:1014EE00FF0E066E000E062205C000F006C001F0CB
:1014FE00000E06BEFF0E026E036E00360090013621
:10150E000236033600360090013602360336480E98
:10151E000024F66E4C0E0120F76E000E0220F86EBF
:10152E000900F5CFD4F10900F5CFD5F10900F5CFBB
:10153E00D6F10900F5CFD7F10A0E046ED3C100F033
:10154E00A5EC01F008C000F000C001F0000E00BED6
:10155E00FF0E026E036E046E0136019002360336E4
:10156E00043601360190023603360436480E012445
:10157E00F66E4C0E0220F76E000E0320F86E090078
:10158E00F5CF00F00900F5CF01F00900F5CF02F01C
:10159E000900F5CF03F0D4C104F0D5C105F0D6C1D2
:1015AE0006F0D7C107F021EC04F01200D3C100F011
:1015BE00000ED3BFFF0E016E026E036E003600905A
:1015CE0001360236033600360090013602360336F7
:1015DE00480E0024F66E4C0E0120F76E000E02200F
:1015EE00F86E0900F5CF00F00900F5CF01F0090003
:1015FE00F5CF02F00900F5CF03F01200800ED319DB
:10160E00006E800E6E0A005CD8A0C0D0640E046E10
:10161E00D3C100F0A5EC01F0120E0024056E000EF1
:10162E0000BEFF0E066E000E062205C000F006C0BC
:10163E0001F0000E06BEFF0E026E036E0036009025
:10164E000136023603360036009001360236033676
:10165E007C0E0024F66E4C0E0120F76E000E02205A
:10166E00F86E0900F5CFD4F10900F5CFD5F10900D8
:10167E00F5CFD6F10900F5CFD7F1640E046ED3C1C4
:10168E0000F0A5EC01F008C000F00A0E046EA5EC07
:10169E0001F0090E0024056E000E00BEFF0E066E50
:1016AE00000E062205C000F006C001F0000E06BEB8
:1016BE00FF0E026E036E00360090013602360336C0
:1016CE00003600900136023603367C0E0024F66E8C
:1016DE004C0E0120F76E000E0220F86E0900F5CFB9
:1016EE0000F00900F5CF01F00900F5CF02F0090076
:1016FE00F5CF03F0D4C104F0D5C105F0D6C106F084
:10170E00D7C107F021EC04F000C0D4F101C0D5F12F
:10171E0002C0D6F103C0D7F10A0E046ED3C100F099
:10172E00A5EC01F008C000F000C001F0000E00BEF4
:10173E00FF0E026E036E046E013601900236033602
:10174E000436013601900236033604367C0E01242F
:10175E00F66E4C0E0220F76E000E0320F86E090096
:10176E00F5CF00F00900F5CF01F00900F5CF02F03A
:10177E000900F5CF03F0D4C104F0D5C105F0D6C1F0
:10178E0006F0D7C107F021EC04F01200800E0A0A11
:10179E00006E800ED319005C71E20A0E046ED3C186
:1017AE0000F0A5EC01F0090E0024056E000E00BE3F
:1017BE00FF0E066E000E062205C000F006C001F0F8
:1017CE00000E06BEFF0E026E036E0036009001364E
:1017DE0002360336003600900136023603367C0E92
:1017EE000024F66E4C0E0120F76E000E0220F86EED
:1017FE000900F5CFD4F10900F5CFD5F10900F5CFE9
:10180E00D6F10900F5CFD7F10A0E046ED3C100F060
:10181E00A5EC01F008C000F000C001F0000E00BE03
:10182E00FF0E026E036E046E013601900236033611
:10183E000436013601900236033604367C0E01243E
:10184E00F66E4C0E0220F76E000E0320F86E0900A5
:10185E00F5CF00F00900F5CF01F00900F5CF02F049
:10186E000900F5CF03F0D4C104F0D5C105F0D6C1FF
:10187E0006F0D7C107F021EC04F01200D3C100F03E
:10188E00000ED3BFFF0E016E026E036E0036009087
:10189E000136023603360036009001360236033624
:1018AE007C0E0024F66E4C0E0120F76E000E022008
:1018BE00F86E0900F5CF00F00900F5CF01F0090030
:0C18CE00F5CF02F00900F5CF03F0120086
:1018DA006E0E0101D35DD8A0CAD0640E046ED3C1C6
:1018EA0000F004EC04F0120E0024056E066A000EE5
:1018FA00062205C000F006C001F0000E06BEFF0E6B
:10190A00026E036E00360090013602360336003648
:10191A000090013602360336480E0024F66E4C0E4D
:10192A000120F76E000E0220F86E0900F5CF00F0D4
:10193A000900F5CF01F00900F5CF02F00900F5CF53
:10194A0003F0000E046E000E056E000E066E7E0E8B
:10195A00076E21EC04F000C0D4F101C0D5F102C039
:10196A00D6F103C0D7F1640E046ED3C100F004ECC3
:10197A0004F008C000F00A0E046E04EC04F0090E2C
:10198A000024056E066A000E062205C000F006C095
:10199A0001F0000E06BEFF0E026E036E00360090C6
:1019AA000136023603360036009001360236033617
:1019BA00480E0024F66E4C0E0120F76E000E02202F
:1019CA00F86E0900F5CF00F00900F5CF01F0090023
:1019DA00F5CF02F00900F5CF03F0D4C104F0D5C168
:1019EA0005F0D6C106F0D7C107F021EC04F000C01B
:1019FA00D4F101C0D5F102C0D6F103C0D7F10A0E65
:101A0A00046ED3C100F004EC04F008C000F000C07A
:101A1A0001F0000E026E036E046E0136019002366A
:101A2A000336043601360190023603360436480E70
:101A3A000124F66E4C0E0220F76E000E0320F86E9B
:101A4A000900F5CF00F00900F5CF01F00900F5CF44
:101A5A0002F00900F5CF03F0D4C104F0D5C105F0B6
:101A6A00D6C106F0D7C107F021EC04F01200D35119
:101A7A000A087EE20A0E046ED3C100F004EC04F0F8
:101A8A00090E0024056E066A000E062205C000F043
:101A9A0006C001F0000E06BEFF0E026E036E00368F
:101AAA0000900136023603360036009001360236BF
:101ABA000336480E0024F66E4C0E0120F76E000E17
:101ACA000220F86E0900F5CF00F00900F5CF01F009
:101ADA000900F5CF02F00900F5CF03F0000E046EFD
:101AEA00000E056E000E066E7E0E076E21EC04F0E7
:101AFA0000C0D4F101C0D5F102C0D6F103C0D7F1BC
:101B0A000A0E046ED3C100F004EC04F008C000F021
:101B1A0000C001F0000E026E036E046E01360190E1
:101B2A00023603360436013601900236033604368D
:101B3A00480E0124F66E4C0E0220F76E000E0320AA
:101B4A00F86E0900F5CF00F00900F5CF01F00900A1
:101B5A00F5CF02F00900F5CF03F0D4C104F0D5C1E6
:101B6A0005F0D6C106F0D7C107F021EC04F0120047
:101B7A00D3C100F0000E016E026E036E00360090B3
:101B8A000136023603360036009001360236033635
:101B9A00480E0024F66E4C0E0120F76E000E02204D
:101BAA00F86E0900F5CF00F00900F5CF01F0090041
:101BBA00F5CF02F00900F5CF03F0000E046E000E17
:101BCA00056E000E066E7E0E076E21EC04F0120002
:101BDA000B6A0C6A0A6A086A0350D8B475EF0EF0E9
:101BEA00028E9E0E035E03BE00EF0EF0D8B400EF25
:101BFA000EF065EF0EF0036C080E035CD8A032EF0E
:101C0A000EF0036E083600C008F001C000F002C0F2
:101C1A0001F0026A080E035CD8A032EF0EF0036EE0
:101C2A00083600C008F001C000F0016A080E035C23
:101C3A00D8A032EF0EF0036E083600C008F0006A32
:101C4A00080E035CD8A032EF0EF0036E0836086A5D
:101C5A000350D8A4D8903EEF0EF00350D8B43EEF0C
:101C6A000EF0D8900232013200320832032E36EFDB
:101C7A000EF00BBC08A04FEF0EF0D8A04FEF0EF0FD
:101C8A00082AD8B4002AD8B4012AD8B4022A02BE33
:101C9A0079EF0EF00AAE75EF0EF0021E011E001E5D
:101CAA00081E082AD8B4002AD8B4012AD8B4022AAD
:101CBA0075EF0EF0026A016A006A086A75EF0EF0A3
:101CCA000B800BAE7FEF0EF0026A0AAE7FEF0EF0CA
:101CDA00026E016E006E086E0A3602327FEF0EF057
:101CEA00000E0C6A80EF0EF0010E0C6E13EC04F07D
:101CFA0080EF0EF0FF0E0250036E0150026E00508C
:081D0A00016E0850006E12008A
:101D12000101386B396B800E3919006E800E005C40
:101D220002E1020E385D0AE23851AC25E16E39510A
:101D3200AD21E26EE66A384B392BEDD7386B396B41
:101D420004EC09F000C09CF100503D0A42E00101A0
:101D52009C51FF0A3DE09C512A0A23E1800E006E4D
:101D6200800E3919005C02E13851000804E2010ECC
:101D7200385F000E395B3851AC25E16E3951AD2127
:101D8200E26EE66AAE51AF110BE0B0C1D3F1385149
:101D9200B225D46F360ED56F010ED66FC3EC08F0A4
:101DA20017D03851AC25E16E3951AD21E26E9CC19C
:101DB200E6FF384B392BAE51AF110AE0B0C1D3F177
:101DC200B2C1D4F1ACC1D5F1ADC1D6F1C3EC08F0CA
:041DD200B7D712006D
:101DD600020E0B6E040E0C6EBA0E0D6E0D2EFED795
:0C1DE6000C2EFCD70B2EFAD700001200C8
:101DF2000101CB6BCC6BB86BB96BAEC100F0AFC15C
:101E020001F0B0C102F0010EAE27000EAF23B023E5
:101E120000C0F6FF01C0F7FF02C0F8FF0900F5CFCE
:101E220000F000C0B5F10052D8B40DEF1FF0B5516B
:101E3200250A0BE0ACC1E1FFADC1E2FFB5C1E6FF8F
:101E4200AC4BAD2BCB4BCC2BD8D7B66BB76BB86B9F
:101E5200B96B23D0B887010EAE27000EAF23B02393
:101E620059D0B881010EAE27000EAF23B02352D055
:101E7200B883010EAE27000EAF23B0234BD0B98733
:101E8200010EAE27000EAF23B02344D0B885010E59
:101E9200AE27000EAF23B0233DD0AEC1F6FFAFC1D7
:101EA200F7FFB0C1F8FF0900F5CF01F001502D0A8C
:101EB200D1E0AEC1F6FFAFC1F7FFB0C1F8FF090034
:101EC200F5CF01F00150200ACCE0AEC1F6FFAFC160
:101ED200F7FFB0C1F8FF0900F5CF01F001502B0A5E
:101EE200C7E0AEC1F6FFAFC1F7FFB0C1F8FF09000E
:101EF200F5CF01F00150230AC2E0AEC1F6FFAFC137
:101F0200F7FFB0C1F8FF0900F5CF01F00150300A28
:101F1200BDE001D09ED7B8A301D0B891B8A701D037
:101F2200B895AEC1F6FFAFC1F7FFB0C1F8FF090027
:101F3200F5CF00F0000E016E00C0D3F1C5EC07F042
:101F4200005236E0B66BB76BB6C100F0B7C101F014
:101F52000A0E046E000E056E9BEC08F0AEC1F6FF91
:101F6200AFC1F7FFB0C1F8FF0900F5CF02F0025090
:101F72000024B66F000E0120B76F300EB65F000E60
:101F8200B75B010EAE27000EAF23B023AEC1F6FF42
:101F9200AFC1F7FFB0C1F8FF0900F5CF00F0000EA6
:101FA200016E00C0D3F1C5EC07F00052CDE133D091
:101FB200AEC1F6FFAFC1F7FFB0C1F8FF0900F5CF20
:101FC20001F001502A0A27E1B1C1E9FFB2C1EAFFDB
:101FD200EECF00F0EECF01F000C0E9FF01C0EAFF52
:101FE200EECFB6F1EECFB7F1B1C1E9FFB2C1EAFF70
:101FF200020EEE24006E000EEE20016EB1C1E1FF72
:10200200B2C1E2FF00C0E6FF01C0E6FF010EAE274B
:10201200000EAF23B023AEC1F6FFAFC1F7FFB0C1D0
:10202200F8FF0900F5CF01F001502E0A70E1010E10
:10203200AE27000EAF23B023AEC1F6FFAFC1F7FF4C
:10204200B0C1F8FF0900F5CF01F001502A0A28E1DA
:10205200B1C1E9FFB2C1EAFFEECF00F0EECF01F06D
:1020620000C0E9FF01C0EAFFEECFB3F1EECFB4F159
:10207200B1C1E9FFB2C1EAFF020EEE24006E000E0A
:10208200EE20016EB1C1E1FFB2C1E2FF00C0E6FF86
:1020920001C0E6FF010EAE27000EAF23B02336D0FB
:1020A200B36BB46BAEC1F6FFAFC1F7FFB0C1F8FFBF
:1020B2000900F5CF00F0000E016E00C0D3F1C5ECAF
:1020C20007F0005223E0B3C100F0B4C101F00A0EE0
:1020D200046E000E056E9BEC08F0AEC1F6FFAFC1B8
:1020E200F7FFB0C1F8FF0900F5CF02F0025000245B
:1020F200B36F000E0120B46F300EB35F000EB45BFD
:10210200010EAE27000EAF23B023CCD703D0B36BA2
:10211200B46BB989AEC100F0AFC101F0B0C102F039
:10212200010EAE27000EAF23B02300C0F6FF01C0A0
:10213200F7FF02C0F8FF0900F5CFB5F105D1CBC119
:1021420000F0CCC101F01200B889E4D7B98537D1CB
:10215200B88BB98134D1B98332D1B88D30D12FD176
:10216200B88BB88F2CD1B1C1E9FFB2C1EAFFEECF73
:1021720000F0EECF01F000C0E9FF01C0EAFFEECFB0
:10218200C0F1EECFC1F1B1C1E9FFB2C1EAFF020E67
:10219200EE24006E000EEE20016EB1C1E1FFB2C16D
:1021A200E2FF00C0E6FF01C0E6FF000EC11902E136
:1021B200000EC01911E1280EC46F6E0EC56F750EA8
:1021C200C66F6C0EC76F6C0EC86F290EC96FCA6BD3
:1021D200C40EC06F010EC16FC26BC36BC251C0256A
:1021E200E96EC351C121EA6EEE520BE0010EC22527
:1021F200006E000EC321016E00C0C2F101C0C3F126
:10220200EDD7B351B4110AE0C351B45D02E1C2513A
:10221200B35D04E2B3C1C2F1B4C1C3F1B751C35D4E
:1022220002E1B651C25D05E2C251B65FC351B75B6E
:1022320002D0B66BB76BB8B716D0B6C100F0B7C153
:1022420001F0010EB65F000EB75B005001100BE00B
:10225200ACC1E1FFADC1E2FF200EE66EAC4BAD2B8F
:10226200CB4BCC2BEAD7C2C102F0C3C103F0010EA3
:10227200C25D006E000EC359016E00C0C2F101C002
:10228200C3F10250031019E0C0C1E9FFC1C1EAFF66
:10229200ACC1E1FFADC1E2FFEECFE6FFAC4BAD2B2F
:1022A200010EC025006E000EC121016E00C0C0F1FA
:1022B20001C0C1F1CB4BCC2BD6D7B8A716D0B6C133
:1022C20000F0B7C101F0010EB65F000EB75B00501F
:1022D20001100BE0ACC1E1FFADC1E2FF200EE66EE2
:1022E200AC4BAD2BCB4BCC2BEAD787D5B1C1E9FF99
:1022F200B2C1EAFFEECF00F0EECF01F000C0E9FF7D
:1023020001C0EAFFEECFB5F1B1C1E9FFB2C1EAFF08
:10231200020EEE24006E000EEE20016EB1C1E1FF4E
:10232200B2C1E2FF00C0E6FF01C0E6FFB50EC06F1A
:10233200010EC16F010EC26F000EC36F62D7C00ED5
:10234200B813000EB9133BD0B551000AD8B4F7D672
:10235200B5516C0AD8B4F8D6B551660AD8B4F6D6D7
:10236200B551450AD8B4F4D6B551650AD8B4F1D6F8
:10237200B551670AD8B4EFD6B5516F0AD8B4EDD6C5
:10238200B551640AD8B4EBD6B551690AD8B4E7D6C8
:10239200B551700AD8B4E4D6B551580AD8B4E0D6CB
:1023A200B551780AD8B4DDD6B551730AD8B4DBD6A4
:1023B200B551630A9BE0B551750AC1E0B7D7000E6B
:1023C200B815006EB951070B016E00500110D8B458
:1023D200B8EF1AF0B9A904D0060EB36F000EB46FAD
:1023E200B1C1E9FFB2C1EAFFEECF00F0EECF01F0DA
:1023F20000C0E9FF01C0EAFFEECFBAF1EECFBBF1B8
:10240200EECFBCF1EECFBDF1B1C1E9FFB2C1EAFF3F
:10241200040EEE24006E000EEE20016EB1C1E1FF4B
:10242200B2C1E2FF00C0E6FF01C0E6FF046A056A2E
:10243200066A076ABAC100F0BBC101F0BCC102F072
:10244200BDC103F0D6EC04F0010ED8B0000E006E50
:10245200005205E0BC7F030EB813000EB913BE6B29
:10246200BF6BBAC100F0BBC101F0BCC102F0BDC17B
:1024720003F0046A056A066A076ABFEC04F0000EFC
:10248200D8A4010E006E0052D8B48AD0BDC100F0AB
:10249200016A026A036AFF0E0016000E01167E0E22
:1024A200005E000E015A00C0BEF101C0BFF1010E74
:1024B200005E000E015A00C0BEF101C0BFF1030E62
:1024C200046E000E056E9BEC08F000C0BEF101C068
:1024D200BFF10A0E046E000E056E3DEC05F000C061
:1024E200BEF101C0BFF1800E0118026E800E025CC7
:1024F20002E1000E005C05E2010E0101BE5F000E6A
:10250200BF5B0101BE510008D36F8FEC09F0BAC165
:1025120004F0BBC105F0BCC106F0BDC107F021EC5F
:1025220004F000C0C0F101C0C1F102C0C2F103C099
:10253200C3F1000E046E000E056E000E066E7F0ED5
:10254200076EC0C100F0C1C101F0C2C102F0C3C137
:1025520003F0D6EC04F0010ED8B0000E006E00526B
:1025620005E0010EBE5F000EBF5B1AD0000E046EC6
:10257200000E056E200E066E820E076EC0C100F0C0
:10258200C1C101F0C2C102F0C3C103F0D6EC04F034
:10259200000ED8B0010E006E005202E0BE4BBF2BFF
:1025A200800E006E800EBF19005C02E1BE51000871
:1025B20003E3010EB56F02D0BEC1B5F1B9B118D0B7
:1025C200B9A315D0800EBF19006E7F0E005C02E128
:1025D200FC0EBE5D0BE3800EBF19006E800EB419B7
:1025E200005C02E1B351BE5D01E201D001D0F1D342
:1025F200B351B41106E0B9A304D0010EB35F000ECB
:10260200B45B000E006EB451005C02E1B3510808E5
:1026120003E2080EB56F02D0B3C1B5F1BAC100F042
:10262200BBC101F0BCC102F0BDC103F0046A056A7E
:10263200066A076ABFEC04F0000ED8A4010E006E11
:102642000052D8B44BD1BEC1D3F18FEC09F000C017
:1026520004F001C005F002C006F003C007F0BAC1E1
:1026620000F0BBC101F0BCC102F0BDC103F0DEEC61
:1026720007F000C0BAF101C0BBF102C0BCF103C057
:10268200BDF10101B5510008D36F8FEC09F000C014
:1026920004F001C005F002C006F003C007F0BAC1A1
:1026A20000F0BBC101F0BCC102F0BDC103F0DEEC21
:1026B20007F000C0CDF101C0CEF102C0CFF103C0DE
:1026C200D0F1CDC1BAF1CEC1BBF1CFC1BCF1D0C105
:1026D200BDF1CDC100F0CEC101F0CFC102F0D0C139
:1026E20003F0EDEC0DF0A0EC05F000C004F001C029
:1026F20005F002C006F003C007F0CDC100F0CEC164
:1027020001F0CFC102F0D0C103F0C1EC07F0000E1E
:10271200046E000E056E000E066E7E0E076ED6EC7F
:1027220004F0000ED8B0010E006E00521AE0BAC1D9
:1027320000F0BBC101F0BCC102F0BDC103F0000E4C
:10274200046E000E056E000E066E7E0E076EF4EC31
:1027520001F000C0BAF101C0BBF102C0BCF103C07C
:10276200BDF1BAC100F0BBC101F0BCC102F0BDC1F4
:1027720003F0EDEC0DF00101B551010F096E0A6A8B
:10278200000E0A2209C004F00AC005F0000E0ABEBB
:10279200FF0E066E076E04360490053606360736BF
:1027A20004360490053606360736E00E0424F66E2B
:1027B2004C0E0520F76E000E0620F86E0900F5CFCC
:1027C20005F00900F5CF06F00900F5CF07F0090082
:1027D200F5CF08F00850035C08E10750025C05E100
:1027E2000650015C02E10550005C1EE30101BAC122
:1027F20000F0BBC101F0BCC102F0BDC103F0CD0EBF
:10280200046ECC0E056E4C0E066E7B0E076E21EC2E
:1028120004F000C0BAF101C0BBF102C0BCF103C0B8
:10282200BDF1BE4BBF2B5AD0BAC100F0BBC101F003
:10283200BCC102F0BDC103F0EDEC0DF0B5C104F076
:10284200000E056E066E076E0436049005360636D7
:10285200073604360490053606360736E00E0424A1
:10286200F66E4C0E0520F76E000E0620F86E09007B
:10287200F5CF05F00900F5CF06F00900F5CF07F016
:102882000900F5CF08F00850035C08E10750025C2C
:1028920005E10650015C02E10550005C1FE2010106
:1028A200BAC100F0BBC101F0BCC102F0BDC103F06E
:1028B200000E046E000E056E200E066E820E076E6E
:1028C20021EC04F000C0BAF101C0BBF102C0BCF1BE
:1028D20003C0BDF1010EBE5F000EBF5B0101B9A3D3
:1028E20093D0B9B791D0800E000A006E800EB41951
:1028F200005C02E1B3510A0804E20A0EB36F000E53
:10290200B46FBAC100F0BBC101F0BCC102F0BDC1DD
:1029120003F0EDEC0DF000C0C0F101C0C1F102C046
:10292200C2F103C0C3F1C051C111C211C31142E0CF
:102932000A0E046E000E056E066E076EC0C100F030
:10294200C1C101F0C2C102F0C3C103F04BEC06F0F9
:1029520008C000F009C001F00AC002F00BC003F089
:10296200000E046E031808E10450021805E1045039
:10297200011802E10050000A1DE1010EB35F000ED2
:10298200B45B0A0E046E000E056E066E076EC0C1C1
:1029920000F0C1C101F0C2C102F0C3C103F04BECAF
:1029A20006F000C0C0F101C0C1F102C0C2F103C013
:1029B200C3F1B9D7800EB419006E800E005C02E13B
:1029C200B551B35D21E2B351B55DD36F8FEC09F020
:1029D20000C004F001C005F002C006F003C007F019
:1029E200BAC100F0BBC101F0BCC102F0BDC103F02D
:1029F200DEEC07F000C0BAF101C0BBF102C0BCF1CD
:102A020003C0BDF1B3C1B5F1050E0101B325006EDE
:102A1200000EB421016E0050B65F0150B75BB35196
:102A2200B41103E1B9B701D004D0010EB65F000EB4
:102A3200B75B030EB815006EB9C101F0000E0116A6
:102A42000050011004E0010EB65F000EB75BB8A59E
:102A520039D0B8A312D0B8A103D02D0E006E02D087
:102A62002B0E006EACC1E1FFADC1E2FF00C0E6FF7C
:102A7200AC4BAD2BCB4BCC2B0CD0B8A10AD0ACC1FC
:102A8200E1FFADC1E2FF200EE66EAC4BAD2BCB4BAE
:102A9200CC2B800E006E800EB719005C02E1B6519D
:102AA20000080FE2ACC1E1FFADC1E2FF300EE66EFD
:102AB200AC4BAD2BCB4BCC2B010EB65F000EB75BF4
:102AC200E8D73AD0B8B718D0800E006E800EB7198A
:102AD200005C02E1B65100080FE2ACC1E1FFADC1FA
:102AE200E2FF200EE66EAC4BAD2BCB4BCC2B010E96
:102AF200B65F000EB75BE8D7B8A312D0B8A103D077
:102B02002D0E006E02D02B0E006EACC1E1FFADC1E6
:102B1200E2FF00C0E6FFAC4BAD2BCB4BCC2B0CD075
:102B2200B8A10AD0ACC1E1FFADC1E2FF200EE66E52
:102B3200AC4BAD2BCB4BCC2BBAC100F0BBC101F0DF
:102B4200BCC102F0BDC103F0EDEC0DF000C0C0F15C
:102B520001C0C1F102C0C2F103C0C3F1B5C100F0AE
:102B6200000E016E026E036E0036009001360236D0
:102B7200033600360090013602360336E00E00249A
:102B8200F66E4C0E0120F76E000E0220F86E090060
:102B9200F5CF04F00900F5CF05F00900F5CF06F0F6
:102BA2000900F5CF07F0C0C100F0C1C101F0C2C1F8
:102BB20002F0C3C103F04BEC06F0300E0026ACC1AC
:102BC200E1FFADC1E2FF00C0E6FFAC4BAD2BCB4B4A
:102BD200CC2BB351B41103E1B9B701D06FD0ACC162
:102BE200E1FFADC1E2FF2E0EE66EAC4BAD2BCB4B3F
:102BF200CC2BB551B35F000EB45BB5534DE0B507B6
:102C0200B5C100F0000E016E026E036E0036009038
:102C1200013602360336003600900136023603369C
:102C2200E00E0024F66E4C0E0120F76E000E02201C
:102C3200F86E0900F5CF04F00900F5CF05F00900A0
:102C4200F5CF06F00900F5CF07F0C0C100F0C1C111
:102C520001F0C2C102F0C3C103F04BEC06F00A0E50
:102C6200046E000E056E066E076E4BEC06F008C091
:102C720000F009C001F00AC002F00BC003F0300EF0
:102C82000026ACC1E1FFADC1E2FF00C0E6FFAC4BE4
:102C9200AD2BCB4BCC2BB1D7B351B4110FE0ACC1A0
:102CA200E1FFADC1E2FF300EE66EAC4BAD2BCB4B7C
:102CB200CC2B010EB35F000EB45BEED7B8AB0BD0DA
:102CC200ACC1E1FFADC1E2FF450EE66EAC4BAD2BF0
:102CD200CB4BCC2B0AD0ACC1E1FFADC1E2FF650EFC
:102CE200E66EAC4BAD2BCB4BCC2B800EBF19006EDE
:102CF200800E005C02E1000EBE5D11E2BE510008D2
:102D0200BE6FBF51000EBF57ACC1E1FFADC1E2FFC4
:102D12002D0EE66EAC4BAD2BCB4BCC2B0AD0ACC1FF
:102D2200E1FFADC1E2FF2B0EE66EAC4BAD2BCB4B00
:102D3200CC2B0A0E046E000E056EBEC100F0BFC1A0
:102D420001F03DEC05F0300E0026ACC1E1FFADC153
:102D5200E2FF00C0E6FF0101AC4BAD2BCB4BCC2B0D
:102D62000A0E046E000E056EBEC100F0BFC101F076
:102D72003DEC05F008C000F009C001F0300E00265D
:102D8200ACC1E1FFADC1E2FF00C0E6FF0101AC4B07
:102D9200AD2BCB4BCC2BB8A71AD0800E006E800E79
:102DA200B719005C02E1B651000811E2ACC1E1FFC3
:102DB200ADC1E2FF200EE66EAC4BAD2BCB4BCC2B64
:102DC200010EB65F000EB75BB651B711EFE1FEEF31
:102DD2000EF0B9A3F3D0800EBF19006E800E005C16
:102DE20002E1000EBE5D0AE2010EBE5D006E000E43
:102DF200BF59016E0050B35F0150B45BBAC100F01D
:102E0200BBC101F0BCC102F0BDC103F0EDEC0DF09D
:102E120000C0C0F101C0C1F102C0C2F103C0C3F1E0
:102E2200010EB56FB5510A0A34E0B5C100F0000ECB
:102E3200016E026E036E00360090013602360336D2
:102E420000360090013602360336E00E0024F66E9C
:102E52004C0E0120F76E000E0220F86E0900F5CF2D
:102E620001F00900F5CF02F00900F5CF03F00900E7
:102E7200F5CF04F00450C35D08E10350C25D05E1E3
:102E82000250C15D02E10150C05D01E202D0B52BEA
:102E9200C9D7B551B35DD16F000EB459D26FD1C14C
:102EA200B3F1D2C1B4F1C0C100F0C1C101F0C2C1DD
:102EB20002F0C3C103F0A0EC05F000C004F001C0B1
:102EC20005F002C006F003C007F0BAC100F0BBC1B2
:102ED20001F0BCC102F0BDC103F0C1EC07F000C0BB
:102EE200CDF101C0CEF102C0CFF103C0D0F1D1C10A
:102EF200D3F18FEC09F0CDC104F0CEC105F0CFC102
:102F020006F0D0C107F021EC04F0000E046E000EB2
:102F1200056E000E066E7E0E076EF4EC01F0EDEC0F
:102F22000DF000C0C0F101C0C1F102C0C2F103C086
:102F3200C3F1B351B41142E00A0E046E000E056EE5
:102F4200066E076EC0C100F0C1C101F0C2C102F03D
:102F5200C3C103F04BEC06F008C000F009C001F059
:102F62000AC002F00BC003F0000E046E031808E161
:102F72000450021805E10450011802E10050000A51
:102F82001DE10A0E046E000E056E066E076EC0C1CC
:102F920000F0C1C101F0C2C102F0C3C103F04BECA9
:102FA20006F000C0C0F101C0C1F102C0C2F103C00D
:102FB200C3F1010EB35F000EB45BBBD7800E006E8F
:102FC200800EB419005C02E1B3510C0816E3B3C1E0
:102FD200D3F16DEC0CF0BAC104F0BBC105F0BCC179
:102FE20006F0BDC107F0F4EC01F000C0BAF101C077
:102FF200BBF102C0BCF103C0BDF1BAC100F0BBC15C
:1030020001F0BCC102F0BDC103F0046A056A066AA0
:10301200076ABFEC04F0000ED8A4010E006E005245
:10302200D8B477D0BAC100F0BBC101F0BCC102F084
:10303200BDC103F0EDEC0DF0000E046E031808E1C3
:103042000450021805E10450011802E10050000A80
:1030520060E1800E006E800EBF19005C02E1BE517D
:10306200010857E2BEC1D3F18FEC09F000C004F0B1
:1030720001C005F002C006F003C007F0BAC100F0BB
:10308200BBC101F0BCC102F0BDC103F0DEEC07F030
:103092005F0E046E700E056E090E066E810E076ECF
:1030A200D6EC04F0010ED8B0000E006E005206E01D
:1030B200090E0101BE5F000EBF5B05D00101080EC3
:1030C200BE5F000EBF5BBEC1D3F18FEC09F000C042
:1030D20004F001C005F002C006F003C007F0BAC157
:1030E20000F0BBC101F0BCC102F0BDC103F0DEECD7
:1030F20007F0EDEC0DF000C0C0F101C0C1F102C05B
:10310200C2F103C0C3F10101BA6BBB6BBC6BBD6BF7
:1031120038D0BAC100F0BBC101F0BCC102F0BDC1E0
:1031220003F0EDEC0DF000C0C0F101C0C1F102C02E
:10313200C2F103C0C3F1C0C100F0C1C101F0C2C1FC
:1031420002F0C3C103F0A0EC05F000C004F001C01E
:1031520005F002C006F003C007F0BAC100F0BBC11F
:1031620001F0BCC102F0BDC103F0C1EC07F000C028
:10317200BAF101C0BBF102C0BCF103C0BDF1BE6B2C
:10318200BF6B010EB56FB5510A0A34E0B5C100F04C
:10319200000E016E026E036E00360090013602369A
:1031A200033600360090013602360336E00E002464
:1031B200F66E4C0E0120F76E000E0220F86E09002A
:1031C200F5CF01F00900F5CF02F00900F5CF03F0C9
:1031D2000900F5CF04F00450C35D08E10350C25D5D
:1031E20005E10250C15D02E10150C05D01E202D081
:1031F200B52BC9D7B551B325006E000EB421016EAF
:10320200BE510026BF5101220050B65F0150B75B8C
:10321200B9B704D0B351B41101E104D0010EB65FC5
:10322200000EB75B030EB815006EB9C101F0000EB7
:1032320001160050011004E0010EB65F000EB75BEC
:10324200B8A539D0B8A312D0B8A103D02D0E006E04
:1032520002D02B0E006EACC1E1FFADC1E2FF00C097
:10326200E6FFAC4BAD2BCB4BCC2B0CD0B8A10AD08C
:10327200ACC1E1FFADC1E2FF200EE66EAC4BAD2B5F
:10328200CB4BCC2B800E006E800EB719005C02E196
:10329200B65100080FE2ACC1E1FFADC1E2FF300E52
:1032A200E66EAC4BAD2BCB4BCC2B010EB65F000EBA
:1032B200B75BE8D73AD0B8B718D0800E006E800E50
:1032C200B719005C02E1B65100080FE2ACC1E1FFA0
:1032D200ADC1E2FF200EE66EAC4BAD2BCB4BCC2B3F
:1032E200010EB65F000EB75BE8D7B8A312D0B8A143
:1032F20003D02D0E006E02D02B0E006EACC1E1FF8A
:10330200ADC1E2FF00C0E6FFAC4BAD2BCB4BCC2BEB
:103312000CD0B8A10AD0ACC1E1FFADC1E2FF200ED2
:10332200E66EAC4BAD2BCB4BCC2BB5C100F0B50749
:1033320000524CE0B5C100F0000E016E026E036E49
:103342000036009001360236033600360090013610
:1033520002360336E00E0024F66E4C0E0120F76EA4
:10336200000E0220F86E0900F5CF04F00900F5CF37
:1033720005F00900F5CF06F00900F5CF07F0C0C14E
:1033820000F0C1C101F0C2C102F0C3C103F04BECB5
:1033920006F00A0E046E000E056E066E076E4BEC0A
:1033A20006F008C000F009C001F00AC002F00BC02C
:1033B20003F0300E0026ACC1E1FFADC1E2FF00C058
:1033C200E6FFAC4BAD2BCB4BCC2BAFD7800E006EB8
:1033D200800EBF19005C02E1BE5100080FE2ACC1D1
:1033E200E1FFADC1E2FF300EE66EAC4BAD2BCB4B35
:1033F200CC2B010EBE5F000EBF5BE8D7800E000A29
:10340200006E800EB419005C02E1B351080803E2B9
:10341200080EB56F02D0B3C1B5F1B551B35F000E5E
:10342200B45BB55303E1B9B701D00AD0ACC1E1FF37
:10343200ADC1E2FF2E0EE66EAC4BAD2BCB4BCC2BCF
:10344200B5C1D3F18FEC09F0BAC104F0BBC105F0EC
:10345200BCC106F0BDC107F021EC04F0B3EC05F0ED
:1034620000C0C0F101C0C1F102C0C2F103C0C3F18A
:10347200B5534DE0B507B5C100F0000E016E026E06
:10348200036E003600900136023603360036009095
:10349200013602360336E00E0024F66E4C0E012091
:1034A200F76E000E0220F86E0900F5CF04F0090055
:1034B200F5CF05F00900F5CF06F00900F5CF07F0CA
:1034C200C0C100F0C1C101F0C2C102F0C3C103F02A
:1034D2004BEC06F00A0E046E000E056E066E076EC9
:1034E2004BEC06F008C000F009C001F00AC002F07F
:1034F2000BC003F0300E0026ACC1E1FFADC1E2FF0C
:1035020000C0E6FFAC4BAD2BCB4BCC2BB1D7B351AC
:10351200B4110FE0ACC1E1FFADC1E2FF300EE66EC7
:10352200AC4BAD2BCB4BCC2B010EB35F000EB45B7F
:10353200EED7B8A71AD0800E006E800EB719005CC5
:1035420002E1B651000811E2ACC1E1FFADC1E2FFF8
:10355200200EE66EAC4BAD2BCB4BCC2B010EB65FE7
:10356200000EB75BB651B711EFE1FEEF0EF0C00EE1
:10357200B815016EB9C102F0000E0216000E021853
:1035820002E1000E0118D8A47CD0B8A927D0B1C19D
:10359200E9FFB2C1EAFFEECF00F0EECF01F000C0CA
:1035A200E9FF01C0EAFFEECFC0F1EECFC1F1EECFED
:1035B200C2F1EECFC3F1B1C1E9FFB2C1EAFF040E1D
:1035C200EE24006E000EEE20016EB1C1E1FFB2C129
:1035D200E2FF00C0E6FF01C0E6FF2BD0B1C1E9FF68
:1035E200B2C1EAFFEECF00F0EECF01F000C0E9FF7A
:1035F20001C0EAFFEECF00F0EECF01F000C0C0F153
:1036020001C0C1F1000E01BEFF0EC26FC36FB1C196
:10361200E9FFB2C1EAFF020EEE24006E000EEE20B8
:10362200016EB1C1E1FFB2C1E2FF00C0E6FF01C01D
:10363200E6FF800EC319006E800E005C08E1000EEA
:10364200C25D05E1000EC15D02E1000EC05D18E23F
:10365200030EB813000EB913006A016A026A036A04
:10366200C051005EC151015AC251025AC351035A9C
:1036720000C0C0F101C0C1F102C0C2F103C0C3F178
:103682004ED0B8A927D0B1C1E9FFB2C1EAFFEECF4F
:1036920000F0EECF01F000C0E9FF01C0EAFFEECF7B
:1036A200C0F1EECFC1F1EECFC2F1EECFC3F1B1C1A5
:1036B200E9FFB2C1EAFF040EEE24006E000EEE2016
:1036C200016EB1C1E1FFB2C1E2FF00C0E6FF01C07D
:1036D200E6FF25D0B1C1E9FFB2C1EAFFEECF00F0AB
:1036E200EECF01F000C0E9FF01C0EAFFEECFC0F16A
:1036F200EECFC1F1000EC26FC36FB1C1E9FFB2C11B
:10370200EAFF020EEE24006E000EEE20016EB1C141
:10371200E1FFB2C1E2FF00C0E6FF01C0E6FF000E1A
:10372200B41902E1000EB3190FE1000E006EC319C5
:1037320008E10050C21905E10050C11902E1C0516F
:10374200000A02E1B34BB42BC00EB815006E00C0E4
:1037520005F0AED0010EB56FB5510A0A34E0B5C11D
:1037620000F0000E016E026E036E0036009001360C
:103772000236033600360090013602360336E00E7A
:103782000024F66E4C0E0120F76E000E0220F86E39
:103792000900F5CF01F00900F5CF02F00900F5CFDD
:1037A20003F00900F5CF04F00450C35D08E10350B3
:1037B200C25D05E10250C15D02E10150C05D01E25E
:1037C20002D0B52BC9D782D0010EB56FB551080A08
:1037D20034E0B5C100F0000E016E026E036E0036D9
:1037E200009001360236033600360090013602366A
:1037F2000336080E0024F66E4D0E0120F76E000E01
:103802000220F86E0900F5CF01F00900F5CF02F0B1
:103812000900F5CF03F00900F5CF04F00450C35DB1
:1038220008E10350C25D05E10250C15D02E10150B1
:10383200C05D01E202D0B52BC9D748D0010EB56FE9
:10384200B5510C0A34E0B5C100F0000E016E026EF3
:10385200036E0036009001360236033600360090C1
:10386200013602360336B00E0024F66E4C0E0120ED
:10387200F76E000E0220F86E0900F5CF01F0090084
:10388200F5CF02F00900F5CF03F00900F5CF04F0FF
:103892000450C35D08E10350C25D05E10250C15D01
:1038A20002E10150C05D01E202D0B52BC9D70ED0B2
:1038B2000550000AD8B44ED70550C00AD8B44AD72A
:1038C2000550800A81E00550400AB8E0800E006E83
:1038D200800EB419005C02E1B351B55D03E2B3C1DD
:1038E200B5F10DD0800EB419006E800E005C02E1BD
:1038F200B551B35D04E2B5C1B3F1000EB46FB65178
:10390200B7110EE0030EB815006EB9C101F0000E3A
:1039120001160050011004E0010EB65F000EB75B05
:10392200800EB419006E800EB719005C02E1B65128
:10393200B35D05E2B351B65FB451B75B02D0B66B6B
:10394200B76BC40EB815016EB951080B026E025066
:10395200080A02E1400E011808E1B651B71104E06D
:10396200010EB65F000EB75B1CD0C00EB815016E1B
:10397200B951080B026E0250080A02E1800E0118CA
:1039820010E1800E006E800EB719005C02E1B651A4
:10399200020805E2020EB65F000EB75B02D0B66BFC
:1039A200B76BB8A55DD0B8A312D0B8A103D02D0EC5
:1039B200006E02D02B0E006EACC1E1FFADC1E2FF82
:1039C20000C0E6FFAC4BAD2BCB4BCC2B34D0B8A117
:1039D2000BD0ACC1E1FFADC1E2FF200EE66EAC4BF5
:1039E200AD2BCB4BCC2B27D0C00EB815016EB951E5
:1039F200080B026E0250080A02E1800E01181BE158
:103A0200ACC1E1FFADC1E2FF300EE66EAC4BAD2BB7
:103A1200CB4BCC2BB8AB03D0580E006E02D0780E35
:103A2200006EACC1E1FFADC1E2FF00C0E6FFAC4BEE
:103A3200AD2BCB4BCC2BB651B71111E0ACC1E1FF92
:103A4200ADC1E2FF300EE66EAC4BAD2BCB4BCC2BB7
:103A5200010EB65F000EB75BB651B711EFE174D03D
:103A6200B651B71113E0B8B711D0ACC1E1FFADC187
:103A7200E2FF200EE66EAC4BAD2BCB4BCC2B010EF6
:103A8200B65F000EB75BB651B711EFE1B8A312D023
:103A9200B8A103D02D0E006E02D02B0E006EACC169
:103AA200E1FFADC1E2FF00C0E6FFAC4BAD2BCB4B5B
:103AB200CC2B0CD0B8A10AD0ACC1E1FFADC1E2FF62
:103AC200200EE66EAC4BAD2BCB4BCC2BC00EB815FB
:103AD200016EB951080B026E0250080A02E1400E53
:103AE20001180BE1ACC1E1FFADC1E2FF300EE66EA1
:103AF200AC4BAD2BCB4BCC2B27D0C00EB815016EE7
:103B0200B951080B026E0250080A02E1800E011838
:103B12001BE1ACC1E1FFADC1E2FF300EE66EAC4B82
:103B2200AD2BCB4BCC2BB8AB03D0580E006E02D0D2
:103B3200780E006EACC1E1FFADC1E2FF00C0E6FF4E
:103B4200AC4BAD2BCB4BCC2B800E006E800EB41940
:103B5200005C02E1B351B55D0BE2ACC1E1FFADC166
:103B6200E2FF300EE66EAC4BAD2BCB4BCC2BECD741
:103B7200B3C100F0B4C101F0010EB35F000EB45B3B
:103B820000500110D8B42AD1C00EB815006E00C082
:103B9200CDF10AD1B3C100F0B4C101F0000EB4BF3F
:103BA200FF0E026E036E00360090013602360336B7
:103BB20000360090013602360336E00E0024F66E1F
:103BC2004C0E0120F76E000E0220F86E0900F5CFB0
:103BD20004F00900F5CF05F00900F5CF06F0090061
:103BE200F5CF07F0C0C100F0C1C101F0C2C102F0BF
:103BF200C3C103F04BEC06F00A0E046E000E056E14
:103C0200066E076E4BEC06F008C000F009C001F02A
:103C12000AC002F00BC003F0300E0024B56FD3D0FF
:103C2200B8AB45D0B3C100F0B4C101F0000EB4BFCF
:103C3200FF0E026E036E0036009001360236033626
:103C420000360090013602360336080E0024F66E66
:103C52004D0E0120F76E000E0220F86E0900F5CF1E
:103C620004F00900F5CF05F00900F5CF06F00900D0
:103C7200F5CF07F0C0C100F0C1C101F0C2C102F02E
:103C8200C3C103F04BEC06F00F0E0016000E011636
:103C920002160316280E0024F66E4D0E0120F76E52
:103CA200000E0220F86E0900F5CFB5F144D0B3C181
:103CB20000F0B4C101F0000EB4BFFF0E026E036E3D
:103CC2000036009001360236033600360090013687
:103CD20002360336080E0024F66E4D0E0120F76EF2
:103CE200000E0220F86E0900F5CF04F00900F5CFAE
:103CF20005F00900F5CF06F00900F5CF07F0C0C1C5
:103D020000F0C1C101F0C2C102F0C3C103F04BEC2B
:103D120006F00F0E0016000E011602160316390EDB
:103D22000024F66E4D0E0120F76E000E0220F86E92
:103D32000900F5CFB5F147D0B3C100F0B4C101F02D
:103D4200000EB4BFFF0E026E036E00360090013605
:103D52000236033600360090013602360336B00EC4
:103D62000024F66E4C0E0120F76E000E0220F86E53
:103D72000900F5CF04F00900F5CF05F00900F5CFF1
:103D820006F00900F5CF07F0C0C100F0C1C101F093
:103D9200C2C102F0C3C103F04BEC06F0070E0014DF
:103DA200B56F300EB5270FD0CD51000AD8B4F2D678
:103DB200CD51C00AD8B4EED6CD51800AD8B430D78E
:103DC200CD51400AB9E0ACC1E1FFADC1E2FFB5C1DE
:103DD200E6FFAC4BAD2BCB4BCC2BCAD6B8A71AD037
:103DE200800E006E800EB719005C02E1B651000829
:103DF20011E2ACC1E1FFADC1E2FF200EE66EAC4BB9
:103E0200AD2BCB4BCC2B010EB65F000EB75BB65180
:103E1200B711EFE1FEEF0EF0CBC100F0CCC101F023
:023E220012008C
:103E24000C6A0E6A0250D8A42BEF1FF001C002F0F6
:103E340000C001F0006A0E860250D8A42BEF1FF0D8
:103E440001C002F0016A0E960E880250D8B43DEF0C
:103E54001FF00E50035ED8A4D8A043EF1FF0D890F3
:103E640002BE49EF1FF0003601360236032E32EF50
:103E74001FF043EF1FF0010E0C6E17EC00F04DEF36
:103E84001FF0020E0C6E2CEC00F04DEF1FF0040E30
:083E94000C6E39EC00F0120085
:043E9C00C5841200C7
:103EA0000101AC6BAD6BAD51120802E1AC518E0853
:103EB00009E3D1EC07F0005201E004D00101AC4B62
:103EC000AD2BF1D70101120EAD5D02E18F0EAC5D9D
:103ED00003E37B0E006E1200C580C5A001D0FDD7A4
:043EE000006A120062
:0C3EE4000E0E0D6E0D2EFED70000120019
:0A3EF000C582C5A201D0FDD7120063
:103EFA009E96ACC1C9FFC7A401D0FDD79EB601D01A
:103F0A00FDD7C5BC02D0006A1200C584020E006E3D
:023F1A00120093
:103F1C009E96C5869EB601D0FDD7C9CF01F0010192
:103F2C00AC51000A02E1C58A01D0C59A9E96C5889B
:0C3F3C009EB601D0FDD701C000F01200BD
:103F48009DC1E9FF9EC1EAFFEECF9FF1000E01017E
:103F5800A06F000EA06F000EA01902E1200E9F199D
:103F680007E0000EA01902E1090E9F1901E003D035
:103F78009D4B9E2BE5D7A16BA26BA36BA46B000E88
:103F8800A01902E12D0E9F1905E1A34BA42B9D4B0F
:103F98009E2B08D0000EA01902E12B0E9F1902E1FA
:103FA8009D4B9E2B9DC1E9FF9EC1EAFFEECF9FF17D
:103FB800000EA06F000EA06F9FC1D3F1C5EC07F0F3
:103FC800005219E0A1C100F0A2C101F00A0E046E6E
:103FD800000E056E9BEC08F0300E9F5D026E000E21
:103FE800A059036E02500024A16F03500120A26F54
:103FF8009D4B9E2BD7D7A351A41108E0A1510008CF
:10400800006EA2C101F0000E01561200A1C100F01D
:06401800A2C101F012003C
:10401E009DC1E9FF9EC1EAFFEECF03F0F00E03143F
:10402E00026E02C000F00032009E0032009E00328E
:10403E00009E0032009E0A0E0002F3CF01F00F0E1A
:10404E000314006E9DC1E1FF9EC1E2FF00500124EA
:10405E00E66E9FC1E9FFA0C1EAFFEECF03F0F00EBE
:10406E000314026E02C000F00032009E0032009E69
:10407E000032009E0032009E0A0E0002F3CF01F0C5
:10408E000F0E0314006E9FC1E1FFA0C1E2FF0050AE
:10409E000124E66EA1C1E9FFA2C1EAFFEECF03F053
:1040AE00F00E0314026E02C000F00032009E0032C9
:1040BE00009E0032009E0032009E0A0E0002F3CFD8
:1040CE0001F00F0E0314006EA1C1E1FFA2C1E2FFC9
:0840DE0000500124E66E1200FF
:1040E6009DC1ACF19EC1ADF1010E0101AE6F000E96
:1040F600AF6F9FC1B0F1A0C1B1F1A1C1B2F1A2C130
:08410600B3F189EC0EF0120088
:10410E00A20E0101AA6F010EAB6F9DC1ACF19EC153
:10411E00ADF19FC1AEF1A0C1AFF1A1C1B0F1AA0E38
:10412E00B16F010EB26FF9EC0EF000C0A8F101C034
:10413E00A9F100509D25E16E01509E21E26EE66AC6
:0A414E00A8C100F0A9C101F01200A1
:10415800C26A070EC012C08E9DC100F000360090E2
:10416800003600900050C212C280B8DEC282C2A2DD
:1041780001D0FDD7C4CF01F0006AC3500012000E71
:064188000112C2901200BA
:10418E0001019D6B9E6B800E9E19006E800E005C71
:10419E0002E1010E9D5D09E21C0ED96F3AEC01F0B1
:1041AE00EBEC0EF09D4B9E2BEED79D6B9E6B800E17
:1041BE009E19006E800E005C02E1010E9D5D09E20B
:1041CE00180ED96F3AEC01F0EBEC0EF09D4B9E2BD6
:0441DE00EED7120006
:0E41E200ACB202D00000FCD7DAC1ADFF120073
:1041F0000050086E0150006E016A026A036A0B6A81
:104200000C6A960E036E0A6A00C001F008C000F046
:08421000086A026A07DE1200D1
:104218000B6A0C6A0A6A0350D8B441EF21F00A9E6F
:10422800028E860E035E03BE1FEF21F0D8B41FEF87
:1042380021F044EF21F0036C080E035CD8A02DEFA9
:1042480021F0036E0236026A0350D8A4D89036EFE4
:1042580021F00350D8B436EF21F0D8900232032E63
:1042680031EF21F00BBC02A041EF21F0D8A041EFC3
:1042780021F0022AD8B44BEF21F0016A51EF21F066
:104288000B800BAE55EF21F0016A55EF21F0010EBE
:104298000C6E13EC04F057EF21F0000E0C6E57EF84
:0C42A80021F0FF0E0C6E0250006E1200A0
:1042B400F5DDD00EAC6F1FDE9DC1ACF11CDE16DE49
:1042C400D10E0101AC6F17DE0101AC6B25DE00C01D
:1042D4009FF1000E0101A06FDFDD9FC100F0A0C1BE
:0442E40001F01200D3
:1042E800949894968B988B9694889486C79EC79C2E
:0642F800380EC66E120034
:1042FE00969296909598959A959C959E8492849078
:10430E00839E839C839A839821EC00F021EC00F02D
:10431E0021EC00F0838A838884821EEC00F0849264
:10432E0021EC00F084821EEC00F0849221EC00F06F
:10433E0084821EEC00F0849221EC00F0839884823B
:10434E001EEC00F0849221EC00F084821EEC00F052
:10435E008492839A838E84821EEC00F0849221ECE8
:10436E0000F0839E838884821EEC00F084928398F2
:10437E0084821EEC00F0849221EC00F084821EEC0C
:10438E0000F08492838884821EEC00F0849221ECEB
:10439E0000F0839884821EEC00F08492838E838CCE
:1043AE00838A838884821EEC00F0849221EC00F0D4
:0643BE0001016381120001
:1043C400E20E0101826F410E836FDA0E846F010EDB
:1043D400856FFF0E866FFF0E876F000E886F000ECD
:1043E400896FFF0E7A6FFF0E7B6F000E7C6F000EDD
:1043F4007D6FFF0E7E6FFF0E7F6F000E806F000ECD
:10440400816FAC8A900EAB6E948E949C9EAA03D05E
:08441400AECF00F0FBD712004F
:10441C000900F5CFE6FF0006FBE10106F9E1120009
:10442C00400E0101D96F3AEC01F09D6B9D510708CC
:10443C0012E36B0E9D25F66E4D0EF76E000EF722F5
:10444C00000EF86E000EF8220900F5CFD8F1B8EC8A
:10445C0004F09D2BEBD79D6B9D51070812E3630E67
:10446C009D25F66E4D0EF76E000EF722000EF86EBF
:10447C00000EF8220900F5CFD8F1B8EC04F09D2B12
:0C448C00EBD7020ED96F3AEC01F01200E1
:1044980003DDA00EAC6F2DDD9DC1ACF12ADD9FC1FF
:1044A800ACF127DDF7DC1A0E0C6EF80E0D6E0D2E32
:0A44B800FED70C2EFCD70000120006
:1044C200EEDCA00EAC6F18DD9DC1ACF115DD0FDD89
:1044D200A10E0101AC6F10DD0101AC6B1EDD00C04D
:1044E2009FF1000E0101A06FD8DC9FC100F0A0C1B6
:0444F20001F01200C3
:1044F600010E0101976F000E986F996B9A6B430E30
:044506009B6F120095
:10450A0097C100F098C101F0140E046E000E056EFA
:10451A009BEC08F0E60E0026000E012201019951DB
:10452A000024E16E9A510120E26E9BC1E6FF9D6B69
:10453A009E6B800E9E19006E800E005C02E1040ED6
:10454A009D5D1AE29D51010FD36F010ED46F9DC17B
:10455A0000F09EC101F0140E046E000E056E9BEC75
:10456A0008F0E60E0024D56F000E0120D66FC3ECCA
:0A457A0008F09D4B9E2BDDD71200C8
:10458400BFEC26F0D00EF26E190EAF6EAC8418DFBD
:10459400140EC86EA7DE0E0EC16E0F0E936E210EA2
:1045A400926EABDE0C0ED96F3AEC01F03DDFA1DF69
:1045B400AADF04EC09F000C05FF10050430A38E1BF
:1045C400010E0101D96F3AEC01F0020ED36F020E15
:1045D400D46F730ED56F000ED66FC3EC08F00B0EBC
:1045E4000B6E260E0C6E5D0E0D6E0D2EFED70C2E70
:1045F400FCD70B2EFAD7000000009D6B9E6BFF0EBC
:104604009F6F000EA06F46DF010E01019D6F000E2B
:104614009E6FFF0E9F6F000EA06F3CDF020E010124
:104624009D6F000E9E6FFF0E9F6F000EA06F32DF16
:1046340001019D6B9E6B43DF00C05BF101C05CF127
:10464400010E9D6F000E9E6F3ADF00C05DF101C048
:104654005EF1020E9D6F000E9E6F31DF00C060F1AF
:1046640001C061F1000E5C1902E1FF0E5B1965E106
:10467400010ED96F3AEC01F0010ED36F020ED46F24
:10468400A40ED56F000ED66FC3EC08F0020ED36FE4
:10469400020ED46F850ED56F000ED66FC3EC08F0F2
:1046A400150E0B6E4B0E0C6EBE0E0D6E0D2EFED740
:1046B4000C2EFCD70B2EFAD70000010ED96F3AEC62
:1046C40001F0010ED36F020ED46F910ED56F000E60
:1046D400D66FC3EC08F0020ED36F020ED46F6B0ECC
:1046E400D56F000ED66FC3EC08F0030ED36F020E25
:1046F400D46F300ED56F000ED66FC3EC08F03A0EAF
:104704009D6F010E9E6F030E9F6F000EA06F060E2D
:10471400A16F000EA26FE5DC3A0E01019D6F010E40
:104724009E6F10DC00C05BF101C05CF19D6B9E6B61
:1047340000C09FF101C0A0F1ADDE000E01015E19C1
:1047440002E1FF0E5D19D8A4A8D0000E611902E1A0
:10475400FF0E6019D8A4A1D0010ED96F3AEC01F074
:10476400010ED36F020ED46F160ED56F000ED66FE6
:10477400C3EC08F0020ED36F020ED46F250ED56F72
:10478400000ED66FC3EC08F0030ED36F020ED46F85
:10479400500ED56F000ED66FC3EC08F0150E0B6EDD
:1047A4004B0E0C6EBE0E0D6E0D2EFED70C2EFCD7CE
:1047B4000B2EFAD70000010ED96F3AEC01F0010E6E
:1047C400D36F020ED46F5E0ED56F000ED66FC3EC9E
:1047D40008F0020ED36F020ED46F370ED56F000EA1
:1047E400D66FC3EC08F03A0E9D6F010E9E6F020E59
:1047F4009F6F000EA06F060EA16F000EA26F71DCFA
:104804003A0E01019D6F010E9E6FA4EC1FF000C0D3
:104814005DF101C05EF1030ED36F020ED46F3E0E44
:10482400D56F000ED66FC3EC08F0040ED36F020EE2
:10483400D46FB40ED56F000ED66FC3EC08F03A0EE9
:104844009D6F010E9E6F040E9F6F000EA06F060EEB
:10485400A16F000EA26F45DC3A0E01019D6F010E9F
:104864009E6FA4EC1FF000C060F101C061F1010E65
:104874009D6F000E9E6F5DC19FF15EC1A0F10ADEC7
:10488400020E01019D6F000E9E6F60C19FF161C118
:10489400A0F100DE010E0001CE6F0001CE532FE027
:1048A400010E0101D96F3AEC01F0010ED36F020E33
:1048B400D46FCF0ED56F000ED66FC3EC08F0020E86
:1048C400D36F020ED46FBB0ED56F000ED66FC3EC40
:1048D40008F0030ED36F020ED46FC60ED56F000E10
:1048E400D66FC3EC08F0040ED36F020ED46FDC0E47
:1048F400D56F000ED66FC3EC08F00001CE6B01013A
:104904005F512B0A09E15B4B5C2B9D6B9E6B5BC17A
:104914009FF15CC1A0F1BEDD01015F512D0A0BE1E5
:10492400010E5B5F000E5C5B9D6B9E6B5BC19FF138
:104934005CC1A0F1AFDD900E01019D6F010E9E6F71
:10494400780E9F6F4D0EA06F000EA16F5BC1A2F198
:104954005CC1A3F187EC20F0020ED36F0D0ED46F6F
:10496400900ED56F010ED66FC3EC08F0D86BB8EC7F
:1049740004F0430ED86FB8EC04F0900E9D6F010E56
:104984009E6F590E9F6F4D0EA06F000EA16F5DC1FB
:10499400A2F15EC1A3F160C1A4F161C1A5F187ECEC
:1049A40020F0030ED36F0A0ED46F900ED56F010E54
:1049B400D66FC3EC08F09D6B9E6B7ADC00C08CF163
:1049C40001C08DF1010E9D6F000E9E6F71DC00C061
:1049D4008EF101C08FF1020E9D6F000E9E6F68DC98
:1049E40000C08AF101C08BF18C0E9D6F010E9E6F89
:1049F4008E0E9F6F010EA06F8A0EA16F010EA26F23
:104A04000FEC20F0640E9D6F010E9E6F4A0E9F6F97
:104A14004D0EA06F000EA16F8AC1A2F18BC1A3F14C
:104A24008EC1A4F18FC1A5F18CC1A6F18DC1A7F1EE
:104A340087EC20F0040ED36F0C0ED46F640ED56F88
:104A4400010ED66FC3EC08F09D6BACEC20F000C0F7
:104A540078F101C079F1F8EC20F0000E046E000E3C
:104A6400056E200E066E810E076E21EC04F0000E1A
:104A7400046E000E056E000E066E890E076EDEECE7
:104A840007F0000E046E000E056E480E066E850ECD
:104A9400076E21EC04F00CEC21F000C062F1900EE2
:104AA40001019D6F010E9E6F730E9F6F4D0EA06FDF
:104AB400000EA16F00C0A2F187EC20F0010ED36FAD
:104AC4000F0ED46F900ED56F010ED66FC3EC08F0A5
:104AD400D86BB8EC04F0430ED86FB8EC04F0800E39
:104AE4005C19006E800E005C02E162515B5D16E2AF
:104AF400800E8B19006E800E5E19005C02E15D5120
:104B04008A5D0CE3800E8F19006E800E6119005CC3
:104B140002E160518E5D02E3C7EC20F04AD5FFD775
:104D7E0010EE16F0240E006E020E016E240EF66E6C
:0E4D8E004B0EF76E000EF86E0EEC22F01200C7
:0F4B2400434F4E4649475552414E444F204F0094
:0B4B3300484F524152494F20444F00B0
:074B3E00522E3A205F5F00D8
:074B4500522E3A205F5F00D1
:104B4C005155414953204F53204D494E55544F53C5
:024B5C003F0018
:0E4B5E004D4F4E49544F52414D454E544F005D
:0D4B6C005155414C204120484F52413F001F
:084B79004D4158494D413F0038
:104B81004D4F444F20434F4E4649475552414341B3
:024B91004F00D3
:0C4B930054454D504552415455524100CC
:104B9F005155414C20412054454D5045524154559B
:034BAF0052410070
:104BB200434F4E4649475552414E444F20412000F3
:074BC200522E3A205F5F0054
:0B4BC90054454D502E204D41583A003D
:084BD400482E204D4F4E3A001F
:014BDC0001D7
:0D4BDD0054454D502E20415455414C3A0096
:0A4BEA00482E20415455414C3A007A
:104BF4002E2E2E2E2E2E2E2E2E2E2E2E2E2E2E2ED1
:104C04002E2E2E2E2E2E2E2E2E2E2E2E2E2E2E2EC0
:104C14002E2E2E2E2E2E2E2E2E2E2E2E2E2E2E2EB0
:104C24002E2E2E2E2E2E2E2E2E2E2E2E2E2E2E2EA0
:104C34002E2E2E2E2E2E2E2E2E2E2E2E2E2E2E2E90
:024C440020004E
:024C460000006C
:104C48000000007FCDCC4C7B0AD723786F12037508
:104C580017B75171ACC5276EBD37066B95BF566740
:104C680077CC2B645F700961FFE65B5D08E53C3C2F
:044C78006042221B59
:104C7C000000007F000020820000488500007A8838
:104C8C0000401C8C0050438F002474928096189620
:104C9C0020BC3E99286B6E9CF90215A0EC782DC1B6
:044CAC00CAF249E21D
:104CB00001000000080000004000000000020000A9
:104CC0000010000000800000000004000000200030
:104CD000000000010000000800000040000000008B
:104CE000010000000A00000064000000E80300006A
:104CF00010270000A086010040420F008096980017
:084D000000E1F50500CA9A3B31
:104D08000100000010000000000100000010000079
:104D18000000010000001000000000010000001069
:104D280030313233343536373839414243444546D9
:014D3800007A
:104D39003031323334353637383961626364656608
:014D49000069
:0F4D4A00253032643A253032643A253032640025
:0A4D5900253032643A253032640040
:084D6300010101010101010140
:084D6B0003030000000000003A
:054D7300253032640050
:054D780025303264004B
:020000040030CA
:0D000100021F1EFF8381FF0FC00FE00F40A4
:00000001FF
