:040000007AEF22F081
:020006001200E6
:0A00080081A002D0801E819011003B
:100012000F0E0C6E470E0D6E0D2EFED70C2EFCD75A
:06002200000000001200C6
:0A002800210E0D6E0D2EFED7120002
:06003200000000001200B6
:0E003800026A016A006A086A036A000E12007A
:100046000B820BAE2DEF00F00368026801680068B2
:080056000A360232FF0E12000F
:08005E000AAE029E000E120022
:100066000B840BAE3EEF00F0010E036E026A016ACE
:0A007600006A0A360232FF0E120083
:10008000010183BF02D0839E01D0838E83BD02D045
:10009000839C01D0838C83BB02D0839A01D0838A56
:1000A00083B902D0839801D0838812B102D08480B2
:1000B00001D084908482BDDF849283B702D0839E76
:1000C00001D0838E83B502D0839C01D0838C83B30F
:1000D00002D0839A01D0838A83B102D0839801D061
:1000E000838812B102D0848001D084908482A1DF01
:0E00F000849212A102D08DDF01D096DF1200A3
:1000FE000CB0C1EF00F00CA267EF01F00E6A000E1B
:10010E000264D8EF00F0F00E0214D8A4A3EF00F0B2
:10011E00023A01380F0B02260138F00B016E00383F
:10012E000F0B01260038F00B006E08380F0B00265F
:10013E000838F00B086E0E84D89002BEBCEF00F0AB
:10014E0008360036013602360E2A02BEBCEF00F02B
:10015E0008360036013602360E2A02BEBCEF00F01B
:10016E0008360036013602360E2A0E5003645DEF55
:10017E0001F0035E0BBC08AE62EF01F0D880800E7A
:10018E0008640030000E002201220222D8A062EF85
:10019E0001F0023201320032034A67EF01F062EFE2
:1001AE0001F001C002F000C001F008C000F0086AC2
:1001BE00000E0E8602640FEF01F0F00E0214D8A4AA
:1001CE00F7EF00F0023A01380F0B02260138F00B60
:1001DE00016E00380F0B01260038F00B006E0E84F6
:1001EE00D89002BEBCEF00F00036013602360E2A61
:1001FE0002BEBCEF00F00036013602360E2A02BEF9
:10020E00BCEF00F00036013602360E2ABCEF00F0CD
:10021E0001C002F000C001F0006A000E0E960E88BA
:10022E0002643CEF01F0F00E0214D8A427EF01F0A7
:10023E00023A01380F0B02260138F00B016E0E84C4
:10024E00D89002BEBCEF00F0013602360E2A02BE76
:10025E00BCEF00F0013602360E2A02BEBCEF00F0F3
:10026E00013602360E2ABCEF00F001C002F0016A20
:10027E00000E0E8602646CEF01F0F00E0214D8A48C
:10028E004BEF01F0023A0E84D89002BEBCEF00F0A4
:10029E0002360E2A02BEBCEF00F002360E2A02BE55
:1002AE00BCEF00F002360E2ABCEF00F0010E0C6E11
:1002BE00D3DE6FEF01F0020E0C6ECADE6FEF01F0AF
:1002CE00040E0C6EB9DE6FEF01F0080E0C6EADDE93
:0202DE0012000C
:0E02E0000101129182C183F1CBDE1281120066
:1002EE000134083609360450085E0550D8A0053C86
:1002FE00095E003601360F0E0C6E013408360936D3
:10030E00045000A006D0085E0550D8A0053C095E3A
:10031E0005D008260550D8B0053C09260036013612
:10032E000C2EEBD700B006D0045008260550D8B0DE
:08033E00053C09260000120035
:10034600086A080E0C6E003408360450085ED8B0F1
:0E03560002D00826D89000360C2EF5D71200E3
:100364000D6A086A0050D8B4000C04180A6E0ABE5C
:100374000D1E0B6A04AE02D0041E042A00A002D093
:10038400001E002A005004100A6E0ABE1FD004503A
:10039400085E003600340836045008260036060E7F
:1003A4000C6E00340836045000B0085E00A0082625
:1003B40000360C2EF6D700A008260BB015D00DAED3
:1003C400000C001E002A081E082A000C04AE09D0E6
:1003D40000BE04D00050086E006AF1D7006A002AFB
:1003E400000C001E0B2AD3D7082A0450085CD8A49A
:0E03F400E6D7086A002A00AEE2D7FF0C12001E
:10040200025006180E6E086A096A0B6A03500764E6
:10041200F4EF02F006500A6E068E028E03500B6E47
:100422000750036E000E0B6444EF02F00B50075EA0
:10043200D8B4E5EF02F0070E0764B3EF02F0075EEF
:1004420000C008F001C000F002C001F0026A074ECD
:10045200E5EF02F0076488EF02F0075E00C008F0E3
:1004620001C000F0016A074EE5EF02F0076466EF93
:1004720002F0075E00C008F0006A074EE5EF02F0E6
:1004820007644DEF02F00AC002F005C001F004C09B
:1004920000F0086A0EEF04F0030E076458EF02F052
:1004A200075E08380F0B086E074EE5EF02F0D89092
:1004B2000832074EE5EF02F0D8900832074EE5EF1A
:1004C20002F0D8900832E5EF02F0030E076477EFEE
:1004D20002F0075E08380F0B086E0038F00B082692
:1004E20000380F0B006E074EE5EF02F0D890003295
:1004F2000832074EE5EF02F0D89000320832074E7C
:10050200E5EF02F0D89000320832E5EF02F0030E78
:1005120007649FEF02F0075E08380F0B086E003881
:10052200F00B082600380F0B006E0138F00B002686
:1005320001380F0B016E074EE5EF02F0D890013241
:1005420000320832074EE5EF02F0D8900132003255
:100552000832074EE5EF02F0D8900132003208323D
:10056200E5EF02F0030E0764D0EF02F0075E0838F1
:100572000F0B086E0038F00B082600380F0B006EC8
:100582000138F00B002601380F0B016E0238F00B18
:10059200012602380F0B026E074EE5EF02F0D890EB
:1005A2000232013200320832074EE5EF02F0D890F3
:1005B2000232013200320832074EE5EF02F0D890E3
:1005C2000232013200320832096A000E0EAED9EF51
:1005D20003F0081E001E011E021E082A002201222C
:1005E2000222D9EF03F00750D8A4FAEF02F00EEF7F
:1005F20004F0096A02C00AF0028E068E0750035CFC
:10060200076ED8B4CCEF03F0070E07649AEF03F03D
:10061200075E0450096E0550046E0650056E066AA8
:10062200074ECCEF03F0070E07646FEF03F0075E8F
:100632000450096E0550046E056A074ECCEF03F0B4
:10064200070E07644DEF03F0075E0450096E046A5B
:10065200074ECCEF03F0070E076434EF03F00AC035
:1006620002F00EEF04F0030E07643FEF03F0075EA3
:1006720009380F0B096E074ECCEF03F0D890093200
:10068200074ECCEF03F0D8900932074ECCEF03F0BF
:10069200D8900932CCEF03F0030E07645EEF03F04B
:1006A200075E09380F0B096E0438F00B092604386F
:1006B2000F0B046E074ECCEF03F0D89004320932D0
:1006C200074ECCEF03F0D89004320932074ECCEF3C
:1006D20003F0D89004320932CCEF03F0030E076422
:1006E20086EF03F0075E09380F0B096E0438F00B32
:1006F200092604380F0B046E0538F00B0426053862
:100702000F0B056E074ECCEF03F0D8900532043282
:100712000932074ECCEF03F0D89005320432093289
:10072200074ECCEF03F0D890053204320932CCEFF9
:1007320003F0030E0764B7EF03F0075E09380F0BEF
:10074200096E0438F00B092604380F0B046E0538C5
:10075200F00B042605380F0B056E0638F00B052644
:1007620006380F0B066E074ECCEF03F0D890063218
:10077200053204320932074ECCEF03F0D89006322C
:10078200053204320932074ECCEF03F0D89006321C
:10079200053204320932086A000E0EAED9EF03F0B8
:1007A200091E041E051E061E092A0422052206220F
:1007B2000950082604500022055001220650022248
:1007C2000EBEF0EF03F0D8A0FFEF03F002320132C9
:1007D20000320832033EFFEF03F009EF04F0D8B015
:1007E20004EF04F0000E081E001E011E021E082A5D
:1007F2000022012202220A7E04EF04F0010E0C6E96
:100802007DDC10EF04F0020E0C6E78DC10EF04F0C9
:10081200040E0C6E17DC10EF04F0000E0C6E1200CA
:080822000B6A0B86FF0E1200A9
:10082A00086A096A000E076203649AEF04F002502C
:10083A0006180A6E075003267E0ED8A02BEF04F086
:10084A00035ED8B09FEF04F02FEF04F0035ED8A048
:10085A00A4EF04F0028E068E02C00EF001C00BF067
:10086A0000C00DF000500402F4CF0CF00150050254
:10087A00F4CF00F0F3CF08F00402F3500C26F45042
:10088A000822000E00220D500502F3500C26F450E7
:10089A000822000E002202500402F3500826F450E7
:1008AA00002202500502016A000E0122F3500026BE
:1008BA00F45001220D500602F3500826F45000228B
:1008CA00026A000E012202220B500602F350002691
:1008DA00F4500122000E02220E500602F3500126A5
:1008EA00F450022202BE82EF04F0083600360136C6
:1008FA0002360306D8B4A4EF04F095EF04F0D880CA
:10090A00800E08640030000E002201220222D8A0C4
:10091A0095EF04F0023201320032034A9FEF04F0ED
:10092A000AAE029E000EA7EF04F0010E1CEC00F0C6
:10093A00A7EF04F0020E23EC00F0A7EF04F0040E78
:06094A0033EC00F0120086
:100950000B800BAEB4EF04F0026A0AAEFF0E026E1B
:0C096000016E006E0A360232FF0E12001B
:10096C000B6A0C6A086A0350D8B43AEF05F002C05F
:10097C000AF0028E9E0E035E03AE2AEF05F0036CA6
:10098C00080E035CD8A0F7EF04F0036E083600C025
:10099C0008F001C000F002C001F0026A080E035C0E
:1009AC00D8A0F7EF04F0036E083600C008F001C0C1
:1009BC0000F0016A080E035CD8A0F7EF04F0036E98
:1009CC00083600C008F0006A080E035CD8A0F7EFE8
:1009DC0004F0036E0836086A0350D8A4D89003EFCD
:1009EC0005F00350D8B403EF05F0D8900232013271
:1009FC0000320832032EFBEF04F00BBC08A014EFFE
:100A0C0005F0D8A014EF05F0082AD8B4002AD8B401
:100A1C00012AD8B4022A02BE3EEF05F00AAE3AEF24
:100A2C0005F0021E011E001E081E082AD8B4002A5A
:100A3C00D8B4012AD8B4022A3AEF05F0026A016A46
:100A4C00006A086A3AEF05F00B800BAE44EF05F034
:100A5C00026A0AAE44EF05F0026E016E006E086E7B
:100A6C000A36023244EF05F00C6A000E45EF05F031
:100A7C00010E0C6E000E66DF45EF05F0FF0E025006
:100A8C00036E0150026E0050016E0850006E120091
:100A9C000050086E0150006E0250016E0350026E41
:100AAC00036A0B6A0C6A9E0E036E0A6A020E0C6EC7
:060ABC007FEC00F01200C7
:100AC200100E836E80AA06D080AA01D0FDD7370E01
:100AD200006E120081A206D081A201D0FDD7380E8D
:100AE200006E120081A406D081A401D0FDD7390E78
:100AF200006E120081A606D081A601D0FDD7250E78
:100B0200006E1200200E836E80AA06D080AA01D049
:100B1200FDD7340E006E120081A206D081A201D050
:100B2200FDD7350E006E120081A406D081A401D03B
:100B3200FDD7360E006E120081A606D081A601D026
:100B4200FDD72A0E006E1200400E836E80AA06D0D8
:100B520080AA01D0FDD7310E006E120081A206D00C
:100B620081A201D0FDD7320E006E120081A406D000
:100B720081A401D0FDD7330E006E120081A606D0EB
:100B820081A601D0FDD72D0E006E1200800E836E5D
:100B920080AA06D080AA01D0FDD7430E006E1200B3
:100BA20081A206D081A201D0FDD7300E006E1200C4
:100BB20081A406D081A401D0FDD73D0E006E1200A3
:100BC20081A606D081A601D0FDD72B0E006E1200A1
:060BD200FF0E006E120090
:100BD8000A6A0350D8A40A800750D8A40A820A5087
:100BE800D8B44FEF06F0030AD8B408EF06F00AB0FD
:100BF80003EF06F006AE4DEF06F04BEF06F002AE3F
:100C08004BEF06F04DEF06F00250800B0A6E029E85
:100C18000650800B069E0A18D8B419EF06F00A5041
:100C2800D8B44BEF06F04DEF06F00750035CD8B48C
:100C380023EF06F0D8A03FEF06F045EF06F0065088
:100C4800025CD8B42DEF06F0D8A03FEF06F045EFD0
:100C580006F00550015CD8B437EF06F0D8A03FEF96
:100C680006F045EF06F00450005CD8B44FEF06F0EC
:100C7800D8B045EF06F00A52D8B44DEF06F04BEF66
:100C880006F00A52D8B44BEF06F04DEF06F0D880C4
:0E0C98001200D8901200D880D88412001200EA
:100CA6000B6A0C6A0A6A086A0350D8B4DBEF06F0CE
:100CB600028E9E0E035E03BE66EF06F0D8B466EFA4
:100CC60006F0CBEF06F0036C080E035CD8A098EF95
:100CD60006F0036E083600C008F001C000F002C03E
:100CE60001F0026A080E035CD8A098EF06F0036EC6
:100CF600083600C008F001C000F0016A080E035C67
:100D0600D8A098EF06F0036E083600C008F0006A17
:100D1600080E035CD8A098EF06F0036E0836086A42
:100D26000350D8A4D890A4EF06F00350D8B4A4EF8B
:100D360006F0D8900232013200320832032E9CEFC0
:100D460006F00BBC08A0B5EF06F0D8A0B5EF06F08C
:100D5600082AD8B4002AD8B4012AD8B4022A02BE76
:100D6600DFEF06F00AAEDBEF06F0021E011E001EE4
:100D7600081E082AD8B4002AD8B4012AD8B4022AF0
:100D8600DBEF06F0026A016A006A086ADBEF06F02A
:100D96000B800BAEE4EF06F0026A0AAEE4EF06F053
:100DA600026E016E006E086E0A360232E4EF06F03D
:100DB600000E0C6AE5EF06F0010E0C6EC6DDE5EFDF
:100DC60006F0FF0E0250036E0150026E0050016ED7
:060DD6000850006E12003F
:100DDC00C7B409D01F0EC514016E0150000A03E1FF
:0A0DEC00010E006E1200006A1200F2
:100DF600800E01017D19006E800E000A005CD8B0DD
:100E06006BD17D510008016E01C07DF1800E011885
:100E1600006E800E6E0A005CD8A0BED0640E046E12
:100E26007DC100F0B2EC01F0120E0024056E000E3A
:100E360000BEFF0E066E000E062205C000F006C0BC
:100E460001F0000E06BEFF0E026E036E0036009025
:100E56000136023603360036009001360236033676
:100E6600660E0024F66E4B0E0120F76E000E022071
:100E7600F86E0900F5CF7EF10900F5CF7FF1090084
:100E8600F5CF80F10900F5CF81F1640E046E7DC1C6
:100E960000F0B2EC01F008C000F00A0E046EB2ECED
:100EA60001F0090E0024056E000E00BEFF0E066E50
:100EB600000E062205C000F006C001F0000E06BEB8
:100EC600FF0E026E036E00360090013602360336C0
:100ED60000360090013602360336660E0024F66EA2
:100EE6004B0E0120F76E000E0220F86E0900F5CFBA
:100EF60000F00900F5CF01F00900F5CF02F0090076
:100F0600F5CF03F07EC104F07FC105F080C106F085
:100F160081C107F087DC00C07EF101C07FF102C00D
:100F260080F103C081F10A0E046E7DC100F0B2ECBF
:100F360001F008C000F000C001F0000E00BEFF0E78
:100F4600026E036E046E01360190023603360436D5
:100F560001360190023603360436660E0124F66E1B
:100F66004B0E0220F76E000E0320F86E0900F5CF37
:100F760000F00900F5CF01F00900F5CF02F00900F5
:100F8600F5CF03F07EC104F07FC105F080C106F005
:100F960081C107F047DC1200800E0A0A006E800E3F
:100FA6007D19005C71E20A0E046E7DC100F0B2ECA0
:100FB60001F0090E0024056E000E00BEFF0E066E3F
:100FC600000E062205C000F006C001F0000E06BEA7
:100FD600FF0E026E036E00360090013602360336AF
:100FE60000360090013602360336660E0024F66E91
:100FF6004B0E0120F76E000E0220F86E0900F5CFA9
:101006007EF10900F5CF7FF10900F5CF80F10900E7
:10101600F5CF81F10A0E046E7DC100F0B2EC01F04D
:1010260008C000F000C001F0000E00BEFF0E026E08
:10103600036E046E0136019002360336043601361D
:101046000190023603360436660E0124F66E4B0E08
:101056000220F76E000E0320F86E0900F5CF00F0AF
:101066000900F5CF01F00900F5CF02F00900F5CF30
:1010760003F07EC104F07FC105F080C106F081C196
:1010860007F015EC04F012007DC100F0000E7DBFE4
:10109600FF0E016E026E036E0036009001360236B8
:1010A600033600360090013602360336660E0024FB
:1010B600F66E4B0E0120F76E000E0220F86E090048
:1010C600F5CF00F00900F5CF01F00900F5CF02F0E9
:1010D6000900F5CF03F01200800E7D19006E800E18
:1010E6006E0A005CD8A0C0D0640E046E7DC100F00C
:1010F600B2EC01F0120E0024056E000E00BEFF0ECB
:10110600066E000E062205C000F006C001F0000EB5
:1011160006BEFF0E026E036E0036009001360236E2
:101126000336003600900136023603369A0E002446
:10113600F66E4B0E0120F76E000E0220F86E0900C7
:10114600F5CF7EF10900F5CF7FF10900F5CF80F1EB
:101156000900F5CF81F1640E046E7DC100F0B2EC9A
:1011660001F008C000F00A0E046EB2EC01F0090EA0
:101176000024056E000E00BEFF0E066E000E06224F
:1011860005C000F006C001F0000E06BEFF0E026E9E
:10119600036E0036009001360236033600360090A4
:1011A6000136023603369A0E0024F66E4B0E0120E7
:1011B600F76E000E0220F86E0900F5CF00F0090068
:1011C600F5CF01F00900F5CF02F00900F5CF03F0E5
:1011D6007EC104F07FC105F080C106F081C107F031
:1011E60015EC04F000C07EF101C07FF102C080F171
:1011F60003C081F10A0E046E7DC100F0B2EC01F06D
:1012060008C000F000C001F0000E00BEFF0E026E26
:10121600036E046E0136019002360336043601363B
:1012260001900236033604369A0E0124F66E4B0EF2
:101236000220F76E000E0320F86E0900F5CF00F0CD
:101246000900F5CF01F00900F5CF02F00900F5CF4E
:1012560003F07EC104F07FC105F080C106F081C1B4
:1012660007F015EC04F01200800E0A0A006E800EDC
:101276007D19005C71E20A0E046E7DC100F0B2ECCD
:1012860001F0090E0024056E000E00BEFF0E066E6C
:10129600000E062205C000F006C001F0000E06BED4
:1012A600FF0E026E036E00360090013602360336DC
:1012B600003600900136023603369A0E0024F66E8A
:1012C6004B0E0120F76E000E0220F86E0900F5CFD6
:1012D6007EF10900F5CF7FF10900F5CF80F1090015
:1012E600F5CF81F10A0E046E7DC100F0B2EC01F07B
:1012F60008C000F000C001F0000E00BEFF0E026E36
:10130600036E046E0136019002360336043601364A
:1013160001900236033604369A0E0124F66E4B0E01
:101326000220F76E000E0320F86E0900F5CF00F0DC
:101336000900F5CF01F00900F5CF02F00900F5CF5D
:1013460003F07EC104F07FC105F080C106F081C1C3
:1013560007F015EC04F012007DC100F0000E7DBF11
:10136600FF0E016E026E036E0036009001360236E5
:101376000336003600900136023603369A0E0024F4
:10138600F66E4B0E0120F76E000E0220F86E090075
:10139600F5CF00F00900F5CF01F00900F5CF02F016
:0813A6000900F5CF03F012006D
:1013AE000B6A0A6A096A00500402F4CF09F0F3CFFF
:1013BE0008F001500502F4CF0BF0F3CF0AF0005005
:1013CE000502F3500926F4500A22E86A0B22015056
:1013DE000402F3500926F4500A22E86A0B2208C0D0
:1013EE0000F009C001F00AC002F00BC003F01200B9
:1013FE000B6A0A6A096A086A0E6A033408360450D0
:10140E00085E0550D8A0053C095E0650D8A0063CE3
:10141E000A5E0750D8A0073C0B5EE86AD8A0010E02
:10142E000E5E0336070E0C6E0334083609360A3686
:10143E000B360E36045003A012D0085E0550D8A00D
:10144E00053C095E0650D8A0063C0A5E0750D8A09F
:10145E00073C0B5EE86AD8A0010E0E5E11D008267E
:10146E000550D8B0053C09260650D8B0063C0A26D1
:10147E000750D8B0073C0B26E86AD8B0010E0E26EE
:10148E0003360C2ED1D70234083609360A360B36FF
:10149E000E36045003A012D0085E0550D8A0053CAD
:1014AE00095E0650D8A0063C0A5E0750D8A0073C3D
:1014BE000B5EE86AD8A0010E0E5E11D0082605500C
:1014CE00D8B0053C09260650D8B0063C0A2607506F
:1014DE00D8B0073C0B26E86AD8B0010E0E260236AD
:1014EE00070E0C6E0234083609360A360B360E36E7
:1014FE00045002A012D0085E0550D8A0053C095E2B
:10150E000650D8A0063C0A5E0750D8A0073C0B5EDA
:10151E00E86AD8A0010E0E5E11D008260550D8B08C
:10152E00053C09260650D8B0063C0A260750D8B00E
:10153E00073C0B26E86AD8B0010E0E2602360C2E9A
:10154E00D1D70134083609360A360B360E3604501A
:10155E0002A012D0085E0550D8A0053C095E0650C8
:10156E00D8A0063C0A5E0750D8A0073C0B5EE86A7E
:10157E00D8A0010E0E5E11D008260550D8B0053C3D
:10158E0009260650D8B0063C0A260750D8B0073CAC
:10159E000B26E86AD8B0010E0E260136070E0C6E29
:1015AE000134083609360A360B360E36045001A0C1
:1015BE0012D0085E0550D8A0053C095E0650D8A092
:1015CE00063C0A5E0750D8A0073C0B5EE86AD8A01E
:1015DE00010E0E5E11D008260550D8B0053C092626
:1015EE000650D8B0063C0A260750D8B0073C0B264A
:1015FE00E86AD8B0010E0E2601360C2ED1D7003473
:10160E00083609360A360B360E36045001A012D0B3
:10161E00085E0550D8A0053C095E0650D8A0063CD1
:10162E000A5E0750D8A0073C0B5EE86AD8A0010EF0
:10163E000E5E11D008260550D8B0053C092606507E
:10164E00D8B0063C0A260750D8B0073C0B26E86AED
:10165E00D8B0010E0E260036070E0C6E003408367A
:10166E0009360A360B360E36045000A012D0085E2C
:10167E000550D8A0053C095E0650D8A0063C0A5E6F
:10168E000750D8A0073C0B5EE86AD8A0010E0E5E8C
:10169E0011D008260550D8B0053C09260650D8B002
:1016AE00063C0A260750D8B0073C0B26E86AD8B08D
:1016BE00010E0E2600360C2ED1D700B00ED00450DF
:1016CE0008260550D8B0053C09260650D8B0063C71
:0C16DE000A260750D8B0073C0B2612006B
:1016EA0001017D51390806E3300E7D5D03E3010EE9
:0816FA00006E01D0006A12002D
:1017020010D0800E01017D6F1AD0C00E7D6F17D0F0
:10171200940E7D6F14D0D40E7D6F11D0800E7D6F2C
:101722000ED001017D51010AECE07D51020AEDE08B
:101732007D51030AEDE07D51040AEDE0EFD77E050D
:10174200006E7D51002600C07DF100C083F140ECA7
:1017520000F01291816B81517F25E96E000E80218C
:10176200EA6EEE520CE081517F25E96E000E802177
:10177200EA6EEECF82F170EC01F0812BECD7128190
:02178200120053
:101784000450000A08E10550000A05E1FF0E006E4E
:101794007F0E016E12000D6A096A086A015000107A
:1017A400D8B4000C015005180A6E0ABE0D1E0B6A4F
:1017B40005AE05D0041E051E042AD8B4052A01AEC0
:1017C40005D0001E011E002AD8B4012A01500510BC
:1017D4000A6E0ABE10D077EC01F00BB020D00DAE2B
:1017E400000C001E011E002AD8B4012A081E091E7E
:1017F400082AD8B4092A000C05AE0DD001BE07D0C2
:101804000150096E0050086E016A006AE8D7016A47
:10181400006A002A000C011E001E0B2ADDD7082ACC
:10182400D8B4092A0450085CD8A4D9D70550095C57
:10183400D8A4D5D7096A086A002AD8B4012A01AE07
:08184400CED70000FF0C1200DA
:08184C00067E01EC02F012001F
:1018540003500718D8A43EEF0CF002500618D8A481
:101864003EEF0CF001500518D8A43EEF0CF00050E8
:0E1874000418D8B4D8841200D89412001200C0
:101882006E0E01017D5DD8A0CAD0640E046E7DC1CA
:1018920000F0A3EC01F0120E0024056E066A000EA1
:1018A200062205C000F006C001F0000E06BEFF0EC3
:1018B200026E036E003600900136023603360036A1
:1018C2000090013602360336660E0024F66E4B0E89
:1018D2000120F76E000E0220F86E0900F5CF00F02D
:1018E2000900F5CF01F00900F5CF02F00900F5CFAC
:1018F20003F0000E046E000E056E000E066E7E0EE4
:10190200076E15EC04F000C07EF101C07FF102C049
:1019120080F103C081F1640E046E7DC100F0A3EC7E
:1019220001F008C000F00A0E046EA3EC01F0090EEB
:101932000024056E066A000E062205C000F006C0ED
:1019420001F0000E06BEFF0E026E036E003600901E
:10195200013602360336003600900136023603366F
:10196200660E0024F66E4B0E0120F76E000E02206A
:10197200F86E0900F5CF00F00900F5CF01F009007B
:10198200F5CF02F00900F5CF03F07EC104F07FC16C
:1019920005F080C106F081C107F015EC04F000C02B
:1019A2007EF101C07FF102C080F103C081F10A0E15
:1019B200046E7DC100F0A3EC01F008C000F000C08D
:1019C20001F0000E026E036E046E013601900236C3
:1019D2000336043601360190023603360436660EAB
:1019E2000124F66E4B0E0220F76E000E0320F86EF5
:1019F2000900F5CF00F00900F5CF01F00900F5CF9D
:101A020002F00900F5CF03F07EC104F07FC105F0BA
:101A120080C106F081C107F015EC04F012007D517F
:101A22000A087EE20A0E046E7DC100F0A3EC01F00A
:101A3200090E0024056E066A000E062205C000F09B
:101A420006C001F0000E06BEFF0E026E036E0036E7
:101A52000090013602360336003600900136023617
:101A62000336660E0024F66E4B0E0120F76E000E52
:101A72000220F86E0900F5CF00F00900F5CF01F061
:101A82000900F5CF02F00900F5CF03F0000E046E55
:101A9200000E056E000E066E7E0E076E15EC04F04B
:101AA20000C07EF101C07FF102C080F103C081F16C
:101AB2000A0E046E7DC100F0A3EC01F008C000F034
:101AC20000C001F0000E026E036E046E013601903A
:101AD20002360336043601360190023603360436E6
:101AE200660E0124F66E4B0E0220F76E000E0320E6
:101AF200F86E0900F5CF00F00900F5CF01F00900FA
:101B0200F5CF02F00900F5CF03F07EC104F07FC1EA
:101B120005F080C106F081C107F015EC04F0120057
:101B22007DC100F0000E016E026E036E0036009061
:101B3200013602360336003600900136023603368D
:101B4200660E0024F66E4B0E0120F76E000E022088
:101B5200F86E0900F5CF00F00900F5CF01F0090099
:101B6200F5CF02F00900F5CF03F0000E046E000E6F
:101B7200056E000E066E7E0E076E15EC04F0120066
:101B82000450000A12E10550000A0FE10650000A53
:101B92000CE10750000A09E1FF0E006EFF0E016E14
:101BA2007F0E026EFF0E036E1200086A096A07506A
:101BB200D8B46CEF0EF00350D8B471EF0EF00250AF
:101BC20006180A6E028E068E0E6A02C008F001C066
:101BD2000CF000C00DF004500D5E0550D8A0053C7D
:101BE2000C5E0650D8A0063C085E086A0C6A0D6AB4
:101BF200D8A003EF0EF0D890023201320032083240
:101C0200010E0E6E0750035ED8A010EF0EF07E0E8E
:101C12000E240326D8B076EF0EF016EF0EF07E0EED
:101C22000E240326D8A07BEF0EF0180E0B6E0D3695
:101C32000C3608360036013602360E360450005E87
:101C42000550D8A0053C015E0650D8A0063C025EB5
:101C520006340E120EA031EF0EF00D803CEF0EF0A6
:101C6200045000260550D8B0053C01260650D8B0D5
:101C7200062802260D900B2E18EF0EF062EF0EF0E2
:101C8200D8900036013602360E360450005E0550FA
:101C9200D8A0053C015E0650D8A0063C025E063480
:101CA2000E10010B0D26D8B00C2AD8B4082AD8A4DD
:101CB20062EF0EF008320C320D32032AD8B476EFFE
:101CC2000EF00AAE089E0850026E0C50016E0D50C6
:101CD200006E7EEF0EF0010E11EC04F07EEF0EF0BE
:101CE200020E1CEC00F07EEF0EF0040E23EC00F06E
:0C1CF2007EEF0EF0080E33EC00F0120044
:0C1CFE000E0E0D6E0D2EFED70000120021
:101D0A000001E76BE86B800EE819006E800E005C3C
:101D1A0002E1020EE75D0EE2E75101015625E16E8E
:101D2A000001E85101015721E26EE66A0001E74B22
:101D3A00E82BE9D7E76BE86B61EC05F000C046F1E8
:101D4A0000503D0A4CE001014651FF0A47E0465166
:101D5A002A0A28E1800E006E800E0001E819005C54
:101D6A0002E1E751000804E2010EE75F000EE85BBA
:101D7A00E75101015625E16E0001E85101015721A1
:101D8A00E26EE66A585159110CE05AC17DF1000120
:101D9A00E75101015C257E6FE50E7F6F000E806FB3
:101DAA00ABDC1CD00001E75101015625E16E0001B0
:101DBA00E85101015721E26E46C1E6FF0001E74BF7
:101DCA00E82B01015851591109E05AC17DF15CC152
:101DDA007EF156C17FF157C180F18EDCADD712007A
:101DEA000C6A0E6A0250D8A40EEF0FF001C002F07E
:101DFA0000C001F0006A0E860250D8A40EEF0FF060
:101E0A0001C002F0016A0E960E880250D8B420EF83
:101E1A000FF00E50035ED8A4D8A026EF0FF0D8908A
:101E2A0002BE2CEF0FF0003601360236032E15EFF4
:101E3A000FF026EF0FF0010E0C6E1CEC00F030EFE5
:101E4A000FF0020E0C6E33EC00F030EF0FF0040EC0
:081E5A000C6E2FEC00F01200E9
:101E6200020E0B6E040E0C6EBA0E0D6E0D2EFED708
:0C1E72000C2EFCD70B2EFAD7000012003B
:101E7E000101756B766B626B636B58C100F059C1D3
:101E8E0001F05AC102F0010E5827000E59235A23B1
:101E9E0000C0F6FF01C0F7FF02C0F8FF0900F5CF42
:101EAE0000F000C05FF10052D8B453EF1FF05F5145
:101EBE00250A0BE056C1E1FF57C1E2FF5FC1E6FF05
:101ECE00564B572B754B762BD8D7606B616B626B6D
:101EDE00636B23D06287010E5827000E59235A23B5
:101EEE0059D06281010E5827000E59235A2352D021
:101EFE006283010E5827000E59235A234BD0638755
:101F0E00010E5827000E59235A2344D06285010E24
:101F1E005827000E59235A233DD058C1F6FF59C1F8
:101F2E00F7FF5AC1F8FF0900F5CF01F001502D0A55
:101F3E00D1E058C1F6FF59C1F7FF5AC1F8FF0900A9
:101F4E00F5CF01F00150200ACCE058C1F6FF59C17F
:101F5E00F7FF5AC1F8FF0900F5CF01F001502B0A27
:101F6E00C7E058C1F6FF59C1F7FF5AC1F8FF090083
:101F7E00F5CF01F00150230AC2E058C1F6FF59C156
:101F8E00F7FF5AC1F8FF0900F5CF01F00150300AF2
:101F9E00BDE001D09ED762A301D0629162A701D0AD
:101FAE00629558C1F6FF59C1F7FF5AC1F8FF0900F3
:101FBE00F5CF00F0000E016E00C07DF175EC0BF058
:101FCE00005236E0606B616B60C100F061C101F0E0
:101FDE000A0E046E000E056ED7EC09F058C1F6FF1E
:101FEE0059C1F7FF5AC1F8FF0900F5CF02F00250B0
:101FFE000024606F000E0120616F300E605F000ED6
:10200E00615B010E5827000E59235A2358C1F6FF63
:10201E0059C1F7FF5AC1F8FF0900F5CF00F0000EC5
:10202E00016E00C07DF175EC0BF00052CDE133D0A6
:10203E0058C1F6FF59C1F7FF5AC1F8FF0900F5CF95
:10204E0001F001502A0A27E15BC1E9FF5CC1EAFFFA
:10205E00EECF00F0EECF01F000C0E9FF01C0EAFFC5
:10206E00EECF60F1EECF61F15BC1E9FF5CC1EAFF3B
:10207E00020EEE24006E000EEE20016E5BC1E1FF3B
:10208E005CC1E2FF00C0E6FF01C0E6FF010E58276B
:10209E00000E59235A2358C1F6FF59C1F7FF5AC1F2
:1020AE00F8FF0900F5CF01F001502E0A70E1010E84
:1020BE005827000E59235A2358C1F6FF59C1F7FF6E
:1020CE005AC1F8FF0900F5CF01F001502A0A28E1A4
:1020DE005BC1E9FF5CC1EAFFEECF00F0EECF01F08D
:1020EE0000C0E9FF01C0EAFFEECF5DF1EECF5EF179
:1020FE005BC1E9FF5CC1EAFF020EEE24006E000E2A
:10210E00EE20016E5BC1E1FF5CC1E2FF00C0E6FFA5
:10211E0001C0E6FF010E5827000E59235A2336D070
:10212E005D6B5E6B58C1F6FF59C1F7FF5AC1F8FFE0
:10213E000900F5CF00F0000E016E00C07DF175ECC8
:10214E000BF0005223E05DC100F05EC101F00A0EFB
:10215E00046E000E056ED7EC09F058C1F6FF59C19A
:10216E00F7FF5AC1F8FF0900F5CF02F00250002424
:10217E005D6F000E01205E6F300E5D5F000E5E5BC8
:10218E00010E5827000E59235A23CCD703D05D6B6E
:10219E005E6B638958C100F059C101F05AC102F05B
:1021AE00010E5827000E59235A2300C0F6FF01C016
:1021BE00F7FF02C0F8FF0900F5CF5FF105D175C139
:1021CE0000F076C101F012006289E4D7638537D141
:1021DE00628B638134D1638332D1628D30D12FD142
:1021EE00628B628F2CD15BC1E9FF5CC1EAFFEECF3F
:1021FE0000F0EECF01F000C0E9FF01C0EAFFEECF24
:10220E006AF1EECF6BF15BC1E9FF5CC1EAFF020E32
:10221E00EE24006E000EEE20016E5BC1E1FF5CC18C
:10222E00E2FF00C0E6FF01C0E6FF000E6B1902E1FF
:10223E00000E6A1911E1280E6E6F6E0E6F6F750E1D
:10224E00706F6C0E716F6C0E726F290E736F746BF4
:10225E006E0E6A6F010E6B6F6C6B6D6B6C516A2537
:10226E00E96E6D516B21EA6EEE520BE0010E6C259C
:10227E00006E000E6D21016E00C06CF101C06DF19B
:10228E00EDD75D515E110AE06D515E5D02E16C515C
:10229E005D5D04E25DC16CF15EC16DF161516D5D1C
:1022AE0002E160516C5D05E26C51605F6D51615BE6
:1022BE0002D0606B616B62B716D060C100F061C175
:1022CE0001F0010E605F000E615B005001100BE02B
:1022DE0056C1E1FF57C1E2FF200EE66E564B572B5B
:1022EE00754B762BEAD76CC102F06DC103F0010E6F
:1022FE006C5D006E000E6D59016E00C06CF101C078
:10230E006DF10250031019E06AC1E9FF6BC1EAFFDB
:10231E0056C1E1FF57C1E2FFEECFE6FF564B572BFA
:10232E00010E6A25006E000E6B21016E00C06AF16F
:10233E0001C06BF1754B762BD6D762A716D060C154
:10234E0000F061C101F0010E605F000E615B005094
:10235E0001100BE056C1E1FF57C1E2FF200EE66E01
:10236E00564B572B754B762BEAD787D55BC1E9FFBA
:10237E005CC1EAFFEECF00F0EECF01F000C0E9FF46
:10238E0001C0EAFFEECF5FF15BC1E9FF5CC1EAFF7E
:10239E00020EEE24006E000EEE20016E5BC1E1FF18
:1023AE005CC1E2FF00C0E6FF01C0E6FF5F0E6A6F90
:1023BE00010E6B6F010E6C6F000E6D6F62D7C00E4B
:1023CE006213000E63133BD05F51000AD8B4F7D6E8
:1023DE005F516C0AD8B4F8D65F51660AD8B4F6D6F7
:1023EE005F51450AD8B4F4D65F51650AD8B4F1D618
:1023FE005F51670AD8B4EFD65F516F0AD8B4EDD6E5
:10240E005F51640AD8B4EBD65F51690AD8B4E7D6E7
:10241E005F51700AD8B4E4D65F51580AD8B4E0D6EA
:10242E005F51780AD8B4DDD65F51730AD8B4DBD6C3
:10243E005F51630A9BE05F51750AC1E0B7D7000E8A
:10244E006215006E6351070B016E00500110D8B477
:10245E00FEEF1AF063A904D0060E5D6F000E5E6FDC
:10246E005BC1E9FF5CC1EAFFEECF00F0EECF01F0F9
:10247E0000C0E9FF01C0EAFFEECF64F1EECF65F1D7
:10248E00EECF66F1EECF67F15BC1E9FF5CC1EAFF0B
:10249E00040EEE24006E000EEE20016E5BC1E1FF15
:1024AE005CC1E2FF00C0E6FF01C0E6FF046A056AF8
:1024BE00066A076A64C100F065C101F066C102F0E8
:1024CE0067C103F0ECEC05F0010ED8B0000E006E03
:1024DE00005205E0667F030E6213000E6313686BF5
:1024EE00696B64C100F065C101F066C102F067C19D
:1024FE0003F0046A056A066A076A2AEC0CF0000EFD
:10250E00D8A4010E006E0052D8B48AD067C100F074
:10251E00016A026A036AFF0E0016000E01167E0E95
:10252E00005E000E015A00C068F101C069F1010E93
:10253E00005E000E015A00C068F101C069F1030E81
:10254E00046E000E056ED7EC09F000C068F101C0F4
:10255E0069F10A0E046E000E056EC2EC0BF000C09F
:10256E0068F101C069F1800E0118026E800E025CE6
:10257E0002E1000E005C05E2010E0101685F000E33
:10258E00695B0101685100087D6FFBEC06F064C1C8
:10259E0004F065C105F066C106F067C107F015ECE1
:1025AE0004F000C06AF101C06BF102C06CF103C00F
:1025BE006DF1000E046E000E056E000E066E7F0E9F
:1025CE00076E6AC100F06BC101F06CC102F06DC103
:1025DE0003F0ECEC05F0010ED8B0000E006E0052C8
:1025EE0005E0010E685F000E695B1AD0000E046EE6
:1025FE00000E056E200E066E820E076E6AC100F08A
:10260E006BC101F06CC102F06DC103F0ECEC05F092
:10261E00000ED8B0010E006E005202E0684B692B1E
:10262E00800E006E800E6919005C02E16851000890
:10263E0003E3010E5F6F02D068C15FF163B118D082
:10264E0063A315D0800E6919006E7F0E005C02E147
:10265E00FC0E685D0BE3800E6919006E800E5E192C
:10266E00005C02E15D51685D01E201D001D0F1D361
:10267E005D515E1106E063A304D0010E5D5F000E96
:10268E005E5B000E006E5E51005C02E15D5108085B
:10269E0003E2080E5F6F02D05DC15FF164C100F00E
:1026AE0065C101F066C102F067C103F0046A056AF4
:1026BE00066A076A2AEC0CF0000ED8A4010E006E12
:1026CE000052D8B44BD168C17DF1FBEC06F000C0CE
:1026DE0004F001C005F002C006F003C007F064C1AB
:1026EE0000F065C101F066C102F067C103F0C1ECF4
:1026FE000DF000C064F101C065F102C066F103C0C7
:10270E0067F101015F5100087D6FFBEC06F000C020
:10271E0004F001C005F002C006F003C007F064C16A
:10272E0000F065C101F066C102F067C103F0C1ECB3
:10273E000DF000C077F101C078F102C079F103C04D
:10274E007AF177C164F178C165F179C166F17AC128
:10275E0067F177C100F078C101F079C102F07AC15A
:10276E0003F053EC06F04EEC05F000C004F001C08F
:10277E0005F002C006F003C007F077C100F078C183
:10278E0001F079C102F07AC103F026EC0CF0000ED4
:10279E00046E000E056E000E066E7E0E076EECECDD
:1027AE0005F0000ED8B0010E006E00521AE064C1A2
:1027BE0000F065C101F066C102F067C103F0000EC2
:1027CE00046E000E056E000E066E7E0E076E01EC98
:1027DE0002F000C064F101C065F102C066F103C0F1
:1027EE0067F164C100F065C101F066C102F067C116
:1027FE0003F053EC06F001015F51010F096E0A6AF6
:10280E00000E0A2209C004F00AC005F0000E0ABE2E
:10281E00FF0E066E076E0436049005360636073632
:10282E0004360490053606360736FE0E0424F66E80
:10283E004B0E0520F76E000E0620F86E0900F5CF40
:10284E0005F00900F5CF06F00900F5CF07F00900F5
:10285E00F5CF08F00850035C08E10750025C05E173
:10286E000650015C02E10550005C1EE3010164C1EB
:10287E0000F065C101F066C102F067C103F0CD0E34
:10288E00046ECC0E056E4C0E066E7B0E076E15ECAE
:10289E0004F000C064F101C065F102C066F103C02E
:1028AE0067F1684B692B5AD064C100F065C101F025
:1028BE0066C102F067C103F053EC06F05FC104F08D
:1028CE00000E056E066E076E04360490053606364B
:1028DE00073604360490053606360736FE0E0424F7
:1028EE00F66E4B0E0520F76E000E0620F86E0900F0
:1028FE00F5CF05F00900F5CF06F00900F5CF07F08A
:10290E000900F5CF08F00850035C08E10750025C9F
:10291E0005E10650015C02E10550005C1FE2010179
:10292E0064C100F065C101F066C102F067C103F039
:10293E00000E046E000E056E200E066E820E076EE1
:10294E0015EC04F000C064F101C065F102C066F13F
:10295E0003C067F1010E685F000E695B010163A39E
:10296E0093D063B791D0800E000A006E800E5E1970
:10297E00005C02E15D510A0804E20A0E5D6F000E72
:10298E005E6F64C100F065C101F066C102F067C1FF
:10299E0003F053EC06F000C06AF101C06BF102C007
:1029AE006CF103C06DF16A516B116C116D1142E047
:1029BE000A0E046E000E056E066E076E6AC100F0FA
:1029CE006BC101F06CC102F06DC103F0FFEC09F0B8
:1029DE0008C000F009C001F00AC002F00BC003F0FD
:1029EE00000E046E031808E10450021805E10450AD
:1029FE00011802E10050000A1DE1010E5D5F000E9C
:102A0E005E5B0A0E046E000E056E066E076E6AC1E0
:102A1E0000F06BC101F06CC102F06DC103F0FFEC70
:102A2E0009F000C06AF101C06BF102C06CF103C085
:102A3E006DF1B9D7800E5E19006E800E005C02E15A
:102A4E005F515D5D21E25D515F5D7D6FFBEC06F0D8
:102A5E0000C004F001C005F002C006F003C007F08C
:102A6E0064C100F065C101F066C102F067C103F0F8
:102A7E00C1EC0DF000C064F101C065F102C066F159
:102A8E0003C067F15DC15FF1050E01015D25006EAA
:102A9E00000E5E21016E0050605F0150615B5D5162
:102AAE005E1103E163B701D004D0010E605F000E2A
:102ABE00615B030E6215006E63C101F0000E01161C
:102ACE000050011004E0010E605F000E615B62A514
:102ADE0039D062A312D062A103D02D0E006E02D0A7
:102AEE002B0E006E56C1E1FF57C1E2FF00C0E6FF9C
:102AFE00564B572B754B762B0CD062A10AD056C174
:102B0E00E1FF57C1E2FF200EE66E564B572B754B79
:102B1E00762B800E006E800E6119005C02E1605112
:102B2E0000080FE256C1E1FF57C1E2FF300EE66E1C
:102B3E00564B572B754B762B010E605F000E615B6B
:102B4E00E8D73AD062B718D0800E006E800E6119A9
:102B5E00005C02E1605100080FE256C1E1FF57C16F
:102B6E00E2FF200EE66E564B572B754B762B010E61
:102B7E00605F000E615BE8D762A312D062A103D042
:102B8E002D0E006E02D02B0E006E56C1E1FF57C106
:102B9E00E2FF00C0E6FF564B572B754B762B0CD041
:102BAE0062A10AD056C1E1FF57C1E2FF200EE66EC8
:102BBE00564B572B754B762B64C100F065C101F057
:102BCE0066C102F067C103F053EC06F000C06AF173
:102BDE0001C06BF102C06CF103C06DF15FC100F07A
:102BEE00000E016E026E036E003600900136023644
:102BFE00033600360090013602360336FE0E0024F0
:102C0E00F66E4B0E0120F76E000E0220F86E0900D4
:102C1E00F5CF04F00900F5CF05F00900F5CF06F069
:102C2E000900F5CF07F06AC100F06BC101F06CC16D
:102C3E0002F06DC103F0FFEC09F0300E002656C114
:102C4E00E1FF57C1E2FF00C0E6FF564B572B754B15
:102C5E00762B5D515E1103E163B701D06FD056C183
:102C6E00E1FF57C1E2FF2E0EE66E564B572B754B0A
:102C7E00762B5F515D5F000E5E5B5F534DE05F072D
:102C8E005FC100F0000E016E026E036E0036009002
:102C9E000136023603360036009001360236033610
:102CAE00FE0E0024F66E4B0E0120F76E000E022073
:102CBE00F86E0900F5CF04F00900F5CF05F0090014
:102CCE00F5CF06F00900F5CF07F06AC100F06BC131
:102CDE0001F06CC102F06DC103F0FFEC09F00A0EB9
:102CEE00046E000E056E066E076EFFEC09F008C04E
:102CFE0000F009C001F00AC002F00BC003F0300E64
:102D0E00002656C1E1FF57C1E2FF00C0E6FF564B59
:102D1E00572B754B762BB1D75D515E110FE056C117
:102D2E00E1FF57C1E2FF300EE66E564B572B754B47
:102D3E00762B010E5D5F000E5E5BEED762AB0BD0A5
:102D4E0056C1E1FF57C1E2FF450EE66E564B572BBB
:102D5E00754B762B0AD056C1E1FF57C1E2FF650EC7
:102D6E00E66E564B572B754B762B800E6919006EFF
:102D7E00800E005C02E1000E685D11E268510008F1
:102D8E00686F6951000E695756C1E1FF57C1E2FFE6
:102D9E002D0EE66E564B572B754B762B0AD056C121
:102DAE00E1FF57C1E2FF2B0EE66E564B572B754BCC
:102DBE00762B0A0E046E000E056E68C100F069C116
:102DCE0001F0C2EC0BF0300E002656C1E1FF57C1E8
:102DDE00E2FF00C0E6FF0101564B572B754B762BD9
:102DEE000A0E046E000E056E68C100F069C101F096
:102DFE00C2EC0BF008C000F009C001F0300E002646
:102E0E0056C1E1FF57C1E2FF00C0E6FF0101564B7C
:102E1E00572B754B762B62A71AD0800E006E800E44
:102E2E006119005C02E16051000811E256C1E1FF38
:102E3E0057C1E2FF200EE66E564B572B754B762B85
:102E4E00010E605F000E615B60516111EFE144EFB6
:102E5E000FF063A3F3D0800E6919006E800E005C34
:102E6E0002E1000E685D0AE2010E685D006E000E62
:102E7E006959016E00505D5F01505E5B64C100F0E8
:102E8E0065C101F066C102F067C103F053EC06F0B4
:102E9E0000C06AF101C06BF102C06CF103C06DF1AC
:102EAE00010E5F6F5F510A0A34E05FC100F0000E41
:102EBE00016E026E036E0036009001360236033646
:102ECE0000360090013602360336FE0E0024F66EF2
:102EDE004B0E0120F76E000E0220F86E0900F5CFA2
:102EEE0001F00900F5CF02F00900F5CF03F009005B
:102EFE00F5CF04F004506D5D08E103506C5D05E103
:102F0E0002506B5D02E101506A5D01E202D05F2B5F
:102F1E00C9D75F515D5D7B6F000E5E597C6F7BC1C3
:102F2E005DF17CC15EF16AC100F06BC101F06CC154
:102F3E0002F06DC103F04EEC05F000C004F001C0CC
:102F4E0005F002C006F003C007F064C100F065C1D1
:102F5E0001F066C102F067C103F026EC0CF000C070
:102F6E0077F101C078F102C079F103C07AF17BC12B
:102F7E007DF1FBEC06F077C104F078C105F079C164
:102F8E0006F07AC107F015EC04F0000E046E000E88
:102F9E00056E000E066E7E0E076E01EC02F053EC0F
:102FAE0006F000C06AF101C06BF102C06CF103C003
:102FBE006DF15D515E1142E00A0E046E000E056E5B
:102FCE00066E076E6AC100F06BC101F06CC102F0B3
:102FDE006DC103F0FFEC09F008C000F009C001F06C
:102FEE000AC002F00BC003F0000E046E031808E1D5
:102FFE000450021805E10450011802E10050000AC5
:10300E001DE10A0E046E000E056E066E076E6AC195
:10301E0000F06BC101F06CC102F06DC103F0FFEC6A
:10302E0009F000C06AF101C06BF102C06CF103C07F
:10303E006DF1010E5D5F000E5E5BBBD7800E006E04
:10304E00800E5E19005C02E15D510C0816E35DC155
:10305E007DF141EC0CF064C104F065C105F066C170
:10306E0006F067C107F001EC02F000C064F101C088
:10307E0065F102C066F103C067F164C100F065C17D
:10308E0001F066C102F067C103F0046A056A066AC0
:10309E00076A2AEC0CF0000ED8A4010E006E005246
:1030AE00D8B477D064C100F065C101F066C102F0FA
:1030BE0067C103F053EC06F0000E046E031808E12E
:1030CE000450021805E10450011802E10050000AF4
:1030DE0060E1800E006E800E6919005C02E168519D
:1030EE00010857E268C17DF1FBEC06F000C004F068
:1030FE0001C005F002C006F003C007F064C100F085
:10310E0065C101F066C102F067C103F0C1EC0DF0BC
:10311E005F0E046E700E056E090E066E810E076E42
:10312E00ECEC05F0010ED8B0000E006E005206E079
:10313E00090E0101685F000E695B05D00101080EE2
:10314E00685F000E695B68C17DF1FBEC06F000C0A4
:10315E0004F001C005F002C006F003C007F064C120
:10316E0000F065C101F066C102F067C103F0C1EC69
:10317E000DF053EC06F000C06AF101C06BF102C015
:10318E006CF103C06DF10101646B656B666B676B6F
:10319E0038D064C100F065C101F066C102F067C1AC
:1031AE0003F053EC06F000C06AF101C06BF102C0EF
:1031BE006CF103C06DF16AC100F06BC101F06CC11E
:1031CE0002F06DC103F04EEC05F000C004F001C03A
:1031DE0005F002C006F003C007F064C100F065C13F
:1031EE0001F066C102F067C103F026EC0CF000C0DE
:1031FE0064F101C065F102C066F103C067F1686B4E
:10320E00696B010E5F6F5F510A0A34E05FC100F017
:10321E00000E016E026E036E00360090013602360D
:10322E00033600360090013602360336FE0E0024B9
:10323E00F66E4B0E0120F76E000E0220F86E09009E
:10324E00F5CF01F00900F5CF02F00900F5CF03F03C
:10325E000900F5CF04F004506D5D08E103506C5D7C
:10326E0005E102506B5D02E101506A5D01E202D0A0
:10327E005F2BC9D75F515D25006E000E5E21016E7A
:10328E0068510026695101220050605F0150615B58
:10329E0063B704D05D515E1101E104D0010E605F91
:1032AE00000E615B030E6215006E63C101F0000E2D
:1032BE0001160050011004E0010E605F000E615B0C
:1032CE0062A539D062A312D062A103D02D0E006E7A
:1032DE0002D02B0E006E56C1E1FF57C1E2FF00C0B7
:1032EE00E6FF564B572B754B762B0CD062A10AD0AE
:1032FE0056C1E1FF57C1E2FF200EE66E564B572B2B
:10330E00754B762B800E006E800E6119005C02E10B
:10331E00605100080FE256C1E1FF57C1E2FF300EC7
:10332E00E66E564B572B754B762B010E605F000EDB
:10333E00615BE8D73AD062B718D0800E006E800E6F
:10334E006119005C02E1605100080FE256C1E1FF15
:10335E0057C1E2FF200EE66E564B572B754B762B60
:10336E00010E605F000E615BE8D762A312D062A10E
:10337E0003D02D0E006E02D02B0E006E56C1E1FF53
:10338E0057C1E2FF00C0E6FF564B572B754B762B0D
:10339E000CD062A10AD056C1E1FF57C1E2FF200E48
:1033AE00E66E564B572B754B762B5FC100F05F07C1
:1033BE0000524CE05FC100F0000E016E026E036E13
:1033CE000036009001360236033600360090013684
:1033DE0002360336FE0E0024F66E4B0E0120F76EFB
:1033EE00000E0220F86E0900F5CF04F00900F5CFAB
:1033FE0005F00900F5CF06F00900F5CF07F06AC118
:10340E0000F06BC101F06CC102F06DC103F0FFEC76
:10341E0009F00A0E046E000E056E066E076EFFECC6
:10342E0009F008C000F009C001F00AC002F00BC09C
:10343E0003F0300E002656C1E1FF57C1E2FF00C077
:10344E00E6FF564B572B754B762BAFD7800E006E83
:10345E00800E6919005C02E1685100080FE256C146
:10346E00E1FF57C1E2FF300EE66E564B572B754B00
:10347E00762B010E685F000E695BE8D7800E000A9E
:10348E00006E800E5E19005C02E15D51080803E2D9
:10349E00080E5F6F02D05DC15FF15F515D5F000E80
:1034AE005E5B5F5303E163B701D00AD056C1E1FF03
:1034BE0057C1E2FF2E0EE66E564B572B754B762BF1
:1034CE005FC17DF1FBEC06F064C104F065C105F04F
:1034DE0066C106F067C107F015EC04F0B6EC04F017
:1034EE0000C06AF101C06BF102C06CF103C06DF156
:1034FE005F534DE05F075FC100F0000E016E026E7C
:10350E00036E003600900136023603360036009008
:10351E00013602360336FE0E0024F66E4B0E0120E7
:10352E00F76E000E0220F86E0900F5CF04F00900C8
:10353E00F5CF05F00900F5CF06F00900F5CF07F03D
:10354E006AC100F06BC101F06CC102F06DC103F0F5
:10355E00FFEC09F00A0E046E000E056E066E076E85
:10356E00FFEC09F008C000F009C001F00AC002F03B
:10357E000BC003F0300E002656C1E1FF57C1E2FF2B
:10358E0000C0E6FF564B572B754B762BB1D75D51CE
:10359E005E110FE056C1E1FF57C1E2FF300EE66E3D
:1035AE00564B572B754B762B010E5D5F000E5E5BF7
:1035BE00EED762A71AD0800E006E800E6119005CE5
:1035CE0002E16051000811E256C1E1FF57C1E2FF6E
:1035DE00200EE66E564B572B754B762B010E605F09
:1035EE00000E615B60516111EFE144EF0FF0C00E10
:1035FE006215016E63C102F0000E0216000E021873
:10360E0002E1000E0118D8A47CD062A927D05BC1BC
:10361E00E9FF5CC1EAFFEECF00F0EECF01F000C093
:10362E00E9FF01C0EAFFEECF6AF1EECF6BF1EECF0C
:10363E006CF1EECF6DF15BC1E9FF5CC1EAFF040EE8
:10364E00EE24006E000EEE20016E5BC1E1FF5CC148
:10365E00E2FF00C0E6FF01C0E6FF2BD05BC1E9FF31
:10366E005CC1EAFFEECF00F0EECF01F000C0E9FF43
:10367E0001C0EAFFEECF00F0EECF01F000C06AF11C
:10368E0001C06BF1000E01BEFF0E6C6F6D6F5BC162
:10369E00E9FF5CC1EAFF020EEE24006E000EEE2082
:1036AE00016E5BC1E1FF5CC1E2FF00C0E6FF01C03D
:1036BE00E6FF800E6D19006E800E005C08E1000EB4
:1036CE006C5D05E1000E6B5D02E1000E6A5D18E2B5
:1036DE00030E6213000E6313006A016A026A036A24
:1036EE006A51005E6B51015A6C51025A6D51035A68
:1036FE0000C06AF101C06BF102C06CF103C06DF144
:10370E004ED062A927D05BC1E9FF5CC1EAFFEECFC4
:10371E0000F0EECF01F000C0E9FF01C0EAFFEECFEE
:10372E006AF1EECF6BF1EECF6CF1EECF6DF15BC1C6
:10373E00E9FF5CC1EAFF040EEE24006E000EEE20DF
:10374E00016E5BC1E1FF5CC1E2FF00C0E6FF01C09C
:10375E00E6FF25D05BC1E9FF5CC1EAFFEECF00F0CA
:10376E00EECF01F000C0E9FF01C0EAFFEECF6AF133
:10377E00EECF6BF1000E6C6F6D6F5BC1E9FF5CC13C
:10378E00EAFF020EEE24006E000EEE20016E5BC10B
:10379E00E1FF5CC1E2FF00C0E6FF01C0E6FF000EE4
:1037AE005E1902E1000E5D190FE1000E006E6D193B
:1037BE0008E100506C1905E100506B1902E16A51E5
:1037CE00000A02E15D4B5E2BC00E6215006E00C05A
:1037DE0005F0AED0010E5F6F5F510A0A34E05FC193
:1037EE0000F0000E016E026E036E00360090013680
:1037FE000236033600360090013602360336FE0ED0
:10380E000024F66E4B0E0120F76E000E0220F86EAD
:10381E000900F5CF01F00900F5CF02F00900F5CF50
:10382E0003F00900F5CF04F004506D5D08E103507C
:10383E006C5D05E102506B5D02E101506A5D01E2D3
:10384E0002D05F2BC9D782D0010E5F6F5F51080A7D
:10385E0034E05FC100F0000E016E026E036E0036A2
:10386E0000900136023603360036009001360236DD
:10387E000336260E0024F66E4C0E0120F76E000E57
:10388E000220F86E0900F5CF01F00900F5CF02F025
:10389E000900F5CF03F00900F5CF04F004506D5D7B
:1038AE0008E103506C5D05E102506B5D02E10150D1
:1038BE006A5D01E202D05F2BC9D748D0010E5F6F5F
:1038CE005F510C0A34E05FC100F0000E016E026E13
:1038DE00036E003600900136023603360036009035
:1038EE00013602360336CE0E0024F66E4B0E012044
:1038FE00F76E000E0220F86E0900F5CF01F00900F8
:10390E00F5CF02F00900F5CF03F00900F5CF04F072
:10391E0004506D5D08E103506C5D05E102506B5D76
:10392E0002E101506A5D01E202D05F2BC9D70ED0D1
:10393E000550000AD8B44ED70550C00AD8B44AD79D
:10394E000550800A81E00550400AB8E0800E006EF6
:10395E00800E5E19005C02E15D515F5D03E25DC1A8
:10396E005FF10DD0800E5E19006E800E005C02E1DC
:10397E005F515D5D04E25FC15DF1000E5E6F6051EF
:10398E0061110EE0030E6215006E63C101F0000EB0
:10399E0001160050011004E0010E605F000E615B25
:1039AE00800E5E19006E800E6119005C02E160519E
:1039BE005D5D05E25D51605F5E51615B02D0606BE3
:1039CE00616BC40E6215016E6351080B026E0250DC
:1039DE00080A02E1400E011808E16051611104E08D
:1039EE00010E605F000E615B1CD0C00E6215016E91
:1039FE006351080B026E0250080A02E1800E011894
:103A0E0010E1800E006E800E6119005C02E16051C3
:103A1E00020805E2020E605F000E615B02D0606B71
:103A2E00616B62A55DD062A312D062A103D02D0E90
:103A3E00006E02D02B0E006E56C1E1FF57C1E2FFA1
:103A4E0000C0E6FF564B572B754B762B34D062A138
:103A5E000BD056C1E1FF57C1E2FF200EE66E564B6A
:103A6E00572B754B762B27D0C00E6215016E635106
:103A7E00080B026E0250080A02E1800E01181BE1CB
:103A8E0056C1E1FF57C1E2FF300EE66E564B572B83
:103A9E00754B762B62AB03D0580E006E02D0780EAB
:103AAE00006E56C1E1FF57C1E2FF00C0E6FF564B64
:103ABE00572B754B762B6051611111E056C1E1FF0A
:103ACE0057C1E2FF300EE66E564B572B754B762BD9
:103ADE00010E605F000E615B60516111EFE174D009
:103AEE006051611113E062B711D056C1E1FF57C1A9
:103AFE00E2FF200EE66E564B572B754B762B010EC2
:103B0E00605F000E615B60516111EFE162A312D044
:103B1E0062A103D02D0E006E02D02B0E006E56C188
:103B2E00E1FF57C1E2FF00C0E6FF564B572B754B26
:103B3E00762B0CD062A10AD056C1E1FF57C1E2FF2D
:103B4E00200EE66E564B572B754B762BC00E62151C
:103B5E00016E6351080B026E0250080A02E1400E1C
:103B6E0001180BE156C1E1FF57C1E2FF300EE66EC0
:103B7E00564B572B754B762B27D0C00E6215016E08
:103B8E006351080B026E0250080A02E1800E011802
:103B9E001BE156C1E1FF57C1E2FF300EE66E564BF8
:103BAE00572B754B762B62AB03D0580E006E02D09E
:103BBE00780E006E56C1E1FF57C1E2FF00C0E6FF6E
:103BCE00564B572B754B762B800E006E800E5E1962
:103BDE00005C02E15D515F5D0BE256C1E1FF57C132
:103BEE00E2FF300EE66E564B572B754B762BECD70D
:103BFE005DC100F05EC101F0010E5D5F000E5E5B07
:103C0E0000500110D8B42AD1C00E6215006E00C04B
:103C1E0077F10AD15DC100F05EC101F0000E5EBF0A
:103C2E00FF0E026E036E003600900136023603362A
:103C3E0000360090013602360336FE0E0024F66E74
:103C4E004B0E0120F76E000E0220F86E0900F5CF24
:103C5E0004F00900F5CF05F00900F5CF06F00900D4
:103C6E00F5CF07F06AC100F06BC101F06CC102F034
:103C7E006DC103F0FFEC09F00A0E046E000E056E26
:103C8E00066E076EFFEC09F008C000F009C001F0E7
:103C9E000AC002F00BC003F0300E00245F6FD3D0C9
:103CAE0062AB45D05DC100F05EC101F0000E5EBF9B
:103CBE00FF0E026E036E003600900136023603369A
:103CCE0000360090013602360336260E0024F66EBC
:103CDE004C0E0120F76E000E0220F86E0900F5CF93
:103CEE0004F00900F5CF05F00900F5CF06F0090044
:103CFE00F5CF07F06AC100F06BC101F06CC102F0A4
:103D0E006DC103F0FFEC09F00F0E0016000E011648
:103D1E0002160316460E0024F66E4C0E0120F76EA8
:103D2E00000E0220F86E0900F5CF5FF144D05DC1A0
:103D3E0000F05EC101F0000E5EBFFF0E026E036E5C
:103D4E0000360090013602360336003600900136FA
:103D5E0002360336260E0024F66E4C0E0120F76E48
:103D6E00000E0220F86E0900F5CF04F00900F5CF21
:103D7E0005F00900F5CF06F00900F5CF07F06AC18E
:103D8E0000F06BC101F06CC102F06DC103F0FFECED
:103D9E0009F00F0E0016000E011602160316570E2E
:103DAE000024F66E4C0E0120F76E000E0220F86E07
:103DBE000900F5CF5FF147D05DC100F05EC101F0A3
:103DCE00000E5EBFFF0E026E036E003600900136CF
:103DDE000236033600360090013602360336CE0E1A
:103DEE000024F66E4B0E0120F76E000E0220F86EC8
:103DFE000900F5CF04F00900F5CF05F00900F5CF65
:103E0E0006F00900F5CF07F06AC100F06BC101F0B2
:103E1E006CC102F06DC103F0FFEC09F0070E001447
:103E2E005F6F300E5F270FD07751000AD8B4F2D6ED
:103E3E007751C00AD8B4EED67751800AD8B430D7AD
:103E4E007751400AB9E056C1E1FF57C1E2FF5FC1A9
:103E5E00E6FF564B572B754B762BCAD662A71AD058
:103E6E00800E006E800E6119005C02E16051000848
:103E7E0011E256C1E1FF57C1E2FF200EE66E564B2E
:103E8E00572B754B762B010E605F000E615B6051F8
:103E9E006111EFE144EF0FF075C100F076C101F052
:023EAE00120000
:103EB0009E9656C1C9FFC7A401D0FDD79EB601D0BA
:103EC000FDD7C5BC02D0006A1200C584020E006E88
:023ED0001200DE
:103ED2000101566B576B5751120802E156518E0879
:103EE20009E3EEEC06F0005201E004D00101564B6A
:103EF200572BF1D70101120E575D02E18F0E565D6D
:103F020003E37B0E006E1200C580C5A001D0FDD771
:043F1200006A12002F
:043F1600C58412004C
:103F1A009E96C5869EB601D0FDD7C9CF01F0010194
:103F2A005651000A02E1C58A01D0C59A9E96C588F3
:0C3F3A009EB601D0FDD701C000F01200BF
:0A3F4600C582C5A201D0FDD712000C
:103F50004C0E0101546F010E556F47C156F148C117
:103F600057F149C158F14AC159F14BC15AF1540EA8
:103F70005B6F010E5C6F3FEC0FF000C052F101C0AF
:103F800053F100504725E16E01504821E26EE66A88
:0A3F900052C100F053C101F012000D
:103F9A009BDFD00E566F87DF47C156F184DFCEDF35
:103FAA00D10E0101566F7FDF0101566BB1DF00C0F0
:103FBA0049F1000E01014A6FA9DF49C100F04AC167
:043FCA0001F01200F0
:103FCE0047C1E9FF48C1EAFFEECF03F0F00E03143C
:103FDE00026E02C000F00032009E0032009E0032DF
:103FEE00009E0032009E0A0E0002F3CF01F00F0E6B
:103FFE000314006E47C1E1FF48C1E2FF00500124E7
:10400E00E66E49C1E9FF4AC1EAFFEECF03F0F00EBA
:10401E000314026E02C000F00032009E0032009EB9
:10402E000032009E0032009E0A0E0002F3CF01F015
:10403E000F0E0314006E49C1E1FF4AC1E2FF0050AA
:10404E000124E66E4BC1E9FF4CC1EAFFEECF03F04F
:10405E00F00E0314026E02C000F00032009E003219
:10406E00009E0032009E0032009E0A0E0002F3CF28
:10407E0001F00F0E0314006E4BC1E1FF4CC1E2FFC5
:08408E0000500124E66E12004F
:1040960047C156F148C157F1010E0101586F000E94
:1040A600596F49C15AF14AC15BF14BC15CF14CC130
:0840B6005DF185EC0EF0120033
:1040BE0047C1E9FF48C1EAFFEECF49F1000E010109
:1040CE004A6F000E4A6F000E4A1902E1200E49197E
:1040DE0007E0000E4A1902E1090E491901E003D06A
:1040EE00474B482BE5D74B6B4C6B4D6B4E6B000E15
:1040FE004A1902E12D0E491905E14D4B4E2B474B46
:10410E00482B08D0000E4A1902E12B0E491902E184
:10411E00474B482B47C1E9FF48C1EAFFEECF49F1B3
:10412E00000E4A6F000E4A6F49C17DF175EC0BF01F
:10413E00005219E04BC100F04CC101F00A0E046EA2
:10414E00000E056ED7EC09F0300E495D026E000EC2
:10415E004A59036E025000244B6F035001204C6FDE
:10416E00474B482BD7D74D514E1108E04B51000805
:10417E00006E4CC101F0000E015612004BC100F052
:06418E004CC101F012001B
:104194000B6A0C6A0A6A0350D8B4FFEF20F00A9E37
:1041A400028E860E035E03BEDDEF20F0D8B4DDEF91
:1041B40020F002EF21F0036C080E035CD8A0EBEFB3
:1041C40020F0036E0236026A0350D8A4D890F4EFAC
:1041D40020F00350D8B4F4EF20F0D8900232032E2C
:1041E400EFEF20F00BBC02A0FFEF20F0D8A0FFEF10
:1041F40020F0022AD8B409EF21F0016A0FEF21F070
:104204000B800BAE13EF21F0016A13EF21F0010EC6
:104214000C6EA8EC04F015EF21F0000E0C6E15EFF7
:0C42240021F0FF0E0C6E0250006E120024
:104230000101476B486B800E4819006E800E005CD0
:1042400002E1010E475D09E21C0E836F40EC00F0B5
:1042500031EC0FF0474B482BEED7476B486B800E85
:104260004819006E800E005C02E1010E475D09E214
:10427000180E836F40EC00F031EC0FF0474B482BE9
:04428000EED7120063
:10428400C26A070EC012C08E47C100F0003600900B
:10429400003600900050C212C2807FEC0EF0C28241
:1042A400C2A201D0FDD7C4CF01F0006AC3500012EE
:0842B400000E0112C29012007D
:1042BC000050086E0150006E016A026A036A0B6AB4
:1042CC000C6A960E036E0A6A00C001F008C000F07A
:0A42DC00086A026AF5EC0EF0120009
:1042E600949894968B988B9694889486C79EC79C30
:0642F600380EC66E120036
:1042FC00969296909598959A959C959E849284907A
:10430C00839E839C839A839809EC00F009EC00F05F
:10431C0009EC00F0838A8388848219EC00F0849283
:10432C0009EC00F0848219EC00F0849209EC00F0A6
:10433C00848219EC00F0849209EC00F0839884825A
:10434C0019EC00F0849209EC00F0848219EC00F076
:10435C008492839A838E848219EC00F0849209EC07
:10436C0000F0839E8388848219EC00F084928398F9
:10437C00848219EC00F0849209EC00F0848219EC30
:10438C0000F084928388848219EC00F0849209EC0A
:10439C0000F08398848219EC00F08492838E838CD5
:1043AC00838A8388848219EC00F0849209EC00F0F3
:0643BC0001011281120054
:1043C2000900F5CFE6FF0006FBE10106F9E1120064
:1043D200FF0E0101316FFF0E326FFF0E336FFF0EC2
:1043E200346FFF0E356FFF0E366F000E376F000E03
:1043F200386FFF0E296FFF0E2A6F000E2B6F000E13
:104402002C6FFF0E2D6FFF0E2E6F000E2F6F000E02
:10441200306FAC8A900EAB6E948E949C9EAA03D0A1
:08442200AECF00F0FBD7120041
:10442A0053DDA00E566F3FDD47C156F13CDD49C151
:10443A0056F139DD6BDD1A0E0C6EF80E0D6E0D2E6F
:0A444A00FED70C2EFCD70000120074
:104454003EDDA00E566F2ADD47C156F127DD71DD22
:10446400A10E0101566F22DD0101566B54DD00C01F
:1044740049F1000E01014A6F4CDD49C100F04AC107
:0444840001F0120031
:10448800400E0101836F40EC00F0476B475107086D
:1044980012E3890E4725F66E4C0EF76E000EF722D2
:1044A800000EF86E000EF8220900F5CF82F170ECCC
:1044B80001F0472BEBD7476B4751070812E3810EF2
:1044C8004725F66E4C0EF76E000EF722000EF86EBA
:1044D800000EF8220900F5CF82F170EC01F0472BAD
:0C44E800EBD7020E836F40EC00F01200D6
:1044F4004EEC26F0D00EF26E190EAF6EAC8467DF70
:10450400140EC86EEEDE0E0EC16E0F0E936E210EEB
:10451400926EF2DE0C0E836F40EC00F0B3DF03EC1E
:1045240000F061EC05F000C00EF10050430A38E1E0
:10453400010E0101836F40EC00F0020E7D6F020E4C
:104544007E6F720E7F6F000E806F81EC0BF00B0E8E
:104554000B6E260E0C6E5D0E0D6E0D2EFED70C2E00
:10456400FCD70B2EFAD700000000476B486BFF0EF8
:10457400496F000E4A6F57DF010E0101476F000EAD
:10458400486FFF0E496F000E4A6F4DDF020E0101A6
:10459400476F000E486FFF0E496F000E4A6F43DFEE
:1045A4000101476B486B54DF00C00AF101C00BF1F5
:1045B400010E476F000E486F4BDF00C00CF101C0C5
:1045C4000DF1020E476F000E486F42DF00C00FF17D
:1045D40001C010F1000E0B1902E1FF0E0A1965E18A
:1045E400010E836F40EC00F0010E7D6F020E7E6FB2
:1045F400A30E7F6F000E806F81EC0BF0020E7D6FB7
:10460400020E7E6F840E7F6F000E806F81EC0BF0C4
:10461400150E0B6E4B0E0C6EBE0E0D6E0D2EFED7D0
:104624000C2EFCD70B2EFAD70000010E836F40EC42
:1046340000F0010E7D6F020E7E6F900E7F6F000EF4
:10464400806F81EC0BF0020E7D6F020E7E6F6A0E9E
:104654007F6F000E806F81EC0BF0030E7D6F020EF6
:104664007E6F2F0E7F6F000E806F81EC0BF0E90ED2
:10467400476F000E486F030E496F000E4A6F060E17
:104684004B6F000E4C6F05DDE90E0101476F000E04
:10469400486F13DD00C00AF101C00BF1476B486B92
:1046A40000C049F101C04AF1BEDE000E01010D193E
:1046B40002E1FF0E0C19D8A4A6D0000E101902E1D5
:1046C400FF0E0F19D8A49FD0010E836F40EC00F0A9
:1046D400010E7D6F020E7E6F150E7F6F000E806FD0
:1046E40081EC0BF0020E7D6F020E7E6F240E7F6F45
:1046F400000E806F81EC0BF0030E7D6F020E7E6F57
:104704004F0E7F6F000E806F81EC0BF0150E0B6E59
:104714004B0E0C6EBE0E0D6E0D2EFED70C2EFCD75E
:104724000B2EFAD70000010E836F40EC00F0010E4F
:104734007D6F020E7E6F5D0E7F6F000E806F81ECC9
:104744000BF0020E7D6F020E7E6F360E7F6F000E31
:10475400806F81EC0BF0E90E476F000E486F020E7C
:10476400496F000E4A6F060E4B6F000E4C6F91DCC2
:10477400E90E0101476F000E486F9FDC00C00CF189
:1047840001C00DF1030E7D6F020E7E6F3D0E7F6F33
:10479400000E806F81EC0BF0040E7D6F020E7E6FB5
:1047A400B30E7F6F000E806F81EC0BF0E90E476F44
:1047B400000E486F040E496F000E4A6F060E4B6FD1
:1047C400000E4C6F66DCE90E0101476F000E486F66
:1047D40074DC00C00FF101C010F1010E476F000E30
:1047E400486F0CC149F10DC14AF11DDE020E0101F1
:1047F400476F000E486F0FC149F110C14AF113DE33
:10480400010E0001CD6F0001CD532FE0010E010117
:10481400836F40EC00F0010E7D6F020E7E6FCE0EB2
:104824007F6F000E806F81EC0BF0020E7D6F020E25
:104834007E6FBA0E7F6F000E806F81EC0BF0030E5B
:104844007D6F020E7E6FC50E7F6F000E806F81EC50
:104854000BF0040E7D6F020E7E6FDB0E7F6F000E79
:10486400806F81EC0BF00001CD6B01010E512B0A1E
:1048740009E10A4B0B2B476B486B0AC149F10BC189
:104884004AF1D1DD01010E512D0A0BE1010E0A5F3F
:10489400000E0B5B476B486B0AC149F10BC14AF12F
:1048A400C2DD3F0E0101476F010E486F960E496F3E
:1048B4004C0E4A6F000E4B6F0AC14CF10BC14DF107
:1048C400A8EC1FF0020E7D6F0D0E7E6F3F0E7F6F02
:1048D400010E806F81EC0BF0826B70EC01F0430EE3
:1048E400826F70EC01F03F0E476F010E486F770E38
:1048F400496F4C0E4A6F000E4B6F0CC14CF10DC149
:104904004DF10FC14EF110C14FF1A8EC1FF0030E91
:104914007D6F0A0E7E6F3F0E7F6F010E806F81ECFC
:104924000BF0476B486BCDEC1FF000C03BF101C0AE
:104934003CF1010E476F000E486FCDEC1FF000C034
:104944003DF101C03EF1020E476F000E486FCDEC01
:104954001FF000C039F101C03AF13B0E476F010E60
:10496400486F3D0E496F010E4A6F390E4B6F010EB1
:104974004C6FE7EC1FF0130E476F010E486F680E83
:10498400496F4C0E4A6F000E4B6F39C14CF13AC15E
:104994004DF13DC14EF13EC14FF13BC150F13CC11F
:1049A40051F1A8EC1FF0040E7D6F0C0E7E6F130EF8
:1049B4007F6F010E806F81EC0BF0476B61DC00C0F0
:1049C40027F101C028F178DC000E046E000E056E9C
:1049D400200E066E810E076E15EC04F0000E046EB8
:1049E400000E056E000E066E890E076EC1EC0DF00A
:1049F400000E046E000E056E480E066E850E076EE0
:104A040015EC04F0CAEC20F000C011F13F0E0101D6
:104A1400476F010E486F910E496F4C0E4A6F000E9E
:104A24004B6F00C04CF1A8EC1FF0010E7D6F0F0E10
:104A34007E6F3F0E7F6F010E806F81EC0BF0826BF7
:104A440070EC01F0430E826F70EC01F0800E0B19D4
:104A5400006E800E005C02E111510A5D16E2800EC8
:104A64003A19006E800E0D19005C02E10C51395D9B
:104A74000CE3800E3E19006E800E1019005C02E1FA
:0E4A84000F513D5D02E318EC21F04BD5FFD73A
:104C9C0010EE15F0D40E006E010E016E920EF66E33
:0E4CAC004A0EF76E000EF86EE1EC21F01200D9
:0F4A9200434F4E4649475552414E444F204F0027
:0B4AA100484F524152494F20444F0043
:074AAC00522E3A205F5F006B
:074AB300522E3A205F5F0064
:104ABA005155414953204F53204D494E55544F5358
:024ACA003F00AB
:0E4ACC004D4F4E49544F52414D454E544F00F0
:0D4ADA005155414C204120484F52413F00B2
:084AE7004D4158494D413F00CB
:104AEF004D4F444F20434F4E464947555241434146
:024AFF004F0066
:0C4B010054454D5045524154555241005E
:104B0D005155414C20412054454D5045524154552D
:034B1D0052410002
:104B2000434F4E4649475552414E444F2041200085
:074B3000522E3A205F5F00E6
:0B4B370054454D502E204D41583A00CF
:084B4200482E204D4F4E3A00B1
:014B4A000169
:0D4B4B0054454D502E20415455414C3A0028
:0A4B5800482E20415455414C3A000C
:024B6200200031
:024B640000004F
:104B66000000007FCDCC4C7B0AD723786F120375EB
:104B760017B75171ACC5276EBD37066B95BF566723
:104B860077CC2B645F700961FFE65B5D08E53C3C12
:044B96006042221B3C
:104B9A000000007F000020820000488500007A881B
:104BAA0000401C8C0050438F002474928096189603
:104BBA0020BC3E99286B6E9CF90215A0EC782DC199
:044BCA00CAF249E200
:104BCE00010000000800000040000000000200008C
:104BDE000010000000800000000004000000200013
:104BEE00000000010000000800000040000000006E
:104BFE00010000000A00000064000000E80300004D
:104C0E0010270000A086010040420F0080969800F9
:084C1E0000E1F50500CA9A3B14
:104C2600010000001000000000010000001000005C
:104C3600000001000000100000000001000000104C
:104C460030313233343536373839414243444546BC
:014C5600005D
:104C570030313233343536373839616263646566EB
:014C6700004C
:0F4C6800253032643A253032643A253032640008
:0A4C7700253032643A253032640023
:084C8100010101010101010123
:084C890003030000000000001D
:054C9100253032640033
:054C960025303264002E
:020000040030CA
:0D000100021F1EFF8381FF0FC00FE00F40A4
:00000001FF
