:040000009BEF2FF053
:1000080000C022F001C021F002C020F003C01FF0A0
:1000180004C01EF005C01DF006C01CF007C01BF090
:1000280008C01AF009C019F00AC018F00BC017F080
:100038000CC016F00DC015F0E1CF27F0E2CF28F084
:10004800E9CF25F0EACF26F0F3CF23F0F4CF24F060
:10005800F2A203D09DEC2EF0F29223C0F3FF24C04D
:10006800F4FF22C000F021C001F020C002F01FC040
:1000780003F01EC004F01DC005F01CC006F01BC034
:1000880007F01AC008F019C009F018C00AF017C024
:100098000BF016C00CF015C00DF025C0E9FF26C006
:0C00A800EAFF27C0E1FF28C0E2FF1100C2
:0800B4000AAE029E000E1200CC
:1000BC000B820BAE68EF00F0036802680168006801
:0800CC000A360232FF0E120099
:0E00D400026A016A006A086A036A000E1200DE
:1000E2000B840BAE7CEF00F0010E036E026A016A14
:0A00F200006A0A360232FF0E120007
:1000FC000CB0C0EF00F00CA266EF01F00E6A000E1F
:10010C000264D7EF00F0F00E0214D8A4A2EF00F0B6
:10011C00023A01380F0B02260138F00B016E003841
:10012C000F0B01260038F00B006E08380F0B002661
:10013C000838F00B086E0E84D89002BEBBEF00F0AE
:10014C0008360036013602360E2A02BEBBEF00F02E
:10015C0008360036013602360E2A02BEBBEF00F01E
:10016C0008360036013602360E2A0E5003645CEF58
:10017C0001F0035E0BBC08AE61EF01F0D880800E7D
:10018C0008640030000E002201220222D8A061EF88
:10019C0001F0023201320032034A66EF01F061EFE6
:1001AC0001F001C002F000C001F008C000F0086AC4
:1001BC00000E0E8602640EEF01F0F00E0214D8A4AD
:1001CC00F6EF00F0023A01380F0B02260138F00B63
:1001DC00016E00380F0B01260038F00B006E0E84F8
:1001EC00D89002BEBBEF00F00036013602360E2A64
:1001FC0002BEBBEF00F00036013602360E2A02BEFC
:10020C00BBEF00F00036013602360E2ABBEF00F0D1
:10021C0001C002F000C001F0006A000E0E960E88BC
:10022C0002643BEF01F0F00E0214D8A426EF01F0AB
:10023C00023A01380F0B02260138F00B016E0E84C6
:10024C00D89002BEBBEF00F0013602360E2A02BE79
:10025C00BBEF00F0013602360E2A02BEBBEF00F0F7
:10026C00013602360E2ABBEF00F001C002F0016A23
:10027C00000E0E8602646BEF01F0F00E0214D8A48F
:10028C004AEF01F0023A0E84D89002BEBBEF00F0A8
:10029C0002360E2A02BEBBEF00F002360E2A02BE58
:1002AC00BBEF00F002360E2ABBEF00F0010E0C6E15
:1002BC0012DF6EEF01F0020E0C6EF6DE6EEF01F047
:1002CC00040E0C6EF5DE6EEF01F0080E0C6EFCDE0B
:0202DC0012000E
:0602DE0000000000120008
:1002E4000F0E0C6E470E0D6E0D2EFED70C2EFCD786
:0602F400000000001200F2
:0A02FA00210E0D6E0D2EFED712002E
:10030400025006180E6E086A096A0B6A03500764E5
:1003140075EF02F006500A6E068E028E03500B6EC5
:100324000750036E000E0B64C5EF01F00B50075E1F
:10033400D8B466EF02F0070E076434EF02F0075EEC
:1003440000C008F001C000F002C001F0026A074ECC
:1003540066EF02F0076409EF02F0075E00C008F0E0
:1003640001C000F0016A074E66EF02F00764E7EF90
:1003740001F0075E00C008F0006A074E66EF02F065
:100384000764CEEF01F00AC002F005C001F004C01A
:1003940000F0086A8FEF03F0030E0764D9EF01F051
:1003A400075E08380F0B086E074E66EF02F0D89010
:1003B4000832074E66EF02F0D8900832074E66EF17
:1003C40002F0D890083266EF02F0030E0764F8EFEB
:1003D40001F0075E08380F0B086E0038F00B082692
:1003E40000380F0B006E074E66EF02F0D890003213
:1003F4000832074E66EF02F0D89000320832074EFA
:1004040066EF02F0D8900032083266EF02F0030E75
:10041400076420EF02F0075E08380F0B086E0038FF
:10042400F00B082600380F0B006E0138F00B002685
:1004340001380F0B016E074E66EF02F0D8900132BF
:1004440000320832074E66EF02F0D89001320032D3
:100454000832074E66EF02F0D890013200320832BB
:1004640066EF02F0030E076451EF02F0075E0838EE
:100474000F0B086E0038F00B082600380F0B006EC7
:100484000138F00B002601380F0B016E0238F00B17
:10049400012602380F0B026E074E66EF02F0D89069
:1004A4000232013200320832074E66EF02F0D89071
:1004B4000232013200320832074E66EF02F0D89061
:1004C4000232013200320832096A000E0EAE5AEFCF
:1004D40003F0081E001E011E021E082A002201222B
:1004E40002225AEF03F00750D8A47BEF02F08FEFFB
:1004F40003F0096A02C00AF0028E068E0750035CFC
:10050400076ED8B44DEF03F0070E07641BEF03F03A
:10051400075E0450096E0550046E0650056E066AA7
:10052400074E4DEF03F0070E0764F0EF02F0075E8D
:100534000450096E0550046E056A074E4DEF03F032
:10054400070E0764CEEF02F0075E0450096E046ADA
:10055400074E4DEF03F0070E0764B5EF02F00AC033
:1005640002F08FEF03F0030E0764C0EF02F0075EA2
:1005740009380F0B096E074E4DEF03F0D89009327E
:10058400074E4DEF03F0D8900932074E4DEF03F0BC
:10059400D89009324DEF03F0030E0764DFEF02F049
:1005A400075E09380F0B096E0438F00B092604386E
:1005B4000F0B046E074E4DEF03F0D890043209324E
:1005C400074E4DEF03F0D89004320932074E4DEF39
:1005D40003F0D890043209324DEF03F0030E0764A0
:1005E40007EF03F0075E09380F0B096E0438F00BB0
:1005F400092604380F0B046E0538F00B0426053861
:100604000F0B056E074E4DEF03F0D8900532043200
:100614000932074E4DEF03F0D89005320432093207
:10062400074E4DEF03F0D8900532043209324DEFF6
:1006340003F0030E076438EF03F0075E09380F0B6D
:10064400096E0438F00B092604380F0B046E0538C4
:10065400F00B042605380F0B056E0638F00B052643
:1006640006380F0B066E074E4DEF03F0D890063296
:10067400053204320932074E4DEF03F0D8900632AA
:10068400053204320932074E4DEF03F0D89006329A
:10069400053204320932086A000E0EAE5AEF03F036
:1006A400091E041E051E061E092A0422052206220E
:1006B4000950082604500022055001220650022247
:1006C4000EBE71EF03F0D8A080EF03F002320132C6
:1006D40000320832033E80EF03F08AEF03F0D8B013
:1006E40085EF03F0000E081E001E011E021E082ADC
:1006F4000022012202220A7E85EF03F0010E0C6E15
:10070400FBDC91EF03F0020E0C6EF6DC91EF03F0CC
:10071400040E0C6ED1DC91EF03F0000E0C6E12008F
:100724000134083609360450085E0550D8A0053C4B
:10073400095E003601360F0E0C6E01340836093698
:10074400045000A006D0085E0550D8A0053C095E00
:1007540005D008260550D8B0053C092600360136D8
:100764000C2EEBD700B006D0045008260550D8B0A4
:08077400053C092600001200FB
:10077C000B800BAECAEF03F0026A0AAEFF0E026EDC
:0C078C00016E006E0A360232FF0E1200F1
:080798000B6A0B86FF0E120034
:1007A00082C1CDF083C1CEF0000E0001CF6FD06FBB
:0607B000010ECC6F1200E7
:0C07B6000001B25101018215006E12001A
:1007C200220E0C6E086A096A0A6A0B6A0C06D8B411
:1007D2001FD0D8900B320A32093208320332023269
:1007E20001320032D8A0F2D70C06D8B409D0045096
:1007F20008260550092206500A2207500B22EAD782
:10080200045008260550092206500A2207500B22DE
:020812001200D2
:10081400086A096A000E076203648FEF04F002504D
:1008240006180A6E075003267E0ED8A020EF04F0A7
:10083400035ED8B094EF04F024EF04F0035ED8A074
:1008440099EF04F0028E068E02C00EF001C00BF088
:1008540000C00DF000500402F4CF0CF0015005026A
:10086400F4CF00F0F3CF08F00402F3500C26F45058
:100874000822000E00220D500502F3500C26F450FD
:100884000822000E002202500402F3500826F450FD
:10089400002202500502016A000E0122F3500026D4
:1008A400F45001220D500602F3500826F4500022A1
:1008B400026A000E012202220B500602F3500026A7
:1008C400F4500122000E02220E500602F3500126BB
:1008D400F450022202BE77EF04F0083600360136E7
:1008E40002360306D8B499EF04F08AEF04F0D880F6
:1008F400800E08640030000E002201220222D8A0DB
:100904008AEF04F0023201320032034A94EF04F019
:100914000AAE029E000E9CEF04F0010E6AEC00F099
:100924009CEF04F0020E5EEC00F09CEF04F0040E69
:0609340071EC00F012005E
:10093A000D6A086A0050D8B4000C04180A6E0ABE80
:10094A000D1E0B6A04AE02D0041E042A00A002D0B7
:10095A00001E002A005004100A6E0ABE1FD004505E
:10096A00085E003600340836045008260036060EA3
:10097A000C6E00340836045000B0085E00A0082649
:10098A0000360C2EF6D700A008260BB015D00DAEF7
:10099A00000C001E002A081E082A000C04AE09D00A
:1009AA0000BE04D00050086E006AF1D7006A002A1F
:1009BA00000C001E0B2AD3D7082A0450085CD8A4BE
:0E09CA00E6D7086A002A00AEE2D7FF0C120042
:1009D800086A080E0C6E003408360450085ED8B059
:0E09E80002D00826D89000360C2EF5D712004B
:0609F600067E85DC120004
:1009FC000B6A0A6A096A086A0E6A033408360450DC
:100A0C00085E0550D8A0053C095E0650D8A0063CEF
:100A1C000A5E0750D8A0073C0B5EE86AD8A0010E0E
:100A2C000E5E0336070E0C6E0334083609360A3692
:100A3C000B360E36045003A012D0085E0550D8A019
:100A4C00053C095E0650D8A0063C0A5E0750D8A0AB
:100A5C00073C0B5EE86AD8A0010E0E5E11D008268A
:100A6C000550D8B0053C09260650D8B0063C0A26DD
:100A7C000750D8B0073C0B26E86AD8B0010E0E26FA
:100A8C0003360C2ED1D70234083609360A360B360B
:100A9C000E36045003A012D0085E0550D8A0053CB9
:100AAC00095E0650D8A0063C0A5E0750D8A0073C49
:100ABC000B5EE86AD8A0010E0E5E11D00826055018
:100ACC00D8B0053C09260650D8B0063C0A2607507B
:100ADC00D8B0073C0B26E86AD8B0010E0E260236B9
:100AEC00070E0C6E0234083609360A360B360E36F3
:100AFC00045002A012D0085E0550D8A0053C095E37
:100B0C000650D8A0063C0A5E0750D8A0073C0B5EE6
:100B1C00E86AD8A0010E0E5E11D008260550D8B098
:100B2C00053C09260650D8B0063C0A260750D8B01A
:100B3C00073C0B26E86AD8B0010E0E2602360C2EA6
:100B4C00D1D70134083609360A360B360E36045026
:100B5C0002A012D0085E0550D8A0053C095E0650D4
:100B6C00D8A0063C0A5E0750D8A0073C0B5EE86A8A
:100B7C00D8A0010E0E5E11D008260550D8B0053C49
:100B8C0009260650D8B0063C0A260750D8B0073CB8
:100B9C000B26E86AD8B0010E0E260136070E0C6E35
:100BAC000134083609360A360B360E36045001A0CD
:100BBC0012D0085E0550D8A0053C095E0650D8A09E
:100BCC00063C0A5E0750D8A0073C0B5EE86AD8A02A
:100BDC00010E0E5E11D008260550D8B0053C092632
:100BEC000650D8B0063C0A260750D8B0073C0B2656
:100BFC00E86AD8B0010E0E2601360C2ED1D700347F
:100C0C00083609360A360B360E36045001A012D0BF
:100C1C00085E0550D8A0053C095E0650D8A0063CDD
:100C2C000A5E0750D8A0073C0B5EE86AD8A0010EFC
:100C3C000E5E11D008260550D8B0053C092606508A
:100C4C00D8B0063C0A260750D8B0073C0B26E86AF9
:100C5C00D8B0010E0E260036070E0C6E0034083686
:100C6C0009360A360B360E36045000A012D0085E38
:100C7C000550D8A0053C095E0650D8A0063C0A5E7B
:100C8C000750D8A0073C0B5EE86AD8A0010E0E5E98
:100C9C0011D008260550D8B0053C09260650D8B00E
:100CAC00063C0A260750D8B0073C0B26E86AD8B099
:100CBC00010E0E2600360C2ED1D700B00ED00450EB
:100CCC0008260550D8B0053C09260650D8B0063C7D
:0C0CDC000A260750D8B0073C0B26120077
:100CE8006E0E0101775DD8A0C3D0640E046E77C183
:100CF80000F06EDE120E0024056E066A000E062253
:100D080005C000F006C001F0000E06BEFF0E026E20
:100D1800036E003600900136023603360036009026
:100D28000136023603364A0E0024F66E610E0120A3
:100D3800F76E000E0220F86E0900F5CF00F00900EA
:100D4800F5CF01F00900F5CF02F00900F5CF03F067
:100D5800000E046E000E056E000E066E7E0E076E07
:100D680055DD00C078F101C079F102C07AF103C005
:100D78007BF1640E046E77C100F02ADE08C000F033
:100D88000A0E046E25DE090E0024056E066A000EA2
:100D9800062205C000F006C001F0000E06BEFF0ED8
:100DA800026E036E003600900136023603360036B6
:100DB80000900136023603364A0E0024F66E610EA4
:100DC8000120F76E000E0220F86E0900F5CF00F042
:100DD8000900F5CF01F00900F5CF02F00900F5CFC1
:100DE80003F078C104F079C105F07AC106F07BC13F
:100DF80007F00CDD00C078F101C079F102C07AF18A
:100E080003C07BF10A0E046E77C100F0E1DD08C073
:100E180000F000C001F0000E026E036E046E013691
:100E28000190023603360436013601900236033645
:100E380004364A0E0124F66E610E0220F76E000E8B
:100E48000320F86E0900F5CF00F00900F5CF01F096
:100E58000900F5CF02F00900F5CF03F078C104F0DE
:100E680079C105F07AC106F07BC107F0CFDC12002A
:100E780077510A087AE20A0E046E77C100F0A8DDFD
:100E8800090E0024056E066A000E062205C000F051
:100E980006C001F0000E06BEFF0E026E036E00369D
:100EA80000900136023603360036009001360236CD
:100EB80003364A0E0024F66E610E0120F76E000E0E
:100EC8000220F86E0900F5CF00F00900F5CF01F017
:100ED8000900F5CF02F00900F5CF03F0000E046E0B
:100EE800000E056E000E066E7E0E076E8FDC00C0CB
:100EF80078F101C079F102C07AF103C07BF10A0EE2
:100F0800046E77C100F064DD08C000F000C001F095
:100F1800000E026E036E046E01360190023603362F
:100F28000436013601900236033604364A0E01248F
:100F3800F66E610E0220F76E000E0320F86E0900AF
:100F4800F5CF00F00900F5CF01F00900F5CF02F068
:100F58000900F5CF03F078C104F079C105F07AC132
:100F680006F07BC107F052DC120077C100F0000EDA
:100F7800016E026E036E00360090013602360336AB
:100F8800003600900136023603364A0E0024F66E0B
:100F9800610E0120F76E000E0220F86E0900F5CFF1
:100FA80000F00900F5CF01F00900F5CF02F00900C3
:100FB800F5CF03F0000E046E000E056E000E066EEF
:080FC8007E0E076E23DC12000F
:100FD0000050086E0150006E0250016E0350026E08
:100FE000036A0B6A0C6A9E0E036E0A6A020E0C6E8E
:060FF0007EEC00F012008F
:100FF6000A6A0350D8A40A800750D8A40A820A5065
:10100600D8B45EEF08F0030AD8B417EF08F00AB0B8
:1010160012EF08F006AE5CEF08F05AEF08F002AEE9
:101026005AEF08F05CEF08F00250800B0A6E029E41
:101036000650800B069E0A18D8B428EF08F00A500E
:10104600D8B45AEF08F05CEF08F00750035CD8B448
:1010560032EF08F0D8A04EEF08F054EF08F0065033
:10106600025CD8B43CEF08F0D8A04EEF08F054EF7D
:1010760008F00550015CD8B446EF08F0D8A04EEF52
:1010860008F054EF08F00450005CD8B45EEF08F0A6
:10109600D8B054EF08F00A52D8B45CEF08F05AEF13
:1010A60008F00A52D8B45AEF08F05CEF08F0D8807E
:0E10B6001200D8901200D880D88412001200C8
:1010C4000450000A12E10550000A0FE10650000A1C
:1010D4000CE10750000A09E1FF0E006EFF0E016EDD
:1010E4007F0E026EFF0E036E1200086A096A075033
:1010F400D8B40DEF09F00350D8B412EF09F0025040
:1011040006180A6E028E068E0E6A02C008F001C02E
:101114000CF000C00DF004500D5E0550D8A0053C45
:101124000C5E0650D8A0063C085E086A0C6A0D6A7C
:10113400D8A0A4EF08F0D89002320132003208326D
:10114400010E0E6E0750035ED8A0B1EF08F07E0EBC
:101154000E240326D8B017EF09F0B7EF08F07E0E7F
:101164000E240326D8A01CEF09F0180E0B6E0D36C2
:101174000C3608360036013602360E360450005E50
:101184000550D8A0053C015E0650D8A0063C025E7E
:1011940006340E120EA0D2EF08F00D80DDEF08F039
:1011A400045000260550D8B0053C01260650D8B09E
:1011B400062802260D900B2EB9EF08F003EF09F074
:1011C400D8900036013602360E360450005E0550C3
:1011D400D8A0053C015E0650D8A0063C025E063449
:1011E4000E10010B0D26D8B00C2AD8B4082AD8A4A6
:1011F40003EF09F008320C320D32032AD8B417EF8A
:1012040009F00AAE089E0850026E0C50016E0D5093
:10121400006E1FEF09F0010ECCEC03F01FEF09F094
:10122400020E6AEC00F01FEF09F0040E5EEC00F011
:0C1234001FEF09F0080E71EC00F0120032
:101240000B6A0C6A0A6A086A0350D8B4A8EF09F05E
:10125000028E9E0E035E03BE33EF09F0D8B433EF67
:1012600009F098EF09F0036C080E035CD8A065EF55
:1012700009F0036E083600C008F001C000F002C09B
:1012800001F0026A080E035CD8A065EF09F0036E56
:10129000083600C008F001C000F0016A080E035CC7
:1012A000D8A065EF09F0036E083600C008F0006AA8
:1012B000080E035CD8A065EF09F0036E0836086AD3
:1012C0000350D8A4D89071EF09F00350D8B471EF4F
:1012D00009F0D8900232013200320832032E69EF51
:1012E00009F00BBC08A082EF09F0D8A082EF09F04A
:1012F000082AD8B4002AD8B4012AD8B4022A02BED7
:10130000ACEF09F00AAEA8EF09F0021E011E001EA4
:10131000081E082AD8B4002AD8B4012AD8B4022A50
:10132000A8EF09F0026A016A006A086AA8EF09F0EA
:101330000B800BAEB2EF09F0026A0AAEB2EF09F011
:10134000026E016E006E086E0A360232B2EF09F0CC
:10135000000E0C6AB3EF09F0010E0C6EBEEC03F048
:10136000B3EF09F0FF0E0250036E0150026E005001
:08137000016E0850006E12002E
:1013780081C182F1DBEC03F00050020A03E1010EA7
:08138800006E1200006A120061
:0C1390000001A15101018115006E120046
:10139C000001CC5307E1010E0101826F000E836F37
:1013AC00D0EC03F0CDC000F0CEC001F0CFC002F005
:1013BC00D0C003F06D0E046E4E0E056EC60E066E9A
:1013CC00410E076EE1EC03F0390E0024056E300E71
:1013DC000120066E000E0220076E000E0320086E20
:1013EC0007C000F008C001F0000E08BEFF0E036E2F
:1013FC00FF0E00167F0E0116000E0216031600C01B
:10140C00CDF001C0CEF002C0CFF003C0D0F012007E
:10141C00010E01018115016E0150010A03E1010E5B
:08142C00006E1200006A1200BC
:101434000B6A0C6A086A0350D8B49EEF0AF002C023
:101444000AF0028E9E0E035E03AE8EEF0AF0036C6A
:10145400080E035CD8A05BEF0AF0036E083600C0E8
:1014640008F001C000F002C001F0026A080E035C3B
:10147400D8A05BEF0AF0036E083600C008F001C084
:1014840000F0016A080E035CD8A05BEF0AF0036E5B
:10149400083600C008F0006A080E035CD8A05BEFB1
:1014A4000AF0036E0836086A0350D8A4D89067EF90
:1014B4000AF00350D8B467EF0AF0D8900232013230
:1014C40000320832032E5FEF0AF00BBC08A078EF5D
:1014D4000AF0D8A078EF0AF0082AD8B4002AD8B4C1
:1014E400012AD8B4022A02BEA2EF0AF00AAE9EEF85
:1014F4000AF0021E011E001E081E082AD8B4002A83
:10150400D8B4012AD8B4022A9EEF0AF0026A016A0A
:10151400006A086A9EEF0AF00B800BAEA9EF0AF08E
:10152400026A0AAEA9EF0AF0026E016E006E086E3E
:101534000A360232A9EF0AF00C6A000EAAEF0AF08A
:10154400010E0C6E000EBEEC03F0AAEF0AF0FF0EC3
:101554000250036E0150026E0050016E0850006E7E
:02156400120073
:0C1566000001B65101018115006E120059
:10157200030E01018115016E0150030A03E1010E00
:08158200006E1200006A120065
:10158A0001017751390806E3300E775D03E3010E56
:08159A00006E01D0006A12008E
:1015A2000450000A6CE10550000A69E1FF0E006E6A
:1015B2007F0E016E12000D6A096A086A015000105E
:1015C200D8B4000C015005180A6E0ABE0D1E0B6A33
:1015D20005AE05D0041E051E042AD8B4052A01AEA4
:1015E20005D0001E011E002AD8B4012A01500510A0
:1015F2000A6E0ABE10D092EC03F00BB020D00DAEF2
:10160200000C001E011E002AD8B4012A081E091E61
:10161200082AD8B4092A000C05AE0DD001BE07D0A5
:101622000150096E0050086E016A006AE8D7016A2B
:10163200006A002A000C011E001E0B2ADDD7082AB0
:10164200D8B4092A0450085CD8A4D9D70550095C3B
:10165200D8A4D5D7096A086A002AD8B4012A01AEEB
:10166200CED70000FF0C12000450000A08E105501A
:10167200000A05E1FF0E006E7F0E016E12000D6A78
:10168200096A086A01500010D8B4000C015005180C
:101692000A6E0ABE0D1E0B6A05AE05D0041E051E9B
:1016A200042AD8B4052A01AE05D0001E011E002A64
:1016B200D8B4012A015005100A6E0ABE10D092EC6D
:1016C20003F00BB020D00DAE000C001E011E002A4C
:1016D200D8B4012A081E091E082AD8B4092A000C07
:1016E20005AE0DD001BE07D00150096E0050086E44
:1016F200016A006AE8D7016A006A002A000C011E2A
:10170200001E0B2ADDD7082AD8B4092A0450085C27
:10171200D8A4D9D70550095CD8A4D5D7096A086AD4
:10172200002AD8B4012A01AECED70000FF0C120065
:0A173200020E01018111006E120089
:10173C00010177BF02D0839E01D0838E77BD02D08A
:10174C00839C01D0838C77BB02D0839A01D0838A8F
:10175C0077B902D0839801D083880001D9B102D027
:10176C00848001D0849084826FEC01F0849201011A
:10177C0077B702D0839E01D0838E77B502D0839C3D
:10178C0001D0838C77B302D0839A01D0838A77B14E
:10179C0002D0839801D083880001D9B102D0848013
:1017AC0001D0849084826FEC01F08492D9A103D093
:0C17BC0072EC01F002D07DEC01F0120094
:1017C80003500718D8A4F8EF0BF002500618D8A455
:1017D800F8EF0BF001500518D8A4F8EF0BF0005003
:0E17E8000418D8B4D8841200D894120012004D
:1017F600800E01017719006E800E000A005CD8B0D9
:101806006DD177510008016E01C077F1800E011885
:10181600006E800E6E0A005CD8A0C0D0640E046E06
:1018260077C100F09DEC04F0120E0024056E000E48
:1018360000BEFF0E066E000E062205C000F006C0B2
:1018460001F0000E06BEFF0E026E036E003600901B
:10185600013602360336003600900136023603366C
:101866004A0E0024F66E610E0120F76E000E02206D
:10187600F86E0900F5CF78F10900F5CF79F1090086
:10188600F5CF7AF10900F5CF7BF1640E046E77C1CE
:1018960000F09DEC04F008C000F00A0E046E9DEC0A
:1018A60004F0090E0024056E000E00BEFF0E066E43
:1018B600000E062205C000F006C001F0000E06BEAE
:1018C600FF0E026E036E00360090013602360336B6
:1018D600003600900136023603364A0E0024F66EB4
:1018E600610E0120F76E000E0220F86E0900F5CF9A
:1018F60000F00900F5CF01F00900F5CF02F009006C
:10190600F5CF03F078C104F079C105F07AC106F08D
:101916007BC107F00AEC04F000C078F101C079F150
:1019260002C07AF103C07BF10A0E046E77C100F0A3
:101936009DEC04F008C000F000C001F0000E00BEEF
:10194600FF0E026E036E046E0136019002360336F8
:101956000436013601900236033604364A0E012457
:10196600F66E610E0220F76E000E0320F86E090077
:10197600F5CF00F00900F5CF01F00900F5CF02F030
:101986000900F5CF03F078C104F079C105F07AC1FA
:1019960006F07BC107F00AEC04F01200800E0A0A7A
:1019A600006E800E7719005C71E20A0E046E77C134
:1019B60000F09DEC04F0090E0024056E000E00BE3A
:1019C600FF0E066E000E062205C000F006C001F0EE
:1019D600000E06BEFF0E026E036E00360090013644
:1019E60002360336003600900136023603364A0EBA
:1019F6000024F66E610E0120F76E000E0220F86ECE
:101A06000900F5CF78F10900F5CF79F10900F5CF96
:101A16007AF10900F5CF7BF10A0E046E77C100F06A
:101A26009DEC04F008C000F000C001F0000E00BEFE
:101A3600FF0E026E036E046E013601900236033607
:101A46000436013601900236033604364A0E012466
:101A5600F66E610E0220F76E000E0320F86E090086
:101A6600F5CF00F00900F5CF01F00900F5CF02F03F
:101A76000900F5CF03F078C104F079C105F07AC109
:101A860006F07BC107F00AEC04F0120077C100F003
:101A9600000E77BFFF0E016E026E036E00360090D9
:101AA600013602360336003600900136023603361A
:101AB6004A0E0024F66E610E0120F76E000E02201B
:101AC600F86E0900F5CF00F00900F5CF01F0090026
:101AD600F5CF02F00900F5CF03F01200800E77195A
:101AE600006E800E6E0A005CD8A0C0D0640E046E34
:101AF60077C100F09DEC04F0120E0024056E000E76
:101B060000BEFF0E066E000E062205C000F006C0DF
:101B160001F0000E06BEFF0E026E036E0036009048
:101B26000136023603360036009001360236033699
:101B36007E0E0024F66E610E0120F76E000E022066
:101B4600F86E0900F5CF78F10900F5CF79F10900B3
:101B5600F5CF7AF10900F5CF7BF1640E046E77C1FB
:101B660000F09DEC04F008C000F00A0E046E9DEC37
:101B760004F0090E0024056E000E00BEFF0E066E70
:101B8600000E062205C000F006C001F0000E06BEDB
:101B9600FF0E026E036E00360090013602360336E3
:101BA600003600900136023603367E0E0024F66EAD
:101BB600610E0120F76E000E0220F86E0900F5CFC7
:101BC60000F00900F5CF01F00900F5CF02F0090099
:101BD600F5CF03F078C104F079C105F07AC106F0BB
:101BE6007BC107F00AEC04F000C078F101C079F17E
:101BF60002C07AF103C07BF10A0E046E77C100F0D1
:101C06009DEC04F008C000F000C001F0000E00BE1C
:101C1600FF0E026E036E046E013601900236033625
:101C26000436013601900236033604367E0E012450
:101C3600F66E610E0220F76E000E0320F86E0900A4
:101C4600F5CF00F00900F5CF01F00900F5CF02F05D
:101C56000900F5CF03F078C104F079C105F07AC127
:101C660006F07BC107F00AEC04F01200800E0A0AA7
:101C7600006E800E7719005C71E20A0E046E77C161
:101C860000F09DEC04F0090E0024056E000E00BE67
:101C9600FF0E066E000E062205C000F006C001F01B
:101CA600000E06BEFF0E026E036E00360090013671
:101CB60002360336003600900136023603367E0EB3
:101CC6000024F66E610E0120F76E000E0220F86EFB
:101CD6000900F5CF78F10900F5CF79F10900F5CFC4
:101CE6007AF10900F5CF7BF10A0E046E77C100F098
:101CF6009DEC04F008C000F000C001F0000E00BE2C
:101D0600FF0E026E036E046E013601900236033634
:101D16000436013601900236033604367E0E01245F
:101D2600F66E610E0220F76E000E0320F86E0900B3
:101D3600F5CF00F00900F5CF01F00900F5CF02F06C
:101D46000900F5CF03F078C104F079C105F07AC136
:101D560006F07BC107F00AEC04F0120077C100F030
:101D6600000E77BFFF0E016E026E036E0036009006
:101D76000136023603360036009001360236033647
:101D86007E0E0024F66E610E0120F76E000E022014
:101D9600F86E0900F5CF00F00900F5CF01F0090053
:0C1DA600F5CF02F00900F5CF03F01200A9
:101DB2000B6A0A6A096A00500402F4CF09F0F3CFF1
:101DC20008F001500502F4CF0BF0F3CF0AF00050F7
:101DD2000502F3500926F4500A22E86A0B22015048
:101DE2000402F3500926F4500A22E86A0B2208C0C2
:101DF20000F009C001F00AC002F00BC003F01200AB
:0E1E02000001D99150C177F198DCD98112000E
:0C1E10000001B65101015015006E1200D7
:0A1E1C00FD0E01017F15006E12009B
:101E26000001C551861923E1E4C000F0E5C001F0C8
:101E3600140E046E000E056EB9DFE70E0026000EC6
:101E46000122E2510024026EE3510120036E02C01A
:101E5600E9FF03C0EAFFF30EEE14006E3C500012D9
:101E660002C0E1FF03C0E2FF00C0E6FF6ED0C5512D
:101E76009C1923E1E4C000F0E5C001F0140E046EE5
:101E8600000E056E93DFE70E0026000E0122E251DA
:101E96000024026EE3510120036E02C0E9FF03C075
:101EA600EAFFF30EEE14006E8F51001202C0E1FF3E
:101EB60003C0E2FF00C0E6FF48D0C5513C1823E14D
:101EC600E4C000F0E5C001F0140E046E000E056ECD
:101ED6006DDFE70E0026000E0122E2510024026E9D
:101EE600E3510120036E02C0E9FF03C0EAFFF30ECF
:101EF600EE14006E9C51001202C0E1FF03C0E2FF27
:101F060000C0E6FF22D0E4C000F0E5C001F0140EE8
:101F1600046E000E056E4ADFE70E0026000E012253
:101F2600E2510024026EE3510120036E02C0E9FF74
:101F360003C0EAFFF30EEE14006E8651001202C0D3
:0C1F4600E1FF03C0E2FF00C0E6FF120054
:101F5200E4C0C6F0E5C0C7F0E2C0C8F0E3C0C9F013
:101F6200E4C000F0E5C001F0140E046E000E056E30
:101F72001FDFE70E0026000E01220001E2510024BD
:101F8200E96EE3510120EA6EEECF81F1C8EC09F06F
:101F920000C0C5F00050000186190EE1C84BC92BE4
:101FA200800EC919006E800E005C02E1140EC85D3D
:101FB20002E3C86BC96B37D0C5519C1912E1010EFF
:101FC200C85F000EC95B800EC919006E800E005CEE
:101FD20002E1000EC85D04E2130EC86F000EC96F65
:101FE20022D0C5513C180EE1C64BC72B800EC71933
:101FF200006E800E005C02E1040EC65D02E3C66B59
:10200200C76B11D0010EC65F000EC75B800EC719E9
:10201200006E800E005C02E1000EC65D04E2030E5B
:08202200C66F000EC76F12002B
:10202A007FC101F0013601900136019054503210FF
:10203A00006E0001C351001600500110C36F120058
:0E204A00ACB202D00000FCD750C1ADFF1200B6
:0C2058000001B25101015015006E120091
:10206400CEEC09F0040E046E000E056ED1EC0AF0FD
:1020740008C000F009C001F000C0E4F001C0E5F0C0
:10208400CEEC09F0140E046E000E056ED1EC0AF0CD
:1020940008C000F009C001F000C0E2F001C0E3F0A4
:1020A400E4C000F0E5C001F0140E046E000E056EED
:1020B4007EDEE70E0026000E01220001E25100241C
:1020C400E96EE3510120EA6EEECF81F1BCEC09F038
:1020D400005217E0E4C000F0E5C001F0140E046EF5
:1020E400000E056E64DEE70E0026000E01220001DC
:1020F400E2510024E16EE3510120E26E010EE66E2E
:0621040001D0AED712006D
:10210A007FC100F00032009E0032009E0032009E25
:06211A000032009E1200DD
:102120007FC181F1B3EC0AF00050000A03E1010E17
:08213000006E1200006A1200AB
:10213800C3C000F00032009E0032009E1200C3C0EF
:0C21480000F00032009E0032009E1200E9
:1021540001016F6B706B5C6B5D6B52C100F053C11E
:1021640001F054C102F0010E5227000E53235423F0
:1021740000C0F6FF01C0F7FF02C0F8FF0900F5CF69
:1021840000F000C059F10052D8B4BCEF20F059510E
:10219400250A0BE050C1E1FF51C1E2FF59C1E6FF3E
:1021A400504B512B6F4B702BD8D75A6B5B6B5C6BBE
:1021B4005D6B23D05C87010E5227000E53235423FA
:1021C40059D05C81010E5227000E5323542352D060
:1021D4005C83010E5227000E532354234BD05D879A
:1021E400010E5227000E5323542344D05C85010E64
:1021F4005227000E532354233DD052C1F6FF53C13E
:10220400F7FF54C1F8FF0900F5CF01F001502D0A82
:10221400D1E052C1F6FF53C1F7FF54C1F8FF0900E2
:10222400F5CF01F00150200ACCE052C1F6FF53C1B2
:10223400F7FF54C1F8FF0900F5CF01F001502B0A54
:10224400C7E052C1F6FF53C1F7FF54C1F8FF0900BC
:10225400F5CF01F00150230AC2E052C1F6FF53C189
:10226400F7FF54C1F8FF0900F5CF01F00150300A1F
:10227400BDE001D09ED75CA301D05C915CA701D0E6
:102284005C9552C1F6FF53C1F7FF54C1F8FF090032
:10229400F5CF00F0000E016E00C077F1C5EC0AF036
:1022A400005235E05A6B5B6B5AC100F05BC101F020
:1022B4000A0E046E000E056E7ADD52C1F6FF53C19C
:1022C400F7FF54C1F8FF0900F5CF02F002500024D3
:1022D4005A6F000E01205B6F300E5A5F000E5B5B7D
:1022E400010E5227000E5323542352C1F6FF53C14B
:1022F400F7FF54C1F8FF0900F5CF00F0000E016E9E
:1023040000C077F1C5EC0AF00052CEE133D052C1DF
:10231400F6FF53C1F7FF54C1F8FF0900F5CF01F0F0
:1023240001502A0A27E155C1E9FF56C1EAFFEECF61
:1023340000F0EECF01F000C0E9FF01C0EAFFEECFEC
:102344005AF1EECF5BF155C1E9FF56C1EAFF020E27
:10235400EE24006E000EEE20016E55C1E1FF56C161
:10236400E2FF00C0E6FF01C0E6FF010E5227000EA7
:102374005323542352C1F6FF53C1F7FF54C1F8FF4E
:102384000900F5CF01F001502E0A6FE1010E52272A
:10239400000E5323542352C1F6FF53C1F7FF54C117
:1023A400F8FF0900F5CF01F001502A0A28E155C1D0
:1023B400E9FF56C1EAFFEECF00F0EECF01F000C016
:1023C400E9FF01C0EAFFEECF57F1EECF58F155C156
:1023D400E9FF56C1EAFF020EEE24006E000EEE2065
:1023E400016E55C1E1FF56C1E2FF00C0E6FF01C026
:1023F400E6FF010E5227000E5323542335D0576BAA
:10240400586B52C1F6FF53C1F7FF54C1F8FF0900DE
:10241400F5CF00F0000E016E00C077F1C5EC0AF0B4
:10242400005222E057C100F058C101F00A0E046EB8
:10243400000E056EBCDC52C1F6FF53C1F7FF54C158
:10244400F8FF0900F5CF02F002500024576F000E88
:102454000120586F300E575F000E585B010E522753
:10246400000E53235423CDD703D0576B586B5D898B
:1024740052C100F053C101F054C102F0010E5227C1
:10248400000E5323542300C0F6FF01C0F7FF02C01F
:10249400F8FF0900F5CF59F105D16FC100F070C103
:1024A40001F012005C89E4D75D8537D15C8B5D81D6
:1024B40034D15D8332D15C8D30D12FD15C8B5C8F74
:1024C4002CD155C1E9FF56C1EAFFEECF00F0EECFA3
:1024D40001F000C0E9FF01C0EAFFEECF64F1EECFE6
:1024E40065F155C1E9FF56C1EAFF020EEE24006E04
:1024F400000EEE20016E55C1E1FF56C1E2FF00C09F
:10250400E6FF01C0E6FF000E651902E1000E641942
:1025140011E1280E686F6E0E696F750E6A6F6C0E8E
:102524006B6F6C0E6C6F290E6D6F6E6B680E646F43
:10253400010E656F666B676B66516425E96E6751C2
:102544006521EA6EEE520BE0010E6625006E000E68
:102554006721016E00C066F101C067F1EDD75751E4
:1025640058110AE06751585D02E16651575D04E273
:1025740057C166F158C167F15B51675D02E15A5179
:10258400665D05E266515A5F67515B5B02D05A6B28
:102594005B6B5CB716D05AC100F05BC101F0010E51
:1025A4005A5F000E5B5B005001100BE050C1E1FF6D
:1025B40051C1E2FF200EE66E504B512B6F4B702B36
:1025C400EAD766C102F067C103F0010E665D006ED2
:1025D400000E6759016E00C066F101C067F1025038
:1025E400031019E064C1E9FF65C1EAFF50C1E1FFCE
:1025F40051C1E2FFEECFE6FF504B512B010E642593
:10260400006E000E6521016E00C064F101C065F129
:102614006F4B702BD6D75CA716D05AC100F05BC1A4
:1026240001F0010E5A5F000E5B5B005001100BE0DD
:1026340050C1E1FF51C1E2FF200EE66E504B512B19
:102644006F4B702BEAD789D555C1E9FF56C1EAFF14
:10265400EECF00F0EECF01F000C0E9FF01C0EAFFC9
:10266400EECF59F155C1E9FF56C1EAFF020EEE243F
:10267400006E000EEE20016E55C1E1FF56C1E2FF6F
:1026840000C0E6FF01C0E6FF590E646F010E656FDE
:10269400010E666F000E676F62D7C00E5C13000EEA
:1026A4005D133BD05951000AD8B4F7D659516C0A7E
:1026B400D8B4F8D65951660AD8B4F6D65951450A51
:1026C400D8B4F4D65951650AD8B4F1D65951670A29
:1026D400D8B4EFD659516F0AD8B4EDD65951640A1B
:1026E400D8B4EBD65951690AD8B4E7D65951700A0F
:1026F400D8B4E4D65951580AD8B4E0D65951780A16
:10270400D8B4DDD65951730AD8B4DBD65951630A0B
:102714009BE05951750AC1E0B7D7000E5C15006EF5
:102724005D51070B016E00500110D8B467EF1CF027
:102734005DA904D0060E576F000E586F55C1E9FF0E
:1027440056C1EAFFEECF00F0EECF01F000C0E9FF82
:1027540001C0EAFFEECF5EF1EECF5FF1EECF60F1A4
:10276400EECF61F155C1E9FF56C1EAFF040EEE2434
:10277400006E000EEE20016E55C1E1FF56C1E2FF6E
:1027840000C0E6FF01C0E6FF046A056A066A076A3C
:102794005EC100F05FC101F060C102F061C103F0ED
:1027A400FBEC07F0010ED8B0000E006E005205E0FD
:1027B400607F030E5C13000E5D13626B636B5EC17E
:1027C40000F05FC101F060C102F061C103F0046A6E
:1027D400056A066A076AE4EC0BF0000ED8A4010E41
:1027E400006E0052D8B48AD061C100F0016A026A56
:1027F400036AFF0E0016000E01167E0E005E000E28
:10280400015A00C062F101C063F1010E005E000EC6
:10281400015A00C062F101C063F1030E046E000EA0
:10282400056ED9EC0EF000C062F101C063F10A0E2E
:10283400046E000E056ED1EC0AF000C062F101C016
:1028440063F1800E0118026E800E025C02E1000E3C
:10285400005C05E2010E0101625F000E635B010191
:1028640062510008776FFBEC0BF05EC104F05FC1AE
:1028740005F060C106F061C107F00AEC04F000C085
:1028840064F101C065F102C066F103C067F1000E96
:10289400046E000E056E000E066E7F0E076E64C198
:1028A40000F065C101F066C102F067C103F0FBEC02
:1028B40007F0010ED8B0000E006E005205E0010EC4
:1028C400625F000E635B1AD0000E046E000E056E8C
:1028D400200E066E820E076E64C100F065C101F021
:1028E40066C102F067C103F0FBEC07F0000ED8B03C
:1028F400010E006E005202E0624B632B800E006EEC
:10290400800E6319005C02E16251000803E3010ECA
:10291400596F02D062C159F15DB118D05DA315D0D1
:10292400800E6319006E7F0E005C02E1FC0E625D96
:102934000BE3800E6319006E800E5819005C02E1EF
:102944005751625D01E201D001D0F1D357515811C2
:1029540006E05DA304D0010E575F000E585B000E25
:10296400006E5851005C02E15751080803E2080E5A
:10297400596F02D057C159F15EC100F05FC101F037
:1029840060C102F061C103F0046A056A066A076A5D
:10299400E4EC0BF0000ED8A4010E006E0052D8B483
:1029A4004BD162C177F1FBEC0BF000C004F001C025
:1029B40005F002C006F003C007F05EC100F05FC17D
:1029C40001F060C102F061C103F062EC08F000C0E4
:1029D4005EF101C05FF102C060F103C061F1010169
:1029E40059510008776FFBEC0BF000C004F001C0F4
:1029F40005F002C006F003C007F05EC100F05FC13D
:102A040001F060C102F061C103F062EC08F000C0A3
:102A140071F101C072F102C073F103C074F171C1AC
:102A24005EF172C15FF173C160F174C161F171C192
:102A340000F072C101F073C102F074C103F020EC24
:102A440009F0E8EC07F000C004F001C005F002C092
:102A540006F003C007F071C100F072C101F073C148
:102A640002F074C103F0FBEC04F0000E046E000EDF
:102A7400056E000E066E7E0E076EFBEC07F0000E70
:102A8400D8B0010E006E00521AE05EC100F05FC1C2
:102A940001F060C102F061C103F0000E046E000E8B
:102AA400056E000E066E7E0E076E82EC01F000C00D
:102AB4005EF101C05FF102C060F103C061F15EC16B
:102AC40000F05FC101F060C102F061C103F020ECCD
:102AD40009F001015951010F096E0A6A000E0A2218
:102AE40009C004F00AC005F0000E0ABEFF0E066E0F
:102AF400076E04360490053606360736043604900D
:102B0400053606360736E20E0424F66E610E0520FD
:102B1400F76E000E0620F86E0900F5CF05F00900E7
:102B2400F5CF06F00900F5CF07F00900F5CF08F05E
:102B34000850035C08E10750025C05E10650015CA3
:102B440002E10550005C1EE301015EC100F05FC1BB
:102B540001F060C102F061C103F0CD0E046ECC0E31
:102B6400056E4C0E066E7B0E076E0AEC04F000C078
:102B74005EF101C05FF102C060F103C061F1624B1C
:102B8400632B5AD05EC100F05FC101F060C102F056
:102B940061C103F020EC09F059C104F0000E056E88
:102BA400066E076E0436049005360636073604367C
:102BB4000490053606360736E20E0424F66E610EDE
:102BC4000520F76E000E0620F86E0900F5CF05F01B
:102BD4000900F5CF06F00900F5CF07F00900F5CF9D
:102BE40008F00850035C08E10750025C05E1065058
:102BF400015C02E10550005C1FE201015EC100F0CE
:102C04005FC101F060C102F061C103F0000E046E07
:102C1400000E056E200E066E820E076E0AEC04F09E
:102C240000C05EF101C05FF102C060F103C061F158
:102C3400010E625F000E635B01015DA393D05DB77B
:102C440091D0800E000A006E800E5819005C02E1DB
:102C540057510A0804E20A0E576F000E586F5EC1FE
:102C640000F05FC101F060C102F061C103F020EC2B
:102C740009F000C064F101C065F102C066F103C04F
:102C840067F1645165116611671142E00A0E046E22
:102C9400000E056E066E076E64C100F065C101F09A
:102CA40066C102F067C103F0FEEC04F008C000F056
:102CB40009C001F00AC002F00BC003F0000E046E5C
:102CC400031808E10450021805E10450011802E158
:102CD4000050000A1DE1010E575F000E585B0A0EFA
:102CE400046E000E056E066E076E64C100F065C1C9
:102CF40001F066C102F067C103F0FEEC04F000C00D
:102D040064F101C065F102C066F103C067F1B9D78F
:102D1400800E5819006E800E005C02E15951575D17
:102D240021E25751595D776FFBEC0BF000C004F0C2
:102D340001C005F002C006F003C007F05EC100F058
:102D44005FC101F060C102F061C103F062EC08F000
:102D540000C05EF101C05FF102C060F103C061F127
:102D640057C159F1050E01015725006E000E582177
:102D7400016E00505A5F01505B5B5751581103E1DB
:102D84005DB701D004D0010E5A5F000E5B5B030EE9
:102D94005C15006E5DC101F0000E011600500110BB
:102DA40004E0010E5A5F000E5B5B5CA539D05CA3A6
:102DB40012D05CA103D02D0E006E02D02B0E006E3B
:102DC40050C1E1FF51C1E2FF00C0E6FF504B512B5F
:102DD4006F4B702B0CD05CA10AD050C1E1FF51C1E4
:102DE400E2FF200EE66E504B512B6F4B702B800E82
:102DF400006E800E5B19005C02E15A5100080FE27C
:102E040050C1E1FF51C1E2FF300EE66E504B512B31
:102E14006F4B702B010E5A5F000E5B5BE8D73AD004
:102E24005CB718D0800E006E800E5B19005C02E166
:102E34005A5100080FE250C1E1FF51C1E2FF200ED8
:102E4400E66E504B512B6F4B702B010E5A5F000EE8
:102E54005B5BE8D75CA312D05CA103D02D0E006E9F
:102E640002D02B0E006E50C1E1FF51C1E2FF00C041
:102E7400E6FF504B512B6F4B702B0CD05CA10AD04A
:102E840050C1E1FF51C1E2FF200EE66E504B512BC1
:102E94006F4B702B5EC100F05FC101F060C102F0A6
:102EA40061C103F020EC09F000C064F101C065F1D8
:102EB40002C066F103C067F159C100F0000E016E53
:102EC400026E036E00360090013602360336003679
:102ED4000090013602360336E20E0024F66E610ECF
:102EE4000120F76E000E0220F86E0900F5CF04F001
:102EF4000900F5CF05F00900F5CF06F00900F5CF7C
:102F040007F064C100F065C101F066C102F067C159
:102F140003F0FEEC04F0300E002650C1E1FF51C175
:102F2400E2FF00C0E6FF504B512B6F4B702B575103
:102F3400581103E15DB701D06FD050C1E1FF51C119
:102F4400E2FF2E0EE66E504B512B6F4B702B5951F6
:102F5400575F000E585B59534DE0590759C100F0B3
:102F6400000E016E026E036E0036009001360236CA
:102F7400033600360090013602360336E20E002492
:102F8400F66E610E0120F76E000E0220F86E090045
:102F9400F5CF04F00900F5CF05F00900F5CF06F0F0
:102FA4000900F5CF07F064C100F065C101F066C106
:102FB40002F067C103F0FEEC04F00A0E046E000E8A
:102FC400056E066E076EFEEC04F008C000F009C042
:102FD40001F00AC002F00BC003F0300E002650C10D
:102FE400E1FF51C1E2FF00C0E6FF504B512B6F4B94
:102FF400702BB1D7575158110FE050C1E1FF51C1A7
:10300400E2FF300EE66E504B512B6F4B702B010ECE
:10301400575F000E585BEED75CAB0BD050C1E1FF9D
:1030240051C1E2FF450EE66E504B512B6F4B702B96
:103034000AD050C1E1FF51C1E2FF650EE66E504B6C
:10304400512B6F4B702B800E6319006E800E005C49
:1030540002E1000E625D11E262510008626F635189
:10306400000E635750C1E1FF51C1E2FF2D0EE66E21
:10307400504B512B6F4B702B0AD050C1E1FF51C103
:10308400E2FF2B0EE66E504B512B6F4B702B0A0E4A
:10309400046E000E056E62C100F063C101F0D1EC54
:1030A4000AF0300E002650C1E1FF51C1E2FF00C01A
:1030B400E6FF0101504B512B6F4B702B0A0E046E2F
:1030C400000E056E62C100F063C101F0D1EC0AF09C
:1030D40008C000F009C001F0300E002650C1E1FF25
:1030E40051C1E2FF00C0E6FF0101504B512B6F4B71
:1030F400702B5CA71AD0800E006E800E5B19005CEA
:1031040002E15A51000811E250C1E1FF51C1E2FF4E
:10311400200EE66E504B512B6F4B702B010E5A5FF5
:10312400000E5B5B5A515B11EFE1AFEF10F05DA352
:10313400F3D0800E6319006E800E005C02E1000E75
:10314400625D0AE2010E625D006E000E6359016E5B
:103154000050575F0150585B5EC100F05FC101F041
:1031640060C102F061C103F020EC09F000C064F119
:1031740001C065F102C066F103C067F1010E596F29
:1031840059510A0A34E059C100F0000E016E026E72
:10319400036E003600900136023603360036009086
:1031A400013602360336E20E0024F66E610E01206B
:1031B400F76E000E0220F86E0900F5CF01F0090049
:1031C400F5CF02F00900F5CF03F00900F5CF04F0C4
:1031D4000450675D08E10350665D05E10250655DDA
:1031E40002E10150645D01E202D0592BC9D7595163
:1031F400575D756F000E5859766F75C157F176C1DA
:1032040058F164C100F065C101F066C102F067C104
:1032140003F0E8EC07F000C004F001C005F002C0C0
:1032240006F003C007F05EC100F05FC101F060C1A9
:1032340002F061C103F0FBEC04F000C071F101C0C5
:1032440072F102C073F103C074F175C177F1FBEC44
:103254000BF071C104F072C105F073C106F074C1C2
:1032640007F00AEC04F0000E046E000E056E000E6A
:10327400066E7E0E076E82EC01F020EC09F000C0B1
:1032840064F101C065F102C066F103C067F15751F2
:10329400581142E00A0E046E000E056E066E076EAB
:1032A40064C100F065C101F066C102F067C103F0BA
:1032B400FEEC04F008C000F009C001F00AC002F0FE
:1032C4000BC003F0000E046E031808E1045002184A
:1032D40005E10450011802E10050000A1DE10A0E44
:1032E400046E000E056E066E076E64C100F065C1C3
:1032F40001F066C102F067C103F0FEEC04F000C007
:1033040064F101C065F102C066F103C067F1010E0A
:10331400575F000E585BBBD7800E006E800E5819A5
:10332400005C02E157510C0816E357C177F174ECC5
:1033340006F05EC104F05FC105F060C106F061C132
:1033440007F082EC01F000C05EF101C05FF102C041
:1033540060F103C061F15EC100F05FC101F060C1C2
:1033640002F061C103F0046A056A066A076AE4ECC4
:103374000BF0000ED8A4010E006E0052D8B477D022
:103384005EC100F05FC101F060C102F061C103F0F1
:1033940020EC09F0000E046E031808E10450021832
:1033A40005E10450011802E10050000A60E1800EBA
:1033B400006E800E6319005C02E16251010857E25D
:1033C40062C177F1FBEC0BF000C004F001C005F022
:1033D40002C006F003C007F05EC100F05FC101F057
:1033E40060C102F061C103F062EC08F05F0E046E8C
:1033F400700E056E090E066E810E076EFBEC07F06B
:10340400010ED8B0000E006E005206E0090E010154
:10341400625F000E635B05D00101080E625F000E5F
:10342400635B62C177F1FBEC0BF000C004F001C0F8
:1034340005F002C006F003C007F05EC100F05FC1F2
:1034440001F060C102F061C103F062EC08F020EC0D
:1034540009F000C064F101C065F102C066F103C067
:1034640067F101015E6B5F6B606B616B38D05EC1AD
:1034740000F05FC101F060C102F061C103F020EC13
:1034840009F000C064F101C065F102C066F103C037
:1034940067F164C100F065C101F066C102F067C163
:1034A40003F0E8EC07F000C004F001C005F002C02E
:1034B40006F003C007F05EC100F05FC101F060C117
:1034C40002F061C103F0FBEC04F000C05EF101C046
:1034D4005FF102C060F103C061F1626B636B010EC6
:1034E400596F59510A0A34E059C100F0000E016EB7
:1034F400026E036E00360090013602360336003643
:103504000090013602360336E20E0024F66E610E98
:103514000120F76E000E0220F86E0900F5CF01F0CD
:103524000900F5CF02F00900F5CF03F00900F5CF4B
:1035340004F00450675D08E10350665D05E1025044
:10354400655D02E10150645D01E202D0592BC9D7E7
:1035540059515725006E000E5821016E6251002604
:103564006351012200505A5F01505B5B5DB704D088
:103574005751581101E104D0010E5A5F000E5B5BF4
:10358400030E5C15006E5DC101F0000E01160050C3
:10359400011004E0010E5A5F000E5B5B5CA539D09C
:1035A4005CA312D05CA103D02D0E006E02D02B0EB2
:1035B400006E50C1E1FF51C1E2FF00C0E6FF504B75
:1035C400512B6F4B702B0CD05CA10AD050C1E1FF82
:1035D40051C1E2FF200EE66E504B512B6F4B702B06
:1035E400800E006E800E5B19005C02E15A510008E7
:1035F4000FE250C1E1FF51C1E2FF300EE66E504BC5
:10360400512B6F4B702B010E5A5F000E5B5BE8D79A
:103614003AD05CB718D0800E006E800E5B19005C47
:1036240002E15A5100080FE250C1E1FF51C1E2FF2B
:10363400200EE66E504B512B6F4B702B010E5A5FD0
:10364400000E5B5BE8D75CA312D05CA103D02D0E07
:10365400006E02D02B0E006E50C1E1FF51C1E2FF9B
:1036640000C0E6FF504B512B6F4B702B0CD05CA16C
:103674000AD050C1E1FF51C1E2FF200EE66E504B6B
:10368400512B6F4B702B59C100F0590700524CE07D
:1036940059C100F0000E016E026E036E00360090F8
:1036A4000136023603360036009001360236033600
:1036B400E20E0024F66E610E0120F76E000E022069
:1036C400F86E0900F5CF04F00900F5CF05F0090004
:1036D400F5CF06F00900F5CF07F064C100F065C12D
:1036E40001F066C102F067C103F0FEEC04F00A0EBB
:1036F400046E000E056E066E076EFEEC04F008C044
:1037040000F009C001F00AC002F00BC003F0300E53
:10371400002650C1E1FF51C1E2FF00C0E6FF504B5B
:10372400512B6F4B702BAFD7800E006E800E631938
:10373400005C02E1625100080FE250C1E1FF51C197
:10374400E2FF300EE66E504B512B6F4B702B010E87
:10375400625F000E635BE8D7800E000A006E800E85
:103764005819005C02E15751080803E2080E596F2A
:1037740002D057C159F15951575F000E585B595344
:1037840003E15DB701D00AD050C1E1FF51C1E2FFAE
:103794002E0EE66E504B512B6F4B702B59C177F1A7
:1037A400FBEC0BF05EC104F05FC105F060C106F0F4
:1037B40061C107F00AEC04F01AEC0AF000C064F1ED
:1037C40001C065F102C066F103C067F159534DE0D1
:1037D400590759C100F0000E016E026E036E0036E7
:1037E4000090013602360336003600900136023668
:1037F4000336E20E0024F66E610E0120F76E000E11
:103804000220F86E0900F5CF04F00900F5CF05F0A9
:103814000900F5CF06F00900F5CF07F064C100F008
:1038240065C101F066C102F067C103F0FEEC04F06B
:103834000A0E046E000E056E066E076EFEEC04F0B2
:1038440008C000F009C001F00AC002F00BC003F088
:10385400300E002650C1E1FF51C1E2FF00C0E6FF77
:10386400504B512B6F4B702BB1D7575158110FE060
:1038740050C1E1FF51C1E2FF300EE66E504B512BB7
:103884006F4B702B010E575F000E585BEED75CA791
:103894001AD0800E006E800E5B19005C02E15A5152
:1038A400000811E250C1E1FF51C1E2FF200EE66EB3
:1038B400504B512B6F4B702B010E5A5F000E5B5B0C
:1038C4005A515B11EFE1AFEF10F0C00E5C15016EC1
:1038D4005DC102F0000E0216000E021802E1000E95
:1038E4000118D8A47CD05CA927D055C1E9FF56C1E2
:1038F400EAFFEECF00F0EECF01F000C0E9FF01C017
:10390400EAFFEECF64F1EECF65F1EECF66F1EECFD4
:1039140067F155C1E9FF56C1EAFF040EEE24006EBB
:10392400000EEE20016E55C1E1FF56C1E2FF00C05A
:10393400E6FF01C0E6FF2BD055C1E9FF56C1EAFFFF
:10394400EECF00F0EECF01F000C0E9FF01C0EAFFC6
:10395400EECF00F0EECF01F000C064F101C065F1DC
:10396400000E01BEFF0E666F676F55C1E9FF56C1B9
:10397400EAFF020EEE24006E000EEE20016E55C129
:10398400E1FF56C1E2FF00C0E6FF01C0E6FF800E82
:103994006719006E800E005C08E1000E665D05E1AB
:1039A400000E655D02E1000E645D18E2030E5C1317
:1039B400000E5D13006A016A026A036A6451005EC4
:1039C4006551015A6651025A6751035A00C064F1A5
:1039D40001C065F102C066F103C067F14ED05CA975
:1039E40027D055C1E9FF56C1EAFFEECF00F0EECF74
:1039F40001F000C0E9FF01C0EAFFEECF64F1EECFB1
:103A040065F1EECF66F1EECF67F155C1E9FF56C11E
:103A1400EAFF040EEE24006E000EEE20016E55C186
:103A2400E1FF56C1E2FF00C0E6FF01C0E6FF25D07A
:103A340055C1E9FF56C1EAFFEECF00F0EECF01F029
:103A440000C0E9FF01C0EAFFEECF64F1EECF65F1FB
:103A5400000E666F676F55C1E9FF56C1EAFF020E9B
:103A6400EE24006E000EEE20016E55C1E1FF56C13A
:103A7400E2FF00C0E6FF01C0E6FF000E581902E1B4
:103A8400000E57190FE1000E006E671908E100508F
:103A9400661905E10050651902E16451000A02E16A
:103AA400574B582BC00E5C15006E00C005F0AED00D
:103AB400010E596F59510A0A34E059C100F0000E41
:103AC400016E026E036E0036009001360236033634
:103AD40000360090013602360336E20E0024F66EFC
:103AE400610E0120F76E000E0220F86E0900F5CF7A
:103AF40001F00900F5CF02F00900F5CF03F0090049
:103B0400F5CF04F00450675D08E10350665D05E1FC
:103B14000250655D02E10150645D01E202D0592B5F
:103B2400C9D782D0010E596F5951080A34E059C1DE
:103B340000F0000E016E026E036E00360090013636
:103B440002360336003600900136023603360A0E7A
:103B54000024F66E620E0120F76E000E0220F86E4D
:103B64000900F5CF01F00900F5CF02F00900F5CF07
:103B740003F00900F5CF04F00450675D08E1035039
:103B8400665D05E10250655D02E10150645D01E29C
:103B940002D0592BC9D748D0010E596F59510C0A7C
:103BA40034E059C100F0000E016E026E036E00365F
:103BB4000090013602360336003600900136023694
:103BC4000336B20E0024F66E610E0120F76E000E6D
:103BD4000220F86E0900F5CF01F00900F5CF02F0DC
:103BE4000900F5CF03F00900F5CF04F00450675D38
:103BF40008E10350665D05E10250655D02E1015094
:103C0400645D01E202D0592BC9D70ED00550000AD9
:103C1400D8B44ED70550C00AD8B44AD70550800A44
:103C240081E00550400AB8E0800E006E800E5819FD
:103C3400005C02E15751595D03E257C159F10DD0BF
:103C4400800E5819006E800E005C02E15951575DD8
:103C540004E259C157F1000E586F5A515B110EE03E
:103C6400030E5C15006E5DC101F0000E01160050DC
:103C7400011004E0010E5A5F000E5B5B800E5819C0
:103C8400006E800E5B19005C02E15A51575D05E23B
:103C940057515A5F58515B5B02D05A6B5B6BC40E31
:103CA4005C15016E5D51080B026E0250080A02E1B8
:103CB400400E011808E15A515B1104E0010E5A5FED
:103CC400000E5B5B1CD0C00E5C15016E5D51080BD1
:103CD400026E0250080A02E1800E011810E1800E03
:103CE400006E800E5B19005C02E15A51020805E285
:103CF400020E5A5F000E5B5B02D05A6B5B6B5CA5D5
:103D04005DD05CA312D05CA103D02D0E006E02D056
:103D14002B0E006E50C1E1FF51C1E2FF00C0E6FF6F
:103D2400504B512B6F4B702B34D05CA10BD050C136
:103D3400E1FF51C1E2FF200EE66E504B512B6F4B59
:103D4400702B27D0C00E5C15016E5D51080B026EFE
:103D54000250080A02E1800E01181BE150C1E1FF84
:103D640051C1E2FF300EE66E504B512B6F4B702B5E
:103D74005CAB03D0580E006E02D0780E006E50C1BA
:103D8400E1FF51C1E2FF00C0E6FF504B512B6F4BE6
:103D9400702B5A515B1111E050C1E1FF51C1E2FF98
:103DA400300EE66E504B512B6F4B702B010E5A5F49
:103DB400000E5B5B5A515B11EFE174D05A515B11F9
:103DC40013E05CB711D050C1E1FF51C1E2FF200EF6
:103DD400E66E504B512B6F4B702B010E5A5F000E49
:103DE4005B5B5A515B11EFE15CA312D05CA103D081
:103DF4002D0E006E02D02B0E006E50C1E1FF51C19A
:103E0400E2FF00C0E6FF504B512B6F4B702B0CD0E0
:103E14005CA10AD050C1E1FF51C1E2FF200EE66E61
:103E2400504B512B6F4B702BC00E5C15016E5D51C6
:103E3400080B026E0250080A02E1400E01180BE161
:103E440050C1E1FF51C1E2FF300EE66E504B512BE1
:103E54006F4B702B27D0C00E5C15016E5D51080BA3
:103E6400026E0250080A02E1800E01181BE150C1E3
:103E7400E1FF51C1E2FF300EE66E504B512B6F4B08
:103E8400702B5CAB03D0580E006E02D0780E006E1F
:103E940050C1E1FF51C1E2FF00C0E6FF504B512B7E
:103EA4006F4B702B800E006E800E5819005C02E17F
:103EB4005751595D0BE250C1E1FF51C1E2FF300E91
:103EC400E66E504B512B6F4B702BECD757C100F063
:103ED40058C101F0010E575F000E585B00500110ED
:103EE400D8B42AD1C00E5C15006E00C071F10AD19D
:103EF40057C100F058C101F0000E58BFFF0E026E0A
:103F0400036E003600900136023603360036009008
:103F1400013602360336E20E0024F66E610E0120ED
:103F2400F76E000E0220F86E0900F5CF04F00900C8
:103F3400F5CF05F00900F5CF06F00900F5CF07F03D
:103F440064C100F065C101F066C102F067C103F00D
:103F5400FEEC04F00A0E046E000E056E066E076E8B
:103F6400FEEC04F008C000F009C001F00AC002F041
:103F74000BC003F0300E0024596FD3D05CAB45D096
:103F840057C100F058C101F0000E58BFFF0E026E79
:103F9400036E003600900136023603360036009078
:103FA4000136023603360A0E0024F66E620E012034
:103FB400F76E000E0220F86E0900F5CF04F0090038
:103FC400F5CF05F00900F5CF06F00900F5CF07F0AD
:103FD40064C100F065C101F066C102F067C103F07D
:103FE400FEEC04F00F0E0016000E01160216031666
:103FF4002A0E0024F66E620E0120F76E000E0220D7
:10400400F86E0900F5CF59F144D057C100F058C1FA
:1040140001F0000E58BFFF0E026E036E00360090D2
:104024000136023603360036009001360236033676
:104034000A0E0024F66E620E0120F76E000E0220B6
:10404400F86E0900F5CF04F00900F5CF05F009007A
:10405400F5CF06F00900F5CF07F064C100F065C1A3
:1040640001F066C102F067C103F0FEEC04F00F0E2C
:104074000016000E0116021603163B0E0024F66EFF
:10408400620E0120F76E000E0220F86E0900F5CFD3
:1040940059F147D057C100F058C101F0000E58BF84
:1040A400FF0E026E036E00360090013602360336B0
:1040B40000360090013602360336B20E0024F66E46
:1040C400610E0120F76E000E0220F86E0900F5CF94
:1040D40004F00900F5CF05F00900F5CF06F009005A
:1040E400F5CF07F064C100F065C101F066C102F0CC
:1040F40067C103F0FEEC04F0070E0014596F300E94
:1041040059270FD07151000AD8B4F2D67151C00AA0
:10411400D8B4EED67151800AD8B430D77151400A60
:10412400B9E050C1E1FF51C1E2FF59C1E6FF504B74
:10413400512B6F4B702BCAD65CA71AD0800E006E21
:10414400800E5B19005C02E15A51000811E250C173
:10415400E1FF51C1E2FF200EE66E504B512B6F4B35
:10416400702B010E5A5F000E5B5B5A515B11EFE13D
:0E417400AFEF10F06FC100F070C101F012004B
:104182007FC182F1DBEC03F00050060A03E1010E6D
:08419200006E1200006A120029
:10419A00CEEC09F0040E046E000E056ED1EC0AF0A6
:1041AA0008C000F009C001F000C0E4F001C0E5F069
:1041BA00CEEC09F0140E046E000E056ED1EC0AF076
:1041CA0008C000F009C001F000C0E2F001C0E3F04D
:1041DA00E4C000F0E5C001F0140E046E000E056E96
:1041EA00D9EC0EF0E70E0026000E01220001E25182
:1041FA000024E96EE3510120EA6EEECF81F1BCECB6
:10420A0009F0005218E0E4C000F0E5C001F0140E15
:10421A00046E000E056ED9EC0EF0E70E0026000EB5
:10422A0001220001E2510024E16EE3510120E26E15
:10423A009EC0E6FF5ED00001E4C000F0E5C001F0D8
:10424A00140E046E000E056ED9EC0EF0E70E002671
:10425A00000E0122E2510024E96EE3510120EA6EC8
:10426A00EECF81F10EEC0AF0005242E0E4C000F019
:10427A00E5C001F0140E046E000E056ED9EC0EF0C6
:10428A00E70E0026000E01220001E2510024E96E29
:10429A00E3510120EA6EEECF81F1B9EC0AF0005247
:1042AA0027E1E4C000F0E5C001F0140E046E000E30
:1042BA00056ED9EC0EF0E70E0026000E0122000171
:1042CA00E251002401017F6F0001E3510120010145
:1042DA00806F7FC1E9FF80C1EAFFEECF81F199ECDF
:1042EA000BF07FC1E1FF80C1E2FF00C0E6FF01D011
:0442FA004FD7120088
:1042FE007FC100F00036009000360090003600902E
:06430E00003600901200D1
:104314007FC182F1DBEC03F000500A0A03E1010ED5
:08432400006E1200006A120095
:10432C00080E01017F15026E080E8015016E0250F9
:10433C00011802E0006A1200080E7F15026E080ECA
:10434C008015016E0250011803E0010E006E120080
:04435C00006A1200E1
:104360000001E46BE56B800EE519006E800E005CC9
:1043700002E1040EE45D4DE2E26BE36B800EE319B3
:10438000006E800E005C02E1140EE25D3FE2E4C0CC
:1043900000F0E5C001F0140E046E000E056ED9ECBD
:1043A0000EF0E70E0026000E0122E251002401016A
:1043B0007D6F0001E351012001017E6FA0C07FF1FC
:1043C0009EDF00C07CF1E4C000F0E5C001F0140EF7
:1043D000046E000E056ED9EC0EF0E70E0026000EFE
:1043E00001220001E2510024D96EE3510120DA6E6E
:1043F000DE5001017C11006E7DC1E1FF7EC1E2FF54
:1044000000C0E6FF0001E24BE32BB8D7E44BE52BFD
:04441000AAD7120015
:0A44140054500001C315006E1200A1
:0A441E0032500001C315006E1200B9
:10442800010E01014515016E0150010A03E1010E5B
:08443800006E1200006A120080
:1044400010D0800E0101456F1AD0C00E456F17D0F5
:10445000940E456F14D0D40E456F11D0800E456F69
:104460000ED001014551010AECE04551020AEDE090
:104470004551030AEDE04551040AEDE0EFD746054A
:10448000006E4551002600C045F10001D98100C0F1
:1044900077F19EEC0BF0D99147C177F19EEC0BF0D0
:0444A000D9811200AC
:1044A4000D0E0101506F25EC10F00A0E0101506F42
:0644B40025EC10F01200DF
:1044BA00100E836E80AA06D080AA01D0FDD7370ECF
:1044CA00006E120081A206D081A201D0FDD7380E5B
:1044DA00006E120081A406D081A401D0FDD7390E46
:1044EA00006E120081A606D081A601D0FDD7250E46
:1044FA00006E1200200E836E80AA06D080AA01D018
:10450A00FDD7340E006E120081A206D081A201D01E
:10451A00FDD7350E006E120081A406D081A401D009
:10452A00FDD7360E006E120081A606D081A601D0F4
:10453A00FDD72A0E006E1200400E836E80AA06D0A6
:10454A0080AA01D0FDD7310E006E120081A206D0DA
:10455A0081A201D0FDD7320E006E120081A406D0CE
:10456A0081A401D0FDD7330E006E120081A606D0B9
:10457A0081A601D0FDD72D0E006E1200800E836E2B
:10458A0080AA06D080AA01D0FDD7430E006E120081
:10459A0081A206D081A201D0FDD7300E006E120092
:1045AA0081A406D081A401D0FDD73D0E006E120071
:1045BA0081A606D081A601D0FDD72B0E006E12006F
:0645CA00FF0E006E12005E
:1045D0000101486B45C1E9FF46C1EAFFEECF47F153
:1045E0004751000A0FE047C150F125EC10F00101DE
:1045F000482B48514525E96E000E4621EA6EEECF64
:0646000047F1EED71200A5
:104606004A0E01014E6F010E4F6F45C150F146C172
:1046160051F147C152F148C153F149C154F14E0E0F
:10462600556F010E566FAAEC10F000C04CF101C098
:104636004DF100504525E16E01504621E26EE66AD5
:0A4646004CC100F04DC101F012005C
:1046500045C150F12CEC10F00050060A03E1010EA8
:08466000006E1200006A120056
:1046680045C150F108EC0FF00050000A03E1010EBB
:08467800006E1200006A12003E
:104680000001E46BE56B800EE519006E800E005CA6
:1046900002E1040EE45DD8B07BD0E26BE36B800EE8
:1046A000E319006E800E005C02E1140EE25D6DE223
:1046B000E451E225006EE551E321016E060E046E21
:1046C000000E056ED1EC0AF008C000F009C001F040
:1046D0000050011028E0040E046E000E056EE2C0CA
:1046E00000F0E3C001F0D1EC0AF008C000F009C00E
:1046F00001F000C07CF101C07DF1030E046E000EDC
:10470000056EE4C000F0E5C001F0D1EC0AF008C08D
:1047100000F009C001F001017D51011802E10050D3
:104720007C1901E018D0E4C000F0E5C001F0140EDF
:10473000046E000E056ED9EC0EF0E70E0026000E9A
:1047400001220001E2510024E16EE3510120E26EFA
:104750009FC0E6FF17D00001E4C000F0E5C001F003
:10476000140E046E000E056ED9EC0EF0E70E002656
:10477000000E0122E2510024E16EE3510120E26EBD
:104780009DC0E6FFE24BE32B8AD7E44BE52B7BD7BA
:0E47900004DD32EC10F00001E76BC36B120089
:10479E000001CA6BCB6B800ECB19006E800E005CD5
:1047AE0002E1050ECA5D43E2A9EC0FF0C6C000F0AF
:1047BE00C7C001F0140E046E000E056ED9EC0EF09B
:1047CE00E70E0026000E0122C8510024E96EC951E1
:1047DE000120EA6EEECF7FF1CDDC005220E1C6C0A3
:1047EE0000F0C7C001F0140E046E000E056ED9EC79
:1047FE000EF0E70E0026000E01220001C851002423
:10480E00E96EC9510120EA6EEECF7FF185EC10F012
:10481E0000C081F10EEC0AF0005201E103D013EC5E
:10482E000FF001D004D00001CA4BCB2BB4D700013E
:10483E00C6C000F0C7C001F0140E046E000E056E67
:10484E00D9EC0EF0E70E0026000E0122C85100240E
:10485E00E96EC9510120EA6EEECF7FF18BDC00527A
:10486E0020E1C6C000F0C7C001F0140E046E000EA9
:10487E00056ED9EC0EF0E70E0026000E01220001A7
:10488E00C8510024E96EC9510120EA6EEECF7FF1C6
:10489E0085EC10F000C081F10EEC0AF0005201E13F
:1048AE0001D012000001C6C000F0C7C001F0140E06
:1048BE00046E000E056ED9EC0EF0E70E0026000E0B
:1048CE000122C8510024E96EC9510120EA6EEECFD3
:1048DE007FF185EC10F000C07FF190EC10F00052EB
:1048EE0005E054500001C31305EF2AF00001C6C0C5
:1048FE0000F0C7C001F0140E046E000E056ED9EC68
:10490E000EF0E70E0026000E0122C8510024E96EBB
:10491E00C9510120EA6EEECF81F10EEC0AF0005281
:10492E00D8B4A9D2C6C000F0C7C001F0140E046EF0
:10493E00000E056ED9EC0EF0E70E0026000E0122D9
:10494E000001C8510024E96EC9510120EA6EEECF74
:10495E0081F1C8EC09F000C080F1C5C07FF1DFDC49
:10496E000052D8B44AD1E4C000F0E5C001F0140EF4
:10497E00046E000E056ED9EC0EF0E70E0026000E4A
:10498E0001220001E2510024E96EE3510120EA6E9A
:10499E00EECF81F1B9EC0AF00052010ED8A4000E50
:1049AE007C6FC6C000F0C7C001F0140E046E000E7E
:1049BE00056ED9EC0EF0E70E0026000E0122000166
:1049CE00C8510024E96EC9510120EA6EEECF81F183
:1049DE00B9EC0AF07C51001647E0C6C000F0C7C023
:1049EE0001F0140E046E000E056ED9EC0EF0E70EFB
:1049FE000026000E01220001C851002401017D6F26
:104A0E000001C951012001017E6F7DC1E9FF7EC108
:104A1E00EAFFEECF82F1DBEC03F000C07CF1E4C0E4
:104A2E0000F0E5C001F0140E046E000E056ED9EC18
:104A3E000EF0E70E0026000E01220001E2510024C6
:104A4E00E96EE3510120EA6EEECF81F199EC0BF0A5
:104A5E0000C07FF14DDC7C5100127DC1E1FF7EC1B3
:104A6E00E2FF00C0E6FFC8D0E4C000F0E5C001F0F0
:104A7E00140E046E000E056ED9EC0EF0E70E002635
:104A8E00000E01220001E2510024E96EE3510120E3
:104A9E00EA6EEECF81F1B9EC0AF000C07CF1C6C02F
:104AAE0000F0C7C001F0140E046E000E056ED9ECB6
:104ABE000EF0E70E0026000E01220001C851002460
:104ACE00E96EC9510120EA6EEECF81F1B9EC0AF020
:104ADE000052010ED8A4000E006E7C51001648E064
:104AEE00C6C000F0C7C001F0140E046E000E056EB5
:104AFE00D9EC0EF0E70E0026000E01220001C8517F
:104B0E00002401017D6F0001C951012001017E6F5A
:104B1E007DC1E9FF7EC1EAFFEECF82F1DBEC03F04F
:104B2E0000C07CF1E4C000F0E5C001F0140E046E8C
:104B3E00000E056ED9EC0EF0E70E0026000E0122D7
:104B4E000001E2510024E96EE3510120EA6EEECF3E
:104B5E007FF10EEC0FF000C07FF17FEC21F07C5165
:104B6E0000127DC1E1FF7EC1E2FF00C0E6FF44D02E
:104B7E00C6C000F0C7C001F0140E046E000E056E24
:104B8E00D9EC0EF0E70E0026000E01220001C851EE
:104B9E00002401017D6F0001C951012001017E6FCA
:104BAE007DC1E9FF7EC1EAFFEECF82F1DBEC03F0BF
:104BBE0000C07CF1E4C000F0E5C001F0140E046EFC
:104BCE00000E056ED9EC0EF0E70E0026000E012247
:104BDE000001E2510024E96EE3510120EA6EEECFAE
:104BEE007FF17FEC21F001017C5100127DC1E1FFCC
:104BFE007EC1E2FF00C0E6FF3DD1C6C000F0C7C0D7
:104C0E0001F0140E046E000E056ED9EC0EF0E70ED8
:104C1E000026000E01220001C8510024E96EC95180
:104C2E000120EA6EEECF81F1B9EC0AF0005248E0B5
:104C3E00C6C000F0C7C001F0140E046E000E056E63
:104C4E00D9EC0EF0E70E0026000E01220001C8512D
:104C5E00002401017D6F0001C951012001017E6F09
:104C6E007DC1E9FF7EC1EAFFEECF82F1DBEC03F0FE
:104C7E0000C07CF1E4C000F0E5C001F0140E046E3B
:104C8E00000E056ED9EC0EF0E70E0026000E012286
:104C9E000001E2510024E96EE3510120EA6EEECFED
:104CAE0081F199EC0BF000C07FF17FEC21F07C518B
:104CBE0000127DC1E1FF7EC1E2FF00C0E6FF47D0DA
:104CCE00C6C000F0C7C001F0140E046E000E056ED3
:104CDE00D9EC0EF0E70E0026000E01220001C8519D
:104CEE00002401017D6F0001C951012001017E6F79
:104CFE007DC1E9FF7EC1EAFFEECF82F1DBEC03F06E
:104D0E0000C07CF1E4C000F0E5C001F0140E046EAA
:104D1E00000E056ED9EC0EF0E70E0026000E0122F5
:104D2E000001E2510024E96EE3510120EA6EEECF5C
:104D3E007FF10EEC0FF000C07FF17FEC21F07C5183
:104D4E0000127DC1E1FF7EC1E2FF00C0E6FFE4C0BC
:104D5E0000F0E5C001F0140E046E000E056ED9ECE5
:104D6E000EF0E70E0026000E01220001E251002493
:104D7E00E96EE3510120EA6EEECF7FF185EC10F083
:104D8E000050A01977E1E4C000F0E5C001F0140E68
:104D9E00046E000E056ED9EC0EF0E70E0026000E26
:104DAE000122E2510024E96EE3510120EA6EEECFBA
:104DBE0081F1B9EC0AF000522FE0E4C000F0E5C03A
:104DCE0001F0140E046E000E056ED9EC0EF0E70E17
:104DDE000026000E01220001E251002401017D6F28
:104DEE000001E351012001017E6F7DC1E9FF7EC10B
:104DFE00EAFFEECF82F1DBEC03F000C07CF19EC047
:104E0E007FF17FEC21F07C5100127DC1E1FF7EC16C
:104E1E00E2FF00C0E6FF2ED0E4C000F0E5C001F0D6
:104E2E00140E046E000E056ED9EC0EF0E70E002681
:104E3E00000E01220001E251002401017D6F0001EC
:104E4E00E351012001017E6F7DC1E9FF7EC1EAFFC2
:104E5E00EECF82F1DBEC03F000C07CF19DC07FF160
:104E6E007FEC21F07C5100127DC1E1FF7EC1E2FF9B
:104E7E0000C0E6FFC3D2C6C000F0C7C001F0140EDA
:104E8E00046E000E056ED9EC0EF0E70E0026000E35
:104E9E0001220001C8510024E96EC9510120EA6EB9
:104EAE00EECF7FF18AEC21F00052D8B451D1E4C09C
:104EBE0000F0E5C001F0140E046E000E056ED9EC84
:104ECE000EF0E70E0026000E01220001E251002432
:104EDE00E96EE3510120EA6EEECF81F1B9EC0AF0F2
:104EEE000052D8B4A4D0C6C000F0C7C001F0140E52
:104EFE00046E000E056ED9EC0EF0E70E0026000EC5
:104F0E0001220001C851002401017D6F0001C95129
:104F1E00012001017E6F7DC1E9FF7EC1EAFFEECF68
:104F2E0082F1DBEC03F000C07CF1E4C000F0E5C0E0
:104F3E0001F0140E046E000E056ED9EC0EF0E70EA5
:104F4E000026000E01220001E2510024E96EE35119
:104F5E000120EA6EEECF7FF17FEC21F001017C5152
:104F6E0000127DC1E1FF7EC1E2FF00C0E6FFE4C09A
:104F7E0000F0E5C001F0140E046E000E056ED9ECC3
:104F8E000EF0E70E0026000E01220001E251002471
:104F9E00E96EE3510120EA6EEECF7FF185EC10F061
:104FAE000050A01943E1E4C000F0E5C001F0140E7A
:104FBE00046E000E056ED9EC0EF0E70E0026000E04
:104FCE000122E251002401017D6F0001E351012015
:104FDE0001017E6F7DC1E9FF7EC1EAFFEECF82F156
:104FEE00DBEC03F000C07CF1C6C000F0C7C001F0DE
:104FFE00140E046E000E056ED9EC0EF0E70E0026B0
:10500E00000E01220001C8510024E96EC951012091
:10501E00EA6EEECF7FF17FEC21F001017C510012A0
:10502E007DC1E1FF7EC1E2FF00C0E6FF90D0C6C0A9
:10503E0000F0C7C001F0140E046E000E056ED9EC20
:10504E000EF0E70E0026000E01220001C8510024CA
:10505E0001017D6F0001C951012001017E6F7DC1EB
:10506E00E9FF7EC1EAFFEECF82F1DBEC03F000C078
:10507E007CF1E4C000F0E5C001F0140E046E000EE9
:10508E00056ED9EC0EF0E70E0026000E012200018F
:10509E00E2510024E96EE3510120EA6EEECF81F178
:1050AE0099EC0BF000C07FF17FEC21F07C510012E7
:1050BE007DC1E1FF7EC1E2FF00C0E6FFE4C000F06B
:1050CE00E5C001F0140E046E000E056ED9EC0EF064
:1050DE00E70E0026000E01220001E2510024E96EC7
:1050EE00E3510120EA6EEECF7FF185EC10F0005017
:1050FE00A0192DE1E4C000F0E5C001F0140E046E1D
:10510E00000E056ED9EC0EF0E70E0026000E012201
:10511E00E251002401017D6F0001E35101200101E4
:10512E007E6F7DC1E9FF7EC1EAFFEECF82F1DBEC3F
:10513E0003F000C07CF19DC07FF17FEC21F07C512B
:10514E0000127DC1E1FF7EC1E2FF00C0E6FF56D135
:10515E00C6C000F0C7C001F0140E046E000E056E3E
:10516E00D9EC0EF0E70E0026000E01220001C85108
:10517E000024E96EC9510120EA6EEECF81F1BCEC3C
:10518E0009F00052D8B43AD1E4C000F0E5C001F005
:10519E00140E046E000E056ED9EC0EF0E70E00260E
:1051AE00000E01220001E2510024E96EE3510120BC
:1051BE00EA6EEECF81F1B9EC0AF00052D8B491D07C
:1051CE00C6C000F0C7C001F0140E046E000E056ECE
:1051DE00D9EC0EF0E70E0026000E01220001C85198
:1051EE00002401017D6F0001C951012001017E6F74
:1051FE007DC1E9FF7EC1EAFFEECF82F1DBEC03F069
:10520E0000C07CF1E4C000F0E5C001F0140E046EA5
:10521E00000E056ED9EC0EF0E70E0026000E0122F0
:10522E000001E2510024E96EE3510120EA6EEECF57
:10523E007FF10EEC0FF000C07FF17FEC21F07C517E
:10524E0000127DC1E1FF7EC1E2FF00C0E6FFE4C0B7
:10525E0000F0E5C001F0140E046E000E056ED9ECE0
:10526E000EF0E70E0026000E01220001E25100248E
:10527E00E96EE3510120EA6EEECF7FF185EC10F07E
:10528E000050A0192DE1E4C000F0E5C001F0140EAD
:10529E00046E000E056ED9EC0EF0E70E0026000E21
:1052AE000122E251002401017D6F0001E351012032
:1052BE0001017E6F7DC1E9FF7EC1EAFFEECF82F173
:1052CE00DBEC03F000C07CF19EC07FF17FEC21F09F
:1052DE007C5100127DC1E1FF7EC1E2FF00C0E6FFFE
:1052EE008DD0C6C000F0C7C001F0140E046E000EC3
:1052FE00056ED9EC0EF0E70E0026000E012200011D
:10530E00C851002401017D6F0001C9510120010126
:10531E007E6F7DC1E9FF7EC1EAFFEECF82F1DBEC4D
:10532E0003F000C07CF1E4C000F0E5C001F0140E03
:10533E00046E000E056ED9EC0EF0E70E0026000E80
:10534E0001220001E2510024E96EE3510120EA6ED0
:10535E00EECF7FF17FEC21F001017C5100127DC177
:10536E00E1FF7EC1E2FF00C0E6FFE4C000F0E5C051
:10537E0001F0140E046E000E056ED9EC0EF0E70E61
:10538E000026000E01220001E2510024E96EE351D5
:10539E000120EA6EEECF7FF185EC10F00050A019DF
:1053AE002DE1E4C000F0E5C001F0140E046E000E15
:1053BE00056ED9EC0EF0E70E0026000E0122E2512A
:1053CE00002401017D6F0001E351012001017E6F78
:1053DE007DC1E9FF7EC1EAFFEECF82F1DBEC03F087
:1053EE0000C07CF19DC07FF17FEC21F07C5100125A
:0E53FE007DC1E1FF7EC1E2FF00C0E6FF1200AC
:10540C000001E65100082CE2E4C000F0E5C001F018
:10541C00140E046E000E056ED9EC0EF0E70E00268D
:10542C00000E0122E251002401017D6F0001E351C5
:10543C00012001017E6F7DC1E9FF7EC1EAFFF30E01
:10544C00EE147C6FE6C081F1C8EC09F07C510012BF
:10545C007DC1E1FF7EC1E2FF00C0E6FF0001E66B0B
:10546C00A9EC0FF0C6C000F0C7C001F0140E046E1A
:10547C00000E056ED9EC0EF0E70E0026000E012290
:10548C00C8510024E96EC9510120EA6EEECF7FF1BC
:10549C0085EC10F000C081F10EEC0AF0005204E033
:1054AC0054500001C31312000001C6C000F0C7C065
:1054BC0001F0140E046E000E056ED9EC0EF0E70E22
:1054CC000026000E0122C8510024E96EC9510120AA
:1054DC00EA6EEECF81F10EEC0AF0005236E0E4C039
:1054EC0000F0E5C001F0140E046E000E056ED9EC50
:1054FC000EF0E70E0026000E01220001E2510024FE
:10550C00E96EE3510120EA6EEECF7FF1C6C000F0E8
:10551C00C7C001F0140E046E000E056ED9EC0EF02F
:10552C00E70E0026000E0122C8510024E96EC95175
:10553C000120EA6EEECF80F196EC21F0005204E0EF
:10554C0054500001C313120010D10001C6C000F06A
:10555C00C7C001F0140E046E000E056ED9EC0EF0EF
:10556C00E70E0026000E0122C8510024E96EC95135
:10557C000120EA6EEECF7FF1C1EC20F0005245E045
:10558C00E4C000F0E5C001F0140E046E000E056ED0
:10559C00D9EC0EF0E70E0026000E01220001E251BC
:1055AC00002401017D6F0001E351012001017E6F98
:1055BC007DC1E9FF7EC1EAFFEECF82F1DBEC03F0A7
:1055CC0000C07CF1E4C000F0E5C001F0140E046EE4
:1055DC00000E056ED9EC0EF0E70E0026000E01222F
:1055EC000001E2510024E96EE3510120EA6EEECF96
:1055FC007FF17FEC21F001017C5100127DC1E1FFB4
:10560C007EC1E2FF00C0E6FFB0D0C6C000F0C7C04C
:10561C0001F0140E046E000E056ED9EC0EF0E70EC0
:10562C000026000E01220001C851002401017D6FEB
:10563C000001C951012001017E6F7DC1E9FF7EC1CE
:10564C00EAFFEECF82F1DBEC03F000C07CF1E4C0AA
:10565C0000F0E5C001F0140E046E000E056ED9ECDE
:10566C000EF0E70E0026000E01220001E25100248C
:10567C00E96EE3510120EA6EEECF7FF17FEC21F071
:10568C0001017C5100127DC1E1FF7EC1E2FF00C02F
:10569C00E6FFE4C000F0E5C001F0140E046E000E4D
:1056AC00056ED9EC0EF0E70E0026000E012200016B
:1056BC00E251002401017D6F0001E3510120010141
:1056CC007E6F7DC1E9FF7EC1EAFFEECF82F1DBEC9C
:1056DC0003F000C07CF19DC07FF17FEC21F07C5188
:1056EC0000127DC1E1FF7EC1E2FF00C0E6FFC6C033
:1056FC0000F0C7C001F0140E046E000E056ED9EC5C
:10570C000EF0E70E0026000E01220001C851002405
:10571C00E96EC9510120EA6EEECF81F1B9EC0AF0C5
:10572C0000521CE1C6C000F0C7C001F0140E046E9C
:10573C00000E056ED9EC0EF0E70E0026000E0122CD
:10574C000001C8510024E96EC9510120EA6EEECF68
:10575C007FF18AEC21F0005201E107D09CEC10F0B3
:0C576C000050010F7F6F15EC10F01200D0
:1057780045C150F12CEC10F000500A0A03E1010E6B
:08578800006E1200006A12001D
:1057900010D0800E0101456F1AD0C00E456F17D092
:1057A000940E456F14D0D40E456F11D0800E456F06
:1057B0000ED001014551010AECE04551020AEDE02D
:1057C0004551030AEDE04551040AEDE0EFD74605E7
:1057D000006E4551002600C045F100C077F19EECF7
:1057E0000BF0D9910101496B49514725E96E000E33
:1057F0004821EA6EEE520DE049514725E96E000E50
:105800004821EA6EEECF50F101EC0FF00101492B77
:08581000EBD70001D981120061
:105818000001E46BE56B800EE519006E800E005CFC
:1058280002E1040EE45DD8B079D0E26BE36B800E40
:10583800E319006E800E005C02E1140EE25D6BE27B
:10584800E4C000F0E5C001F0140E046E000E056E11
:10585800D9EC0EF0E70E0026000E0122E2510024DA
:10586800E96EE3510120EA6EEECF7FF185EC10F08E
:105878000050A01926E0E4C000F0E5C001F0140EC5
:10588800046E000E056ED9EC0EF0E70E0026000E31
:105898000122E251002401017C6F0001E351012043
:1058A80001017D6F7CC1E9FF7DC1EAFFEECF7FF189
:1058B80085EC10F07CC1E1FF7DC1E2FF00C0E6FF8E
:1058C80026D0E4C000F0E5C001F0140E046E000E0E
:1058D800056ED9EC0EF0E70E0026000E012200013D
:1058E800E251002401017C6F0001E3510120010114
:1058F8007D6F7CC1E9FF7DC1EAFFEECF82F1DBEC71
:1059080003F07CC1E1FF7DC1E2FF00C0E6FF0001BA
:0E591800E24BE32B8CD7E44BE52B7DD712003E
:105926000900F5CFE6FF0006FBE10106F9E11200EA
:105936004A0E0001DA6F200EDB6F500EDC6F010E8F
:10594600DD6FFF0ED16FFF0ED26F000ED36F000E0C
:10595600D46FFF0ED56FFF0ED66F000ED76F000EF9
:10596600D86FFF0EDE6FFF0EDF6F000EE06F000ECA
:10597600E16FAC8A900EAB6E948E949C9EAA03D077
:08598600AECF00F0FBD71200C8
:10598E000101376B386B800E3819006E800E005C8B
:10599E0002E1040E375DD8B0B4D0396B3A6B800E8D
:1059AE003A19006E800E005C02E1140E395DD8B01B
:1059BE00A5D037C100F038C101F0140E046E000EF0
:1059CE00056ED9EC0EF0E70E0026000E01223951BD
:1059DE000024E96E3A510120EA6EEECF45F114EC47
:1059EE0022F000520BE03751010F456F3951010F74
:1059FE00466FB3C047F120EC22F07CD037C100F0E7
:105A0E0038C101F0140E046E000E056ED9EC0EF0C6
:105A1E00E70E0026000E0122010139510024E96E25
:105A2E003A510120EA6EEECF45F128EC23F00052F8
:105A3E000BE03751010F456F3951010F466FB5C05D
:105A4E0047F120EC22F056D037C100F038C101F0FA
