:0400000080EF30F06D
:1000080000C015F0F2A218D00001CA51CB11010EA0
:10001800D8A4000ECA6F000ECB6FF292E74BE82B04
:10002800000EE81902E10A0EE71906E1010ECC6F8D
:0E003800000ECD6FE76BE86B15C000F01100F5
:100046000B820BAE2DEF00F00368026801680068B2
:080056000A360232FF0E12000F
:0E005E00026A016A006A086A036A000E120054
:08006C000AAE029E000E120014
:100074000B840BAE45EF00F0010E036E026A016AB9
:0A008400006A0A360232FF0E120075
:10008E000CB089EF00F00CA22FEF01F00E6A000EFB
:10009E000264A0EF00F0F00E0214D8A46BEF00F093
:1000AE00023A01380F0B02260138F00B016E0038B0
:1000BE000F0B01260038F00B006E08380F0B0026D0
:1000CE000838F00B086E0E84D89002BE84EF00F054
:1000DE0008360036013602360E2A02BE84EF00F0D4
:1000EE0008360036013602360E2A02BE84EF00F0C4
:1000FE0008360036013602360E2A0E50036425EFFE
:10010E0001F0035E0BBC08AE2AEF01F0D880800E22
:10011E0008640030000E002201220222D8A02AEF2D
:10012E0001F0023201320032034A2FEF01F02AEFC2
:10013E0001F001C002F000C001F008C000F0086A32
:10014E00000E0E860264D7EF00F0F00E0214D8A453
:10015E00BFEF00F0023A01380F0B02260138F00B08
:10016E00016E00380F0B01260038F00B006E0E8466
:10017E00D89002BE84EF00F00036013602360E2A09
:10018E0002BE84EF00F00036013602360E2A02BEA1
:10019E0084EF00F00036013602360E2A84EF00F0AE
:1001AE0001C002F000C001F0006A000E0E960E882B
:1001BE00026404EF01F0F00E0214D8A4EFEF00F089
:1001CE00023A01380F0B02260138F00B016E0E8435
:1001DE00D89002BE84EF00F0013602360E2A02BE1F
:1001EE0084EF00F0013602360E2A02BE84EF00F0D4
:1001FE00013602360E2A84EF00F001C002F0016AC9
:10020E00000E0E86026434EF01F0F00E0214D8A434
:10021E0013EF01F0023A0E84D89002BE84EF00F084
:10022E0002360E2A02BE84EF00F002360E2A02BEFD
:10023E0084EF00F002360E2A84EF00F0010E0C6EF1
:10024E0012DF37EF01F0020E0C6E09DF37EF01F00F
:10025E00040E0C6EF1DE37EF01F0080E0C6EF8DEB8
:02026E0012007C
:100270000B800BAE44EF01F0026A0AAEFF0E026E75
:0C028000016E006E0A360232FF0E120002
:10028C000D6A086A0050D8B4000C04180A6E0ABE35
:10029C000D1E0B6A04AE02D0041E042A00A002D06C
:1002AC00001E002A005004100A6E0ABE1FD0045013
:1002BC00085E003600340836045008260036060E58
:1002CC000C6E00340836045000B0085E00A00826FE
:1002DC0000360C2EF6D700A008260BB015D00DAEAC
:1002EC00000C001E002A081E082A000C04AE09D0BF
:1002FC0000BE04D00050086E006AF1D7006A002AD4
:10030C00000C001E0B2AD3D7082A0450085CD8A472
:0E031C00E6D7086A002A00AEE2D7FF0C1200F6
:10032A00025006180E6E086A096A0B6A03500764BF
:10033A0088EF02F006500A6E068E028E03500B6E8C
:10034A000750036E000E0B64D8EF01F00B50075EE6
:10035A00D8B479EF02F0070E076447EF02F0075EA0
:10036A0000C008F001C000F002C001F0026A074EA6
:10037A0079EF02F007641CEF02F0075E00C008F094
:10038A0001C000F0016A074E79EF02F00764FAEF44
:10039A0001F0075E00C008F0006A074E79EF02F02C
:1003AA000764E1EF01F00AC002F005C001F004C0E1
:1003BA0000F0086AA2EF03F0030E0764ECEF01F005
:1003CA00075E08380F0B086E074E79EF02F0D890D7
:1003DA000832074E79EF02F0D8900832074E79EFCB
:1003EA0002F0D890083279EF02F0030E07640BEF9F
:1003FA0002F0075E08380F0B086E0038F00B08266B
:10040A0000380F0B006E074E79EF02F0D8900032D9
:10041A000832074E79EF02F0D89000320832074EC0
:10042A0079EF02F0D8900032083279EF02F0030E29
:10043A00076433EF02F0075E08380F0B086E0038C6
:10044A00F00B082600380F0B006E0138F00B00265F
:10045A0001380F0B016E074E79EF02F0D890013286
:10046A0000320832074E79EF02F0D890013200329A
:10047A000832074E79EF02F0D89001320032083282
:10048A0079EF02F0030E076464EF02F0075E0838A2
:10049A000F0B086E0038F00B082600380F0B006EA1
:1004AA000138F00B002601380F0B016E0238F00BF1
:1004BA00012602380F0B026E074E79EF02F0D89030
:1004CA000232013200320832074E79EF02F0D89038
:1004DA000232013200320832074E79EF02F0D89028
:1004EA000232013200320832096A000E0EAE6DEF96
:1004FA0003F0081E001E011E021E082A0022012205
:10050A0002226DEF03F00750D8A48EEF02F0A2EF9B
:10051A0003F0096A02C00AF0028E068E0750035CD5
:10052A00076ED8B460EF03F0070E07642EEF03F0EE
:10053A00075E0450096E0550046E0650056E066A81
:10054A00074E60EF03F0070E076403EF03F0075E40
:10055A000450096E0550046E056A074E60EF03F0F9
:10056A00070E0764E1EF02F0075E0450096E046AA1
:10057A00074E60EF03F0070E0764C8EF02F00AC0E7
:10058A0002F0A2EF03F0030E0764D3EF02F0075E56
:10059A0009380F0B096E074E60EF03F0D890093245
:1005AA00074E60EF03F0D8900932074E60EF03F070
:1005BA00D890093260EF03F0030E0764F2EF02F0FD
:1005CA00075E09380F0B096E0438F00B0926043848
:1005DA000F0B046E074E60EF03F0D8900432093215
:1005EA00074E60EF03F0D89004320932074E60EFED
:1005FA0003F0D8900432093260EF03F0030E076467
:10060A001AEF03F0075E09380F0B096E0438F00B76
:10061A00092604380F0B046E0538F00B042605383A
:10062A000F0B056E074E60EF03F0D89005320432C7
:10063A000932074E60EF03F0D890053204320932CE
:10064A00074E60EF03F0D89005320432093260EFAA
:10065A0003F0030E07644BEF03F0075E09380F0B34
:10066A00096E0438F00B092604380F0B046E05389E
:10067A00F00B042605380F0B056E0638F00B05261D
:10068A0006380F0B066E074E60EF03F0D89006325D
:10069A00053204320932074E60EF03F0D890063271
:1006AA00053204320932074E60EF03F0D890063261
:1006BA00053204320932086A000E0EAE6DEF03F0FD
:1006CA00091E041E051E061E092A042205220622E8
:1006DA000950082604500022055001220650022221
:1006EA000EBE84EF03F0D8A093EF03F0023201327A
:1006FA0000320832033E93EF03F09DEF03F0D8B0C7
:10070A0098EF03F0000E081E001E011E021E082AA2
:10071A000022012202220A7E98EF03F0010E0C6EDB
:10072A00B1DCA4EF03F0020E0C6EACDCA4EF03F014
:10073A00040E0C6E83DCA4EF03F0000E0C6E1200A4
:10074A00086A096A000E076203642AEF04F002507D
:10075A0006180A6E075003267E0ED8A0BBEF03F0D8
:10076A00035ED8B02EEF04F0BFEF03F0035ED8A00B
:10077A0033EF04F0028E068E02C00EF001C00BF0B9
:10078A0000C00DF000500402F4CF0CF00150050235
:10079A00F4CF00F0F3CF08F00402F3500C26F45023
:1007AA000822000E00220D500502F3500C26F450C8
:1007BA000822000E002202500402F3500826F450C8
:1007CA00002202500502016A000E0122F35000269F
:1007DA00F45001220D500602F3500826F45000226C
:1007EA00026A000E012202220B500602F350002672
:1007FA00F4500122000E02220E500602F350012686
:10080A00F450022202BE12EF04F008360036013616
:10081A0002360306D8B433EF04F025EF04F0D8808B
:10082A00800E08640030000E002201220222D8A0A5
:10083A0025EF04F0023201320032034A2EEF04F0AF
:10084A000AAE029E000E35EF04F0010E03DC35EF0E
:10085A0004F0020E23EC00F035EF04F0040E05DC80
:02086A0012007A
:08086C000B6A0B86FF0E12005F
:0A08740016500101AA15006E1200D3
:0A087E00210E0D6E0D2EFED71200A4
:0608880000000000120058
:10088E000134083609360450085E0550D8A0053CE0
:10089E00095E003601360F0E0C6E0134083609362D
:1008AE00045000A006D0085E0550D8A0053C095E95
:1008BE0005D008260550D8B0053C0926003601366D
:1008CE000C2EEBD700B006D0045008260550D8B039
:0808DE00053C09260000120090
:1008E600086A080E0C6E003408360450085ED8B04C
:0E08F60002D00826D89000360C2EF5D712003E
:100904000F0E0C6E470E0D6E0D2EFED70C2EFCD75F
:06091400000000001200CB
:10091A00AAC1F2F0ABC1F3F0000E0001F46FF56F5B
:06092A00010EF16F120046
:10093000220E0C6E086A096A0A6A0B6A0C06D8B4A1
:100940001FD0D8900B320A320932083203320232F9
:1009500001320032D8A0F2D70C06D8B409D0045026
:1009600008260550092206500A2207500B22EAD712
:10097000045008260550092206500A2207500B226F
:02098000120063
:10098200086A096A100E0C6E0134083609360450E2
:10099200085E0550D8A0053C095ED8B007D00450C7
:1009A20008260550D8B0053C0926D89000360136F5
:0609B2000C2EEAD7120032
:1009B800400E006E1F0E016E000E026E036E1200D6
:0A09C80017500101A515006E120082
:1009D2000B6A0A6A096A086A0E6A03340836045006
:1009E200085E0550D8A0053C095E0650D8A0063C1A
:1009F2000A5E0750D8A0073C0B5EE86AD8A0010E39
:100A02000E5E0336070E0C6E0334083609360A36BC
:100A12000B360E36045003A012D0085E0550D8A043
:100A2200053C095E0650D8A0063C0A5E0750D8A0D5
:100A3200073C0B5EE86AD8A0010E0E5E11D00826B4
:100A42000550D8B0053C09260650D8B0063C0A2607
:100A52000750D8B0073C0B26E86AD8B0010E0E2624
:100A620003360C2ED1D70234083609360A360B3635
:100A72000E36045003A012D0085E0550D8A0053CE3
:100A8200095E0650D8A0063C0A5E0750D8A0073C73
:100A92000B5EE86AD8A0010E0E5E11D00826055042
:100AA200D8B0053C09260650D8B0063C0A260750A5
:100AB200D8B0073C0B26E86AD8B0010E0E260236E3
:100AC200070E0C6E0234083609360A360B360E361D
:100AD200045002A012D0085E0550D8A0053C095E61
:100AE2000650D8A0063C0A5E0750D8A0073C0B5E11
:100AF200E86AD8A0010E0E5E11D008260550D8B0C3
:100B0200053C09260650D8B0063C0A260750D8B044
:100B1200073C0B26E86AD8B0010E0E2602360C2ED0
:100B2200D1D70134083609360A360B360E36045050
:100B320002A012D0085E0550D8A0053C095E0650FE
:100B4200D8A0063C0A5E0750D8A0073C0B5EE86AB4
:100B5200D8A0010E0E5E11D008260550D8B0053C73
:100B620009260650D8B0063C0A260750D8B0073CE2
:100B72000B26E86AD8B0010E0E260136070E0C6E5F
:100B82000134083609360A360B360E36045001A0F7
:100B920012D0085E0550D8A0053C095E0650D8A0C8
:100BA200063C0A5E0750D8A0073C0B5EE86AD8A054
:100BB200010E0E5E11D008260550D8B0053C09265C
:100BC2000650D8B0063C0A260750D8B0073C0B2680
:100BD200E86AD8B0010E0E2601360C2ED1D70034A9
:100BE200083609360A360B360E36045001A012D0EA
:100BF200085E0550D8A0053C095E0650D8A0063C08
:100C02000A5E0750D8A0073C0B5EE86AD8A0010E26
:100C12000E5E11D008260550D8B0053C09260650B4
:100C2200D8B0063C0A260750D8B0073C0B26E86A23
:100C3200D8B0010E0E260036070E0C6E00340836B0
:100C420009360A360B360E36045000A012D0085E62
:100C52000550D8A0053C095E0650D8A0063C0A5EA5
:100C62000750D8A0073C0B5EE86AD8A0010E0E5EC2
:100C720011D008260550D8B0053C09260650D8B038
:100C8200063C0A260750D8B0073C0B26E86AD8B0C3
:100C9200010E0E2600360C2ED1D700B00ED0045015
:100CA20008260550D8B0053C09260650D8B0063CA7
:0C0CB2000A260750D8B0073C0B261200A1
:0C0CBE000001EB510101A515006E1200B1
:100CCA000450000A08E10550000A05E1FF0E006E13
:100CDA007F0E016E12000D6A096A086A015000103F
:100CEA00D8B4000C015005180A6E0ABE0D1E0B6A14
:100CFA0005AE05D0041E051E042AD8B4052A01AE85
:100D0A0005D0001E011E002AD8B4012A0150051080
:100D1A000A6E0ABE10D0B6DD0BB020D00DAE000CA4
:100D2A00001E011E002AD8B4012A081E091E082A1C
:100D3A00D8B4092A000C05AE0DD001BE07D0015067
:100D4A00096E0050086E016A006AE8D7016A006AF3
:100D5A00002A000C011E001E0B2ADDD7082AD8B46F
:100D6A00092A0450085CD8A4D9D70550095CD8A42C
:100D7A00D5D7096A086A002AD8B4012A01AECED7A3
:060D8A000000FF0C120046
:100D90000001F15306E1010E0101AA6F000EAB6FD5
:100DA000BCDDF2C000F0F3C001F0F4C002F0F5C009
:100DB00003F06D0E046E4E0E056EC60E066E410EED
:100DC000076EB6DD390E0024056E300E0120066E6A
:100DD000000E0220076E000E0320086E07C000F010
:100DE00008C001F0000E08BEFF0E036EFF0E0016D5
:100DF0007F0E0116000E0216031600C0F2F001C0AD
:0C0E0000F3F002C0F4F003C0F5F01200A3
:100E0C000B6A0A6A096A00500402F4CF09F0F3CFA6
:100E1C0008F001500502F4CF0BF0F3CF0AF00050AC
:100E2C000502F3500926F4500A22E86A0B220150FD
:100E3C000402F3500926F4500A22E86A0B2208C077
:100E4C0000F009C001F00AC002F00BC003F0120060
:100E5C000101A507A507A5C101F0A50701500008D0
:100E6C0003E200000000F7D70000000000000000C3
:040E7C000000120060
:100E8000010E0101A515016E0150010A03E1010ED9
:080E9000006E1200006A12005E
:100E9800A5C1AAF1EBDC0050020A03E1010E006EC5
:060EA8001200006A1200B6
:100EAE006E0E0101A55DD8A0C5D0640E046EA5C15D
:100EBE0000F012DD120E0024056E066A000E0622E8
:100ECE0005C000F006C001F0000E06BEFF0E026E59
:100EDE00036E00360090013602360336003600905F
:100EEE00013602360336730E0024F66E630E0120B1
:100EFE00F76E000E0220F86E0900F5CF00F0090023
:100F0E00F5CF01F00900F5CF02F00900F5CF03F09F
:100F1E00000E046E000E056E000E066E7E0E076E3F
:100F2E000DDC00C0A6F101C0A7F102C0A8F103C0FC
:100F3E00A9F1640E046EA5C100F0CEDC08C000F06D
:100F4E000A0E046EC9DC090E0024056E066A000E38
:100F5E00062205C000F006C001F0000E06BEFF0E10
:100F6E00026E036E003600900136023603360036EE
:100F7E000090013602360336730E0024F66E630EB1
:100F8E000120F76E000E0220F86E0900F5CF00F07A
:100F9E000900F5CF01F00900F5CF02F00900F5CFF9
:100FAE0003F0A6C104F0A7C105F0A8C106F0A9C1BF
:100FBE0007F0A5EC03F000C0A6F101C0A7F102C036
:100FCE00A8F103C0A9F10A0E046EA5C100F084DCDD
:100FDE0008C000F000C001F0000E026E036E046E39
:100FEE000136019002360336043601360190023680
:100FFE0003360436730E0124F66E630E0220F76E6E
:10100E00000E0320F86E0900F5CF00F00900F5CFB1
:10101E0001F00900F5CF02F00900F5CF03F0A6C1EB
:10102E0004F0A7C105F0A8C106F0A9C107F0A5EC10
:10103E0003F01200A5510A087CE20A0E046EA5C147
:10104E0000F04ADC090E0024056E066A000E062228
:10105E0005C000F006C001F0000E06BEFF0E026EC7
:10106E00036E0036009001360236033600360090CD
:10107E00013602360336730E0024F66E630E01201F
:10108E00F76E000E0220F86E0900F5CF00F0090091
:10109E00F5CF01F00900F5CF02F00900F5CF03F00E
:1010AE00000E046E000E056E000E066E7E0E076EAE
:1010BE00A5EC03F000C0A6F101C0A7F102C0A8F193
:1010CE0003C0A9F10A0E046EA5C100F005DC08C02C
:1010DE0000F000C001F0000E026E036E046E0136C9
:1010EE00019002360336043601360190023603367D
:1010FE000436730E0124F66E630E0220F76E000E98
:10110E000320F86E0900F5CF00F00900F5CF01F0CD
:10111E000900F5CF02F00900F5CF03F0A6C104F0E7
:10112E00A7C105F0A8C106F0A9C107F0A5EC03F010
:10113E001200A5C100F0000E016E026E036E0036A5
:10114E000090013602360336003600900136023624
:10115E000336730E0024F66E630E0120F76E000E3A
:10116E000220F86E0900F5CF00F00900F5CF01F06E
:10117E000900F5CF02F00900F5CF03F0000E046E62
:10118E00000E056E000E066E7E0E076EA5EC03F0C9
:02119E0012003D
:0811A000067E95EC01F012003F
:1011A8000050086E0150006E0250016E0350026E2E
:1011B800036A0B6A0C6A9E0E036E0A6A020E0C6EB4
:0611C80047EC00F01200EC
:1011CE000B6A0C6A086A0350D8B46BEF09F002C0C0
:1011DE000AF0028E9E0E035E03AE5BEF09F0036C07
:1011EE00080E035CD8A028EF09F0036E083600C085
:1011FE0008F001C000F002C001F0026A080E035CA4
:10120E00D8A028EF09F0036E083600C008F001C020
:10121E0000F0016A080E035CD8A028EF09F0036EF7
:10122E00083600C008F0006A080E035CD8A028EF4C
:10123E0009F0036E0836086A0350D8A4D89034EF2C
:10124E0009F00350D8B434EF09F0D89002320132CD
:10125E0000320832032E2CEF09F00BBC08A045EF2C
:10126E0009F0D8A045EF09F0082AD8B4002AD8B45E
:10127E00012AD8B4022A02BE6FEF09F00AAE6BEF54
:10128E0009F0021E011E001E081E082AD8B4002AEC
:10129E00D8B4012AD8B4022A6BEF09F0026A016AA7
:1012AE00006A086A6BEF09F00B800BAE76EF09F05F
:1012BE00026A0AAE76EF09F0026E016E006E086EDB
:1012CE000A36023276EF09F00C6A000E77EF09F05B
:1012DE00010E0C6E000E38EC01F077EF09F0FF0EE8
:1012EE000250036E0150026E0050016E0850006EE7
:0212FE001200DC
:0A130000020E0101A511006E12009B
:10130A00030E0101A515016E0150030A03E1010E46
:08131A00006E1200006A1200CF
:101322000101A5BF02D0839E01D0838EA5BD02D04C
:10133200839C01D0838CA5BB02D0839A01D0838A7F
:10134200A5B902D0839801D083880001FAB102D0F6
:10135200848001D08490848244EC04F08492010160
:10136200A5B702D0839E01D0838EA5B502D0839CFF
:1013720001D0838CA5B302D0839A01D0838AA5B110
:1013820002D0839801D083880001FAB102D0848010
:1013920001D08490848244EC04F08492FAA103D0B8
:0C13A20082EC04F002D03FEC04F01200DA
:1013AE0003500718D8A4EBEF09F002500618D8A482
:1013BE00EBEF09F001500518D8A4EBEF09F000503F
:0E13CE000418D8B4D8841200D894120012006B
:1013DC000A6A0350D8A40A800750D8A40A820A507B
:1013EC00D8B451EF0AF0030AD8B40AEF0AF00AB0E5
:1013FC0005EF0AF006AE4FEF0AF04DEF0AF002AE21
:10140C004DEF0AF04FEF0AF00250800B0A6E029E6D
:10141C000650800B069E0A18D8B41BEF0AF00A502F
:10142C00D8B44DEF0AF04FEF0AF00750035CD8B474
:10143C0025EF0AF0D8A041EF0AF047EF0AF006506A
:10144C00025CD8B42FEF0AF0D8A041EF0AF047EFB6
:10145C000AF00550015CD8B439EF0AF0D8A041EF7E
:10146C000AF047EF0AF00450005CD8B451EF0AF0D0
:10147C00D8B047EF0AF00A52D8B44FEF0AF04DEF4C
:10148C000AF00A52D8B44DEF0AF04FEF0AF0D880A8
:0E149C001200D8901200D880D88412001200DE
:1014AA000101A551390806E3300EA55D03E3010EDB
:0814BA00006E01D0006A12006F
:1014C200800E0101A519006E800E000A005CD8B0E2
:1014D2006DD1A5510008016E01C0A5F1800E011861
:1014E200006E800E6E0A005CD8A0C0D0640E046E3E
:1014F200A5C100F046EC01F0120E0024056E000EAC
:1015020000BEFF0E066E000E062205C000F006C0E9
:1015120001F0000E06BEFF0E026E036E0036009052
:1015220001360236033600360090013602360336A3
:10153200730E0024F66E630E0120F76E000E022079
:10154200F86E0900F5CFA6F10900F5CFA7F1090061
:10155200F5CFA8F10900F5CFA9F1640E046EA5C17B
:1015620000F046EC01F008C000F00A0E046E46ECF2
:1015720001F0090E0024056E000E00BEFF0E066E7D
:10158200000E062205C000F006C001F0000E06BEE5
:10159200FF0E026E036E00360090013602360336ED
:1015A20000360090013602360336730E0024F66EC2
:1015B200630E0120F76E000E0220F86E0900F5CFCF
:1015C20000F00900F5CF01F00900F5CF02F00900A3
:1015D200F5CF03F0A6C104F0A7C105F0A8C106F03B
:1015E200A9C107F0A5EC03F000C0A6F101C0A7F164
:1015F20002C0A8F103C0A9F10A0E046EA5C100F051
:1016020046EC01F008C000F000C001F0000E00BE80
:10161200FF0E026E036E046E01360190023603362F
:10162200043601360190023603360436730E012465
:10163200F66E630E0220F76E000E0320F86E0900AC
:10164200F5CF00F00900F5CF01F00900F5CF02F067
:101652000900F5CF03F0A6C104F0A7C105F0A8C1A7
:1016620006F0A9C107F0A5EC03F01200800E0A0AE9
:10167200006E800EA519005C71E20A0E046EA5C10F
:1016820000F046EC01F0090E0024056E000E00BECB
:10169200FF0E066E000E062205C000F006C001F025
:1016A200000E06BEFF0E026E036E0036009001367B
:1016B2000236033600360090013602360336730EC8
:1016C2000024F66E630E0120F76E000E0220F86E03
:1016D2000900F5CFA6F10900F5CFA7F10900F5CF72
:1016E200A8F10900F5CFA9F10A0E046EA5C100F018
:1016F20046EC01F008C000F000C001F0000E00BE90
:10170200FF0E026E036E046E01360190023603363E
:10171200043601360190023603360436730E012474
:10172200F66E630E0220F76E000E0320F86E0900BB
:10173200F5CF00F00900F5CF01F00900F5CF02F076
:101742000900F5CF03F0A6C104F0A7C105F0A8C1B6
:1017520006F0A9C107F0A5EC03F01200A5C100F044
:10176200000EA5BFFF0E016E026E036E00360090E2
:101772000136023603360036009001360236033651
:10178200730E0024F66E630E0120F76E000E022027
:10179200F86E0900F5CF00F00900F5CF01F009005D
:1017A200F5CF02F00900F5CF03F01200800EA51963
:1017B200006E800E6E0A005CD8A0C0D0640E046E6B
:1017C200A5C100F046EC01F0120E0024056E000ED9
:1017D20000BEFF0E066E000E062205C000F006C017
:1017E20001F0000E06BEFF0E026E036E0036009080
:1017F20001360236033600360090013602360336D1
:10180200A70E0024F66E630E0120F76E000E022072
:10181200F86E0900F5CFA6F10900F5CFA7F109008E
:10182200F5CFA8F10900F5CFA9F1640E046EA5C1A8
:1018320000F046EC01F008C000F00A0E046E46EC1F
:1018420001F0090E0024056E000E00BEFF0E066EAA
:10185200000E062205C000F006C001F0000E06BE12
:10186200FF0E026E036E003600900136023603361A
:1018720000360090013602360336A70E0024F66EBB
:10188200630E0120F76E000E0220F86E0900F5CFFC
:1018920000F00900F5CF01F00900F5CF02F00900D0
:1018A200F5CF03F0A6C104F0A7C105F0A8C106F068
:1018B200A9C107F0A5EC03F000C0A6F101C0A7F191
:1018C20002C0A8F103C0A9F10A0E046EA5C100F07E
:1018D20046EC01F008C000F000C001F0000E00BEAE
:1018E200FF0E026E036E046E01360190023603365D
:1018F200043601360190023603360436A70E01245F
:10190200F66E630E0220F76E000E0320F86E0900D9
:10191200F5CF00F00900F5CF01F00900F5CF02F094
:101922000900F5CF03F0A6C104F0A7C105F0A8C1D4
:1019320006F0A9C107F0A5EC03F01200800E0A0A16
:10194200006E800EA519005C71E20A0E046EA5C13C
:1019520000F046EC01F0090E0024056E000E00BEF8
:10196200FF0E066E000E062205C000F006C001F052
:10197200000E06BEFF0E026E036E003600900136A8
:101982000236033600360090013602360336A70EC1
:101992000024F66E630E0120F76E000E0220F86E30
:1019A2000900F5CFA6F10900F5CFA7F10900F5CF9F
:1019B200A8F10900F5CFA9F10A0E046EA5C100F045
:1019C20046EC01F008C000F000C001F0000E00BEBD
:1019D200FF0E026E036E046E01360190023603366C
:1019E200043601360190023603360436A70E01246E
:1019F200F66E630E0220F76E000E0320F86E0900E9
:101A0200F5CF00F00900F5CF01F00900F5CF02F0A3
:101A12000900F5CF03F0A6C104F0A7C105F0A8C1E3
:101A220006F0A9C107F0A5EC03F01200A5C100F071
:101A3200000EA5BFFF0E016E026E036E003600900F
:101A4200013602360336003600900136023603367E
:101A5200A70E0024F66E630E0120F76E000E022020
:101A6200F86E0900F5CF00F00900F5CF01F009008A
:0C1A7200F5CF02F00900F5CF03F01200E0
:101A7E000450000A12E10550000A0FE10650000A58
:101A8E000CE10750000A09E1FF0E006EFF0E016E19
:101A9E007F0E026EFF0E036E1200086A096A07506F
:101AAE00D8B4EAEF0DF00350D8B4EFEF0DF00250BA
:101ABE0006180A6E028E068E0E6A02C008F001C06B
:101ACE000CF000C00DF004500D5E0550D8A0053C82
:101ADE000C5E0650D8A0063C085E086A0C6A0D6AB9
:101AEE00D8A081EF0DF0D8900232013200320832C8
:101AFE00010E0E6E0750035ED8A08EEF0DF07E0E17
:101B0E000E240326D8B0F4EF0DF094EF0DF07E0EF8
:101B1E000E240326D8A0F9EF0DF0180E0B6E0D361D
:101B2E000C3608360036013602360E360450005E8C
:101B3E000550D8A0053C015E0650D8A0063C025EBA
:101B4E0006340E120EA0AFEF0DF00D80BAEF0DF0B1
:101B5E00045000260550D8B0053C01260650D8B0DA
:101B6E00062802260D900B2E96EF0DF0E0EF0DF0ED
:101B7E00D8900036013602360E360450005E0550FF
:101B8E00D8A0053C015E0650D8A0063C025E063485
:101B9E000E10010B0D26D8B00C2AD8B4082AD8A4E2
:101BAE00E0EF0DF008320C320D32032AD8B4F4EF08
:101BBE000DF00AAE089E0850026E0C50016E0D50CC
:101BCE00006EFCEF0DF0010E36EC04F0FCEF0DF0A4
:101BDE00020E2FEC00F0FCEF0DF0040E23EC00F0E3
:0C1BEE00FCEF0DF0080E3AEC00F01200C5
:101BFA000B6A0C6A0A6A086A0350D8B485EF0EF0B9
:101C0A00028E9E0E035E03BE10EF0EF0D8B410EFE4
:101C1A000EF075EF0EF0036C080E035CD8A042EFCD
:101C2A000EF0036E083600C008F001C000F002C0D2
:101C3A0001F0026A080E035CD8A042EF0EF0036EB0
:101C4A00083600C008F001C000F0016A080E035C03
:101C5A00D8A042EF0EF0036E083600C008F0006A02
:101C6A00080E035CD8A042EF0EF0036E0836086A2D
:101C7A000350D8A4D8904EEF0EF00350D8B44EEFCC
:101C8A000EF0D8900232013200320832032E46EFAB
:101C9A000EF00BBC08A05FEF0EF0D8A05FEF0EF0BD
:101CAA00082AD8B4002AD8B4012AD8B4022A02BE13
:101CBA0089EF0EF00AAE85EF0EF0021E011E001E1D
:101CCA00081E082AD8B4002AD8B4012AD8B4022A8D
:101CDA0085EF0EF0026A016A006A086A85EF0EF063
:101CEA000B800BAE8FEF0EF0026A0AAE8FEF0EF08A
:101CFA00026E016E006E086E0A3602328FEF0EF027
:101D0A00000E0C6A90EF0EF0010E0C6E38EC01F02A
:101D1A0090EF0EF0FF0E0250036E0150026E00505B
:081D2A00016E0850006E12006A
:0A1D3200FD0E01017E15006E120087
:101D3C007EC100F00032009E0032009E0032009EF8
:061D4C000032009E1200AF
:101D52000BC110F10CC111F162C10EF163C10FF19F
:101D62000BC100F00CC101F0140E046E000E056EE2
:101D720006EC07F0120E0026010E0122010162514B
:101D82000024E96E63510120EA6EEECFA5F15FEC0B
:101D920006F000C0EDF0005035180EE10E4B0F2B8F
:101DA200800E0F19006E800E005C02E1140E0E5DB3
:101DB20002E30E6B0F6B3CD00001ED51331813E1BF
:101DC200010E01010E5F000E0F5B800E0F19006EF7
:101DD200800E005C02E1000E0E5D04E2130E0E6F37
:101DE200000E0F6F25D00001ED5134180FE10101F3
:101DF200104B112B800E1119006E800E005C02E157
:101E0200040E105D02E3106B116B12D00101010E82
:101E1200105F000E115B800E1119006E800E005CC7
:101E220002E1000E105D04E2030E106F000E116F4E
:021E320012009C
:101E340001019D6B9E6B8A6B8B6B80C100F081C12D
:101E440001F082C102F0010E8027000E812382235B
:101E540000C0F6FF01C0F7FF02C0F8FF0900F5CF8C
:101E640000F000C087F10052D8B42EEF1FF0875164
:101E7400250A0BE07EC1E1FF7FC1E2FF87C1E6FFD7
:101E84007E4B7F2B9D4B9E2BD8D7886B896B8A6B9F
:101E94008B6B23D08A87010E8027000E8123822337
:101EA40059D08A81010E8027000E8123822352D0CB
:101EB4008A83010E8027000E812382234BD08B87D7
:101EC400010E8027000E8123822344D08A85010ECF
:101ED4008027000E812382233DD080C1F6FF81C17B
:101EE400F7FF82C1F8FF0900F5CF01F001502D0A78
:101EF400D1E080C1F6FF81C1F7FF82C1F8FF09007C
:101F0400F5CF01F00150200ACCE080C1F6FF81C179
:101F1400F7FF82C1F8FF0900F5CF01F001502B0A49
:101F2400C7E080C1F6FF81C1F7FF82C1F8FF090055
:101F3400F5CF01F00150230AC2E080C1F6FF81C150
:101F4400F7FF82C1F8FF0900F5CF01F00150300A14
:101F5400BDE001D09ED78AA301D08A918AA701D07F
:101F64008A9580C1F6FF81C1F7FF82C1F8FF09009D
:101F7400F5CF00F0000E016E00C0A5F155EC0AF09B
:101F8400005236E0886B896B88C100F089C101F08A
:101F94000A0E046E000E056E06EC07F080C1F6FF13
:101FA40081C1F7FF82C1F8FF0900F5CF02F00250AA
:101FB4000024886F000E0120896F300E885F000EA8
:101FC400895B010E8027000E8123822380C1F6FFE6
:101FD40081C1F7FF82C1F8FF0900F5CF00F0000EC0
:101FE400016E00C0A5F155EC0AF00052CDE133D0EA
:101FF40080C1F6FF81C1F7FF82C1F8FF0900F5CF68
:1020040001F001502A0A27E183C1E9FF84C1EAFFF4
:10201400EECF00F0EECF01F000C0E9FF01C0EAFF0F
:10202400EECF88F1EECF89F183C1E9FF84C1EAFFE5
:10203400020EEE24006E000EEE20016E83C1E1FF5D
:1020440084C1E2FF00C0E6FF01C0E6FF010E802765
:10205400000E8123822380C1F6FF81C1F7FF82C174
:10206400F8FF0900F5CF01F001502E0A70E1010ECE
:102074008027000E8123822380C1F6FF81C1F7FFF0
:1020840082C1F8FF0900F5CF01F001502A0A28E1C6
:1020940083C1E9FF84C1EAFFEECF00F0EECF01F087
:1020A40000C0E9FF01C0EAFFEECF85F1EECF86F173
:1020B40083C1E9FF84C1EAFF020EEE24006E000E24
:1020C400EE20016E83C1E1FF84C1E2FF00C0E6FFA0
:1020D40001C0E6FF010E8027000E8123822336D043
:1020E400856B866B80C1F6FF81C1F7FF82C1F8FF63
:1020F4000900F5CF00F0000E016E00C0A5F155EC0B
:102104000AF0005223E085C100F086C101F00A0EF6
:10211400046E000E056E06EC07F080C1F6FF81C167
:10212400F7FF82C1F8FF0900F5CF02F00250002446
:10213400856F000E0120866F300E855F000E865B72
:10214400010E8027000E81238223CCD703D0856B18
:10215400866B8B8980C100F081C101F082C102F0DD
:10216400010E8027000E8123822300C0F6FF01C0E8
:10217400F7FF02C0F8FF0900F5CF87F105D19DC133
:1021840000F09EC101F012008A89E4D78B8537D113
:102194008A8B8B8134D18B8332D18A8D30D12FD1EC
:1021A4008A8B8A8F2CD183C1E9FF84C1EAFFEECFE9
:1021B40000F0EECF01F000C0E9FF01C0EAFFEECF6E
:1021C40092F1EECF93F183C1E9FF84C1EAFF020EDD
:1021D400EE24006E000EEE20016E83C1E1FF84C187
:1021E400E2FF00C0E6FF01C0E6FF000E931902E122
:1021F400000E921911E1280E966F6E0E976F750EF0
:10220400986F6C0E996F6C0E9A6F290E9B6F9C6B76
:10221400960E926F010E936F946B956B9451922569
:10222400E96E95519321EA6EEE520BE0010E94256E
:10223400006E000E9521016E00C094F101C095F16D
:10224400EDD7855186110AE09551865D02E19451DE
:10225400855D04E285C194F186C195F18951955D4E
:1022640002E18851945D05E29451885F9551895B40
:1022740002D0886B896B8AB716D088C100F089C1F7
:1022840001F0010E885F000E895B005001100BE025
:102294007EC1E1FF7FC1E2FF200EE66E7E4B7F2B05
:1022A4009D4B9E2BEAD794C102F095C103F0010E19
:1022B400945D006E000E9559016E00C094F101C04A
:1022C40095F10250031019E092C1E9FF93C1EAFFAE
:1022D4007EC1E1FF7FC1E2FFEECFE6FF7E4B7F2BA5
:1022E400010E9225006E000E9321016E00C092F142
:1022F40001C093F19D4B9E2BD6D78AA716D088C1D7
:1023040000F089C101F0010E885F000E895B005066
:1023140001100BE07EC1E1FF7FC1E2FF200EE66EFB
:102324007E4B7F2B9D4B9E2BEAD787D583C1E9FF3C
:1023340084C1EAFFEECF00F0EECF01F000C0E9FF68
:1023440001C0EAFFEECF87F183C1E9FF84C1EAFF50
:10235400020EEE24006E000EEE20016E83C1E1FF3A
:1023640084C1E2FF00C0E6FF01C0E6FF870E926F62
:10237400010E936F010E946F000E956F62D7C00E1D
:102384008A13000E8B133BD08751000AD8B4F7D6BA
:1023940087516C0AD8B4F8D68751660AD8B4F6D6F1
:1023A4008751450AD8B4F4D68751650AD8B4F1D612
:1023B4008751670AD8B4EFD687516F0AD8B4EDD6DF
:1023C4008751640AD8B4EBD68751690AD8B4E7D6E2
:1023D4008751700AD8B4E4D68751580AD8B4E0D6E5
:1023E4008751780AD8B4DDD68751730AD8B4DBD6BE
:1023F4008751630A9BE08751750AC1E0B7D7000E85
:102404008A15006E8B51070B016E00500110D8B471
:10241400D9EF1AF08BA904D0060E856F000E866FD3
:1024240083C1E9FF84C1EAFFEECF00F0EECF01F0F3
:1024340000C0E9FF01C0EAFFEECF8CF1EECF8DF1D1
:10244400EECF8EF1EECF8FF183C1E9FF84C1EAFFB5
:10245400040EEE24006E000EEE20016E83C1E1FF37
:1024640084C1E2FF00C0E6FF01C0E6FF046A056A1A
:10247400066A076A8CC100F08DC101F08EC102F0BA
:102484008FC103F0EEEC09F0010ED8B0000E006E1F
:10249400005205E08E7F030E8A13000E8B13906B9F
:1024A400916B8CC100F08DC101F08EC102F08FC11F
:1024B40003F0046A056A066A076AD7EC09F0000E9D
:1024C400D8A4010E006E0052D8B48AD08FC100F097
:1024D400016A026A036AFF0E0016000E01167E0EE0
:1024E400005E000E015A00C090F101C091F1010E8E
:1024F400005E000E015A00C090F101C091F1030E7C
:10250400046E000E056E06EC07F000C090F101C0E9
:1025140091F10A0E046E000E056E65EC06F000C023
:1025240090F101C091F1800E0118026E800E025CE0
:1025340002E1000E005C05E2010E0101905F000E55
:10254400915B010190510008A56F61EC0AF08CC108
:1025540004F08DC105F08EC106F08FC107F0A5EC23
:1025640003F000C092F101C093F102C094F103C0E2
:1025740095F1000E046E000E056E000E066E7F0EC1
:10258400076E92C100F093C101F094C102F095C1AD
:1025940003F0EEEC09F0010ED8B0000E006E00520C
:1025A40005E0010E905F000E915B1AD0000E046EE0
:1025B400000E056E200E066E820E076E92C100F0AC
:1025C40093C101F094C102F095C103F0EEEC09F05F
:1025D400000ED8B0010E006E005202E0904B912B19
:1025E400800E006E800E9119005C02E1905100088B
:1025F40003E3010E876F02D090C187F18BB118D02D
:102604008BA315D0800E9119006E7F0E005C02E141
:10261400FC0E905D0BE3800E9119006E800E8619FE
:10262400005C02E18551905D01E201D001D0F1D35B
:102634008551861106E08BA304D0010E855F000E40
:10264400865B000E006E8651005C02E1855108082D
:1026540003E2080E876F02D085C187F18CC100F0B8
:102664008DC101F08EC102F08FC103F0046A056AC6
:10267400066A076AD7EC09F0000ED8A4010E006EB2
:102684000052D8B44BD190C1A5F161EC0AF000C05E
:1026940004F001C005F002C006F003C007F08CC1CD
:1026A40000F08DC101F08EC102F08FC103F03FEC48
:1026B4000DF000C08CF101C08DF102C08EF103C099
:1026C4008FF1010187510008A56F61EC0AF000C089
:1026D40004F001C005F002C006F003C007F08CC18D
:1026E40000F08DC101F08EC102F08FC103F03FEC08
:1026F4000DF000C09FF101C0A0F102C0A1F103C020
:10270400A2F19FC18CF1A0C18DF1A1C18EF1A2C132
:102714008FF19FC100F0A0C101F0A1C102F0A2C1DC
:1027240003F0FDEC0DF0D4EC08F000C004F001C09F
:1027340005F002C006F003C007F09FC100F0A0C17D
:1027440001F0A1C102F0A2C103F0D0EC08F0000E28
:10275400046E000E056E000E066E7E0E076EEEEC25
:1027640009F0000ED8B0010E006E00521AE08CC1C0
:1027740000F08DC101F08EC102F08FC103F0000E94
:10278400046E000E056E000E066E7E0E076E95EC4E
:1027940001F000C08CF101C08DF102C08EF103C0C4
:1027A4008FF18CC100F08DC101F08EC102F08FC198
:1027B40003F0FDEC0DF001018751010F096E0A6A67
:1027C400000E0A2209C004F00AC005F0000E0ABE79
:1027D400FF0E066E076E043604900536063607367D
:1027E400043604900536063607360B0E0424F66EBE
:1027F400640E0520F76E000E0620F86E0900F5CF72
:1028040005F00900F5CF06F00900F5CF07F009003F
:10281400F5CF08F00850035C08E10750025C05E1BD
:102824000650015C02E10550005C1EE301018CC10D
:1028340000F08DC101F08EC102F08FC103F0CD0E06
:10284400046ECC0E056E4C0E066E7B0E076EA5EC68
:1028540003F000C08CF101C08DF102C08EF103C001
:102864008FF1904B912B5AD08CC100F08DC101F0A7
:102874008EC102F08FC103F0FDEC0DF087C104F0AE
:10288400000E056E066E076E043604900536063695
:102894000736043604900536063607360B0E042434
:1028A400F66E640E0520F76E000E0620F86E090021
:1028B400F5CF05F00900F5CF06F00900F5CF07F0D4
:1028C4000900F5CF08F00850035C08E10750025CEA
:1028D40005E10650015C02E10550005C1FE20101C4
:1028E4008CC100F08DC101F08EC102F08FC103F0E4
:1028F400000E046E000E056E200E066E820E076E2C
:10290400A5EC03F000C08CF101C08DF102C08EF182
:1029140003C08FF1010E905F000E915B01018BA348
:1029240093D08BB791D0800E000A006E800E86196A
:10293400005C02E185510A0804E20A0E856F000E6C
:10294400866F8CC100F08DC101F08EC102F08FC181
:1029540003F0FDEC0DF000C092F101C093F102C050
:1029640094F103C095F1925193119411951142E0A1
:102974000A0E046E000E056E066E076E92C100F01C
:1029840093C101F094C102F095C103F0E9EC04F0A5
:1029940008C000F009C001F00AC002F00BC003F047
:1029A400000E046E031808E10450021805E10450F7
:1029B400011802E10050000A1DE1010E855F000EBE
:1029C400865B0A0E046E000E056E066E076E92C1DB
:1029D40000F093C101F094C102F095C103F0E9EC59
:1029E40004F000C092F101C093F102C094F103C05D
:1029F40095F1B9D7800E8619006E800E005C02E155
:102A04008751855D21E28551875DA56F61EC0AF0F0
:102A140000C004F001C005F002C006F003C007F0D6
:102A24008CC100F08DC101F08EC102F08FC103F0A2
:102A34003FEC0DF000C08CF101C08DF102C08EF1AD
:102A440003C08FF185C187F1050E01018525006E54
:102A5400000E8621016E0050885F0150895B85510C
:102A6400861103E18BB701D004D0010E885F000EFC
:102A7400895B030E8A15006E8BC101F0000E0116EE
:102A84000050011004E0010E885F000E895B8AA5E6
:102A940039D08AA312D08AA103D02D0E006E02D0A1
:102AA4002B0E006E7EC1E1FF7FC1E2FF00C0E6FF96
:102AB4007E4B7F2B9D4B9E2B0CD08AA10AD07EC1CE
:102AC400E1FF7FC1E2FF200EE66E7E4B7F2B9D4B24
:102AD4009E2B800E006E800E8919005C02E18851E5
:102AE40000080FE27EC1E1FF7FC1E2FF300EE66E17
:102AF4007E4B7F2B9D4B9E2B010E885F000E895BC6
:102B0400E8D73AD08AB718D0800E006E800E8919A3
:102B1400005C02E1885100080FE27EC1E1FF7FC141
:102B2400E2FF200EE66E7E4B7F2B9D4B9E2B010E0B
:102B3400885F000E895BE8D78AA312D08AA103D0EC
:102B44002D0E006E02D02B0E006E7EC1E1FF7FC100
:102B5400E2FF00C0E6FF7E4B7F2B9D4B9E2B0CD0EB
:102B64008AA10AD07EC1E1FF7FC1E2FF200EE66E9A
:102B74007E4B7F2B9D4B9E2B8CC100F08DC101F0B1
:102B84008EC102F08FC103F0FDEC0DF000C092F194
:102B940001C093F102C094F103C095F187C100F024
:102BA400000E016E026E036E00360090013602368E
:102BB4000336003600900136023603360B0E00242D
:102BC400F66E640E0120F76E000E0220F86E090006
:102BD400F5CF04F00900F5CF05F00900F5CF06F0B4
:102BE4000900F5CF07F092C100F093C101F094C140
:102BF40002F095C103F0E9EC04F0300E00267EC12A
:102C0400E1FF7FC1E2FF00C0E6FF7E4B7F2B9D4BBF
:102C14009E2B8551861103E18BB701D06FD07EC105
:102C2400E1FF7FC1E2FF2E0EE66E7E4B7F2B9D4BB4
:102C34009E2B8751855F000E865B87534DE0870787
:102C440087C100F0000E016E026E036E0036009024
:102C5400013602360336003600900136023603365A
:102C64000B0E0024F66E640E0120F76E000E022097
:102C7400F86E0900F5CF04F00900F5CF05F009005E
:102C8400F5CF06F00900F5CF07F092C100F093C12B
:102C940001F094C102F095C103F0E9EC04F00A0ECE
:102CA400046E000E056E066E076EE9EC04F008C0B3
:102CB40000F009C001F00AC002F00BC003F0300EAE
:102CC40000267EC1E1FF7FC1E2FF00C0E6FF7E4B2C
:102CD4007F2B9D4B9E2BB1D7855186110FE07EC172
:102CE400E1FF7FC1E2FF300EE66E7E4B7F2B9D4BF2
:102CF4009E2B010E855F000E865BEED78AAB0BD050
:102D04007EC1E1FF7FC1E2FF450EE66E7E4B7F2B65
:102D14009D4B9E2B0AD07EC1E1FF7FC1E2FF650E71
:102D2400E66E7E4B7F2B9D4B9E2B800E9119006E81
:102D3400800E005C02E1000E905D11E290510008EB
:102D4400906F9151000E91577EC1E1FF7FC1E2FF68
:102D54002D0EE66E7E4B7F2B9D4B9E2B0AD07EC1A3
:102D6400E1FF7FC1E2FF2B0EE66E7E4B7F2B9D4B76
:102D74009E2B0A0E046E000E056E90C100F091C1E8
:102D840001F065EC06F0300E00267EC1E1FF7FC144
:102D9400E2FF00C0E6FF01017E4B7F2B9D4B9E2B83
:102DA4000A0E046E000E056E90C100F091C101F090
:102DB40065EC06F008C000F009C001F0300E0026F2
:102DC4007EC1E1FF7FC1E2FF00C0E6FF01017E4B4F
:102DD4007F2B9D4B9E2B8AA71AD0800E006E800EEF
:102DE4008919005C02E18851000811E27EC1E1FF0B
:102DF4007FC1E2FF200EE66E7E4B7F2B9D4B9E2B08
:102E0400010E885F000E895B88518911EFE11FEF85
:102E14000FF08BA3F3D0800E9119006E800E005C2E
:102E240002E1000E905D0AE2010E905D006E000E5C
:102E34009159016E0050855F0150865B8CC100F092
:102E44008DC101F08EC102F08FC103F0FDEC0DF0D5
:102E540000C092F101C093F102C094F103C095F156
:102E6400010E876F87510A0A34E087C100F0000E13
:102E7400016E026E036E0036009001360236033690
:102E8400003600900136023603360B0E0024F66E2F
:102E9400640E0120F76E000E0220F86E0900F5CFD3
:102EA40001F00900F5CF02F00900F5CF03F00900A5
:102EB400F5CF04F00450955D08E10350945D05E1FD
:102EC4000250935D02E10150925D01E202D0872B32
:102ED400C9D78751855DA36F000E8659A46FA3C11E
:102EE40085F1A4C186F192C100F093C101F094C1AF
:102EF40002F095C103F0D4EC08F000C004F001C066
:102F040005F002C006F003C007F08CC100F08DC1CB
:102F140001F08EC102F08FC103F0D0EC08F000C0C4
:102F24009FF101C0A0F102C0A1F103C0A2F1A3C1AD
:102F3400A5F161EC0AF09FC104F0A0C105F0A1C1A4
:102F440006F0A2C107F0A5EC03F0000E046E000E1B
:102F5400056E000E066E7E0E076E95EC01F0FDEC1C
:102F64000DF000C092F101C093F102C094F103C0CE
:102F740095F18551861142E00A0E046E000E056E2D
:102F8400066E076E92C100F093C101F094C102F085
:102F940095C103F0E9EC04F008C000F009C001F0A9
:102FA4000AC002F00BC003F0000E046E031808E11F
:102FB4000450021805E10450011802E10050000A0F
:102FC4001DE10A0E046E000E056E066E076E92C1B8
:102FD40000F093C101F094C102F095C103F0E9EC53
:102FE40004F000C092F101C093F102C094F103C057
:102FF40095F1010E855F000E865BBBD7800E006ED7
:10300400800E8619005C02E185510C0816E385C127
:10301400A5F157EC07F08CC104F08DC105F08EC109
:1030240006F08FC107F095EC01F000C08CF101C0EF
:103034008DF102C08EF103C08FF18CC100F08DC1FF
:1030440001F08EC102F08FC103F0046A056A066ABA
:10305400076AD7EC09F0000ED8A4010E006E0052E6
:10306400D8B477D08CC100F08DC101F08EC102F0CC
:103074008FC103F0FDEC0DF0000E046E031808E19F
:103084000450021805E10450011802E10050000A3E
:1030940060E1800E006E800E9119005C02E1905197
:1030A400010857E290C1A5F161EC0AF000C004F0F8
:1030B40001C005F002C006F003C007F08CC100F0A7
:1030C4008DC101F08EC102F08FC103F03FEC0DF011
:1030D4005F0E046E700E056E090E066E810E076E8D
:1030E400EEEC09F0010ED8B0000E006E005206E0BE
:1030F400090E0101905F000E915B05D00101080EDD
:10310400905F000E915B90C1A5F161EC0AF000C0E4
:1031140004F001C005F002C006F003C007F08CC142
:1031240000F08DC101F08EC102F08FC103F03FECBD
:103134000DF0FDEC0DF000C092F101C093F102C05E
:1031440094F103C095F101018C6B8D6B8E6B8F6BC9
:1031540038D08CC100F08DC101F08EC102F08FC156
:1031640003F0FDEC0DF000C092F101C093F102C038
:1031740094F103C095F192C100F093C101F094C1A0
:1031840002F095C103F0D4EC08F000C004F001C0D3
:1031940005F002C006F003C007F08CC100F08DC139
:1031A40001F08EC102F08FC103F0D0EC08F000C032
:1031B4008CF101C08DF102C08EF103C08FF1906BD0
:1031C400916B010E876F87510A0A34E087C100F0C2
:1031D400000E016E026E036E003600900136023658
:1031E4000336003600900136023603360B0E0024F7
:1031F400F66E640E0120F76E000E0220F86E0900D0
:10320400F5CF01F00900F5CF02F00900F5CF03F086
:103214000900F5CF04F00450955D08E10350945D76
:1032240005E10250935D02E10150925D01E202D09A
:10323400872BC9D787518525006E000E8621016E24
:1032440090510026915101220050885F0150895B02
:103254008BB704D08551861101E104D0010E885F3B
:10326400000E895B030E8A15006E8BC101F0000EFF
:1032740001160050011004E0010E885F000E895B06
:103284008AA539D08AA312D08AA103D02D0E006E4C
:1032940002D02B0E006E7EC1E1FF7FC1E2FF00C0B1
:1032A400E6FF7E4B7F2B9D4B9E2B0CD08AA10AD030
:1032B4007EC1E1FF7FC1E2FF200EE66E7E4B7F2BD5
:1032C4009D4B9E2B800E006E800E8919005C02E1DE
:1032D400885100080FE27EC1E1FF7FC1E2FF300E9A
:1032E400E66E7E4B7F2B9D4B9E2B010E885F000E5E
:1032F400895BE8D73AD08AB718D0800E006E800E6A
:103304008919005C02E1885100080FE27EC1E1FFE7
:103314007FC1E2FF200EE66E7E4B7F2B9D4B9E2BE2
:10332400010E885F000E895BE8D78AA312D08AA1B8
:1033340003D02D0E006E02D02B0E006E7EC1E1FF75
:103344007FC1E2FF00C0E6FF7E4B7F2B9D4B9E2B8F
:103354000CD08AA10AD07EC1E1FF7FC1E2FF200E1A
:10336400E66E7E4B7F2B9D4B9E2B87C100F087071B
:1033740000524CE087C100F0000E016E026E036E35
:1033840000360090013602360336003600900136CE
:10339400023603360B0E0024F66E640E0120F76E1F
:1033A400000E0220F86E0900F5CF04F00900F5CFF5
:1033B40005F00900F5CF06F00900F5CF07F092C13A
:1033C40000F093C101F094C102F095C103F0E9EC5F
:1033D40004F00A0E046E000E056E066E076EE9EC2C
:1033E40004F008C000F009C001F00AC002F00BC0EC
:1033F40003F0300E00267EC1E1FF7FC1E2FF00C072
:10340400E6FF7E4B7F2B9D4B9E2BAFD7800E006E2D
:10341400800E9119005C02E1905100080FE27EC118
:10342400E1FF7FC1E2FF300EE66E7E4B7F2B9D4BAA
:103434009E2B010E905F000E915BE8D7800E000A70
:10344400006E800E8619005C02E18551080803E2D3
:10345400080E876F02D085C187F18751855F000E02
:10346400865B875303E18BB701D00AD07EC1E1FFAD
:103474007FC1E2FF2E0EE66E7E4B7F2B9D4B9E2B73
:1034840087C1A5F161EC0AF08CC104F08DC105F08F
:103494008EC106F08FC107F0A5EC03F0E7EC08F04D
:1034A40000C092F101C093F102C094F103C095F100
:1034B40087534DE0870787C100F0000E016E026E4E
:1034C400036E003600900136023603360036009053
:1034D4000136023603360B0E0024F66E640E01200C
:1034E400F76E000E0220F86E0900F5CF04F0090013
:1034F400F5CF05F00900F5CF06F00900F5CF07F088
:1035040092C100F093C101F094C102F095C103F09F
:10351400E9EC04F00A0E046E000E056E066E076EEA
:10352400E9EC04F008C000F009C001F00AC002F0A0
:103534000BC003F0300E00267EC1E1FF7FC1E2FF25
:1035440000C0E6FF7E4B7F2B9D4B9E2BB1D7855150
:1035540086110FE07EC1E1FF7FC1E2FF300EE66E0F
:103564007E4B7F2B9D4B9E2B010E855F000E865B51
:10357400EED78AA71AD0800E006E800E8919005CDF
:1035840002E18851000811E27EC1E1FF7FC1E2FF40
:10359400200EE66E7E4B7F2B9D4B9E2B010E885F8B
:1035A400000E895B88518911EFE11FEF0FF0C00E07
:1035B4008A15016E8BC102F0000E0216000E02186D
:1035C40002E1000E0118D8A47CD08AA927D083C1B7
:1035D400E9FF84C1EAFFEECF00F0EECF01F000C0B6
:1035E400E9FF01C0EAFFEECF92F1EECF93F1EECF07
:1035F40094F1EECF95F183C1E9FF84C1EAFF040E93
:10360400EE24006E000EEE20016E83C1E1FF84C142
:10361400E2FF00C0E6FF01C0E6FF2BD083C1E9FF53
:1036240084C1EAFFEECF00F0EECF01F000C0E9FF65
:1036340001C0EAFFEECF00F0EECF01F000C092F13E
:1036440001C093F1000E01BEFF0E946F956F83C10C
:10365400E9FF84C1EAFF020EEE24006E000EEE20A4
:10366400016E83C1E1FF84C1E2FF00C0E6FF01C037
:10367400E6FF800E9519006E800E005C08E1000ED6
:10368400945D05E1000E935D02E1000E925D18E287
:10369400030E8A13000E8B13006A016A026A036A1E
:1036A4009251005E9351015A9451025A9551035A12
:1036B40000C092F101C093F102C094F103C095F1EE
:1036C4004ED08AA927D083C1E9FF84C1EAFFEECF97
:1036D40000F0EECF01F000C0E9FF01C0EAFFEECF39
:1036E40092F1EECF93F1EECF94F1EECF95F183C149
:1036F400E9FF84C1EAFF040EEE24006E000EEE2002
:10370400016E83C1E1FF84C1E2FF00C0E6FF01C096
:10371400E6FF25D083C1E9FF84C1EAFFEECF00F0C4
:10372400EECF01F000C0E9FF01C0EAFFEECF92F155
:10373400EECF93F1000E946F956F83C1E9FF84C1BE
:10374400EAFF020EEE24006E000EEE20016E83C12D
:10375400E1FF84C1E2FF00C0E6FF01C0E6FF000E06
:10376400861902E1000E85190FE1000E006E95190D
:1037740008E10050941905E10050931902E19251B7
:10378400000A02E1854B862BC00E8A15006E00C02C
:1037940005F0AED0010E876F87510A0A34E087C165
:1037A40000F0000E016E026E036E003600900136CA
:1037B40002360336003600900136023603360B0E0D
:1037C4000024F66E640E0120F76E000E0220F86EDF
:1037D4000900F5CF01F00900F5CF02F00900F5CF9B
:1037E40003F00900F5CF04F00450955D08E103509F
:1037F400945D05E10250935D02E10150925D01E2A6
:1038040002D0872BC9D782D0010E876F8751080A4F
:1038140034E087C100F0000E016E026E036E0036C4
:103824000090013602360336003600900136023627
:103834000336330E0024F66E640E0120F76E000E7C
:103844000220F86E0900F5CF01F00900F5CF02F06F
:103854000900F5CF03F00900F5CF04F00450955D9D
:1038640008E10350945D05E10250935D02E10150CB
:10387400925D01E202D0872BC9D748D0010E876F31
:1038840087510C0A34E087C100F0000E016E026E0D
:10389400036E00360090013602360336003600907F
:1038A400013602360336DB0E0024F66E630E012069
:1038B400F76E000E0220F86E0900F5CF01F0090042
:1038C400F5CF02F00900F5CF03F00900F5CF04F0BD
:1038D4000450955D08E10350945D05E10250935D49
:1038E40002E10150925D01E202D0872BC9D70ED0CC
:1038F4000550000AD8B44ED70550C00AD8B44AD7E8
:103904000550800A81E00550400AB8E0800E006E40
:10391400800E8619005C02E18551875D03E285C152
:1039240087F10DD0800E8619006E800E005C02E1D6
:103934008751855D04E287C185F1000E866F885149
:1039440089110EE0030E8A15006E8BC101F0000E82
:1039540001160050011004E0010E885F000E895B1F
:10396400800E8619006E800E8919005C02E1885170
:10397400855D05E28551885F8651895B02D0886B3D
:10398400896BC40E8A15016E8B51080B026E0250AE
:10399400080A02E1400E011808E18851891104E087
:1039A400010E885F000E895B1CD0C00E8A15016E63
:1039B4008B51080B026E0250080A02E1800E0118B6
:1039C40010E1800E006E800E8919005C02E18851BE
:1039D400020805E2020E885F000E895B02D0886B44
:1039E400896B8AA55DD08AA312D08AA103D02D0E3B
:1039F400006E02D02B0E006E7EC1E1FF7FC1E2FF9C
:103A040000C0E6FF7E4B7F2B9D4B9E2B34D08AA1BA
:103A14000BD07EC1E1FF7FC1E2FF200EE66E7E4B3C
:103A24007F2B9D4B9E2B27D0C00E8A15016E8B5188
:103A3400080B026E0250080A02E1800E01181BE115
:103A44007EC1E1FF7FC1E2FF300EE66E7E4B7F2B2D
:103A54009D4B9E2B8AAB03D0580E006E02D0780E7D
:103A6400006E7EC1E1FF7FC1E2FF00C0E6FF7E4B36
:103A74007F2B9D4B9E2B8851891111E07EC1E1FF64
:103A84007FC1E2FF300EE66E7E4B7F2B9D4B9E2B5B
:103A9400010E885F000E895B88518911EFE174D0B3
:103AA4008851891113E08AB711D07EC1E1FF7FC12B
:103AB400E2FF200EE66E7E4B7F2B9D4B9E2B010E6C
:103AC400885F000E895B88518911EFE18AA312D0C7
:103AD4008AA103D02D0E006E02D02B0E006E7EC183
:103AE400E1FF7FC1E2FF00C0E6FF7E4B7F2B9D4BD1
:103AF4009E2B0CD08AA10AD07EC1E1FF7FC1E2FFD8
:103B0400200EE66E7E4B7F2B9D4B9E2BC00E8A159E
:103B1400016E8B51080B026E0250080A02E1400E3E
:103B240001180BE17EC1E1FF7FC1E2FF300EE66EBA
:103B34007E4B7F2B9D4B9E2B27D0C00E8A15016E8A
:103B44008B51080B026E0250080A02E1800E011824
:103B54001BE17EC1E1FF7FC1E2FF300EE66E7E4BCA
:103B64007F2B9D4B9E2B8AAB03D0580E006E02D048
:103B7400780E006E7EC1E1FF7FC1E2FF00C0E6FF68
:103B84007E4B7F2B9D4B9E2B800E006E800E8619E4
:103B9400005C02E18551875D0BE27EC1E1FF7FC1DC
:103BA400E2FF300EE66E7E4B7F2B9D4B9E2BECD7B7
:103BB40085C100F086C101F0010E855F000E865BB1
:103BC40000500110D8B42AD1C00E8A15006E00C06E
:103BD4009FF10AD185C100F086C101F0000E86BFB5
:103BE400FF0E026E036E0036009001360236033675
:103BF400003600900136023603360B0E0024F66EB2
:103C0400640E0120F76E000E0220F86E0900F5CF55
:103C140004F00900F5CF05F00900F5CF06F009001E
:103C2400F5CF07F092C100F093C101F094C102F006
:103C340095C103F0E9EC04F00A0E046E000E056E63
:103C4400066E076EE9EC04F008C000F009C001F04C
:103C54000AC002F00BC003F0300E0024876FD3D0EB
:103C64008AAB45D085C100F086C101F0000E86BF45
:103C7400FF0E026E036E00360090013602360336E4
:103C840000360090013602360336330E0024F66EF9
:103C9400640E0120F76E000E0220F86E0900F5CFC5
:103CA40004F00900F5CF05F00900F5CF06F009008E
:103CB400F5CF07F092C100F093C101F094C102F076
:103CC40095C103F0E9EC04F00F0E0016000E011686
:103CD40002160316530E0024F66E640E0120F76ECE
:103CE400000E0220F86E0900F5CF87F144D085C19B
:103CF40000F086C101F0000E86BFFF0E026E036E57
:103D04000036009001360236033600360090013644
:103D140002360336330E0024F66E640E0120F76E6D
:103D2400000E0220F86E0900F5CF04F00900F5CF6B
:103D340005F00900F5CF06F00900F5CF07F092C1B0
:103D440000F093C101F094C102F095C103F0E9ECD5
:103D540004F00F0E0016000E011602160316640E70
:103D64000024F66E640E0120F76E000E0220F86E39
:103D74000900F5CF87F147D085C100F086C101F075
:103D8400000E86BFFF0E026E036E003600900136F1
:103D94000236033600360090013602360336DB0E57
:103DA4000024F66E630E0120F76E000E0220F86EFA
:103DB4000900F5CF04F00900F5CF05F00900F5CFAF
:103DC40006F00900F5CF07F092C100F093C101F0AD
:103DD40094C102F095C103F0E9EC04F0070E00145D
:103DE400876F300E87270FD09F51000AD8B4F2D6C0
:103DF4009F51C00AD8B4EED69F51800AD8B430D7A8
:103E04009F51400AB9E07EC1E1FF7FC1E2FF87C153
:103E1400E6FF7E4B7F2B9D4B9E2BCAD68AA71AD0DA
:103E2400800E006E800E8919005C02E18851000842
:103E340011E27EC1E1FF7FC1E2FF200EE66E7E4B00
:103E44007F2B9D4B9E2B010E885F000E895B885152
:103E54008911EFE11FEF0FF09DC100F09EC101F049
:023E640012004A
:103E66000001ED51351825E10BC100F00CC101F040
:103E7600140E046E000E056E06EC07F0120E0026F8
:103E8600010E0122010162510024026E63510120DC
:103E9600036E02C0E9FF03C0EAFFF30EEE14006EE4
:103EA6003450001202C0E1FF03C0E2FF00C0E6FF8B
:103EB60076D00001ED51331825E10BC100F00CC19D
:103EC60001F0140E046E000E056E06EC07F0120EDD
:103ED6000026010E0122010162510024026E635187
:103EE6000120036E02C0E9FF03C0EAFFF30EEE14E1
:103EF600006E1C50001202C0E1FF03C0E2FF00C0CA
:103F0600E6FF4DD00001ED51341825E10BC100F05C
:103F16000CC101F0140E046E000E056E06EC07F0DF
:103F2600120E0026010E0122010162510024026ECA
:103F360063510120036E02C0E9FF03C0EAFFF30EDE
:103F4600EE14006E3350001202C0E1FF03C0E2FF20
:103F560000C0E6FF24D001010BC100F00CC101F046
:103F6600140E046E000E056E06EC07F0120E002607
:103F7600010E012262510024026E63510120036E7C
:103F860002C0E9FF03C0EAFFF30EEE14006E3550DF
:103F9600001202C0E1FF03C0E2FF00C0E6FF12000C
:103FA600C8EC06F0040E046E000E056E65EC06F015
:103FB60008C000F009C001F000C00BF101C00CF10F
:103FC600C8EC06F0140E046E000E056E65EC06F0E5
:103FD60008C000F009C001F000C062F101C063F141
:103FE6000BC100F00CC101F0140E046E000E056E3C
:103FF60006EC07F0120E0026010E012201016251A5
:104006000024E96E63510120EA6EEECFA5F14CEC77
:1040160007F0005217E00BC100F00CC101F0140EBE
:10402600046E000E056E06EC07F0120E0026010E59
:10403600012262510024E16E63510120E26E010EFD
:08404600E66E01D0ADD71200B7
:10404E00DCEC04F0E80E046E030E056E000E066E38
:10405E00076E98EC04F000C086F101C087F102C033
:10406E0088F103C089F17EC104F07FC105F0000E16
:10407E00066E076EE9EC04F000C086F101C087F110
:10408E0002C088F103C089F100C005F001C006F03E
:10409E0002C007F003C008F00832073206320532BC
:1040AE00089E0832073206320532089E05C000F01F
:1040BE0006C001F007C002F008C003F0033202325E
:1040CE0001320032039E00C082F101C083F1DCECAC
:1040DE0004F080C104F081C105F0000E066E076E7B
:1040EE0098EC04F082C109F083C10AF0000E0B6E49
:1040FE000C6E030E086E09C004F00AC005F00BC06A
:10410E0006F00CC007F0085007E0043604900536A0
:10411E0006360736FF0FF8D7E9EC04F000C086F13B
:10412E0001C087F102C088F103C089F10A0E046E46
:10413E00000E056E82C100F083C101F0C1EC04F0E7
:10414E0000C082F101C083F1000E015C02E1030E9A
:10415E00005C01E2120005C1E9FF06C1EAFF0101A0
:10416E008951000808E18851000805E187510008CF
:10417E0002E18651000835E20001FF51EF12010104
:10418E0083530EE0846B856B000E855D02E18351D7
:10419E00845D06E2A56B2EEC07F0844B852BF4D7DD
:1041AE0082C1A5F12EEC07F00051EF1683530EE0FD
:1041BE00846B856B000E855D02E18351845D06E2A2
:1041CE00A56B2EEC07F0844B852BF4D782C1A5F19D
:1041DE002EEC07F0010E865F000E875B885B895B15
:0841EE00BED70051EF161200CC
:1041F6007EC101F001360190013601900001EA51BD
:10420600E911006E01010D510016005001100D6FED
:02421600120094
:0E4218000DC100F00032009E0032009E120028
:104226007EC1A5F1E4EC04F00050000A03E1010EA2
:08423600006E1200006A120084
:0E423E00ACB202D00000FCD77EC1ADFF120072
:0A424C00175001017E15006E1200EC
:10425600080E01017E15026E080E7F15016E0250D2
:10426600011802E0006A1200080E7E15026E080EA2
:104276007F15016E0250011803E0010E006E120058
:04428600006A1200B8
:10428A007EC1AAF13AEC04F000500A0A03E1010ED9
:08429A00006E1200006A120020
:1042A200C8EC06F0040E046E000E056E65EC06F016
:1042B20008C000F009C001F000C00BF101C00CF110
:1042C200C8EC06F0140E046E000E056E65EC06F0E6
:1042D20008C000F009C001F000C062F101C063F142
:1042E2000BC100F00CC101F0140E046E000E056E3D
:1042F20006EC07F0120E0026010E012201016251A6
:104302000024E96E63510120EA6EEECFA5F14CEC78
:1043120007F0005217E00BC100F00CC101F0140EBF
:10432200046E000E056E06EC07F0120E0026010E5A
:10433200012262510024E16E63510120E26EC8C085
:10434200E6FF58D00BC100F00CC101F0140E046E50
:10435200000E056E06EC07F0120E0026010E012279
:1043620062510024E96E63510120EA6EEECFA5F19D
:1043720040EC07F000523DE00BC100F00CC101F02F
:10438200140E046E000E056E06EC07F0120E0026E7
:10439200010E012262510024E96E63510120EA6E8E
:1043A200EECFA5F185EC09F0005223E10BC100F03C
:1043B2000CC101F0140E046E000E056E06EC07F03F
:1043C200120E0026010E0122625100247E6F6351FB
:1043D20001207F6F7EC1E9FF7FC1EAFFEECFA5F129
:1043E20080EC09F07EC1E1FF7FC1E2FF00C0E6FF81
:0643F20001D056D71200B5
:1043F8007EC100F000360090003600900036009034
:06440800003600901200D6
:0A440E00165001017E15006E120029
:104418000001FA917EC1A5F191EC09F0FA81120030
:104428007EC1AAF13AEC04F00050060A03E1010E3D
:08443800006E1200006A120080
:1044400010D0800E0101736F1AD0C00E736F17D099
:10445000940E736F14D0D40E736F11D0800E736FDF
:104460000ED001017351010AECE07351020AEDE034
:104470007351030AEDE07351040AEDE0EFD77405C0
:10448000006E7351002600C073F100C0A5F191ECDD
:1044900009F0FA910101776B77517525E96E000EED
:1044A0007621EA6EEE520CE077517525E96E000E2A
:1044B0007621EA6EEECF7EF1AFDF0101772BECD7EC
:0644C0000001FA81120068
:1044C60001010B6B0C6B800E0C19006E800E005CEC
:1044D60002E1040E0B5DD8B090D0626B636B800E68
:1044E6006319006E800E005C02E1140E625DD8B0A6
:1044F60081D00B516225006E0C516321016E060EB0
:10450600046E000E056E65EC06F008C000F009C0EA
:1045160001F00050011028E0040E046E000E056E36
:1045260062C100F063C101F065EC06F008C000F05E
:1045360009C001F000C073F101C074F1030E046EEE
:10454600000E056E0BC100F00CC101F065EC06F023
:1045560008C000F009C001F001017451011802E120
:104566000050731901E02CD0020E046E000E056E89
:1045760062C100F063C101F065EC06F008C000F00E
:1045860009C001F0000E011802E1000E001818E142
:104596000BC100F00CC101F0140E046E000E056E86
:1045A60006EC07F0120E0026010E012201016251EF
:1045B6000024E16E63510120E26EC9C0E6FF17D008
:1045C60001010BC100F00CC101F0140E046E000EC7
:1045D600056E06EC07F0120E0026010E012262514E
:1045E6000024E16E63510120E26E38C0E6FF624BA3
:1045F600632B75D70B4B0C2B66D750DE4FDED0DC0A
:06460600126B0D6B1200A7
:10460C00100E836E80AA06D080AA01D0FDD7370E7B
:10461C00006E120081A206D081A201D0FDD7380E07
:10462C00006E120081A406D081A401D0FDD7390EF2
:10463C00006E120081A606D081A601D0FDD7250EF2
:10464C00006E1200200E836E80AA06D080AA01D0C4
:10465C00FDD7340E006E120081A206D081A201D0CB
:10466C00FDD7350E006E120081A406D081A401D0B6
:10467C00FDD7360E006E120081A606D081A601D0A1
:10468C00FDD72A0E006E1200400E836E80AA06D053
:10469C0080AA01D0FDD7310E006E120081A206D087
:1046AC0081A201D0FDD7320E006E120081A406D07B
:1046BC0081A401D0FDD7330E006E120081A606D066
:1046CC0081A601D0FDD72D0E006E1200800E836ED8
:1046DC0080AA06D080AA01D0FDD7430E006E12002E
:1046EC0081A206D081A201D0FDD7300E006E12003F
:1046FC0081A406D081A401D0FDD73D0E006E12001E
:10470C0081A606D081A601D0FDD72B0E006E12001B
:06471C00FF0E006E12000A
:104722000001EE5100082AE20BC100F00CC101F0B9
:10473200140E046E000E056E06EC07F0120E002633
:10474200010E0122010162510024746F63510120A4
:10475200756F74C1E9FF75C1EAFFF30EEE14736F52
:10476200EEC0A5F15FEC06F07351001274C1E1FFD7
:1047720075C1E2FF00C0E6FF0001EE6BA9EC0EF08E
:1047820010C100F011C101F0140E046E000E056E8E
:1047920006EC07F0120E0026010E01220E51002433
:1047A200E96E0F510120EA6EEECF7EF19EEC0EF023
:1047B20000C0A5F140EC07F0005205E00001EA510B
:1047C20001010D13120010C100F011C101F0140E0D
:1047D200046E000E056E06EC07F0120E0026010EA6
:1047E20001220E510024E96E0F510120EA6EEECF34
:1047F200A5F140EC07F0005235E00BC100F00CC10E
:1048020001F0140E046E000E056E06EC07F0120E97
:104812000026010E012262510024E96E635101203B
:10482200EA6EEECF7EF110C100F011C101F0140E5C
:10483200046E000E056E06EC07F0120E0026010E45
:1048420001220E510024E96E0F510120EA6EEECFD3
:104852007FF100DD005205E00001EA5101010D1374
:104862001200F8D010C100F011C101F0140E046E54
:10487200000E056E06EC07F0120E0026010E012254
:104882000E510024E96E0F510120EA6EEECF7EF147
:10489200CADD00523EE00BC100F00CC101F0140E63
:1048A200046E000E056E06EC07F0120E0026010ED5
:1048B200012262510024746F63510120756F74C12B
:1048C200E9FF75C1EAFFEECFAAF13AEC04F000C0AD
:1048D20073F10BC100F00CC101F0140E046E000E56
:1048E200056E06EC07F0120E0026010E012262513F
:1048F2000024E96E63510120EA6EEECF7EF17BDD8A
:104902007351001274C1E1FF75C1E2FF00C0E6FFFE
:10491200A1D010C100F011C101F0140E046E000EFE
:10492200056E06EC07F0120E0026010E01220E5152
:104932000024746F0F510120756F74C1E9FF75C1B6
:10494200EAFFEECFAAF13AEC04F000C073F10BC11A
:1049520000F00CC101F0140E046E000E056E06ECA0
:1049620007F0120E0026010E012262510024E96EA8
:1049720063510120EA6EEECF7EF13DDD73510012EC
:1049820074C1E1FF75C1E2FF00C0E6FF0BC100F098
:104992000CC101F0140E046E000E056E06EC07F059
:1049A200120E0026010E012262510024746F63511F
:1049B2000120756F74C1E9FF75C1EAFFEECFAAF15C
:1049C2003AEC04F000C073F138C07EF114DD73518B
:1049D200001274C1E1FF75C1E2FF00C0E6FF10C121
:1049E20000F011C101F0140E046E000E056E06EC0B
:1049F20007F0120E0026010E01220E510024E96E6C
:104A02000F510120EA6EEECFA5F185EC09F00052BC
:104A12001AE110C100F011C101F0140E046E000E73
:104A2200056E06EC07F0120E0026010E01220E5151
:104A32000024E96E0F510120EA6EEECF7EF124DCF4
:104A4200005201E107D00CEC21F00050010F7E6F03
:064A5200FBEC20F0120055
:104A58000001EF6BF06B800EF019006E800E005CA9
:104A680002E1050EEF5D42E2A9EC0EF010C100F084
:104A780011C101F0140E046E000E056E06EC07F06D
:104A8800120E0026010E01220E510024E96E0F516C
:104A98000120EA6EEECF7EF1C3DC00521FE110C1A7
:104AA80000F011C101F0140E046E000E056E06EC44
:104AB80007F0120E0026010E01220E510024E96EA5
:104AC8000F510120EA6EEECF7EF19EEC0EF000C091
:104AD800A5F140EC07F0005201E103D033EC1FF0E0
:104AE80001D004D00001EF4BF02BB5D710C100F076
:104AF80011C101F0140E046E000E056E06EC07F0ED
:104B0800120E0026010E012201010E510024E96E49
:104B18000F510120EA6EEECF7EF182DC00521FE1D8
:104B280010C100F011C101F0140E046E000E056EE4
:104B380006EC07F0120E0026010E01220E51002489
:104B4800E96E0F510120EA6EEECF7EF19EEC0EF079
:104B580000C0A5F140EC07F0005201E101D01200BD
:104B680010C100F011C101F0140E046E000E056EA4
:104B780006EC07F0120E0026010E01220E51002449
:104B8800E96E0F510120EA6EEECF7EF19EEC0EF039
:104B980000C07EF113EC21F0005206E00001EA515A
:104BA80001010D131AEF2BF010C100F011C101F033
:104BB800140E046E000E056E06EC07F0120E0026A9
:104BC800010E01220E510024E96E0F510120EA6EF8
:104BD800EECFA5F140EC07F00052D8B484D210C152
:104BE80000F011C101F0140E046E000E056E06EC03
:104BF80007F0120E0026010E01220E510024E96E64
:104C08000F510120EA6EEECFA5F15FEC06F000C06F
:104C18007FF1EDC07EF12BEC21F00052D8B437D1F2
:104C28000BC100F00CC101F0140E046E000E056EED
:104C380006EC07F0120E0026010E01226251002434
:104C4800E96E63510120EA6EEECFA5F185EC09F01B
:104C58000052010ED8A4000E736F10C100F011C1EC
:104C680001F0140E046E000E056E06EC07F0120E2D
:104C78000026010E01220E510024E96E0F51012079
:104C8800EA6EEECFA5F185EC09F07351001643E00A
:104C980010C100F011C101F0140E046E000E056E73
:104CA80006EC07F0120E0026010E01220E51002418
:104CB800746F0F510120756F74C1E9FF75C1EAFF68
:104CC800EECFAAF13AEC04F000C073F10BC100F08A
:104CD8000CC101F0140E046E000E056E06EC07F010
:104CE800120E0026010E012262510024E96E635162
:104CF8000120EA6EEECFA5F180EC09F000C07EF14C
:104D0800FCEC21F07351001274C1E1FF75C1E2FFA0
:104D180000C0E6FFBBD00BC100F00CC101F0140EBF
:104D2800046E000E056E06EC07F0120E0026010E4A
:104D3800012262510024E96E63510120EA6EEECF30
:104D4800A5F185EC09F000C073F110C100F011C1A4
:104D580001F0140E046E000E056E06EC07F0120E3C
:104D68000026010E01220E510024E96E0F51012088
:104D7800EA6EEECFA5F185EC09F00052010ED8A439
:104D8800000E006E7351001643E010C100F011C10F
:104D980001F0140E046E000E056E06EC07F0120EFC
:104DA8000026010E01220E510024746F0F510120BC
:104DB800756F74C1E9FF75C1EAFFEECFAAF13AEC4D
:104DC80004F000C073F10BC100F00CC101F0140E27
:104DD800046E000E056E06EC07F0120E0026010E9A
:104DE800012262510024E96E63510120EA6EEECF80
:104DF8007EF199EC0EF000C07EF1FCEC21F07351CD
:104E0800001274C1E1FF75C1E2FF00C0E6FF3ED0A9
:104E180010C100F011C101F0140E046E000E056EF1
:104E280006EC07F0120E0026010E01220E51002496
:104E3800746F0F510120756F74C1E9FF75C1EAFFE6
:104E4800EECFAAF13AEC04F000C073F10BC100F008
:104E58000CC101F0140E046E000E056E06EC07F08E
:104E6800120E0026010E012262510024E96E6351E0
:104E78000120EA6EEECF7EF1FCEC21F073510012B6
:104E880074C1E1FF75C1E2FF00C0E6FF2BD110C17C
:104E980000F011C101F0140E046E000E056E06EC50
:104EA80007F0120E0026010E01220E510024E96EB1
:104EB8000F510120EA6EEECFA5F185EC09F0005202
:104EC80043E010C100F011C101F0140E046E000E91
:104ED800056E06EC07F0120E0026010E01220E5197
:104EE8000024746F0F510120756F74C1E9FF75C1FB
:104EF800EAFFEECFAAF13AEC04F000C073F10BC15F
:104F080000F00CC101F0140E046E000E056E06ECE4
:104F180007F0120E0026010E012262510024E96EEC
:104F280063510120EA6EEECFA5F180EC09F000C0D4
:104F38007EF1FCEC21F07351001274C1E1FF75C1E0
:104F4800E2FF00C0E6FF42D010C100F011C101F03D
:104F5800140E046E000E056E06EC07F0120E002605
:104F6800010E01220E510024746F0F510120756F3C
:104F780074C1E9FF75C1EAFFEECFAAF13AEC04F07B
:104F880000C073F10BC100F00CC101F0140E046EE7
:104F9800000E056E06EC07F0120E0026010E012227
:104FA80062510024E96E63510120EA6EEECF7EF172
:104FB80099EC0EF000C07EF1FCEC21F07351001268
:104FC80074C1E1FF75C1E2FF00C0E6FF0BC100F04C
:104FD8000CC101F0140E046E000E056E06EC07F00D
:104FE800120E0026010E012262510024E96E63515F
:104FF8000120EA6EEECF7EF19EEC0EF0005000012B
:10500800EC1970E10BC100F00CC101F0140E046E34
:10501800000E056E06EC07F0120E0026010E0122A6
:10502800010162510024E96E63510120EA6EEECF5E
:10503800A5F185EC09F000522BE00BC100F00CC182
:1050480001F0140E046E000E056E06EC07F0120E49
:105058000026010E012262510024746F6351012061
:10506800756F74C1E9FF75C1EAFFEECFAAF13AEC9A
:1050780004F000C073F1C8C07EF1FCEC21F073515C
:10508800001274C1E1FF75C1E2FF00C0E6FF2AD03B
:105098000BC100F00CC101F0140E046E000E056E79
:1050A80006EC07F0120E0026010E012262510024C0
:1050B800746F63510120756F74C1E9FF75C1EAFF10
:1050C800EECFAAF13AEC04F000C073F138C07EF1DB
:1050D800FCEC21F07351001274C1E1FF75C1E2FFCD
:1050E80000C0E6FFA3D2010110C100F011C101F018
:1050F800140E046E000E056E06EC07F0120E002664
:10510800010E01220E510024E96E0F510120EA6EB2
:10511800EECF7EF145EC21F00052D8B440D10BC15E
:1051280000F00CC101F0140E046E000E056E06ECC2
:1051380007F0120E0026010E012262510024E96ECA
:1051480063510120EA6EEECFA5F185EC09F000521B
:10515800D8B49AD010C100F011C101F0140E046E39
:10516800000E056E06EC07F0120E0026010E012255
:105178000E510024746F0F510120756F74C1E9FF3F
:1051880075C1EAFFEECFAAF13AEC04F000C073F162
:105198000BC100F00CC101F0140E046E000E056E78
:1051A80006EC07F0120E0026010E012262510024BF
:1051B800E96E63510120EA6EEECF7EF1FCEC21F03E
:1051C8007351001274C1E1FF75C1E2FF00C0E6FF30
:1051D8000BC100F00CC101F0140E046E000E056E38
:1051E80006EC07F0120E0026010E0122625100247F
:1051F800E96E63510120EA6EEECF7EF19EEC0EF06F
:1052080000500001EC193FE10BC100F00CC101F0A6
:10521800140E046E000E056E06EC07F0120E002642
:10522800010E0122010162510024746F63510120B3
:10523800756F74C1E9FF75C1EAFFEECFAAF13AECC8
:1052480004F000C073F110C100F011C101F0140E98
:10525800046E000E056E06EC07F0120E0026010E15
:1052680001220E510024E96E0F510120EA6EEECFA3
:105278007EF1FCEC21F07351001274C1E1FF75C19D
:10528800E2FF00C0E6FF8AD0010110C100F011C1A1
:1052980001F0140E046E000E056E06EC07F0120EF7
:1052A8000026010E01220E510024746F0F510120B7
:1052B800756F74C1E9FF75C1EAFFEECFAAF13AEC48
:1052C80004F000C073F10BC100F00CC101F0140E22
:1052D800046E000E056E06EC07F0120E0026010E95
:1052E800012262510024E96E63510120EA6EEECF7B
:1052F800A5F180EC09F000C07EF1FCEC21F07351BF
:10530800001274C1E1FF75C1E2FF00C0E6FF0BC1E6
:1053180000F00CC101F0140E046E000E056E06ECD0
:1053280007F0120E0026010E012262510024E96ED8
:1053380063510120EA6EEECF7EF19EEC0EF0005034
:105348000001EC192BE10BC100F00CC101F0140EA7
:10535800046E000E056E06EC07F0120E0026010E14
:105368000122010162510024746F63510120756F9D
:1053780074C1E9FF75C1EAFFEECFAAF13AEC04F077
:1053880000C073F138C07EF1FCEC21F073510012BB
:1053980074C1E1FF75C1E2FF00C0E6FF47D101011A
:1053A80010C100F011C101F0140E046E000E056E5C
:1053B80006EC07F0120E0026010E01220E51002401
:1053C800E96E0F510120EA6EEECFA5F14CEC07F023
:1053D8000052D8B42BD10BC100F00CC101F0140E4F
:1053E800046E000E056E06EC07F0120E0026010E84
:1053F800012262510024E96E63510120EA6EEECF6A
:10540800A5F185EC09F00052D8B48AD010C100F09B
:1054180011C101F0140E046E000E056E06EC07F0C3
:10542800120E0026010E01220E510024746F0F5136
:105438000120756F74C1E9FF75C1EAFFEECFAAF1CB
:105448003AEC04F000C073F10BC100F00CC101F09C
:10545800140E046E000E056E06EC07F0120E002600
:10546800010E012262510024E96E63510120EA6EA7
:10547800EECF7EF199EC0EF000C07EF1FCEC21F04D
:105488007351001274C1E1FF75C1E2FF00C0E6FF6D
:105498000BC100F00CC101F0140E046E000E056E75
:1054A80006EC07F0120E0026010E012262510024BC
:1054B800E96E63510120EA6EEECF7EF19EEC0EF0AC
:1054C80000500001EC192BE10BC100F00CC101F0F8
:1054D800140E046E000E056E06EC07F0120E002680
:1054E800010E0122010162510024746F63510120F1
:1054F800756F74C1E9FF75C1EAFFEECFAAF13AEC06
:1055080004F000C073F1C8C07EF1FCEC21F07351C7
:10551800001274C1E1FF75C1E2FF00C0E6FF86D04A
:10552800010110C100F011C101F0140E046E000E4B
:10553800056E06EC07F0120E0026010E01220E5130
:105548000024746F0F510120756F74C1E9FF75C194
:10555800EAFFEECFAAF13AEC04F000C073F10BC1F8
:1055680000F00CC101F0140E046E000E056E06EC7E
:1055780007F0120E0026010E012262510024E96E86
:1055880063510120EA6EEECF7EF1FCEC21F07351FD
:10559800001274C1E1FF75C1E2FF00C0E6FF0BC154
:1055A80000F00CC101F0140E046E000E056E06EC3E
:1055B80007F0120E0026010E012262510024E96E46
:1055C80063510120EA6EEECF7EF19EEC0EF00050A2
:1055D8000001EC192BE10BC100F00CC101F0140E15
:1055E800046E000E056E06EC07F0120E0026010E82
:1055F8000122010162510024746F63510120756F0B
:1056080074C1E9FF75C1EAFFEECFAAF13AEC04F0E4
:1056180000C073F138C07EF1FCEC21F07351001228
:0E56280074C1E1FF75C1E2FF00C0E6FF120091
:0C5636000001EA5101010D15006E120088
:1056420001010B6B0C6B800E0C19006E800E005C5E
:1056520002E1040E0B5D48E2626B636B800E63191C
:10566200006E800E005C02E1140E625D3AE20BC134
:1056720000F00CC101F0140E046E000E056E06EC73
:1056820007F0120E0026010E012262510024746FEF
:1056920063510120756FECC07EF1FCEC21F000C07B
:1056A20073F10BC100F00CC101F0140E046E000E78
:1056B200056E06EC07F0120E0026010E0122625161
:1056C2000024D96E63510120DA6EDE507311006E30
:1056D20074C1E1FF75C1E2FF00C0E6FF624B632BBC
:0A56E200BDD70B4B0C2BAFD7120005
:1056EC000101766B73C1E9FF74C1EAFFEECF75F16E
:1056FC007551000A0FE075C17EF11FEC21F001011C
:10570C00762B76517325E96E000E7421EA6EEECF7E
:06571C0075F1EED712004A
:105722000D0E01017E6F1FEC21F00A0E01017E6F4A
:065732001FEC21F0120043
:1057380001010B6B0C6B800E0C19006E800E005C67
:1057480002E1040E0B5D74E2626B636B800E6319F9
:10575800006E800E005C02E1140E625D66E20BC111
:1057680000F00CC101F0140E046E000E056E06EC7C
:1057780007F0120E0026010E012262510024E96E84
:1057880063510120EA6EEECF7EF19EEC0EF00050E0
:105798000001EC1924E00BC100F00CC101F0140E5B
:1057A800046E000E056E06EC07F0120E0026010EC0
:1057B8000122010162510024736F63510120746F4B
:1057C80073C1E9FF74C1EAFFEECF7EF19EEC0EF0E3
:1057D80073C1E1FF74C1E2FF00C0E6FF23D00101FD
:1057E8000BC100F00CC101F0140E046E000E056E22
:1057F80006EC07F0120E0026010E01226251002469
:10580800736F63510120746F73C1E9FF74C1EAFFBC
:10581800EECFAAF13AEC04F073C1E1FF74C1E2FFE4
:1058280000C0E6FF624B632B91D70B4B0C2B83D741
:0258380012005C
:10583A00780E01017C6F010E7D6F73C17EF174C118
:10584A007FF175C180F176C181F177C182F17C0E59
:10585A00836F010E846F1AEC0FF000C07AF101C059
:10586A007BF100507325E16E01507421E26EE66A05
:0A587A007AC100F07BC101F01200BA
:0C5884000001E95101010D15006E120039
:1058900010D0800E0101736F1AD0C00E736F17D035
:1058A000940E736F14D0D40E736F11D0800E736F7B
:1058B0000ED001017351010AECE07351020AEDE0D0
:1058C0007351030AEDE07351040AEDE0EFD774055C
:1058D000006E7351002600C073F10001FA8100C010
:1058E000A5F191EC09F0FA9175C1A5F191EC09F0DF
:0458F000FA81120027
:1058F400010E01017315016E0150010A03E1010E4D
:08590400006E1200006A12009F
:10590C00820E01017E6F000E7F6FC80E806F000E3D
:10591C00816F27EC20F0920E01017E6F000E7F6FDD
:10592C00C80E806F000E816F27EC20F0A40E0101D1
:10593C007E6F000E7F6FC80E806F000E816F27EC9C
:10594C0020F0AE0E01017E6F000E7F6FC80E806FCF
:10595C00000E816F27EC20F0C40E01017E6F000E4B
:10596C007F6FC80E806F000E816F27EC20F0EAC0AD
:0E597C00EEF0010E0101A56F91EC09F0120092
:10598A0073C17EF107EC22F00050060A03E1010E12
:08599A00006E1200006A120009
:1059A20073C17EF107EC22F000500A0A03E1010EF6
:0859B200006E1200006A1200F1
:1059BA0073C17EF126EC21F00050000A03E1010ECA
:0859CA00006E1200006A1200D9
:1059D200400E0101A56F91EC09F00101656B655163
:1059E200070813E3750E6525F66E640EF76E000E5A
:1059F200F722000EF86E000EF8220900F5CF7EF1B4
:105A02000CEC22F00101652BEAD7656B65510708A2
:105A120013E38D0E6525F66E640EF76E000EF72207
:105A2200000EF86E000EF8220900F5CF7EF10CECA4
:105A320022F00101652BEAD7656B6551070813E374
