:10000000BFEF02F00000000000EF00F00000000071
:0A0010000000000000000000F3D71C
:08001C000AAE029E000E120064
:100024000B840BAE1DEF00F0010E036E026A016A31
:0A003400006A0A360232FF0E1200C5
:0E003E00026A016A006A086A036A000E120074
:10004C00086A096A100E0C6E013408360936045021
:10005C00085E0550D8A0053C095ED8B007D0045006
:10006C0008260550D8B0053C0926D8900036013634
:06007C000C2EEAD7120071
:0C0082000E0E0D6E0D2EFED700001200B9
:10008E000B820BAE51EF00F0036802680168006846
:08009E000A360232FF0E1200C7
:0E00A600ACB202D00000FCD73DC0ADFF12008E
:1000B400416A050E415C0AE241503F24E16E000EA4
:1000C4004020E26E200EE66E412AF3D741503F24D1
:1000D400E16E000E4020E26EE66A410641503F2484
:1000E400426E000E4020436E0A0E046E000E056E32
:1000F4003DC000F03EC001F0A7DF08C000F009C019
:1001040001F0300E002642C0E1FF43C0E2FF00C010
:10011400E6FF0A0E046E000E056E3DC000F03EC000
:1001240001F092DF00C03DF001C03EF0000E011866
:1001340002E1000E001801E102D04106CFD71200FF
:100144000C6A0E6A0250D8A4BBEF00F001C002F0A2
:1001540000C001F0006A0E860250D8A4BBEF00F084
:1001640001C002F0016A0E960E880250D8B4CDEF99
:1001740000F00E50035ED8A4D8A0D2EF00F0D890BF
:1001840002BED7EF00F0003601360236032EC2EF6E
:1001940000F0D2EF00F0010E0C6E4FDFDAEF00F04A
:1001A400020E0C6E3DDFDAEF00F0040E0C6E34DF4D
:0201B400120037
:1001B6000B800BAEE7EF00F0026A0AAEFF0E026E8E
:0C01C600016E006E0A360232FF0E1200BD
:1001D20000C008F00150006E016A026A036A0B6AED
:1001E2000C6A016A026A036A960E036E0A6A00AE1C
:1001F20001EF01F0081E001E082AD8B4002A0A8E58
:1002020000C001F008C000F0086A026A9ADF12001A
:100212000900F5CFE6FF0006FBE10106F9E1120055
:10022200A60E2B6E000E2C6E3D0E2D6E000E2E6E47
:10023200FF0E2F6EFF0E306E000E316E000E326E0C
:10024200FF0E236EFF0E246E000E256E000E266E2C
:10025200FF0E276EFF0E286E000E296E000E2A6E0C
:10026200AC8A900EAB6E948E949C9EAA03D0AECFB5
:0602720000F0FBD71200B2
:10027800C26A070EC012C08E33C000F0003600906C
:10028800003600900050C212C280F7DEC282C2A2BD
:1002980001D0FDD7C4CF01F0006AC3500012000E90
:0602A8000112C2901200D9
:1002AE000B6A0C6A0A6A0350D8B48CEF01F00A9EEE
:1002BE00028E860E035E03BE6AEF01F0D8B46AEFBB
:1002CE0001F08FEF01F0036C080E035CD8A078EFFD
:1002DE0001F0036E0236026A0350D8A4D89081EF63
:1002EE0001F00350D8B481EF01F0D8900232032E02
:1002FE007CEF01F00BBC02A08CEF01F0D8A08CEFCC
:10030E0001F0022AD8B496EF01F0016A9BEF01F0DA
:10031E000B800BAE9FEF01F0016A9FEF01F0010E13
:10032E000C6E42DFA1EF01F0000E0C6EA1EF01F09A
:0A033E00FF0E0C6E0250006E12005C
:10034800396A3A6A33C03BF034C03CF0800E341846
:10035800006E800E005C02E1000E335C0BE2010EC1
:10036800396E000E3A6E335000083B6E34C03CF0D4
:10037800000E3C563BC03DF03CC03EF035C03FF05F
:1003880036C040F093DE060E376E000E386E000E53
:10039800006E3850005C02E13750000819E237500F
:1003A8003524E16E38503620E26E010E375C006E5F
:1003B800000E3858016E00503524E96E0150362081
:1003C800EA6EEECFE6FF010E375E000E385ADFD731
:1003D80035C0E1FF36C0E2FF200EE66E39503A1014
:1003E8001AE0376A386A37503524E96E38503620B3
:1003F800EA6EEE50200A03E1374A382AF4D7010E94
:10040800375E000E385A37503524E16E38503620A2
:08041800E26E2D0EE66E1200EB
:10042000086A096A000E0762036495EF02F0025041
:1004300006180A6E075003267E0ED8A026EF02F09B
:10044000035ED8B099EF02F02AEF02F0035ED8A065
:100450009DEF02F0028E068E02C00EF001C00BF07E
:1004600000C00DF000500402F4CF0CF00150050262
:10047000F4CF00F0F3CF08F00402F3500C26F45050
:100480000822000E00220D500502F3500C26F450F5
:100490000822000E002202500402F3500826F450F5
:1004A000002202500502016A000E0122F3500026CC
:1004B000F45001220D500602F3500826F450002299
:1004C000026A000E012202220B500602F35000269F
:1004D000F4500122000E02220E500602F3500126B3
:1004E000F450022202BE7DEF02F0083600360136DB
:1004F00002360306D8B49DEF02F090EF02F0D880E8
:10050000800E08640030000E002201220222D8A0D2
:1005100090EF02F0023201320032034A99EF02F00A
:100520000AAE029E000E9FEF02F0010E88DD9FEFE3
:1005300002F0020EACDD9FEF02F0040E73DD12003C
:0E0540000D0E3D6EB0DD0A0E3D6EADDD1200FB
:10054E00366A33C0E9FF34C0EAFFEECF35F03550DE
:10055E00000A0DE035C03DF09FDD362A36503324BB
:10056E00E96E000E3420EA6EEECF35F0F0D71200B1
:10057E00156A166A200E176E770E186E190EAF6E6C
:10058E00AC8448DE0E0EC16E0F0E936E816A336A16
:10059E006CDE00C020F001C021F014DE15C004F0A6
:1005AE0016C005F017C006F018C007F032DF000EB7
:1005BE00046E000E056E480E066E850E076E29DF60
:1005CE006FDE00C022F0000E005C06E32250180819
:1005DE0003E3800E816E1AD0190E225C06E32250C0
:1005EE00210803E3C00E816E11D0220E225C06E3B9
:1005FE0022502B0803E3E00E816E08D02C0E225CF5
:10060E0005E32250590802E3F00E816E22C033F04A
:10061E00000E346E190E356E000E366E8EDE190E0D
:0E062E00336E000E346E8CDF84DFB1D7FFD741
:020000040030CA
:0D000100021F1EFF8381FF0FC00FE00F40A4
:00000001FF
