:100000005BEF05F00000000000EF00F000000000D2
:0A0010000000000000000000F3D71C
:06001C00000000001200CC
:100022000F0E0C6E470E0D6E0D2EFED70C2EFCD74A
:06003200000000001200B6
:0A003800210E0D6E0D2EFED71200F2
:100042000B840BAE2CEF00F0010E036E026A016A04
:0A005200006A0A360232FF0E1200A7
:0E005C00026A016A006A086A036A000E120056
:08006A000AAE029E000E120016
:100072000001D6BF02D0839E01D0838ED6BD02D0AE
:10008200839C01D0838CD6BB02D0839A01D0838A11
:10009200D6B902D0839801D08388C2B102D08480BD
:1000A20001D084908482B9DF8492D6B702D0839E35
:1000B20001D0838ED6B502D0839C01D0838CD6B377
:1000C20002D0839A01D0838AD6B102D0839801D01C
:1000D2008388C2B102D0848001D0849084829DDF63
:0E00E2008492C2A102D09CDF01D0A5DF1200E3
:1000F000086A096A100E0C6E01340836093604507D
:10010000085E0550D8A0053C095ED8B007D0045061
:1001100008260550D8B0053C0926D890003601368F
:060120000C2EEAD71200CC
:0E012600ACB202D00000FCD7CFC0ADFF12007B
:100134000B800BAEA6EF00F0026A0AAEFF0E026E51
:0C014400016E006E0A360232FF0E12003F
:0C0150000E0E0D6E0D2EFED700001200EA
:10015C000B6A0A6A096A00500402F4CF09F0F3CF63
:10016C0008F001500502F4CF0BF0F3CF0AF0005069
:10017C000502F3500926F4500A22E86A0B220150BA
:10018C000402F3500926F4500A22E86A0B2208C034
:10019C0000F009C001F00AC002F00BC003F012001D
:0801AC000B6A0B86FF0E120026
:1001B4000001D36B050ED35D0AE2D351D125E16E64
:1001C400000ED221E26E200EE66ED32BF3D7D3516C
:1001D400D125E16E000ED221E26EE66AD307D35137
:1001E400D125D46F000ED221D56F0A0E046E000EF5
:1001F400056ECFC000F0D0C001F078DF08C000F079
:1002040009C001F0300E0026D4C0E1FFD5C0E2FFE2
:1002140000C0E6FF0A0E046E000E056ECFC000F0AB
:10022400D0C001F063DF00C0CFF001C0D0F0000EF9
:10023400011802E1000E001801E102D0D307CFD764
:020244001200A6
:100246000B820BAE2DEF01F00368026801680068AF
:080256000A360232FF0E12000D
:10025E000C6A0E6A0250D8A448EF01F001C002F0F9
:10026E0000C001F0006A0E860250D8A448EF01F0DB
:10027E0001C002F0016A0E960E880250D8B45AEFF1
:10028E0001F00E50035ED8A4D8A05FEF01F0D89015
:10029E0002BE64EF01F0003601360236032E4FEF38
:1002AE0001F05FEF01F0010E0C6ED1DE67EF01F091
:1002BE00020E0C6EBFDE67EF01F0040E0C6ECEDE8A
:0202CE0012001C
:1002D000AECFBDF0ABA202D0AB98AB88BDC000F0F2
:0202E00012000A
:1002E2000001CF51390806E3300ECF5D03E3010E62
:0802F200006E01D0006A120049
:0E02FA000001C291CFC0D6F0B7DEC281120063
:0A030800000E9EBA010E006E1200F6
:10031200969296909598959A959C959E84928490A3
:10032200839E839C839A83987BDE7ADE79DE838A3E
:100332008388848272DE849273DE84826EDE84928B
:100342006FDE84826ADE84926BDE8398848265DE4D
:10035200849266DE848261DE8492839A838E8482B2
:100362005CDE84925DDE839E8388848256DE849284
:100372008398848252DE849253DE84824EDE84929B
:10038200838884824ADE84924BDE8398848245DEAF
:100392008492838E838C838A838884823EDE8492D5
:0803A2003FDE0001C2811200E0
:1003AA000001CB6BCC6BC5C0CDF0C6C0CEF0800EC1
:1003BA00C619006E800E005C02E1000EC55D0BE2FC
:1003CA00010ECB6F000ECC6FC5510008CD6FC6C0B1
:1003DA00CEF0000ECE57CDC0CFF0CEC0D0F0C7C001
:1003EA00D1F0C8C0D2F0E1DE060EC96F000ECA6FA6
:1003FA00000E006ECA51005C02E1C951000819E200
:10040A00C951C725E16ECA51C821E26E010EC95D04
:10041A00006E000ECA59016E0050C725E96E0150E0
:10042A00C821EA6EEECFE6FF010EC95F000ECA5B75
:10043A00DFD7C7C0E1FFC8C0E2FF200EE66ECB518E
:10044A00CC111AE0C96BCA6BC951C725E96ECA51EA
:10045A00C821EA6EEE50200A03E1C94BCA2BF4D731
:10046A00010EC95F000ECA5BC951C725E16ECA51A8
:0A047A00C821E26E2D0EE66E12009E
:100484000900F5CFE6FF0006FBE10106F9E11200E1
:10049400260E0001B56F010EB66FCF0EB76F000EBA
:1004A400B86FD00EB16F020EB26F000EB36F000EB4
:1004B400B46F080EB96F030EBA6F000EBB6F000E57
:1004C400BC6FFF0EBE6FFF0EBF6F000EC06F000E3D
:1004D400C16FAC8A900EAB6E948E949C9EAA03D08E
:0804E400AECF00F0FBD71200BF
:1004EC00030E0B6E080E0C6E770E0D6E0D2EFED7D6
:0A04FC000C2EFCD70B2EFAD71200CD
:1005060010D0800E0001C56F1AD0C00EC56F17D06F
:10051600940EC56F14D0D40EC56F11D0800EC56F62
:100526000ED00001C551010AECE0C551020AEDE00A
:10053600C551030AEDE0C551040AEDE0EFD7C60543
:10054600006EC551002600C0C5F000C0D6F08EDD95
:10055600C291C96BC951C725E96E000EC821EA6E62
:10056600EE520BE0C951C725E96E000EC821EA6EAE
:0E057600EECFCFF0BFDEC92BEDD7C281120051
:10058400086A096A000E0762036447EF03F0025029
:1005940006180A6E075003267E0ED8A0D8EF02F084
:1005A400035ED8B04BEF03F0DCEF02F0035ED8A09B
:1005B4004FEF03F0028E068E02C00EF001C00BF066
:1005C40000C00DF000500402F4CF0CF001500502FD
:1005D400F4CF00F0F3CF08F00402F3500C26F450EB
:1005E4000822000E00220D500502F3500C26F45090
:1005F4000822000E002202500402F3500826F45090
:10060400002202500502016A000E0122F350002666
:10061400F45001220D500602F3500826F450002233
:10062400026A000E012202220B500602F350002639
:10063400F4500122000E02220E500602F35001264D
:10064400F450022202BE2FEF03F0083600360136C2
:1006540002360306D8B44FEF03F042EF03F0D8801C
:10066400800E08640030000E002201220222D8A06D
:1006740042EF03F0023201320032034A4BEF03F03F
:100684000AAE029E000E51EF03F0010EE5DC51EFBD
:1006940003F0020ED6DD51EF03F0040ED0DC12009D
:1006A400C5C0E9FFC6C0EAFFEECFC7F0000E0001E7
:1006B400C86F000EC86F000EC81902E1200EC719DA
:1006C40007E0000EC81902E1090EC71901E003D0C2
:1006D400C54BC62BE5D7C96BCA6BCB6BCC6B000E75
:1006E400C81902E12D0EC71905E1CB4BCC2BC54B24
:1006F400C62B08D0000EC81902E12B0EC71902E15F
:10070400C54BC62BC5C0E9FFC6C0EAFFEECFC7F094
:10071400000EC86F000EC86FC7C0CFF0E0DD0052F6
:1007240018E0C9C000F0CAC001F00A0E046E000E41
:10073400056E12DD300EC75D026E000EC859036EE1
:1007440002500024C96F03500120CA6FC54BC62B49
:10075400D9D7CB51CC1108E0C9510008006ECAC0EA
:1007640001F0000E01561200C9C000F0CAC001F029
:02077400120071
:100776000050086E0150006E016A026A036A0B6A35
:100786000C6A960E036E0A6A00C001F008C000F0FB
:08079600086A026A61DD12002D
:10079E00C26A070EC012C08EC5C000F000360090AF
:1007AE00003600900050C212C280CBDCC282C2A2C0
:1007BE0001D0FDD7C4CF01F0006AC3500012000E65
:0607CE000112C2901200AE
:1007D4000001C86BC5C0E9FFC6C0EAFFEECFC7F091
:1007E400C751000A0EE0C7C0CFF09BDC0001C82B44
:1007F400C851C525E96E000EC621EA6EEECFC7F0DA
:04080400EFD7120018
:100808000B6A0C6A0A6A0350D8B439EF04F00A9EDE
:10081800028E860E035E03BE17EF04F0D8B417EFFE
:1008280004F03CEF04F0036C080E035CD8A025EF3D
:1008380004F0036E0236026A0350D8A4D8902EEF53
:1008480004F00350D8B42EEF04F0D8900232032EEF
:1008580029EF04F00BBC02A039EF04F0D8A039EF5F
:1008680004F0022AD8B443EF04F0016A48EF04F018
:100878000B800BAE4CEF04F0016A4CEF04F0010E54
:100888000C6E54DC4EEF04F0000E0C6E4EEF04F0CC
:0A089800FF0E0C6E0250006E1200FD
:1008A2000450000A12E10550000A0FE10650000A46
:1008B2000CE10750000A09E1FF0E006EFF0E016E07
:1008C2007F0E026EFF0E036E1200086A096A07505D
:1008D200D8B4FCEF04F00350D8B401EF05F0025095
:1008E20006180A6E028E068E0E6A02C008F001C059
:1008F2000CF000C00DF004500D5E0550D8A0053C70
:100902000C5E0650D8A0063C085E086A0C6A0D6AA6
:10091200D8A093EF04F0D8900232013200320832AC
:10092200010E0E6E0750035ED8A0A0EF04F07E0EFB
:100932000E240326D8B006EF05F0A6EF04F07E0ED3
:100942000E240326D8A00AEF05F0180E0B6E0D3602
:100952000C3608360036013602360E360450005E7A
:100962000550D8A0053C015E0650D8A0063C025EA8
:1009720006340E120EA0C1EF04F00D80CCEF04F08D
:10098200045000260550D8B0053C01260650D8B0C8
:10099200062802260D900B2EA8EF04F0F2EF04F0C9
:1009A200D8900036013602360E360450005E0550ED
:1009B200D8A0053C015E0650D8A0063C025E063473
:1009C2000E10010B0D26D8B00C2AD8B4082AD8A4D0
:1009D200F2EF04F008320C320D32032AD8B406EFDB
:1009E20005F00AAE089E0850026E0C50016E0D50C2
:1009F200006E0DEF05F0010ED6EC00F00DEF05F0E4
:100A0200020E2EEC00F00DEF05F0040E1BDC0DEFD4
:0A0A120005F0080E21EC00F01200C0
:100A1C000001CB6BCC6BC95342E0C951FF0A01E01A
:100A2C00C9076CDC0050000A01E1FBD74BDC00C0AD
:100A3C00CAF00001CB51C525E16E000EC621E26E55
:100A4C0000C0E6FFCB2BCC51C725E96E000EC821A8
:100A5C00EA6EEE50CA1902E1CC2B09D0CC6BC7C0A0
:100A6C00E9FFC8C0EAFFEE50CA1901E1CC2BCC510A
:100A7C00C725E96E000EC821EA6EEE50000A0EE1A1
:100A8C00CC51CB5D006E016A000E015A0050C52599
:100A9C00E16E0150C621E26EE66A1200BCD7C5C0F9
:0A0AAC00E1FFC6C0E2FFE66A120097
:100AB6009EEC06F00E0EC16E0F0E936E816A26DC5A
:100AC600190EAF6EAC84E3DC010E0001C56F010E9A
:100AD600C66F2E0EC76F000EC86F12DD030EC56FF0
:100AE600010EC66F190EC76F000EC86F09DD420EE4
:100AF600C56F000EC66F6BDEFF0E631802E1FF0EB8
:100B060062182EE184EC01F00050010A28E1000190
:100B1600900EC56F000EC66F170EC76F000EC86F1A
:100B2600200EC96F78DF900EC56F000EC66F4FDEC0
:100B3600150EC56F000EC66F4ADE900EC56F000E0D
:100B4600C66FADDD00C062F001C063F0040EC56F74
:100B5600010EC66F900EC76F000EC86FD1DCCCD7E2
:100B6600800E6318006E800E005C03E10001855163
:100B7600625C40E30001C56B0FDE00C086F001C079
:100B860087F0F6DD000E046E000E056E200E066E72
:100B9600810E076EF4DC000E046E000E056E000E6C
:100BA600066E890E076E7ADE000E046E000E056E66
:100BB600480E066E850E076EE2DC23DE00C085F069
:100BC600005000018F1915E085C08FF085C0C5F073
:100BD600000EC66F880EC76F000EC86FD5EC01F009
:100BE600020EC56F010EC66F880EC76F000EC86F66
:100BF60087DCB6D789EC01F0010EC56F010EC66F12
:100C06006F0EC76F000EC86F7BDC020EC56F010E3C
:100C1600C66F640EC76F000EC86F72DC030EC56F19
:100C2600010EC66F7B0EC76F000EC86F69DC030E20
:100C3600C56F010EC66F880EC76F000EC86F60DCE9
:100C4600040EC56F010EC66F7C0EC76F000EC86F0F
:100C560057DCC36BC46B800EC419006E800E005C3B
:100C660002E1040EC35D07E21C0ED66F39EC00F0FC
:100C7600C34BC42BF0D7C36BC46B800EC419006E74
:100C8600800E005C02E1040EC35D08E21C0ED66F06
:100C960039EC00F028DCC34BC42BEFD7C36BC46B15
:100CA600800EC419006E800E005C02E1040EC35D66
:100CB60008E2180ED66F39EC00F015DCC34BC42BD6
:060CC600EFD7D9D7FFD7DC
:100D3C0010EE15F0700E006E010E016ECC0EF66EFC
:0E0D4C000C0EF76E000EF86E42EC02F0120074
:020CCC000D0019
:020CCE000D0017
:100CD00054656D7065726174757261206DE178693B
:050CE0006D613A2000E7
:100CE50054656D70657261747572612061747561AA
:040CF5006C3A200035
:100CF900496E666F726D6520612054656D7065720D
:100D09006174757261206DE178696D613A200D0039
:020D1900FFFFDA
:0B0D1B004D6178696D61206465200067
:0C0D260054656D70657261747572610037
:010D320000C0
:090D33004174696E676964610096
:020000040030CA
:0D000100021F1EFF8381FF0FC00FE00F40A4
:00000001FF
