:1000000060EF00F00000000000EF00F000000000D2
:0A0010000000000000000000F3D71C
:0E001C00ACB202D00000FCD739C0ADFF12001C
:10002A00386A35C0E9FF36C0EAFFEECF37F03750FD
:10003A00000A0DE037C039F0ECDF382A3850352491
:10004A00E96E000E3620EA6EEECF37F0F0D71200D6
:10005A001C0E316E000E326E390E336E000E346E87
:10006A00FF0E2D6EFF0E2E6E000E2F6E000E306EDE
:10007A00FF0E256EFF0E266E000E276E000E286EEE
:10008A00FF0E296EFF0E2A6E000E2B6E000E2C6ECE
:10009A00AC8A900EAB6E948E949C9EAA03D0AECF7F
:0600AA0000F0FBD712007C
:1000B0000900F5CFE6FF0006FBE10106F9E11200B9
:1000C00085EC00F00F0EC16E0F0E936E190EAF6E21
:1000D000AC84C3DF150E356E000E366EA6DF81CF01
:1000E00000F0003600900036009000360090003698
:0A00F000009000C081FFF3D7FFD796
:10010A0010EE15F0100E006E010E016EFA0EF66E6C
:0E011A00000EF76E000EF86E58EC00F01200AA
:1000FA0048656C6C6F20576F726C642E2E2E0D0043
:020000040030CA
:0D000100021F1EFF8381FF0FC00FE00F40A4
:00000001FF
