:04000000A7EF22F054
:1000080000C015F0F2A210D00001BC4BBD2B800E31
:10001800006E800EBD19005C02E1BC51040803E2C9
:10002800BC6BBD6B8074F2929EA211D00001BE4BD6
:10003800BF2B800EBF19006E800E030A005C02E120
:10004800E80EBE5D03E38072BE6BBF6B9E9215C067
:0400580000F01100A3
:10005C000F0E0C6E470E0D6E0D2EFED70C2EFCD710
:06006C000000000012007C
:0A007200210E0D6E0D2EFED71200B8
:06007C000000000012006C
:0E008200026A016A006A086A036A000E120030
:100090000B820BAE52EF00F0036802680168006843
:0800A0000A360232FF0E1200C5
:0800A8000AAE029E000E1200D8
:1000B0000B840BAE63EF00F0010E036E026A016A5F
:0A00C000006A0A360232FF0E120039
:1000CA00010188BF02D0839E01D0838E88BD02D0F1
:1000DA00839C01D0838C88BB02D0839A01D0838A07
:1000EA0088B902D0839801D0838816B102D084805F
:1000FA0001D084908482BDDF849288B702D0839E27
:10010A0001D0838E88B502D0839C01D0838C88B3BA
:10011A0002D0839A01D0838A88B102D0839801D011
:10012A00838816B102D0848001D084908482A1DFB2
:0E013A00849216A102D08DDF01D096DF120054
:100148000CB0E6EF00F00CA28CEF01F00E6A000E86
:100158000264FDEF00F0F00E0214D8A4C8EF00F01E
:10016800023A01380F0B02260138F00B016E0038F5
:100178000F0B01260038F00B006E08380F0B002615
:100188000838F00B086E0E84D89002BEE1EF00F03C
:1001980008360036013602360E2A02BEE1EF00F0BC
:1001A80008360036013602360E2A02BEE1EF00F0AC
:1001B80008360036013602360E2A0E50036482EFE6
:1001C80001F0035E0BBC08AE87EF01F0D880800E0B
:1001D80008640030000E002201220222D8A087EF16
:1001E80001F0023201320032034A8CEF01F087EF4E
:1001F80001F001C002F000C001F008C000F0086A78
:10020800000E0E86026434EF01F0F00E0214D8A43A
:100218001CEF01F0023A01380F0B02260138F00BEF
:10022800016E00380F0B01260038F00B006E0E84AB
:10023800D89002BEE1EF00F00036013602360E2AF1
:1002480002BEE1EF00F00036013602360E2A02BE89
:10025800E1EF00F00036013602360E2AE1EF00F039
:1002680001C002F000C001F0006A000E0E960E8870
:10027800026461EF01F0F00E0214D8A44CEF01F013
:10028800023A01380F0B02260138F00B016E0E847A
:10029800D89002BEE1EF00F0013602360E2A02BE07
:1002A800E1EF00F0013602360E2A02BEE1EF00F05F
:1002B800013602360E2AE1EF00F001C002F0016AB1
:1002C800000E0E86026491EF01F0F00E0214D8A41D
:1002D80070EF01F0023A0E84D89002BEE1EF00F010
:1002E80002360E2A02BEE1EF00F002360E2A02BEE6
:1002F800E1EF00F002360E2AE1EF00F0010E0C6E7D
:10030800D3DE94EF01F0020E0C6ECADE94EF01F01A
:10031800040E0C6EB9DE94EF01F0080E0C6EADDE23
:020328001200C1
:0E032A000101169187C188F1CBDE1681120009
:100338000134083609360450085E0550D8A0053C3B
:10034800095E003601360F0E0C6E01340836093688
:10035800045000A006D0085E0550D8A0053C095EF0
:1003680005D008260550D8B0053C092600360136C8
:100378000C2EEBD700B006D0045008260550D8B094
:08038800053C092600001200EB
:10039000086A080E0C6E003408360450085ED8B0A7
:0E03A00002D00826D89000360C2EF5D7120099
:1003AE000D6A086A0050D8B4000C04180A6E0ABE12
:1003BE000D1E0B6A04AE02D0041E042A00A002D049
:1003CE00001E002A005004100A6E0ABE1FD00450F0
:1003DE00085E003600340836045008260036060E35
:1003EE000C6E00340836045000B0085E00A00826DB
:1003FE0000360C2EF6D700A008260BB015D00DAE89
:10040E00000C001E002A081E082A000C04AE09D09B
:10041E0000BE04D00050086E006AF1D7006A002AB0
:10042E00000C001E0B2AD3D7082A0450085CD8A44F
:0E043E00E6D7086A002A00AEE2D7FF0C1200D3
:10044C00025006180E6E086A096A0B6A035007649C
:10045C0019EF03F006500A6E068E028E03500B6ED7
:10046C000750036E000E0B6469EF02F00B50075E31
:10047C00D8B40AEF03F0070E0764D8EF02F0075E5A
:10048C0000C008F001C000F002C001F0026A074E83
:10049C000AEF03F00764ADEF02F0075E00C008F04E
:1004AC0001C000F0016A074E0AEF03F007648BEFFE
:1004BC0002F0075E00C008F0006A074E0AEF03F076
:1004CC00076472EF02F00AC002F005C001F004C02C
:1004DC0000F0086A33EF04F0030E07647DEF02F0BE
:1004EC00075E08380F0B086E074E0AEF03F0D89022
:1004FC000832074E0AEF03F0D8900832074E0AEF85
:10050C0003F0D89008320AEF03F0030E07649CEF57
:10051C0002F0075E08380F0B086E0038F00B082647
:10052C0000380F0B006E074E0AEF03F0D890003224
:10053C000832074E0AEF03F0D89000320832074E0B
:10054C000AEF03F0D890003208320AEF03F0030EE2
:10055C000764C4EF02F0075E08380F0B086E003812
:10056C00F00B082600380F0B006E0138F00B00263C
:10057C0001380F0B016E074E0AEF03F0D8900132D1
:10058C0000320832074E0AEF03F0D89001320032E5
:10059C000832074E0AEF03F0D890013200320832CD
:1005AC000AEF03F0030E0764F5EF02F0075E08385C
:1005BC000F0B086E0038F00B082600380F0B006E7E
:1005CC000138F00B002601380F0B016E0238F00BCE
:1005DC00012602380F0B026E074E0AEF03F0D8907B
:1005EC000232013200320832074E0AEF03F0D89083
:1005FC000232013200320832074E0AEF03F0D89073
:10060C000232013200320832096A000E0EAEFEEFE1
:10061C0003F0081E001E011E021E082A00220122E1
:10062C000222FEEF03F00750D8A41FEF03F033EFC4
:10063C0004F0096A02C00AF0028E068E0750035CB1
:10064C00076ED8B4F1EF03F0070E0764BFEF03F0A9
:10065C00075E0450096E0550046E0650056E066A5E
:10066C00074EF1EF03F0070E076494EF03F0075EFB
:10067C000450096E0550046E056A074EF1EF03F045
:10068C00070E076472EF03F0075E0450096E046AEC
:10069C00074EF1EF03F0070E076459EF03F00AC0A1
:1006AC0002F033EF04F0030E076464EF03F0075E0F
:1006BC0009380F0B096E074EF1EF03F0D890093291
:1006CC00074EF1EF03F0D8900932074EF1EF03F02B
:1006DC00D8900932F1EF03F0030E076483EF03F0B7
:1006EC00075E09380F0B096E0438F00B0926043825
:1006FC000F0B046E074EF1EF03F0D8900432093261
:10070C00074EF1EF03F0D89004320932074EF1EFA7
:10071C0003F0D89004320932F1EF03F0030E0764B2
:10072C00ABEF03F0075E09380F0B096E0438F00BC2
:10073C00092604380F0B046E0538F00B0426053817
:10074C000F0B056E074EF1EF03F0D8900532043213
:10075C000932074EF1EF03F0D8900532043209321A
:10076C00074EF1EF03F0D890053204320932F1EF65
:10077C0003F0030E0764DCEF03F0075E09380F0B80
:10078C00096E0438F00B092604380F0B046E05387B
:10079C00F00B042605380F0B056E0638F00B0526FA
:1007AC0006380F0B066E074EF1EF03F0D8900632A9
:1007BC00053204320932074EF1EF03F0D8900632BD
:1007CC00053204320932074EF1EF03F0D8900632AD
:1007DC00053204320932086A000E0EAEFEEF03F049
:1007EC00091E041E051E061E092A042205220622C5
:1007FC0009500826045000220550012206500222FE
:10080C000EBE15EF04F0D8A024EF04F00232013232
:10081C0000320832033E24EF04F02EEF04F0D8B07F
:10082C0029EF04F0000E081E001E011E021E082AED
:10083C000022012202220A7E29EF04F0010E0C6E26
:10084C007DDC35EF04F0020E0C6E78DC35EF04F035
:10085C00040E0C6E17DC35EF04F0000E0C6E12005B
:08086C000B6A0B86FF0E12005F
:10087400086A096A000E07620364BFEF04F00250BD
:1008840006180A6E075003267E0ED8A050EF04F017
:10089400035ED8B0C4EF04F054EF04F0035ED8A0B4
:1008A400C9EF04F0028E068E02C00EF001C00BF0F8
:1008B40000C00DF000500402F4CF0CF0015005020A
:1008C400F4CF00F0F3CF08F00402F3500C26F450F8
:1008D4000822000E00220D500502F3500C26F4509D
:1008E4000822000E002202500402F3500826F4509D
:1008F400002202500502016A000E0122F350002674
:10090400F45001220D500602F3500826F450002240
:10091400026A000E012202220B500602F350002646
:10092400F4500122000E02220E500602F35001265A
:10093400F450022202BEA7EF04F008360036013656
:1009440002360306D8B4C9EF04F0BAEF04F0D88035
:10095400800E08640030000E002201220222D8A07A
:10096400BAEF04F0023201320032034AC4EF04F059
:100974000AAE029E000ECCEF04F0010E41EC00F032
:10098400CCEF04F0020E48EC00F0CCEF04F0040EBF
:0609940058EC00F0120017
:10099A000B800BAED9EF04F0026A0AAEFF0E026EAC
:0C09AA00016E006E0A360232FF0E1200D1
:1009B6000B6A0C6A086A0350D8B45FEF05F002C0F0
:1009C6000AF0028E9E0E035E03AE4FEF05F0036C37
:1009D600080E035CD8A01CEF05F0036E083600C0B5
:1009E60008F001C000F002C001F0026A080E035CC4
:1009F600D8A01CEF05F0036E083600C008F001C051
:100A060000F0016A080E035CD8A01CEF05F0036E27
:100A1600083600C008F0006A080E035CD8A01CEF78
:100A260005F0036E0836086A0350D8A4D89028EF5C
:100A360005F00350D8B428EF05F0D8900232013201
:100A460000320832032E20EF05F00BBC08A039EF68
:100A560005F0D8A039EF05F0082AD8B4002AD8B492
:100A6600012AD8B4022A02BE63EF05F00AAE5FEF90
:100A760005F0021E011E001E081E082AD8B4002A10
:100A8600D8B4012AD8B4022A5FEF05F0026A016AD7
:100A9600006A086A5FEF05F00B800BAE69EF05F0A0
:100AA600026A0AAE69EF05F0026E016E006E086E0C
:100AB6000A36023269EF05F00C6A000E6AEF05F09D
:100AC600010E0C6E000E66DF6AEF05F0FF0E025097
:100AD600036E0150026E0050016E0850006E120047
:100AE6000050086E0150006E0250016E0350026EF7
:100AF600036A0B6A0C6A9E0E036E0A6A020E0C6E7D
:060B0600A4EC00F0120057
:100B0C00100E836E80AA06D080AA01D0FDD7370EB6
:100B1C00006E120081A206D081A201D0FDD7380E42
:100B2C00006E120081A406D081A401D0FDD7390E2D
:100B3C00006E120081A606D081A601D0FDD7250E2D
:100B4C00006E1200200E836E80AA06D080AA01D0FF
:100B5C00FDD7340E006E120081A206D081A201D006
:100B6C00FDD7350E006E120081A406D081A401D0F1
:100B7C00FDD7360E006E120081A606D081A601D0DC
:100B8C00FDD72A0E006E1200400E836E80AA06D08E
:100B9C0080AA01D0FDD7310E006E120081A206D0C2
:100BAC0081A201D0FDD7320E006E120081A406D0B6
:100BBC0081A401D0FDD7330E006E120081A606D0A1
:100BCC0081A601D0FDD72D0E006E1200800E836E13
:100BDC0080AA06D080AA01D0FDD7430E006E120069
:100BEC0081A206D081A201D0FDD7300E006E12007A
:100BFC0081A406D081A401D0FDD73D0E006E120059
:100C0C0081A606D081A601D0FDD72B0E006E120056
:060C1C00FF0E006E120045
:100C22000A6A0350D8A40A800750D8A40A820A503C
:100C3200D8B474EF06F0030AD8B42DEF06F00AB068
:100C420028EF06F006AE72EF06F070EF06F002AE85
:100C520070EF06F072EF06F00250800B0A6E029EF1
:100C62000650800B069E0A18D8B43EEF06F00A50D2
:100C7200D8B470EF06F072EF06F00750035CD8B4F8
:100C820048EF06F0D8A064EF06F06AEF06F00650CF
:100C9200025CD8B452EF06F0D8A064EF06F06AEF17
:100CA20006F00550015CD8B45CEF06F0D8A064EF02
:100CB20006F06AEF06F00450005CD8B474EF06F058
:100CC200D8B06AEF06F00A52D8B472EF06F070EFAD
:100CD20006F00A52D8B470EF06F072EF06F0D88030
:0E0CE2001200D8901200D880D88412001200A0
:100CF0000B6A0C6A0A6A086A0350D8B400EF07F05E
:100D0000028E9E0E035E03BE8BEF06F0D8B48BEF0F
:100D100006F0F0EF06F0036C080E035CD8A0BDEF00
:100D200006F0036E083600C008F001C000F002C0F3
:100D300001F0026A080E035CD8A0BDEF06F0036E56
:100D4000083600C008F001C000F0016A080E035C1C
:100D5000D8A0BDEF06F0036E083600C008F0006AA8
:100D6000080E035CD8A0BDEF06F0036E0836086AD3
:100D70000350D8A4D890C9EF06F00350D8B4C9EFF7
:100D800006F0D8900232013200320832032EC1EF51
:100D900006F00BBC08A0DAEF06F0D8A0DAEF06F0F8
:100DA000082AD8B4002AD8B4012AD8B4022A02BE2C
:100DB00004EF07F00AAE00EF07F0021E011E001E4E
:100DC000081E082AD8B4002AD8B4012AD8B4022AA6
:100DD00000EF07F0026A016A006A086A00EF07F094
:100DE0000B800BAE09EF07F0026A0AAE09EF07F0BD
:100DF000026E016E006E086E0A36023209EF07F0CD
:100E0000000E0C6A0AEF07F0010E0C6EC6DD0AEF49
:100E100007F0FF0E0250036E0150026E0050016E8B
:060E20000850006E1200F4
:100E2600C7B409D01F0EC514016E0150000A03E1B4
:0A0E3600010E006E1200006A1200A7
:100E4000800E01018219006E800E000A005CD8B08D
:100E50006BD182510008016E01C082F1800E011831
:100E6000006E800E6E0A005CD8A0BED0640E046EC8
:100E700082C100F0D7EC01F0120E0024056E000EC6
:100E800000BEFF0E066E000E062205C000F006C072
:100E900001F0000E06BEFF0E026E036E00360090DB
:100EA000013602360336003600900136023603362C
:100EB000BE0E0024F66E4B0E0120F76E000E0220CF
:100EC000F86E0900F5CF83F10900F5CF84F1090030
:100ED000F5CF85F10900F5CF86F1640E046E82C16D
:100EE00000F0D7EC01F008C000F00A0E046ED7EC59
:100EF00001F0090E0024056E000E00BEFF0E066E06
:100F0000000E062205C000F006C001F0000E06BE6D
:100F1000FF0E026E036E0036009001360236033675
:100F200000360090013602360336BE0E0024F66EFF
:100F30004B0E0120F76E000E0220F86E0900F5CF6F
:100F400000F00900F5CF01F00900F5CF02F009002B
:100F5000F5CF03F083C104F084C105F085C106F02C
:100F600086C107F087DC00C083F101C084F102C0B4
:100F700085F103C086F10A0E046E82C100F0D7EC41
:100F800001F008C000F000C001F0000E00BEFF0E2E
:100F9000026E036E046E013601900236033604368B
:100FA00001360190023603360436BE0E0124F66E79
:100FB0004B0E0220F76E000E0320F86E0900F5CFED
:100FC00000F00900F5CF01F00900F5CF02F00900AB
:100FD000F5CF03F083C104F084C105F085C106F0AC
:100FE00086C107F047DC1200800E0A0A006E800EF0
:100FF0008219005C71E20A0E046E82C100F0D7EC27
:1010000001F0090E0024056E000E00BEFF0E066EF4
:10101000000E062205C000F006C001F0000E06BE5C
:10102000FF0E026E036E0036009001360236033664
:1010300000360090013602360336BE0E0024F66EEE
:101040004B0E0120F76E000E0220F86E0900F5CF5E
:1010500083F10900F5CF84F10900F5CF85F109008E
:10106000F5CF86F10A0E046E82C100F0D7EC01F0D4
:1010700008C000F000C001F0000E00BEFF0E026EBE
:10108000036E046E013601900236033604360136D3
:101090000190023603360436BE0E0124F66E4B0E66
:1010A0000220F76E000E0320F86E0900F5CF00F065
:1010B0000900F5CF01F00900F5CF02F00900F5CFE6
:1010C00003F083C104F084C105F085C106F086C138
:1010D00007F03AEC04F0120082C100F0000E82BF6B
:1010E000FF0E016E026E036E00360090013602366E
:1010F000033600360090013602360336BE0E002459
:10110000F66E4B0E0120F76E000E0220F86E0900FD
:10111000F5CF00F00900F5CF01F00900F5CF02F09E
:101120000900F5CF03F01200800E8219006E800EC8
:101130006E0A005CD8A0C0D0640E046E82C100F0BC
:10114000D7EC01F0120E0024056E000E00BEFF0E5B
:10115000066E000E062205C000F006C001F0000E6B
:1011600006BEFF0E026E036E003600900136023698
:10117000033600360090013602360336F20E0024A4
:10118000F66E4B0E0120F76E000E0220F86E09007D
:10119000F5CF83F10900F5CF84F10900F5CF85F192
:1011A0000900F5CF86F1640E046E82C100F0D7EC21
:1011B00001F008C000F00A0E046ED7EC01F0090E31
:1011C0000024056E000E00BEFF0E066E000E062205
:1011D00005C000F006C001F0000E06BEFF0E026E54
:1011E000036E00360090013602360336003600905A
:1011F000013602360336F20E0024F66E4B0E012045
:10120000F76E000E0220F86E0900F5CF00F009001D
:10121000F5CF01F00900F5CF02F00900F5CF03F09A
:1012200083C104F084C105F085C106F086C107F0D2
:101230003AEC04F000C083F101C084F102C085F1F2
:1012400003C086F10A0E046E82C100F0D7EC01F0F3
:1012500008C000F000C001F0000E00BEFF0E026EDC
:10126000036E046E013601900236033604360136F1
:101270000190023603360436F20E0124F66E4B0E50
:101280000220F76E000E0320F86E0900F5CF00F083
:101290000900F5CF01F00900F5CF02F00900F5CF04
:1012A00003F083C104F084C105F085C106F086C156
:1012B00007F03AEC04F01200800E0A0A006E800E6D
:1012C0008219005C71E20A0E046E82C100F0D7EC54
:1012D00001F0090E0024056E000E00BEFF0E066E22
:1012E000000E062205C000F006C001F0000E06BE8A
:1012F000FF0E026E036E0036009001360236033692
:1013000000360090013602360336F20E0024F66EE7
:101310004B0E0120F76E000E0220F86E0900F5CF8B
:1013200083F10900F5CF84F10900F5CF85F10900BB
:10133000F5CF86F10A0E046E82C100F0D7EC01F001
:1013400008C000F000C001F0000E00BEFF0E026EEB
:10135000036E046E01360190023603360436013600
:101360000190023603360436F20E0124F66E4B0E5F
:101370000220F76E000E0320F86E0900F5CF00F092
:101380000900F5CF01F00900F5CF02F00900F5CF13
:1013900003F083C104F084C105F085C106F086C165
:1013A00007F03AEC04F0120082C100F0000E82BF98
:1013B000FF0E016E026E036E00360090013602369B
:1013C000033600360090013602360336F20E002452
:1013D000F66E4B0E0120F76E000E0220F86E09002B
:1013E000F5CF00F00900F5CF01F00900F5CF02F0CC
:0813F0000900F5CF03F0120023
:1013F8000B6A0A6A096A00500402F4CF09F0F3CFB5
:1014080008F001500502F4CF0BF0F3CF0AF00050BA
:101418000502F3500926F4500A22E86A0B2201500B
:101428000402F3500926F4500A22E86A0B2208C085
:1014380000F009C001F00AC002F00BC003F012006E
:101448000B6A0A6A096A086A0E6A03340836045085
:10145800085E0550D8A0053C095E0650D8A0063C99
:101468000A5E0750D8A0073C0B5EE86AD8A0010EB8
:101478000E5E0336070E0C6E0334083609360A363C
:101488000B360E36045003A012D0085E0550D8A0C3
:10149800053C095E0650D8A0063C0A5E0750D8A055
:1014A800073C0B5EE86AD8A0010E0E5E11D0082634
:1014B8000550D8B0053C09260650D8B0063C0A2687
:1014C8000750D8B0073C0B26E86AD8B0010E0E26A4
:1014D80003360C2ED1D70234083609360A360B36B5
:1014E8000E36045003A012D0085E0550D8A0053C63
:1014F800095E0650D8A0063C0A5E0750D8A0073CF3
:101508000B5EE86AD8A0010E0E5E11D008260550C1
:10151800D8B0053C09260650D8B0063C0A26075024
:10152800D8B0073C0B26E86AD8B0010E0E26023662
:10153800070E0C6E0234083609360A360B360E369C
:10154800045002A012D0085E0550D8A0053C095EE0
:101558000650D8A0063C0A5E0750D8A0073C0B5E90
:10156800E86AD8A0010E0E5E11D008260550D8B042
:10157800053C09260650D8B0063C0A260750D8B0C4
:10158800073C0B26E86AD8B0010E0E2602360C2E50
:10159800D1D70134083609360A360B360E360450D0
:1015A80002A012D0085E0550D8A0053C095E06507E
:1015B800D8A0063C0A5E0750D8A0073C0B5EE86A34
:1015C800D8A0010E0E5E11D008260550D8B0053CF3
:1015D80009260650D8B0063C0A260750D8B0073C62
:1015E8000B26E86AD8B0010E0E260136070E0C6EDF
:1015F8000134083609360A360B360E36045001A077
:1016080012D0085E0550D8A0053C095E0650D8A047
:10161800063C0A5E0750D8A0073C0B5EE86AD8A0D3
:10162800010E0E5E11D008260550D8B0053C0926DB
:101638000650D8B0063C0A260750D8B0073C0B26FF
:10164800E86AD8B0010E0E2601360C2ED1D7003428
:10165800083609360A360B360E36045001A012D069
:10166800085E0550D8A0053C095E0650D8A0063C87
:101678000A5E0750D8A0073C0B5EE86AD8A0010EA6
:101688000E5E11D008260550D8B0053C0926065034
:10169800D8B0063C0A260750D8B0073C0B26E86AA3
:1016A800D8B0010E0E260036070E0C6E0034083630
:1016B80009360A360B360E36045000A012D0085EE2
:1016C8000550D8A0053C095E0650D8A0063C0A5E25
:1016D8000750D8A0073C0B5EE86AD8A0010E0E5E42
:1016E80011D008260550D8B0053C09260650D8B0B8
:1016F800063C0A260750D8B0073C0B26E86AD8B043
:10170800010E0E2600360C2ED1D700B00ED0045094
:1017180008260550D8B0053C09260650D8B0063C26
:0C1728000A260750D8B0073C0B26120020
:1017340001018251390806E3300E825D03E3010E94
:08174400006E01D0006A1200E2
:10174C0010D0800E0101826F1AD0C00E826F17D09C
:10175C00940E826F14D0D40E826F11D0800E826FD3
:10176C000ED001018251010AECE08251020AEDE037
:10177C008251030AEDE08251040AEDE0EFD78305B4
:10178C00006E8251002600C082F100C088F165EC29
:10179C0000F01691866B86518425E96E000E85212A
:1017AC00EA6EEE520CE086518425E96E000E85211E
:1017BC00EA6EEECF87F195EC01F0862BECD7168113
:0217CC00120009
:1017CE000450000A08E10550000A05E1FF0E006E04
:1017DE007F0E016E12000D6A096A086A0150001030
:1017EE00D8B4000C015005180A6E0ABE0D1E0B6A05
:1017FE0005AE05D0041E051E042AD8B4052A01AE76
:10180E0005D0001E011E002AD8B4012A0150051071
:10181E000A6E0ABE10D09CEC01F00BB020D00DAEBB
:10182E00000C001E011E002AD8B4012A081E091E33
:10183E00082AD8B4092A000C05AE0DD001BE07D077
:10184E000150096E0050086E016A006AE8D7016AFD
:10185E00006A002A000C011E001E0B2ADDD7082A82
:10186E00D8B4092A0450085CD8A4D9D70550095C0D
:10187E00D8A4D5D7096A086A002AD8B4012A01AEBD
:08188E00CED70000FF0C120090
:08189600067E26EC02F01200B0
:10189E0003500718D8A463EF0CF002500618D8A412
:1018AE0063EF0CF001500518D8A463EF0CF0005054
:0E18BE000418D8B4D8841200D8941200120076
:1018CC006E0E0101825DD8A0CAD0640E046E82C176
:1018DC0000F0C8EC01F0120E0024056E066A000E32
:1018EC00062205C000F006C001F0000E06BEFF0E79
:1018FC00026E036E00360090013602360336003657
:10190C000090013602360336BE0E0024F66E4B0EE6
:10191C000120F76E000E0220F86E0900F5CF00F0E2
:10192C000900F5CF01F00900F5CF02F00900F5CF61
:10193C0003F0000E046E000E056E000E066E7E0E99
:10194C00076E3AEC04F000C083F101C084F102C0D0
:10195C0085F103C086F1640E046E82C100F0C8EC00
:10196C0001F008C000F00A0E046EC8EC01F0090E7C
:10197C000024056E066A000E062205C000F006C0A3
:10198C0001F0000E06BEFF0E026E036E00360090D4
:10199C000136023603360036009001360236033625
:1019AC00BE0E0024F66E4B0E0120F76E000E0220C8
:1019BC00F86E0900F5CF00F00900F5CF01F0090031
:1019CC00F5CF02F00900F5CF03F083C104F084C118
:1019DC0005F085C106F086C107F03AEC04F000C0B2
:1019EC0083F101C084F102C085F103C086F10A0EB7
:1019FC00046E82C100F0C8EC01F008C000F000C019
:101A0C0001F0000E026E036E046E01360190023678
:101A1C000336043601360190023603360436BE0E08
:101A2C000124F66E4B0E0220F76E000E0320F86EAA
:101A3C000900F5CF00F00900F5CF01F00900F5CF52
:101A4C0002F00900F5CF03F083C104F084C105F066
:101A5C0085C106F086C107F03AEC04F01200825101
:101A6C000A087EE20A0E046E82C100F0C8EC01F096
:101A7C00090E0024056E066A000E062205C000F051
:101A8C0006C001F0000E06BEFF0E026E036E00369D
:101A9C0000900136023603360036009001360236CD
:101AAC000336BE0E0024F66E4B0E0120F76E000EB0
:101ABC000220F86E0900F5CF00F00900F5CF01F017
:101ACC000900F5CF02F00900F5CF03F0000E046E0B
:101ADC00000E056E000E066E7E0E076E3AEC04F0DC
:101AEC0000C083F101C084F102C085F103C086F10E
:101AFC000A0E046E82C100F0C8EC01F008C000F0C0
:101B0C0000C001F0000E026E036E046E01360190EF
:101B1C00023603360436013601900236033604369B
:101B2C00BE0E0124F66E4B0E0220F76E000E032043
:101B3C00F86E0900F5CF00F00900F5CF01F00900AF
:101B4C00F5CF02F00900F5CF03F083C104F084C196
:101B5C0005F085C106F086C107F03AEC04F01200DE
:101B6C0082C100F0000E016E026E036E0036009012
:101B7C000136023603360036009001360236033643
:101B8C00BE0E0024F66E4B0E0120F76E000E0220E6
:101B9C00F86E0900F5CF00F00900F5CF01F009004F
:101BAC00F5CF02F00900F5CF03F0000E046E000E25
:101BBC00056E000E066E7E0E076E3AEC04F01200F7
:101BCC000450000A12E10550000A0FE10650000A09
:101BDC000CE10750000A09E1FF0E006EFF0E016ECA
:101BEC007F0E026EFF0E036E1200086A096A075020
:101BFC00D8B491EF0EF00350D8B496EF0EF002501B
:101C0C0006180A6E028E068E0E6A02C008F001C01B
:101C1C000CF000C00DF004500D5E0550D8A0053C32
:101C2C000C5E0650D8A0063C085E086A0C6A0D6A69
:101C3C00D8A028EF0EF0D8900232013200320832D0
:101C4C00010E0E6E0750035ED8A035EF0EF07E0E1F
:101C5C000E240326D8B09BEF0EF03BEF0EF07E0E59
:101C6C000E240326D8A0A0EF0EF0180E0B6E0D3626
:101C7C000C3608360036013602360E360450005E3D
:101C8C000550D8A0053C015E0650D8A0063C025E6B
:101C9C0006340E120EA056EF0EF00D8061EF0EF012
:101CAC00045000260550D8B0053C01260650D8B08B
:101CBC00062802260D900B2E3DEF0EF087EF0EF04E
:101CCC00D8900036013602360E360450005E0550B0
:101CDC00D8A0053C015E0650D8A0063C025E063436
:101CEC000E10010B0D26D8B00C2AD8B4082AD8A493
:101CFC0087EF0EF008320C320D32032AD8B49BEF6A
:101D0C000EF00AAE089E0850026E0C50016E0D507B
:101D1C00006EA3EF0EF0010E36EC04F0A3EF0EF004
:101D2C00020E41EC00F0A3EF0EF0040E48EC00F0B4
:0C1D3C00A3EF0EF0080E58EC00F01200AF
:0C1D48000E0E0D6E0D2EFED700001200D6
:101D54000001EA6BEB6B800EEB19006E800E005CE9
:101D640002E1020EEA5D0EE2EA5101015B25E16E39
:101D74000001EB5101015C21E26EE66A0001EA4BCD
:101D8400EB2BE9D7EA6BEB6B86EC05F000C04BF16B
:101D940000503D0A4CE001014B51FF0A47E04B5112
:101DA4002A0A28E1800E006E800E0001EB19005C07
:101DB40002E1EA51000804E2010EEA5F000EEB5B67
:101DC400EA5101015B25E16E0001EB5101015C2147
:101DD400E26EE66A5D515E110CE05FC182F10001C2
:101DE400EA5101016125836FEC0E846F000E856F4B
:101DF400ABDC1CD00001EA5101015B25E16E00015E
:101E0400EB5101015C21E26E4BC1E6FF0001EA4B9C
:101E1400EB2B01015D515E1109E05FC182F161C1EB
:101E240083F15BC184F15CC185F18EDCADD7120016
:101E34000C6A0E6A0250D8A433EF0FF001C002F00E
:101E440000C001F0006A0E860250D8A433EF0FF0F0
:101E540001C002F0016A0E960E880250D8B445EF14
:101E64000FF00E50035ED8A4D8A04BEF0FF0D8901B
:101E740002BE51EF0FF0003601360236032E3AEF60
:101E84000FF04BEF0FF0010E0C6E41EC00F055EF2C
:101E94000FF0020E0C6E58EC00F055EF0FF0040E2C
:081EA4000C6E54EC00F012007A
:101EAC00020E0B6E040E0C6EBA0E0D6E0D2EFED7BE
:0C1EBC000C2EFCD70B2EFAD700001200F1
:101EC80001017A6B7B6B676B686B5DC100F05EC16B
:101ED80001F05FC102F0010E5D27000E5E235F2353
:101EE80000C0F6FF01C0F7FF02C0F8FF0900F5CFF8
:101EF80000F000C064F10052D8B478EF1FF06451CC
:101F0800250A0BE05BC1E1FF5CC1E2FF64C1E6FFAB
:101F18005B4B5C2B7A4B7B2BD8D7656B666B676BFF
:101F2800686B23D06787010E5D27000E5E235F2351
:101F380059D06781010E5D27000E5E235F2352D0C2
:101F48006783010E5D27000E5E235F234BD06887F1
:101F5800010E5D27000E5E235F2344D06785010EC6
:101F68005D27000E5E235F233DD05DC1F6FF5EC195
:101F7800F7FF5FC1F8FF0900F5CF01F001502D0A06
:101F8800D1E05DC1F6FF5EC1F7FF5FC1F8FF090050
:101F9800F5CF01F00150200ACCE05DC1F6FF5EC12B
:101FA800F7FF5FC1F8FF0900F5CF01F001502B0AD8
:101FB800C7E05DC1F6FF5EC1F7FF5FC1F8FF09002A
:101FC800F5CF01F00150230AC2E05DC1F6FF5EC102
:101FD800F7FF5FC1F8FF0900F5CF01F00150300AA3
:101FE800BDE001D09ED767A301D0679167A701D054
:101FF80067955DC1F6FF5EC1F7FF5FC1F8FF090095
:10200800F5CF00F0000E016E00C082F19AEC0BF0E3
:10201800005236E0656B666B65C100F066C101F081
:102028000A0E046E000E056EFCEC09F05DC1F6FFA9
:102038005EC1F7FF5FC1F8FF0900F5CF02F002505B
:102048000024656F000E0120666F300E655F000E7C
:10205800665B010E5D27000E5E235F235DC1F6FF00
:102068005EC1F7FF5FC1F8FF0900F5CF00F0000E71
:10207800016E00C082F19AEC0BF00052CDE133D032
:102088005DC1F6FF5EC1F7FF5FC1F8FF0900F5CF3C
:1020980001F001502A0A27E160C1E9FF61C1EAFFA6
:1020A800EECF00F0EECF01F000C0E9FF01C0EAFF7B
:1020B800EECF65F1EECF66F160C1E9FF61C1EAFFDD
:1020C800020EEE24006E000EEE20016E60C1E1FFEC
:1020D80061C1E2FF00C0E6FF01C0E6FF010E5D2717
:1020E800000E5E235F235DC1F6FF5EC1F7FF5FC18F
:1020F800F8FF0900F5CF01F001502E0A70E1010E3A
:102108005D27000E5E235F235DC1F6FF5EC1F7FF0A
:102118005FC1F8FF0900F5CF01F001502A0A28E154
:1021280060C1E9FF61C1EAFFEECF00F0EECF01F038
:1021380000C0E9FF01C0EAFFEECF62F1EECF63F124
:1021480060C1E9FF61C1EAFF020EEE24006E000ED5
:10215800EE20016E60C1E1FF61C1E2FF00C0E6FF51
:1021680001C0E6FF010E5D27000E5E235F2336D017
:10217800626B636B5DC1F6FF5EC1F7FF5FC1F8FF7D
:102188000900F5CF00F0000E016E00C082F19AEC54
:102198000BF0005223E062C100F063C101F00A0EA7
:1021A800046E000E056EFCEC09F05DC1F6FF5EC121
:1021B800F7FF5FC1F8FF0900F5CF02F002500024D5
:1021C800626F000E0120636F300E625F000E635B6A
:1021D800010E5D27000E5E235F23CCD703D0626B10
:1021E800636B68895DC100F05EC101F05FC102F0F8
:1021F800010E5D27000E5E235F2300C0F6FF01C0BD
:10220800F7FF02C0F8FF0900F5CF64F105D17AC1E4
:1022180000F07BC101F012006789E4D7688537D1E7
:10222800678B688134D1688332D1678D30D12FD1E3
:10223800678B678F2CD160C1E9FF61C1EAFFEECFE0
:1022480000F0EECF01F000C0E9FF01C0EAFFEECFD9
:102258006FF1EECF70F160C1E9FF61C1EAFF020ED4
:10226800EE24006E000EEE20016E60C1E1FF61C138
:10227800E2FF00C0E6FF01C0E6FF000E701902E1B0
:10228800000E6F1911E1280E736F6E0E746F750EC4
:10229800756F6C0E766F6C0E776F290E786F796B91
:1022A800730E6F6F010E706F716B726B71516F25CA
:1022B800E96E72517021EA6EEE520BE0010E712543
:1022C800006E000E7221016E00C071F101C072F142
:1022D800EDD7625163110AE07251635D02E17151F9
:1022E800625D04E262C171F163C172F16651725DAF
:1022F80002E16551715D05E27151655F7251665B7E
:1023080002D0656B666B67B716D065C100F066C111
:1023180001F0010E655F000E665B005001100BE0D6
:102328005BC1E1FF5CC1E2FF200EE66E5B4B5C2BFC
:102338007A4B7B2BEAD771C102F072C103F0010E10
:10234800715D006E000E7259016E00C071F101C01E
:1023580072F10250031019E06FC1E9FF70C1EAFF82
:102368005BC1E1FF5CC1E2FFEECFE6FF5B4B5C2B9C
:10237800010E6F25006E000E7021016E00C06FF116
:1023880001C070F17A4B7B2BD6D767A716D065C1F1
:1023980000F066C101F0010E655F000E665B00503B
:1023A80001100BE05BC1E1FF5CC1E2FF200EE66EAD
:1023B8005B4B5C2B7A4B7B2BEAD787D560C1E9FF57
:1023C80061C1EAFFEECF00F0EECF01F000C0E9FFF7
:1023D80001C0EAFFEECF64F160C1E9FF61C1EAFF25
:1023E800020EEE24006E000EEE20016E60C1E1FFC9
:1023F80061C1E2FF00C0E6FF01C0E6FF640E6F6F37
:10240800010E706F010E716F000E726F62D7C00EF1
:102418006713000E68133BD06451000AD8B4F7D68E
:1024280064516C0AD8B4F8D66451660AD8B4F6D6A2
:102438006451450AD8B4F4D66451650AD8B4F1D6C3
:102448006451670AD8B4EFD664516F0AD8B4EDD690
:102458006451640AD8B4EBD66451690AD8B4E7D693
:102468006451700AD8B4E4D66451580AD8B4E0D696
:102478006451780AD8B4DDD66451730AD8B4DBD66F
:102488006451630A9BE06451750AC1E0B7D7000E36
:102498006715006E6851070B016E00500110D8B423
:1024A80023EF1BF068A904D0060E626F000E636F5D
:1024B80060C1E9FF61C1EAFFEECF00F0EECF01F0A5
:1024C80000C0E9FF01C0EAFFEECF69F1EECF6AF183
:1024D800EECF6BF1EECF6CF160C1E9FF61C1EAFFAD
:1024E800040EEE24006E000EEE20016E60C1E1FFC6
:1024F80061C1E2FF00C0E6FF01C0E6FF046A056AA9
:10250800066A076A69C100F06AC101F06BC102F08E
:102518006CC103F011EC06F0010ED8B0000E006E8D
:10252800005205E06B7F030E6713000E68136D6B96
:102538006E6B69C100F06AC101F06BC102F06CC139
:1025480003F0046A056A066A076A4FEC0CF0000E8D
:10255800D8A4010E006E0052D8B48AD06CC100F025
:10256800016A026A036AFF0E0016000E01167E0E4B
:10257800005E000E015A00C06DF101C06EF1010E3F
:10258800005E000E015A00C06DF101C06EF1030E2D
:10259800046E000E056EFCEC09F000C06DF101C080
:1025A8006EF10A0E046E000E056EE7EC0BF000C02B
:1025B8006DF101C06EF1800E0118026E800E025C92
:1025C80002E1000E005C05E2010E01016D5F000EE4
:1025D8006E5B01016D510008826F20EC07F069C144
:1025E80004F06AC105F06BC106F06CC107F03AEC63
:1025F80004F000C06FF101C070F102C071F103C0B6
:1026080072F1000E046E000E056E000E066E7F0E4F
:10261800076E6FC100F070C101F071C102F072C1A4
:1026280003F011EC06F0010ED8B0000E006E005257
:1026380005E0010E6D5F000E6E5B1AD0000E046E91
:10264800000E056E200E066E820E076E6FC100F03A
:1026580070C101F071C102F072C103F011EC06F013
:10266800000ED8B0010E006E005202E06D4B6E2BCA
:10267800800E006E800E6E19005C02E16D5100083C
:1026880003E3010E646F02D06DC164F168B118D024
:1026980068A315D0800E6E19006E7F0E005C02E1F3
:1026A800FC0E6D5D0BE3800E6E19006E800E6319D3
:1026B800005C02E162516D5D01E201D001D0F1D30D
:1026C8006251631106E068A304D0010E625F000E38
:1026D800635B000E006E6351005C02E16251080802
:1026E80003E2080E646F02D062C164F169C100F0B0
:1026F8006AC101F06BC102F06CC103F0046A056A9B
:10270800066A076A4FEC0CF0000ED8A4010E006EA2
:102718000052D8B44BD16DC182F120EC07F000C053
:1027280004F001C005F002C006F003C007F069C15B
:1027380000F06AC101F06BC102F06CC103F0E6EC75
:102748000DF000C069F101C06AF102C06BF103C06D
:102758006CF1010164510008826F20EC07F000C0A1
:1027680004F001C005F002C006F003C007F069C11B
:1027780000F06AC101F06BC102F06CC103F0E6EC35
:102788000DF000C07CF101C07DF102C07EF103C0F4
:102798007FF17CC169F17DC16AF17EC16BF17FC1B6
:1027A8006CF17CC100F07DC101F07EC102F07FC1F7
:1027B80003F078EC06F073EC05F000C004F001C0FB
:1027C80005F002C006F003C007F07CC100F07DC12F
:1027D80001F07EC102F07FC103F04BEC0CF0000E5B
:1027E800046E000E056E000E066E7E0E076E11EC6E
:1027F80006F0000ED8B0010E006E00521AE069C152
:1028080000F06AC101F06BC102F06CC103F0000E68
:10281800046E000E056E000E066E7E0E076E26EC28
:1028280002F000C069F101C06AF102C06BF103C097
:102838006CF169C100F06AC101F06BC102F06CC1B2
:1028480003F078EC06F001016451010F096E0A6A81
:10285800000E0A2209C004F00AC005F0000E0ABEE4
:10286800FF0E066E076E04360490053606360736E8
:1028780004360490053606360736560E0424F66EDE
:102888004C0E0520F76E000E0620F86E0900F5CFF5
:1028980005F00900F5CF06F00900F5CF07F00900AB
:1028A800F5CF08F00850035C08E10750025C05E129
:1028B8000650015C02E10550005C1EE3010169C19C
:1028C80000F06AC101F06BC102F06CC103F0CD0EDB
:1028D800046ECC0E056E4C0E066E7B0E076E3AEC3F
:1028E80004F000C069F101C06AF102C06BF103C0D5
:1028F8006CF16D4B6E2B5AD069C100F06AC101F0C2
:102908006BC102F06CC103F078EC06F064C104F00E
:10291800000E056E066E076E043604900536063600
:10292800073604360490053606360736560E042454
:10293800F66E4C0E0520F76E000E0620F86E0900A4
:10294800F5CF05F00900F5CF06F00900F5CF07F03F
:102958000900F5CF08F00850035C08E10750025C55
:1029680005E10650015C02E10550005C1FE201012F
:1029780069C100F06AC101F06BC102F06CC103F0DB
:10298800000E046E000E056E200E066E820E076E97
:102998003AEC04F000C069F101C06AF102C06BF1C1
:1029A80003C06CF1010E6D5F000E6E5B010168A340
:1029B80093D068B791D0800E000A006E800E63191C
:1029C800005C02E162510A0804E20A0E626F000E1E
:1029D800636F69C100F06AC101F06BC102F06CC19C
:1029E80003F078EC06F000C06FF101C070F102C08E
:1029F80071F103C072F16F5170117111721142E0DF
:102A08000A0E046E000E056E066E076E6FC100F0AA
:102A180070C101F071C102F072C103F024EC0AF038
:102A280008C000F009C001F00AC002F00BC003F0B2
:102A3800000E046E031808E10450021805E1045062
:102A4800011802E10050000A1DE1010E625F000E4C
:102A5800635B0A0E046E000E056E066E076E6FC18C
:102A680000F070C101F071C102F072C103F024ECF2
:102A78000AF000C06FF101C070F102C071F103C02B
:102A880072F1B9D7800E6319006E800E005C02E106
:102A98006451625D21E26251645D826F20EC07F04F
:102AA80000C004F001C005F002C006F003C007F042
:102AB80069C100F06AC101F06BC102F06CC103F09A
:102AC800E6EC0DF000C069F101C06AF102C06BF1DB
:102AD80003C06CF162C164F1050E01016225006E4C
:102AE800000E6321016E0050655F0150665B625104
:102AF800631103E168B701D004D0010E655F000ED1
:102B0800665B030E6715006E68C101F0000E0116C2
:102B18000050011004E0010E655F000E665B67A5BA
:102B280039D067A312D067A103D02D0E006E02D052
:102B38002B0E006E5BC1E1FF5CC1E2FF00C0E6FF47
:102B48005B4B5C2B7A4B7B2B0CD067A10AD05BC10B
:102B5800E1FF5CC1E2FF200EE66E5B4B5C2B7A4B1B
:102B68007B2B800E006E800E6619005C02E16551B9
:102B780000080FE25BC1E1FF5CC1E2FF300EE66EC8
:102B88005B4B5C2B7A4B7B2B010E655F000E665B03
:102B9800E8D73AD067B718D0800E006E800E661955
:102BA800005C02E1655100080FE25BC1E1FF5CC116
:102BB800E2FF200EE66E5B4B5C2B7A4B7B2B010E03
:102BC800655F000E665BE8D767A312D067A103D0E4
:102BD8002D0E006E02D02B0E006E5BC1E1FF5CC1B2
:102BE800E2FF00C0E6FF5B4B5C2B7A4B7B2B0CD0E3
:102BF80067A10AD05BC1E1FF5CC1E2FF200EE66E6F
:102C08005B4B5C2B7A4B7B2B69C100F06AC101F0EE
:102C18006BC102F06CC103F078EC06F000C06FF1F4
:102C280001C070F102C071F103C072F164C100F01B
:102C3800000E016E026E036E0036009001360236F9
:102C4800033600360090013602360336560E00244D
:102C5800F66E4C0E0120F76E000E0220F86E090089
:102C6800F5CF04F00900F5CF05F00900F5CF06F01F
:102C78000900F5CF07F06FC100F070C101F071C114
:102C880002F072C103F024EC0AF0300E00265BC19A
:102C9800E1FF5CC1E2FF00C0E6FF5B4B5C2B7A4BB7
:102CA8007B2B6251631103E168B701D06FD05BC120
:102CB800E1FF5CC1E2FF2E0EE66E5B4B5C2B7A4BAC
:102CC8007B2B6451625F000E635B64534DE06407C5
:102CD80064C100F0000E016E026E036E00360090B3
:102CE80001360236033600360090013602360336C6
:102CF800560E0024F66E4C0E0120F76E000E0220D0
:102D0800F86E0900F5CF04F00900F5CF05F00900C9
:102D1800F5CF06F00900F5CF07F06FC100F070C1DC
:102D280001F071C102F072C103F024EC0AF00A0E3E
:102D3800046E000E056E066E076E24EC0AF008C0DD
:102D480000F009C001F00AC002F00BC003F0300E19
:102D580000265BC1E1FF5CC1E2FF00C0E6FF5B4B00
:102D68005C2B7A4B7B2BB1D7625163110FE05BC1AF
:102D7800E1FF5CC1E2FF300EE66E5B4B5C2B7A4BE9
:102D88007B2B010E625F000E635BEED767AB0BD047
:102D98005BC1E1FF5CC1E2FF450EE66E5B4B5C2B5D
:102DA8007A4B7B2B0AD05BC1E1FF5CC1E2FF650E69
:102DB800E66E5B4B5C2B7A4B7B2B800E6E19006E9C
:102DC800800E005C02E1000E6D5D11E26D5100089D
:102DD8006D6F6E51000E6E575BC1E1FF5CC1E2FF83
:102DE8002D0EE66E5B4B5C2B7A4B7B2B0AD05BC1BE
:102DF800E1FF5CC1E2FF2B0EE66E5B4B5C2B7A4B6E
:102E08007B2B0A0E046E000E056E6DC100F06EC1BC
:102E180001F0E7EC0BF0300E00265BC1E1FF5CC16E
:102E2800E2FF00C0E6FF01015B4B5C2B7A4B7B2B7A
:102E38000A0E046E000E056E6DC100F06EC101F041
:102E4800E7EC0BF008C000F009C001F0300E0026D6
:102E58005BC1E1FF5CC1E2FF00C0E6FF01015B4B23
:102E68005C2B7A4B7B2B67A71AD0800E006E800EE6
:102E78006619005C02E16551000811E25BC1E1FFDF
:102E88005CC1E2FF200EE66E5B4B5C2B7A4B7B2B22
:102E9800010E655F000E665B65516611EFE169EF33
:102EA8000FF068A3F3D0800E6E19006E800E005CE0
:102EB80002E1000E6D5D0AE2010E6D5D006E000E0E
:102EC8006E59016E0050625F0150635B69C100F08A
:102ED8006AC101F06BC102F06CC103F078EC06F036
:102EE80000C06FF101C070F102C071F103C072F14E
:102EF800010E646F64510A0A34E064C100F0000EE8
:102F0800016E026E036E00360090013602360336FB
:102F180000360090013602360336560E0024F66E4F
:102F28004C0E0120F76E000E0220F86E0900F5CF56
:102F380001F00900F5CF02F00900F5CF03F0090010
:102F4800F5CF04F00450725D08E10350715D05E1AE
:102F58000250705D02E101506F5D01E202D0642B06
:102F6800C9D76451625D806F000E6359816F80C15B
:102F780062F181C163F16FC100F070C101F071C1EC
:102F880002F072C103F073EC05F000C004F001C058
:102F980005F002C006F003C007F069C100F06AC17D
:102FA80001F06BC102F06CC103F04BEC0CF000C0F7
:102FB8007CF101C07DF102C07EF103C07FF180C1C8
:102FC80082F120EC07F07CC104F07DC105F07EC1E0
:102FD80006F07FC107F03AEC04F0000E046E000E14
:102FE800056E000E066E7E0E076E26EC02F078EC7B
:102FF80006F000C06FF101C070F102C071F103C0AA
:1030080072F16251631142E00A0E046E000E056E01
:10301800066E076E6FC100F070C101F071C102F059
:1030280072C103F024EC0AF008C000F009C001F0F6
:103038000AC002F00BC003F0000E046E031808E18A
:103048000450021805E10450011802E10050000A7A
:103058001DE10A0E046E000E056E066E076E6FC146
:1030680000F070C101F071C102F072C103F024ECEC
:103078000AF000C06FF101C070F102C071F103C025
:1030880072F1010E625F000E635BBBD7800E006EAB
:10309800800E6319005C02E162510C0816E362C1FC
:1030A80082F166EC0CF069C104F06AC105F06BC1ED
:1030B80006F06CC107F026EC02F000C069F101C00F
:1030C8006AF102C06BF103C06CF169C100F06AC11A
:1030D80001F06BC102F06CC103F0046A056A066A6C
:1030E800076A4FEC0CF0000ED8A4010E006E0052D7
:1030F800D8B477D069C100F06AC101F06BC102F0A1
:103108006CC103F078EC06F0000E046E031808E1B9
:103118000450021805E10450011802E10050000AA9
:1031280060E1800E006E800E6E19005C02E16D5148
:10313800010857E26DC182F120EC07F000C004F0ED
:1031480001C005F002C006F003C007F069C100F035
:103158006AC101F06BC102F06CC103F0E6EC0DF03E
:103168005F0E046E700E056E090E066E810E076EF8
:1031780011EC06F0010ED8B0000E006E005206E009
:10318800090E01016D5F000E6E5B05D00101080E8E
:103198006D5F000E6E5B6DC182F120EC07F000C020
:1031A80004F001C005F002C006F003C007F069C1D1
:1031B80000F06AC101F06BC102F06CC103F0E6ECEB
:1031C8000DF078EC06F000C06FF101C070F102C09C
:1031D80071F103C072F10101696B6A6B6B6B6C6B07
:1031E80038D069C100F06AC101F06BC102F06CC14E
:1031F80003F078EC06F000C06FF101C070F102C076
:1032080071F103C072F16FC100F070C101F071C1BA
:1032180002F072C103F073EC05F000C004F001C0C5
:1032280005F002C006F003C007F069C100F06AC1EA
:1032380001F06BC102F06CC103F04BEC0CF000C064
:1032480069F101C06AF102C06BF103C06CF16D6BEA
:103258006E6B010E646F64510A0A34E064C100F0B9
:10326800000E016E026E036E0036009001360236C3
:10327800033600360090013602360336560E002417
:10328800F66E4C0E0120F76E000E0220F86E090053
:10329800F5CF01F00900F5CF02F00900F5CF03F0F2
:1032A8000900F5CF04F00450725D08E10350715D28
:1032B80005E10250705D02E101506F5D01E202D04C
:1032C800642BC9D764516225006E000E6321016E1C
:1032D8006D5100266E5101220050655F0150665BFA
:1032E80068B704D06251631101E104D0010E655F33
:1032F800000E665B030E6715006E68C101F0000ED4
:1033080001160050011004E0010E655F000E665BB7
:1033180067A539D067A312D067A103D02D0E006E20
:1033280002D02B0E006E5BC1E1FF5CC1E2FF00C062
:10333800E6FF5B4B5C2B7A4B7B2B0CD067A10AD04A
:103348005BC1E1FF5CC1E2FF200EE66E5B4B5C2BCC
:103358007A4B7B2B800E006E800E6619005C02E1B2
:10336800655100080FE25BC1E1FF5CC1E2FF300E6E
:10337800E66E5B4B5C2B7A4B7B2B010E655F000E78
:10338800665BE8D73AD067B718D0800E006E800E1B
:103398006619005C02E1655100080FE25BC1E1FFBC
:1033A8005CC1E2FF200EE66E5B4B5C2B7A4B7B2BFD
:1033B800010E655F000E665BE8D767A312D067A1B0
:1033C80003D02D0E006E02D02B0E006E5BC1E1FF04
:1033D8005CC1E2FF00C0E6FF5B4B5C2B7A4B7B2BAA
:1033E8000CD067A10AD05BC1E1FF5CC1E2FF200EEF
:1033F800E66E5B4B5C2B7A4B7B2B64C100F0640759
:1034080000524CE064C100F0000E016E026E036EC3
:103418000036009001360236033600360090013639
:1034280002360336560E0024F66E4C0E0120F76E57
:10343800000E0220F86E0900F5CF04F00900F5CF60
:1034480005F00900F5CF06F00900F5CF07F06FC1C8
:1034580000F070C101F071C102F072C103F024ECF8
:103468000AF00A0E046E000E056E066E076E24EC56
:103478000AF008C000F009C001F00AC002F00BC051
:1034880003F0300E00265BC1E1FF5CC1E2FF00C023
:10349800E6FF5B4B5C2B7A4B7B2BAFD7800E006E25
:1034A800800E6E19005C02E16D5100080FE25BC1ED
:1034B800E1FF5CC1E2FF300EE66E5B4B5C2B7A4BA2
:1034C8007B2B010E6D5F000E6E5BE8D7800E000A45
:1034D800006E800E6319005C02E16251080803E285
:1034E800080E646F02D062C164F16451625F000E1D
:1034F800635B645303E168B701D00AD05BC1E1FFA5
:103508005CC1E2FF2E0EE66E5B4B5C2B7A4B7B2B8D
:1035180064C182F120EC07F069C104F06AC105F0CA
:103528006BC106F06CC107F03AEC04F0DBEC04F078
:1035380000C06FF101C070F102C071F103C072F1F7
:1035480064534DE0640764C100F0000E016E026E22
:10355800036E0036009001360236033600360090BE
:10356800013602360336560E0024F66E4C0E012044
:10357800F76E000E0220F86E0900F5CF04F009007E
:10358800F5CF05F00900F5CF06F00900F5CF07F0F3
:103598006FC100F070C101F071C102F072C103F097
:1035A80024EC0AF00A0E046E000E056E066E076E15
:1035B80024EC0AF008C000F009C001F00AC002F0CB
:1035C8000BC003F0300E00265BC1E1FF5CC1E2FFD7
:1035D80000C0E6FF5B4B5C2B7A4B7B2BB1D762516B
:1035E80063110FE05BC1E1FF5CC1E2FF300EE66EE4
:1035F8005B4B5C2B7A4B7B2B010E625F000E635B8F
:10360800EED767A71AD0800E006E800E6619005C90
:1036180002E16551000811E25BC1E1FF5CC1E2FF14
:10362800200EE66E5B4B5C2B7A4B7B2B010E655FA5
:10363800000E665B65516611EFE169EF0FF0C00E91
:103648006715016E68C102F0000E0216000E02181E
:1036580002E1000E0118D8A47CD067A927D060C168
:10366800E9FF61C1EAFFEECF00F0EECF01F000C044
:10367800E9FF01C0EAFFEECF6FF1EECF70F1EECFB8
:1036880071F1EECF72F160C1E9FF61C1EAFF040E8A
:10369800EE24006E000EEE20016E60C1E1FF61C1F4
:1036A800E2FF00C0E6FF01C0E6FF2BD060C1E9FFE2
:1036B80061C1EAFFEECF00F0EECF01F000C0E9FFF4
:1036C80001C0EAFFEECF00F0EECF01F000C06FF1CD
:1036D80001C070F1000E01BEFF0E716F726F60C104
:1036E800E9FF61C1EAFF020EEE24006E000EEE2033
:1036F800016E60C1E1FF61C1E2FF00C0E6FF01C0E9
:10370800E6FF800E7219006E800E005C08E1000E64
:10371800715D05E1000E705D02E1000E6F5D18E25B
:10372800030E6713000E6813006A016A026A036ACF
:103738006F51005E7051015A7151025A7251035A09
:1037480000C06FF101C070F102C071F103C072F1E5
:103758004ED067A927D060C1E9FF61C1EAFFEECF6B
:1037680000F0EECF01F000C0E9FF01C0EAFFEECFA4
:103778006FF1EECF70F1EECF71F1EECF72F160C163
:10378800E9FF61C1EAFF040EEE24006E000EEE2090
:10379800016E60C1E1FF61C1E2FF00C0E6FF01C048
:1037A800E6FF25D060C1E9FF61C1EAFFEECF00F076
:1037B800EECF01F000C0E9FF01C0EAFFEECF6FF1E4
:1037C800EECF70F1000E716F726F60C1E9FF61C1D9
:1037D800EAFF020EEE24006E000EEE20016E60C1BC
:1037E800E1FF61C1E2FF00C0E6FF01C0E6FF000E95
:1037F800631902E1000E62190FE1000E006E7219E2
:1038080008E10050711905E10050701902E16F518B
:10381800000A02E1624B632BC00E6715006E00C000
:1038280005F0AED0010E646F64510A0A34E064C139
:1038380000F0000E016E026E036E00360090013635
:103848000236033600360090013602360336560E2D
:103858000024F66E4C0E0120F76E000E0220F86E62
:103868000900F5CF01F00900F5CF02F00900F5CF06
:1038780003F00900F5CF04F00450725D08E103502D
:10388800715D05E10250705D02E101506F5D01E27A
:1038980002D0642BC9D782D0010E646F6451080A24
:1038A80034E064C100F0000E016E026E036E003653
:1038B8000090013602360336003600900136023693
:1038C80003367E0E0024F66E4C0E0120F76E000EB5
:1038D8000220F86E0900F5CF01F00900F5CF02F0DB
:1038E8000900F5CF03F00900F5CF04F00450725D2C
:1038F80008E10350715D05E10250705D02E101507D
:103908006F5D01E202D0642BC9D748D0010E646F05
:1039180064510C0A34E064C100F0000E016E026EBE
:10392800036E0036009001360236033600360090EA
:10393800013602360336260E0024F66E4C0E0120A0
:10394800F76E000E0220F86E0900F5CF01F00900AD
:10395800F5CF02F00900F5CF03F00900F5CF04F028
:103968000450725D08E10350715D05E10250705D1D
:1039780002E101506F5D01E202D0642BC9D70ED07D
:103988000550000AD8B44ED70550C00AD8B44AD753
:103998000550800A81E00550400AB8E0800E006EAC
:1039A800800E6319005C02E16251645D03E262C14A
:1039B80064F10DD0800E6319006E800E005C02E188
:1039C8006451625D04E264C162F1000E636F655187
:1039D80066110EE0030E6715006E68C101F0000E57
:1039E80001160050011004E0010E655F000E665BD1
:1039F800800E6319006E800E6619005C02E1655145
:103A0800625D05E26251655F6351665B02D0656B7A
:103A1800666BC40E6715016E6851080B026E025082
:103A2800080A02E1400E011808E16551661104E038
:103A3800010E655F000E665B1CD0C00E6715016E37
:103A48006851080B026E0250080A02E1800E011844
:103A580010E1800E006E800E6619005C02E165516F
:103A6800020805E2020E655F000E665B02D0656B18
:103A7800666B67A55DD067A312D067A103D02D0E32
:103A8800006E02D02B0E006E5BC1E1FF5CC1E2FF4D
:103A980000C0E6FF5B4B5C2B7A4B7B2B34D067A1D5
:103AA8000BD05BC1E1FF5CC1E2FF200EE66E5B4B11
:103AB8005C2B7A4B7B2B27D0C00E6715016E6851A3
:103AC800080B026E0250080A02E1800E01181BE181
:103AD8005BC1E1FF5CC1E2FF300EE66E5B4B5C2B25
:103AE8007A4B7B2B67AB03D0580E006E02D0780E52
:103AF800006E5BC1E1FF5CC1E2FF00C0E6FF5B4B0B
:103B08005C2B7A4B7B2B6551661111E05BC1E1FFA1
:103B18005CC1E2FF300EE66E5B4B5C2B7A4B7B2B75
:103B2800010E655F000E665B65516611EFE174D0AA
:103B38006551661113E067B711D05BC1E1FF5CC145
:103B4800E2FF200EE66E5B4B5C2B7A4B7B2B010E63
:103B5800655F000E665B65516611EFE167A312D0E1
:103B680067A103D02D0E006E02D02B0E006E5BC134
:103B7800E1FF5CC1E2FF00C0E6FF5B4B5C2B7A4BC8
:103B88007B2B0CD067A10AD05BC1E1FF5CC1E2FFCF
:103B9800200EE66E5B4B5C2B7A4B7B2BC00E6715B9
:103BA800016E6851080B026E0250080A02E1400ECD
:103BB80001180BE15BC1E1FF5CC1E2FF300EE66E6C
:103BC8005B4B5C2B7A4B7B2B27D0C00E6715016EA5
:103BD8006851080B026E0250080A02E1800E0118B3
:103BE8001BE15BC1E1FF5CC1E2FF300EE66E5B4B9F
:103BF8005C2B7A4B7B2B67AB03D0580E006E02D040
:103C0800780E006E5BC1E1FF5CC1E2FF00C0E6FF19
:103C18005B4B5C2B7A4B7B2B800E006E800E6319FE
:103C2800005C02E16251645D0BE25BC1E1FF5CC1D3
:103C3800E2FF300EE66E5B4B5C2B7A4B7B2BECD7AE
:103C480062C100F063C101F0010E625F000E635BA8
:103C580000500110D8B42AD1C00E6715006E00C0FC
:103C68007CF10AD162C100F063C101F0000E63BFAC
:103C7800FF0E026E036E00360090013602360336E0
:103C880000360090013602360336560E0024F66ED2
:103C98004C0E0120F76E000E0220F86E0900F5CFD9
:103CA80004F00900F5CF05F00900F5CF06F009008A
:103CB800F5CF07F06FC100F070C101F071C102F0DB
:103CC80072C103F024EC0AF00A0E046E000E056EB1
:103CD800066E076E24EC0AF008C000F009C001F077
:103CE8000AC002F00BC003F0300E0024646FD3D07A
:103CF80067AB45D062C100F063C101F0000E63BF3D
:103D0800FF0E026E036E003600900136023603364F
:103D1800003600900136023603367E0E0024F66E19
:103D28004C0E0120F76E000E0220F86E0900F5CF48
:103D380004F00900F5CF05F00900F5CF06F00900F9
:103D4800F5CF07F06FC100F070C101F071C102F04A
:103D580072C103F024EC0AF00F0E0016000E0116D3
:103D6800021603169E0E0024F66E4C0E0120F76E06
:103D7800000E0220F86E0900F5CF64F144D062C14C
:103D880000F063C101F0000E63BFFF0E026E036E08
:103D980000360090013602360336003600900136B0
:103DA800023603367E0E0024F66E4C0E0120F76EA6
:103DB800000E0220F86E0900F5CF04F00900F5CFD7
:103DC80005F00900F5CF06F00900F5CF07F06FC13F
:103DD80000F070C101F071C102F072C103F024EC6F
:103DE8000AF00F0E0016000E011602160316AF0E8B
:103DF8000024F66E4C0E0120F76E000E0220F86EBD
:103E08000900F5CF64F147D062C100F063C101F049
:103E1800000E63BFFF0E026E036E0036009001367F
:103E28000236033600360090013602360336260E77
:103E38000024F66E4C0E0120F76E000E0220F86E7C
:103E48000900F5CF04F00900F5CF05F00900F5CF1A
:103E580006F00900F5CF07F06FC100F070C101F05E
:103E680071C102F072C103F024EC0AF0070E0014CD
:103E7800646F300E64270FD07C51000AD8B4F2D694
:103E88007C51C00AD8B4EED67C51800AD8B430D759
:103E98007C51400AB9E05BC1E1FF5CC1E2FF64C14B
:103EA800E6FF5B4B5C2B7A4B7B2BCAD667A71AD0F5
:103EB800800E006E800E6619005C02E165510008F4
:103EC80011E25BC1E1FF5CC1E2FF200EE66E5B4BD5
:103ED8005C2B7A4B7B2B010E655F000E665B655190
:103EE8006611EFE169EF0FF07AC100F07BC101F0D4
:023EF8001200B6
:103EFA009E965BC1C9FFC7A401D0FDD79EB601D06B
:103F0A00FDD7C5BC02D0006A1200C584020E006E3D
:023F1A00120093
:103F1C0001015B6B5C6B5C51120802E15B518E081A
:103F2C0009E313EC07F0005201E004D001015B4BF4
:103F3C005C2BF1D70101120E5C5D02E18F0E5B5D13
:103F4C0003E37B0E006E1200C580C5A001D0FDD727
:043F5C00006A1200E5
:043F6000C584120002
:103F64009E96C5869EB601D0FDD7C9CF01F001014A
:103F74005B51000A02E1C58A01D0C59A9E96C588A4
:0C3F84009EB601D0FDD701C000F0120075
:0A3F9000C582C5A201D0FDD71200C2
:103F9A00510E0101596F010E5A6F4CC15BF14DC1AF
:103FAA005CF14EC15DF14FC15EF150C15FF1590E36
:103FBA00606F010E616F64EC0FF000C057F101C031
:103FCA0058F100504C25E16E01504D21E26EE66A2F
:0A3FDA0057C100F058C101F01200B9
:103FE4009BDFD00E5B6F87DF4CC15BF184DFCEDFDC
:103FF400D10E01015B6F7FDF01015B6BB1DF00C09C
:104004004EF1000E01014F6FA9DF4EC100F04FC108
:0440140001F01200A5
:104018004CC1E9FF4DC1EAFFEECF03F0F00E0314E7
:10402800026E02C000F00032009E0032009E003294
:10403800009E0032009E0A0E0002F3CF01F00F0E20
:104048000314006E4CC1E1FF4DC1E2FF0050012492
:10405800E66E4EC1E9FF4FC1EAFFEECF03F0F00E66
:104068000314026E02C000F00032009E0032009E6F
:104078000032009E0032009E0A0E0002F3CF01F0CB
:104088000F0E0314006E4EC1E1FF4FC1E2FF005056
:104098000124E66E50C1E9FF51C1EAFFEECF03F0FB
:1040A800F00E0314026E02C000F00032009E0032CF
:1040B800009E0032009E0032009E0A0E0002F3CFDE
:1040C80001F00F0E0314006E50C1E1FF51C1E2FF71
:0840D80000500124E66E120005
:1040E0004CC15BF14DC15CF1010E01015D6F000E31
:1040F0005E6F4EC15FF14FC160F150C161F151C1BE
:0841000062F1AAEC0EF01200BE
:104108004CC1E9FF4DC1EAFFEECF4EF1000E0101AF
:104118004F6F000E4F6F000E4F1902E1200E4E191F
:1041280007E0000E4F1902E1090E4E1901E003D015
:104138004C4B4D2BE5D7506B516B526B536B000EAC
:104148004F1902E12D0E4E1905E1524B532B4C4BE2
:104158004D2B08D0000E4F1902E12B0E4E1902E12B
:104168004C4B4D2B4CC1E9FF4DC1EAFFEECF4EF150
:10417800000E4F6F000E4F6F4EC182F19AEC0BF09C
:10418800005219E050C100F051C101F00A0E046E4E
:10419800000E056EFCEC09F0300E4E5D026E000E4E
:1041A8004F59036E02500024506F03500120516F85
:1041B8004C4B4D2BD7D75251531108E050510008A2
:1041C800006E51C101F0000E0156120050C100F0FE
:0641D80051C101F01200CC
:1041DE000B6A0C6A0A6A0350D8B424EF21F00A9EC7
:1041EE00028E860E035E03BE02EF21F0D8B402EFFC
:1041FE0021F027EF21F0036C080E035CD8A010EF1E
:10420E0021F0036E0236026A0350D8A4D89019EF3B
:10421E0021F00350D8B419EF21F0D8900232032EBA
:10422E0014EF21F00BBC02A024EF21F0D8A024EF54
:10423E0021F0022AD8B42EEF21F0016A34EF21F0DA
:10424E000B800BAE38EF21F0016A38EF21F0010E32
:10425E000C6ECDEC04F03AEF21F0000E0C6E3AEF3E
:0C426E0021F0FF0E0C6E0250006E1200DA
:10427A0001014C6B4D6B800E4D19006E800E005C77
:10428A0002E1010E4C5D09E21C0E886F65EC00F03C
:10429A0056EC0FF04C4B4D2BEED74C6B4D6B800E02
:1042AA004D19006E800E005C02E1010E4C5D09E2C0
:1042BA00180E886F65EC00F056EC0FF04C4B4D2B46
:0442CA00EED7120019
:1042CE00C26A070EC012C08E4CC100F000360090BC
:1042DE00003600900050C212C280A4EC0EF0C282D2
:1042EE00C2A201D0FDD7C4CF01F0006AC3500012A4
:0842FE00000E0112C290120033
:104306000050086E0150006E016A026A036A0B6A69
:104316000C6A960E036E0A6A00C001F008C000F02F
:0A432600086A026A1AEC0FF0120098
:10433000949894968B988B9694889486C79EC79CE5
:06434000380EC66E1200EB
:10434600969296909598959A959C959E849284902F
:10435600839E839C839A83982EEC00F02EEC00F0CB
:104366002EEC00F0838A838884823EEC00F08492EF
:104376002EEC00F084823EEC00F084922EEC00F0ED
:1043860084823EEC00F084922EEC00F083988482C6
:104396003EEC00F084922EEC00F084823EEC00F0BD
:1043A6008492839A838E84823EEC00F084922EEC73
:1043B60000F0839E838884823EEC00F0849283988A
:1043C60084823EEC00F084922EEC00F084823EEC77
:1043D60000F08492838884823EEC00F084922EEC76
:1043E60000F0839884823EEC00F08492838E838C66
:1043F600838A838884823EEC00F084922EEC00F05F
:0644060001011681120005
:10440C000900F5CFE6FF0006FBE10106F9E1120019
:10441C00FF0E0101176FFF0E186FFF0E196FFF0EC5
:10442C001A6FFF0E1E6FFF0E1F6F000E206F000E17
:10443C00216FFF0E226FFF0E236F000E246F000EF4
:10444C00256FFF0E266FFF0E276F000E286F000ED4
:10445C00296FAC8A900EAB6E948E949C9EAA03D05E
:08446C00AECF00F0FBD71200F7
:1044740053DDA00E5B6F3FDD4CC15BF13CDD4EC1F3
:104484005BF139DD6BDD1A0E0C6EF80E0D6E0D2E20
:0A449400FED70C2EFCD7000012002A
:10449E003EDDA00E5B6F2ADD4CC15BF127DD71DDC9
:1044AE00A10E01015B6F22DD01015B6B54DD00C0CB
:1044BE004EF1000E01014F6F4CDD4EC100F04FC1A9
:0444CE0001F01200E7
:1044D200400E0101886F65EC00F04C6B4C510708EF
:1044E20012E3E10E4C25F66E4C0EF76E000EF7222B
:1044F200000EF86E000EF8220900F5CF87F195EC58
:1045020001F04C2BEBD74C6B4C51070812E3D90E40
:104512004C25F66E4C0EF76E000EF722000EF86E6A
:10452200000EF8220900F5CF87F195EC01F04C2B33
:0C453200EBD7020E886F65EC00F0120061
:10453E003C0ECA6E9D82F90ECB6ED00EF26E12003C
:10454E007AEC26F0190EAF6EAC8461DF140EC86ED5
:10455E00E8DE0E0EC16E0F0E936E210E926EECDE25
:10456E000C0E886F65EC00F0ADDFE2DF86EC05F037
:10457E0000C013F10050430A38E1010E0101886FAB
:10458E0065EC00F0020E826F020E836F720E846F66
:10459E00000E856FA6EC0BF00B0E0B6E260E0C6E3E
:1045AE005D0E0D6E0D2EFED70C2EFCD70B2EFAD7F0
:1045BE00000000004C6B4D6BFF0E4E6F000E4F6FE8
:1045CE0052DF010E01014C6F000E4D6FFF0E4E6F4C
:1045DE00000E4F6F48DF020E01014C6F000E4D6F43
:1045EE00FF0E4E6F000E4F6F3EDF01014C6B4D6B99
:1045FE004FDF00C00FF101C010F1010E4C6F000E25
:10460E004D6F46DF00C011F101C012F1020E4C6F6A
:10461E00000E4D6F3DDF00C014F101C015F1000E0C
:10462E00101902E1FF0E0F1965E1010E886F65EC9E
:10463E0000F0010E826F020E836F9F0E846F000ECC
:10464E00856FA6EC0BF0020E826F020E836FAF0E1B
:10465E00846F000E856FA6EC0BF0150E0B6E4B0ED5
:10466E000C6EBE0E0D6E0D2EFED70C2EFCD70B2E25
:10467E00FAD70000010E886F65EC00F0010E826F14
:10468E00020E836F840E846F000E856FA6EC0BF006
:10469E00020E826F020E836F970E846F000E856F6F
:1046AE00A6EC0BF0030E826F020E836F300E846F3A
:1046BE00000E856FA6EC0BF0EE0E4C6F000E4D6FDC
:1046CE00030E4E6F000E4F6F060E506F000E516FA1
:1046DE0000DDEE0E01014C6F000E4D6F0EDD00C0C1
:1046EE000FF101C010F14C6B4D6B00C04EF101C0CB
:1046FE004FF1B9DE000E0101121902E1FF0E111980
:10470E00D8A4A6D0000E151902E1FF0E1419D8A4D4
:10471E009FD0010E886F65EC00F0010E826F020EC5
:10472E00836F160E846F000E856FA6EC0BF0020ED3
:10473E00826F020E836F250E846F000E856FA6ECBE
:10474E000BF0030E826F020E836F370E846F000E16
:10475E00856FA6EC0BF0150E0B6E4B0E0C6EBE0E8F
:10476E000D6E0D2EFED70C2EFCD70B2EFAD7000099
:10477E00010E886F65EC00F0010E826F020E836FE2
:10478E005E0E846F000E856FA6EC0BF0020E826F2C
:10479E00020E836F6B0E846F000E856FA6EC0BF00E
:1047AE00EE0E4C6F000E4D6F020E4E6F000E4F6FE1
:1047BE00060E506F000E516F8CDCEE0E01014C6F29
:1047CE00000E4D6F9ADC00C011F101C012F1030E04
:1047DE00826F020E836F450E846F000E856FA6ECFE
:1047EE000BF0040E826F020E836F570E846F000E55
:1047FE00856FA6EC0BF0EE0E4C6F000E4D6F040E97
:10480E004E6F000E4F6F060E506F000E516F61DC33
:10481E00EE0E01014C6F000E4D6F6FDC00C014F1F7
:10482E0001C015F1010E4C6F000E4D6F11C14EF10E
:10483E0012C14FF118DE020E01014C6F000E4D6FCA
:10484E0014C14EF115C14FF10EDE010E0001BB6F0A
:10485E000001BB532FE0010E0101886F65EC00F0E3
:10486E00010E826F020E836FD20E846F000E856F63
:10487E00A6EC0BF0020E826F020E836FDF0E846FBA
:10488E00000E856FA6EC0BF0030E826F020E836F87
:10489E00C00E846F000E856FA6EC0BF0040E826FB7
:1048AE00020E836FC80E846F000E856FA6EC0BF0A0
:1048BE000001BB6B010113512B0A09E10F4B102BA9
:1048CE004C6B4D6B0FC14EF110C14FF1CCDD0101A0
:1048DE0013512D0A0BE1010E0F5F000E105B4C6B96
:1048EE004D6B0FC14EF110C14FF1BDDD2A0E01010E
:1048FE004C6F010E4D6FEE0E4E6F4C0E4F6F000E45
:10490E00506F0FC151F110C152F1CDEC1FF0020EDC
:10491E00826F0D0E836F2A0E846F010E856FA6ECCB
:10492E000BF0876B95EC01F0430E876F95EC01F061
:10493E002A0E4C6F010E4D6FCF0E4E6F4C0E4F6FF9
:10494E00000E506F11C151F112C152F114C153F149
:10495E0015C154F1CDEC1FF0030E826F0A0E836F5A
:10496E002A0E846F010E856FA6EC0BF04C6B4D6B0F
:10497E00F2EC1FF000C047F101C048F1010E4C6F80
:10498E00000E4D6FF2EC1FF000C049F101C04AF16C
:10499E00020E4C6F000E4D6FF2EC1FF000C031F1A5
:1049AE0001C032F1470E4C6F010E4D6F490E4E6F26
:1049BE00010E4F6F310E506F010E516F0CEC20F047
:1049CE00330E4C6F010E4D6FC00E4E6F4C0E4F6F6F
:1049DE00000E506F31C151F132C152F149C153F144
:1049EE004AC154F147C155F148C156F1CDEC1FF003
:1049FE00040E826F0C0E836F330E846F010E856F63
:104A0E00A6EC0BF04C6B5CDC00C01BF101C01CF182
:104A1E0073DC000E046E000E056E200E066E810E07
:104A2E00076E3AEC04F0000E046E000E056E000EDA
:104A3E00066E890E076EE6EC0DF0000E046E000E8B
:104A4E00056E480E066E850E076E3AEC04F0EFEC1E
:104A5E0020F000C01DF12A0E01014C6F010E4D6FAA
:104A6E00E90E4E6F4C0E4F6F000E506F00C051F19D
:104A7E00CDEC1FF0010E826F0F0E836F2A0E846F26
:104A8E00010E856FA6EC0BF0876B95EC01F0430ED3
:104A9E00876F95EC01F0800E1019006E800E005C91
:104AAE0002E11D510F5D16E2800E3219006E800E6E
:104ABE001219005C02E11151315D0CE3800E4A19AE
:104ACE00006E800E1519005C02E11451495D02E37F
:084ADE003DEC21F04BD5FFD7A0
:104CF40010EE16F0D80E006E010E016EE60EF66E82
:0E4D04004A0EF76E000EF86E06EC22F012005A
:0F4AE600434F4E4649475552414E444F204F00D3
:0B4AF500484F524152494F20444F00EF
:074B0000522E3A205F5F0016
:0E4B07004D4F4E49544F52414D454E544F00B4
:104B15005155414953204F53204D494E55544F53FC
:024B25003F004F
:074B2700522E3A205F5F00EF
:0D4B2E005155414C204120484F52413F005D
:074B3B00522E3A205F5F00DB
:104B42004D4F444F20434F4E4649475552414341F2
:024B52004F0012
:104B54005155414C20412054454D504552415455E6
:034B6400524100BB
:084B67004D4158494D413F004A
:104B6F00434F4E4649475552414E444F2041200036
:0C4B7F0054454D504552415455524100E0
:014B8B000128
:024B8C00000027
:024B8E00000025
:084B9000482E204D4F4E3A0063
:0A4B9800482E20415455414C3A00CC
:0D4BA20054454D502E20415455414C3A00D1
:0B4BAF0054454D502E204D41583A0057
:024BBA000000F9
:024BBC002000D7
:104BBE000000007FCDCC4C7B0AD723786F12037593
:104BCE0017B75171ACC5276EBD37066B95BF5667CB
:104BDE0077CC2B645F700961FFE65B5D08E53C3CBA
:044BEE006042221BE4
:104BF2000000007F000020820000488500007A88C3
:104C020000401C8C0050438F0024749280961896AA
:104C120020BC3E99286B6E9CF90215A0EC782DC140
:044C2200CAF249E2A7
:104C26000100000008000000400000000002000033
:104C360000100000008000000000040000002000BA
:104C46000000000100000008000000400000000015
:104C5600010000000A00000064000000E8030000F4
:104C660010270000A086010040420F0080969800A1
:084C760000E1F50500CA9A3BBC
:104C7E000100000010000000000100000010000004
:104C8E0000000100000010000000000100000010F4
:104C9E003031323334353637383941424344454664
:014CAE000005
:104CAF003031323334353637383961626364656693
:014CBF0000F4
:0F4CC000253032643A253032643A2530326400B0
:0A4CCF00253032643A2530326400CB
:084CD9000101010101010101CB
:084CE1000303000000000000C5
:054CE9002530326400DB
:054CEE002530326400D6
:020000040030CA
:0D000100021F1EFF8381FF0FC00FE00F40A4
:00000001FF
