:040000009FEF31F04D
:1000080000C015F0F2A218D03B503C10010ED8A445
:10001800000E3B6E000E3C6EF2920001F94BFA2B7B
:10002800000EFA1902E10A0EF91906E1010E686ECE
:0E003800000E696EF96BFA6B15C000F0110036
:06004600000000001200A2
:10004C008280FF0E956E8292030E8314016E015016
:0A005C00030A01E0F9D782821200C6
:0E006600026A016A006A086A036A000E12004C
:100074000B820BAE44EF00F003680268016800686D
:080084000A360232FF0E1200E1
:10008C000B840BAE51EF00F0010E036E026A016A95
:0A009C00006A0A360232FF0E12005D
:0800A6000AAE029E000E1200DA
:1000AE008290956A00C283FF8294C6DFC5DFC4DFEB
:0400BE008284120026
:1000C200C4DF956A00C283FF8294BCDFBBDFBADF64
:0400D2008284120012
:1000D6000CB0ADEF00F00CA253EF01F00E6A000E6B
:1000E6000264C4EF00F0F00E0214D8A48FEF00F003
:1000F600023A01380F0B02260138F00B016E003868
:100106000F0B01260038F00B006E08380F0B002687
:100116000838F00B086E0E84D89002BEA8EF00F0E7
:1001260008360036013602360E2A02BEA8EF00F067
:1001360008360036013602360E2A02BEA8EF00F057
:1001460008360036013602360E2A0E50036449EF91
:1001560001F0035E0BBC08AE4EEF01F0D880800EB6
:1001660008640030000E002201220222D8A04EEFC1
:1001760001F0023201320032034A53EF01F04EEF32
:1001860001F001C002F000C001F008C000F0086AEA
:10019600000E0E860264FBEF00F0F00E0214D8A4E7
:1001A600E3EF00F0023A01380F0B02260138F00B9C
:1001B600016E00380F0B01260038F00B006E0E841E
:1001C600D89002BEA8EF00F00036013602360E2A9D
:1001D60002BEA8EF00F00036013602360E2A02BE35
:1001E600A8EF00F00036013602360E2AA8EF00F01E
:1001F60001C002F000C001F0006A000E0E960E88E3
:10020600026428EF01F0F00E0214D8A413EF01F0F7
:10021600023A01380F0B02260138F00B016E0E84EC
:10022600D89002BEA8EF00F0013602360E2A02BEB2
:10023600A8EF00F0013602360E2A02BEA8EF00F043
:10024600013602360E2AA8EF00F001C002F0016A5C
:10025600000E0E86026458EF01F0F00E0214D8A4C8
:1002660037EF01F0023A0E84D89002BEA8EF00F0F4
:1002760002360E2A02BEA8EF00F002360E2A02BE91
:10028600A8EF00F002360E2AA8EF00F0010E0C6E61
:10029600FADE5BEF01F0020E0C6E02DF5BEF01F09F
:1002A600040E0C6EE4DE5BEF01F0080E0C6ED8DE79
:0202B600120034
:1002B80006C200F0016A00C0FFF105C200F2F3DED9
:0E02C800FFC100F2F0DE07C200F2F7DE120006
:1002D600086A096A100E0C6E013408360936045095
:1002E600085E0550D8A0053C095ED8B007D004507A
:1002F60008260550D8B0053C0926D89000360136A8
:060306000C2EEAD71200E4
:10030C000B6A0A6A096A00500402F4CF09F0F3CFB1
:10031C0008F001500502F4CF0BF0F3CF0AF00050B7
:10032C000502F3500926F4500A22E86A0B22015008
:10033C000402F3500926F4500A22E86A0B2208C082
:10034C0000F009C001F00AC002F00BC003F012006B
:10035C000201036B046B16C104F017C105F0F6C162
:10036C0000F0000E016EB1DF00C0FDF101C0FEF126
:10037C00F7C100F0000E016E12C104F013C105F0BC
:10038C00BFDF0101FD5100240201036F0101FE5189
:10039C0001200201046F01010E510201032701012A
:1003AC000F5102010423070E0101FB15016E0150D0
:1003BC0000080DE2FB33FB9FFB33FB9FFB33FB9FE2
:1003CC00FB2BFB37FB91FB37FB91FB37FB910101BF
:1003DC00FCC100F0FC07005245E032DE03C205F21E
:1003EC0004C206F2240E0201076F60DFB00E020198
:1003FC00006F61DE8290956A0201016B026B16C17F
:10040C0004F017C105F0FBC100F0000E016E5DDFBA
:10041C000150025D02E10050015D18E2F8C1F6FFE7
:10042C00F9C1F7FFFAC1F8FF0900F5CF83FF010E00
:10043C000101F827000EF923FA238294FEDDFDDD7D
:10044C00FCDD82840201014B022BD9D7B20E006F66
:10045C0032DE010112510201032701011351020185
:06046C000423B5D71200C5
:100472000134083609360450085E0550D8A0053C00
:10048200095E003601360F0E0C6E0134083609364D
:10049200045000A006D0085E0550D8A0053C095EB5
:1004A20005D008260550D8B0053C0926003601368D
:1004B2000C2EEBD700B006D0045008260550D8B059
:0804C200053C092600001200B0
:1004CA000D6A086A0050D8B4000C04180A6E0ABEF5
:1004DA000D1E0B6A04AE02D0041E042A00A002D02C
:1004EA00001E002A005004100A6E0ABE1FD00450D3
:1004FA00085E003600340836045008260036060E18
:10050A000C6E00340836045000B0085E00A00826BD
:10051A0000360C2EF6D700A008260BB015D00DAE6B
:10052A00000C001E002A081E082A000C04AE09D07E
:10053A0000BE04D00050086E006AF1D7006A002A93
:10054A00000C001E0B2AD3D7082A0450085CD8A432
:0E055A00E6D7086A002A00AEE2D7FF0C1200B6
:10056800086A096A000E0762036439EF03F0025053
:1005780006180A6E075003267E0ED8A0CAEF02F0AE
:10058800035ED8B03DEF03F0CEEF02F0035ED8A0D3
:1005980041EF03F0028E068E02C00EF001C00BF090
:1005A80000C00DF000500402F4CF0CF00150050219
:1005B800F4CF00F0F3CF08F00402F3500C26F45007
:1005C8000822000E00220D500502F3500C26F450AC
:1005D8000822000E002202500402F3500826F450AC
:1005E800002202500502016A000E0122F350002683
:1005F800F45001220D500602F3500826F450002250
:10060800026A000E012202220B500602F350002655
:10061800F4500122000E02220E500602F350012669
:10062800F450022202BE21EF03F0083600360136EC
:1006380002360306D8B441EF03F034EF03F0D88054
:10064800800E08640030000E002201220222D8A089
:1006580034EF03F0023201320032034A3DEF03F077
:100668000AAE029E000E43EF03F0010EF8DC43EFE2
:1006780003F0020EFBDC43EF03F0040E03DD12006F
:0A06880065500101F615006E120026
:080692000B6A0B86FF0E12003B
:10069A00220E0C6E086A096A0A6A0B6A0C06D8B43A
:1006AA001FD0D8900B320A32093208320332023292
:1006BA0001320032D8A0F2D70C06D8B409D00450BF
:1006CA0008260550092206500A2207500B22EAD7AB
:1006DA00045008260550092206500A2207500B2208
:0206EA001200FC
:1006EC00F6C118F1F7C119F1000E01011A6F1B6F59
:0606FC00010E1C6F12004C
:10070200086A080E0C6E003408360450085ED8B031
:0E07120002D00826D89000360C2EF5D7120023
:100720000B800BAE9CEF03F0026A0AAEFF0E026E66
:0C073000016E006E0A360232FF0E12004D
:10073C00025006180E6E086A096A0B6A03500764A9
:10074C0091EF04F006500A6E068E028E03500B6E6B
:10075C000750036E000E0B64E1EF03F00B50075EC5
:10076C00D8B482EF04F0070E076450EF04F0075E74
:10077C0000C008F001C000F002C001F0026A074E90
:10078C0082EF04F0076425EF04F0075E00C008F068
:10079C0001C000F0016A074E82EF04F0076403EF1A
:1007AC0004F0075E00C008F0006A074E82EF04F008
:1007BC000764EAEF03F00AC002F005C001F004C0C0
:1007CC0000F0086AAEEF05F0030E0764F5EF03F0D6
:1007DC00075E08380F0B086E074E82EF04F0D890B6
:1007EC000832074E82EF04F0D8900832074E82EFA1
:1007FC0004F0D890083282EF04F0030E076414EF73
:10080C0004F0075E08380F0B086E0038F00B082652
:10081C0000380F0B006E074E82EF04F0D8900032B8
:10082C000832074E82EF04F0D89000320832074E9F
:10083C0082EF04F0D8900032083282EF04F0030EFD
:10084C0007643CEF04F0075E08380F0B086E0038A5
:10085C00F00B082600380F0B006E0138F00B002649
:10086C0001380F0B016E074E82EF04F0D890013265
:10087C0000320832074E82EF04F0D8900132003279
:10088C000832074E82EF04F0D89001320032083261
:10089C0082EF04F0030E07646DEF04F0075E083876
:1008AC000F0B086E0038F00B082600380F0B006E8B
:1008BC000138F00B002601380F0B016E0238F00BDB
:1008CC00012602380F0B026E074E82EF04F0D8900F
:1008DC000232013200320832074E82EF04F0D89017
:1008EC000232013200320832074E82EF04F0D89007
:1008FC000232013200320832096A000E0EAE76EF77
:10090C0005F0081E001E011E021E082A00220122EC
:10091C00022276EF05F00750D8A497EF04F0AEEF63
:10092C0005F0096A02C00AF0028E068E0750035CBD
:10093C00076ED8B469EF05F0070E076437EF05F0C2
:10094C00075E0450096E0550046E0650056E066A6B
:10095C00074E69EF05F0070E07640CEF05F0075E14
:10096C000450096E0550046E056A074E69EF05F0D8
:10097C00070E0764EAEF04F0075E0450096E046A80
:10098C00074E69EF05F0070E0764D1EF04F00AC0BB
:10099C0002F0AEEF05F0030E0764DCEF04F0075E27
:1009AC0009380F0B096E074E69EF05F0D890093224
:1009BC00074E69EF05F0D8900932074E69EF05F044
:1009CC00D890093269EF05F0030E0764FBEF04F0D1
:1009DC00075E09380F0B096E0438F00B0926043832
:1009EC000F0B046E074E69EF05F0D89004320932F4
:1009FC00074E69EF05F0D89004320932074E69EFC3
:100A0C0005F0D8900432093269EF05F0030E076443
:100A1C0023EF05F0075E09380F0B096E0438F00B55
:100A2C00092604380F0B046E0538F00B0426053824
:100A3C000F0B056E074E69EF05F0D89005320432A6
:100A4C000932074E69EF05F0D890053204320932AD
:100A5C00074E69EF05F0D89005320432093269EF80
:100A6C0005F0030E076454EF05F0075E09380F0B11
:100A7C00096E0438F00B092604380F0B046E053888
:100A8C00F00B042605380F0B056E0638F00B052607
:100A9C0006380F0B066E074E69EF05F0D89006323C
:100AAC00053204320932074E69EF05F0D890063250
:100ABC00053204320932074E69EF05F0D890063240
:100ACC00053204320932086A000E0EAE76EF05F0DC
:100ADC00091E041E051E061E092A042205220622D2
:100AEC00095008260450002205500122065002220B
:100AFC000EBE8DEF05F0D8A09CEF05F0023201324E
:100B0C0000320832033E9CEF05F0A8EF05F0D8B098
:100B1C00A2EF05F0000E081E001E011E021E082A80
:100B2C000022012202220A7EA2EF05F0010E0C6EB9
:100B3C006BEC00F0B0EF05F0020E0C6E6BEC00F0FD
:100B4C00B0EF05F0040E0C6E3AEC00F0B0EF05F0CF
:060B5C00000E0C6E1200F9
:0A0B6200020E0101EF11006E1200F7
:100B6C00030E0101EF15016E0150030A03E1010EA2
:080B7C00006E1200006A120075
:100B8400400E006E1F0E016E000E026E036E120008
:100B9400100E0101F46F000EF56FF451EF03F3CF63
:100BA40000F000C0F6F1F451F003F3CF00F000C000
:100BB400F7F1F1C1F8F1F2C1F9F1F3C1FAF1100E54
:0C0BC400FB6F100EFC6FAEEC01F0120095
:0C0BD0000001FC510101EF15006E120045
:100BDC000B6A0A6A096A086A0E6A033408360450FA
:100BEC00085E0550D8A0053C095E0650D8A0063C0E
:100BFC000A5E0750D8A0073C0B5EE86AD8A0010E2D
:100C0C000E5E0336070E0C6E0334083609360A36B0
:100C1C000B360E36045003A012D0085E0550D8A037
:100C2C00053C095E0650D8A0063C0A5E0750D8A0C9
:100C3C00073C0B5EE86AD8A0010E0E5E11D00826A8
:100C4C000550D8B0053C09260650D8B0063C0A26FB
:100C5C000750D8B0073C0B26E86AD8B0010E0E2618
:100C6C0003360C2ED1D70234083609360A360B3629
:100C7C000E36045003A012D0085E0550D8A0053CD7
:100C8C00095E0650D8A0063C0A5E0750D8A0073C67
:100C9C000B5EE86AD8A0010E0E5E11D00826055036
:100CAC00D8B0053C09260650D8B0063C0A26075099
:100CBC00D8B0073C0B26E86AD8B0010E0E260236D7
:100CCC00070E0C6E0234083609360A360B360E3611
:100CDC00045002A012D0085E0550D8A0053C095E55
:100CEC000650D8A0063C0A5E0750D8A0073C0B5E05
:100CFC00E86AD8A0010E0E5E11D008260550D8B0B7
:100D0C00053C09260650D8B0063C0A260750D8B038
:100D1C00073C0B26E86AD8B0010E0E2602360C2EC4
:100D2C00D1D70134083609360A360B360E36045044
:100D3C0002A012D0085E0550D8A0053C095E0650F2
:100D4C00D8A0063C0A5E0750D8A0073C0B5EE86AA8
:100D5C00D8A0010E0E5E11D008260550D8B0053C67
:100D6C0009260650D8B0063C0A260750D8B0073CD6
:100D7C000B26E86AD8B0010E0E260136070E0C6E53
:100D8C000134083609360A360B360E36045001A0EB
:100D9C0012D0085E0550D8A0053C095E0650D8A0BC
:100DAC00063C0A5E0750D8A0073C0B5EE86AD8A048
:100DBC00010E0E5E11D008260550D8B0053C092650
:100DCC000650D8B0063C0A260750D8B0073C0B2674
:100DDC00E86AD8B0010E0E2601360C2ED1D700349D
:100DEC00083609360A360B360E36045001A012D0DE
:100DFC00085E0550D8A0053C095E0650D8A0063CFC
:100E0C000A5E0750D8A0073C0B5EE86AD8A0010E1A
:100E1C000E5E11D008260550D8B0053C09260650A8
:100E2C00D8B0063C0A260750D8B0073C0B26E86A17
:100E3C00D8B0010E0E260036070E0C6E00340836A4
:100E4C0009360A360B360E36045000A012D0085E56
:100E5C000550D8A0053C095E0650D8A0063C0A5E99
:100E6C000750D8A0073C0B5EE86AD8A0010E0E5EB6
:100E7C0011D008260550D8B0053C09260650D8B02C
:100E8C00063C0A260750D8B0073C0B26E86AD8B0B7
:100E9C00010E0E2600360C2ED1D700B00ED0045009
:100EAC0008260550D8B0053C09260650D8B0063C9B
:0C0EBC000A260750D8B0073C0B26120095
:100EC8000101EF07EF07EFC101F0EF07015000083C
:100ED80003E200000000F7D7000000000000000057
:040EE80000001200F4
:0A0EEC005A500101EF15006E1200CC
:100EF6000B6A0C6A0A6A086A0350D8B403EF08F052
:100F0600028E9E0E035E03BE8EEF07F0D8B48EEF00
:100F160007F0F3EF07F0036C080E035CD8A0C0EFF0
:100F260007F0036E083600C008F001C000F002C0EA
:100F360001F0026A080E035CD8A0C0EF07F0036E4A
:100F4600083600C008F001C000F0016A080E035C14
:100F5600D8A0C0EF07F0036E083600C008F0006A9C
:100F6600080E035CD8A0C0EF07F0036E0836086AC7
:100F76000350D8A4D890CCEF07F00350D8B4CCEFE8
:100F860007F0D8900232013200320832032EC4EF45
:100F960007F00BBC08A0DDEF07F0D8A0DDEF07F0E7
:100FA600082AD8B4002AD8B4012AD8B4022A02BE24
:100FB60007EF08F00AAE03EF08F0021E011E001E3E
:100FC600081E082AD8B4002AD8B4012AD8B4022A9E
:100FD60003EF08F0026A016A006A086A03EF08F084
:100FE6000B800BAE0DEF08F0026A0AAE0DEF08F0AB
:100FF600026E016E006E086E0A3602320DEF08F0C0
:10100600000E0C6A0EEF08F0010E0C6E90EC03F069
:101016000EEF08F0FF0E0250036E0150026E0050F4
:08102600016E0850006E12007B
:10102E000050086E0150006E0250016E0350026EA9
:10103E00036A0B6A0C6A9E0E036E0A6A020E0C6E2F
:06104E006BEC00F0120043
:10105400800E0101EF19006E800E000A005CD8B00A
:101064006DD1EF510008016E01C0EFF1800E01183F
:10107400006E800E6E0A005CD8A0C0D0640E046EB0
:10108400EFC100F065EC02F0120E0024056E000EB4
:1010940000BEFF0E066E000E062205C000F006C05C
:1010A40001F0000E06BEFF0E026E036E00360090C5
:1010B4000136023603360036009001360236033616
:1010C400D30E0024F66E650E0120F76E000E02208A
:1010D400F86E0900F5CFF0F10900F5CFF1F1090040
:1010E400F5CFF2F10900F5CFF3F1640E046EEFC110
:1010F40000F065EC02F008C000F00A0E046E65EC26
:1011040002F0090E0024056E000E00BEFF0E066EEE
:10111400000E062205C000F006C001F0000E06BE57
:10112400FF0E026E036E003600900136023603365F
:1011340000360090013602360336D30E0024F66ED4
:10114400650E0120F76E000E0220F86E0900F5CF3F
:1011540000F00900F5CF01F00900F5CF02F0090015
:10116400F5CF03F0F0C104F0F1C105F0F2C106F0CF
:10117400F3C107F0B4EC02F000C0F0F101C0F1F1EA
:1011840002C0F2F103C0F3F10A0E046EEFC100F0E5
:1011940065EC02F008C000F000C001F0000E00BED3
:1011A400FF0E026E036E046E0136019002360336A2
:1011B400043601360190023603360436D30E012478
:1011C400F66E650E0220F76E000E0320F86E09001D
:1011D400F5CF00F00900F5CF01F00900F5CF02F0DA
:1011E4000900F5CF03F0F0C104F0F1C105F0F2C13C
:1011F40006F0F3C107F0B4EC02F01200800E0A0A04
:10120400006E800EEF19005C71E20A0E046EEFC1ED
:1012140000F065EC02F0090E0024056E000E00BE1D
:10122400FF0E066E000E062205C000F006C001F097
:10123400000E06BEFF0E026E036E003600900136ED
:101244000236033600360090013602360336D30EDA
:101254000024F66E650E0120F76E000E0220F86E73
:101264000900F5CFF0F10900F5CFF1F10900F5CF50
:10127400F2F10900F5CFF3F10A0E046EEFC100F0AC
:1012840065EC02F008C000F000C001F0000E00BEE2
:10129400FF0E026E036E046E0136019002360336B1
:1012A400043601360190023603360436D30E012487
:1012B400F66E650E0220F76E000E0320F86E09002C
:1012C400F5CF00F00900F5CF01F00900F5CF02F0E9
:1012D4000900F5CF03F0F0C104F0F1C105F0F2C14B
:1012E40006F0F3C107F0B4EC02F01200EFC100F015
:1012F400000EEFBFFF0E016E026E036E003600900B
:1013040001360236033600360090013602360336C3
:10131400D30E0024F66E650E0120F76E000E022037
:10132400F86E0900F5CF00F00900F5CF01F00900CF
:10133400F5CF02F00900F5CF03F01200800EEF198B
:10134400006E800E6E0A005CD8A0C0D0640E046EDD
:10135400EFC100F065EC02F0120E0024056E000EE1
:1013640000BEFF0E066E000E062205C000F006C089
:1013740001F0000E06BEFF0E026E036E00360090F2
:101384000136023603360036009001360236033643
:10139400070E0024F66E660E0120F76E000E022082
:1013A400F86E0900F5CFF0F10900F5CFF1F109006D
:1013B400F5CFF2F10900F5CFF3F1640E046EEFC13D
:1013C40000F065EC02F008C000F00A0E046E65EC53
:1013D40002F0090E0024056E000E00BEFF0E066E1C
:1013E400000E062205C000F006C001F0000E06BE85
:1013F400FF0E026E036E003600900136023603368D
:1014040000360090013602360336070E0024F66ECD
:10141400660E0120F76E000E0220F86E0900F5CF6B
:1014240000F00900F5CF01F00900F5CF02F0090042
:10143400F5CF03F0F0C104F0F1C105F0F2C106F0FC
:10144400F3C107F0B4EC02F000C0F0F101C0F1F117
:1014540002C0F2F103C0F3F10A0E046EEFC100F012
:1014640065EC02F008C000F000C001F0000E00BE00
:10147400FF0E026E036E046E0136019002360336CF
:10148400043601360190023603360436070E012471
:10149400F66E660E0220F76E000E0320F86E090049
:1014A400F5CF00F00900F5CF01F00900F5CF02F007
:1014B4000900F5CF03F0F0C104F0F1C105F0F2C169
:1014C40006F0F3C107F0B4EC02F01200800E0A0A31
:1014D400006E800EEF19005C71E20A0E046EEFC11B
:1014E40000F065EC02F0090E0024056E000E00BE4B
:1014F400FF0E066E000E062205C000F006C001F0C5
:10150400000E06BEFF0E026E036E0036009001361A
:101514000236033600360090013602360336070ED3
:101524000024F66E660E0120F76E000E0220F86E9F
:101534000900F5CFF0F10900F5CFF1F10900F5CF7D
:10154400F2F10900F5CFF3F10A0E046EEFC100F0D9
:1015540065EC02F008C000F000C001F0000E00BE0F
:10156400FF0E026E036E046E0136019002360336DE
:10157400043601360190023603360436070E012480
:10158400F66E660E0220F76E000E0320F86E090058
:10159400F5CF00F00900F5CF01F00900F5CF02F016
:1015A4000900F5CF03F0F0C104F0F1C105F0F2C178
:1015B40006F0F3C107F0B4EC02F01200EFC100F042
:1015C400000EEFBFFF0E016E026E036E0036009038
:1015D40001360236033600360090013602360336F1
:1015E400070E0024F66E660E0120F76E000E022030
:1015F400F86E0900F5CF00F00900F5CF01F00900FD
:0C160400F5CF02F00900F5CF03F0120052
:101610000450000A12E10550000A0FE10650000ACA
:101620000CE10750000A09E1FF0E006EFF0E016E8B
:101630007F0E026EFF0E036E1200086A096A0750E1
:10164000D8B4B3EF0BF00350D8B4B8EF0BF002509E
:1016500006180A6E028E068E0E6A02C008F001C0DD
:101660000CF000C00DF004500D5E0550D8A0053CF4
:101670000C5E0650D8A0063C085E086A0C6A0D6A2B
:10168000D8A04AEF0BF0D890023201320032083273
:10169000010E0E6E0750035ED8A057EF0BF07E0EC2
:1016A0000E240326D8B0BDEF0BF05DEF0BF07E0EDD
:1016B0000E240326D8A0C2EF0BF0180E0B6E0D36C9
:1016C0000C3608360036013602360E360450005EFF
:1016D0000550D8A0053C015E0650D8A0063C025E2D
:1016E00006340E120EA078EF0BF00D8083EF0BF096
:1016F000045000260550D8B0053C01260650D8B04D
:10170000062802260D900B2E5FEF0BF0A9EF0BF0D1
:10171000D8900036013602360E360450005E055071
:10172000D8A0053C015E0650D8A0063C025E0634F7
:101730000E10010B0D26D8B00C2AD8B4082AD8A454
:10174000A9EF0BF008320C320D32032AD8B4BDEFEA
:101750000BF00AAE089E0850026E0C50016E0D5040
:10176000006EC5EF0BF0010E49EC03F0C5EF0BF076
:10177000020E33EC00F0C5EF0BF0040E3AEC00F073
:0C178000C5EF0BF0080E46EC00F0120064
:10178C000B6A0C6A086A0350D8B44AEF0CF002C01A
:10179C000AF0028E9E0E035E03AE3AEF0CF0036C61
:1017AC00080E035CD8A007EF0CF0036E083600C0DF
:1017BC0008F001C000F002C001F0026A080E035CE0
:1017CC00D8A007EF0CF0036E083600C008F001C07B
:1017DC0000F0016A080E035CD8A007EF0CF0036E52
:1017EC00083600C008F0006A080E035CD8A007EFAA
:1017FC000CF0036E0836086A0350D8A4D89013EF87
:10180C000CF00350D8B413EF0CF0D8900232013224
:10181C0000320832032E0BEF0CF00BBC08A024EFA7
:10182C000CF0D8A024EF0CF0082AD8B4002AD8B4B5
:10183C00012AD8B4022A02BE4EEF0CF00AAE4AEFCF
:10184C000CF0021E011E001E081E082AD8B4002A25
:10185C00D8B4012AD8B4022A4AEF0CF0026A016A01
:10186C00006A086A4AEF0CF00B800BAE55EF0CF0D7
:10187C00026A0AAE55EF0CF0026E016E006E086E35
:10188C000A36023255EF0CF00C6A000E56EF0CF0D3
:10189C00010E0C6E000E90EC03F056EF0CF0FF0EE8
:1018AC000250036E0150026E0050016E0850006E23
:0218BC00120018
:1018BE0001011C5306E1010EF66F000EF76F76EC78
:1018CE0003F018C100F019C101F01AC102F01BC1DA
:1018DE0003F06D0E046E4E0E056EC60E066E410EB4
:1018EE00076E4DEC03F0390E0024056E300E01200C
:1018FE00066E000E0220076E000E0320086E07C053
:10190E0000F008C001F0000E08BEFF0E036EFF0EC1
:10191E0000167F0E0116000E0216031600C018F1F7
:0E192E0001C019F102C01AF103C01BF1120032
:08193C00067E9EEC03F0120090
:101944006E0E0101EF5DD8A0CAD0640E046EEFC123
:1019540000F081EC03F0120E0024056E066A000EFE
:10196400062205C000F006C001F0000E06BEFF0E00
:10197400026E036E003600900136023603360036DE
:101984000090013602360336D30E0024F66E650E3F
:101994000120F76E000E0220F86E0900F5CF00F06A
:1019A4000900F5CF01F00900F5CF02F00900F5CFE9
:1019B40003F0000E046E000E056E000E066E7E0E21
:1019C400076EB4EC02F000C0F0F101C0F1F102C006
:1019D400F2F103C0F3F1640E046EEFC100F081EC88
:1019E40003F008C000F00A0E046E81EC03F0090E47
:1019F4000024056E066A000E062205C000F006C02B
:101A040001F0000E06BEFF0E026E036E003600905B
:101A140001360236033600360090013602360336AC
:101A2400D30E0024F66E650E0120F76E000E022020
:101A3400F86E0900F5CF00F00900F5CF01F00900B8
:101A4400F5CF02F00900F5CF03F0F0C104F0F1C1C5
:101A540005F0F2C106F0F3C107F0B4EC02F000C0E7
:101A6400F0F101C0F1F102C0F2F103C0F3F10A0E8A
:101A7400046EEFC100F081EC03F008C000F000C078
:101A840001F0000E026E036E046E01360190023600
:101A94000336043601360190023603360436D30E7B
:101AA4000124F66E650E0220F76E000E0320F86E18
:101AB4000900F5CF00F00900F5CF01F00900F5CFDA
:101AC40002F00900F5CF03F0F0C104F0F1C105F014
:101AD400F2C106F0F3C107F0B4EC02F01200EF51CA
:101AE4000A087EE20A0E046EEFC100F081EC03F0F6
:101AF400090E0024056E066A000E062205C000F0D9
:101B040006C001F0000E06BEFF0E026E036E003624
:101B14000090013602360336003600900136023654
:101B24000336D30E0024F66E650E0120F76E000E08
:101B34000220F86E0900F5CF00F00900F5CF01F09E
:101B44000900F5CF02F00900F5CF03F0000E046E92
:101B5400000E056E000E066E7E0E076EB4EC02F0EB
:101B640000C0F0F101C0F1F102C0F2F103C0F3F1E1
:101B74000A0E046EEFC100F081EC03F008C000F01F
:101B840000C001F0000E026E036E046E0136019077
:101B94000236033604360136019002360336043623
:101BA400D30E0124F66E650E0220F76E000E03209C
:101BB400F86E0900F5CF00F00900F5CF01F0090037
:101BC400F5CF02F00900F5CF03F0F0C104F0F1C144
:101BD40005F0F2C106F0F3C107F0B4EC02F0120014
:101BE400EFC100F0000E016E026E036E003600902D
:101BF40001360236033600360090013602360336CB
:101C0400D30E0024F66E650E0120F76E000E02203E
:101C1400F86E0900F5CF00F00900F5CF01F00900D6
:101C2400F5CF02F00900F5CF03F0000E046E000EAC
:101C3400056E000E066E7E0E076EB4EC02F0120006
:101C440003500718D8A436EF0EF002500618D8A493
:101C540036EF0EF001500518D8A436EF0EF0005000
:0E1C64000418D8B4D8841200D89412001200CC
:101C72000450000A08E10550000A05E1FF0E006E5B
:101C82007F0E016E12000D6A096A086A0150001087
:101C9200D8B4000C015005180A6E0ABE0D1E0B6A5C
:101CA20005AE05D0041E051E042AD8B4052A01AECD
:101CB20005D0001E011E002AD8B4012A01500510C9
:101CC2000A6E0ABE10D039EC02F00BB020D00DAE75
:101CD200000C001E011E002AD8B4012A081E091E8B
:101CE200082AD8B4092A000C05AE0DD001BE07D0CF
:101CF2000150096E0050086E016A006AE8D7016A55
:101D0200006A002A000C011E001E0B2ADDD7082AD9
:101D1200D8B4092A0450085CD8A4D9D70550095C64
:101D2200D8A4D5D7096A086A002AD8B4012A01AE14
:081D3200CED70000FF0C1200E7
:101D3A00010E0101EF15016E0150010A03E1010EC6
:081D4A00006E1200006A120095
:101D5200EFC1F6F144EC03F00050020A03E1010E78
:081D6200006E1200006A12007D
:101D6A000A6A0350D8A40A800750D8A40A820A50E3
:101D7A00D8B418EF0FF0030AD8B4D1EF0EF00AB0B6
:101D8A00CCEF0EF006AE16EF0FF014EF0FF002AE26
:101D9A0014EF0FF016EF0FF00250800B0A6E029E3E
:101DAA000650800B069E0A18D8B4E2EF0EF00A50CD
:101DBA00D8B414EF0FF016EF0FF00750035CD8B445
:101DCA00ECEF0EF0D8A008EF0FF00EEF0FF0065070
:101DDA00025CD8B4F6EF0EF0D8A008EF0FF00EEFC1
:101DEA000FF00550015CD8B400EF0FF0D8A008EF4F
:101DFA000FF00EEF0FF00450005CD8B418EF0FF09C
:101E0A00D8B00EEF0FF00A52D8B416EF0FF014EF55
:101E1A000FF00A52D8B414EF0FF016EF0FF0D88073
:0E1E2A001200D8901200D880D8841200120046
:101E38000101EF51390806E3300EEF5D03E3010EAF
:081E4800006E01D0006A1200D7
:0E1E5000ACB202D00000FCD7C8C1ADFF12003A
:101E5E000101E76BE86BD46BD56BCAC100F0CBC147
:101E6E0001F0CCC102F0010ECA27000ECB23CC2309
:101E7E0000C0F6FF01C0F7FF02C0F8FF0900F5CF62
:101E8E0000F000C0D1F10052D8B43FEF1FF0D15195
:101E9E00250A0BE0C8C1E1FFC9C1E2FFD1C1E6FFCF
:101EAE00C84BC92BE74BE82BD8D7D26BD36BD46B6F
:101EBE00D56B23D0D487010ECA27000ECB23CC239B
:101ECE0059D0D481010ECA27000ECB23CC2352D079
:101EDE00D483010ECA27000ECB23CC234BD0D5873B
:101EEE00010ECA27000ECB23CC2344D0D485010E7D
:101EFE00CA27000ECB23CC233DD0CAC1F6FFCBC1DF
:101F0E00F7FFCCC1F8FF0900F5CF01F001502D0A03
:101F1E00D1E0CAC1F6FFCBC1F7FFCCC1F8FF090073
:101F2E00F5CF01F00150200ACCE0CAC1F6FFCBC1BB
:101F3E00F7FFCCC1F8FF0900F5CF01F001502B0AD5
:101F4E00C7E0CAC1F6FFCBC1F7FFCCC1F8FF09004D
:101F5E00F5CF01F00150230AC2E0CAC1F6FFCBC192
:101F6E00F7FFCCC1F8FF0900F5CF01F00150300AA0
:101F7E00BDE001D09ED7D4A301D0D491D4A701D077
:101F8E00D495CAC1F6FFCBC1F7FFCCC1F8FF09004B
:101F9E00F5CF00F0000E016E00C0EFF146DF0052EB
:101FAE0035E0D26BD36BD2C100F0D3C101F00A0E73
:101FBE00046E000E056E86EC01F0CAC1F6FFCBC1B1
:101FCE00F7FFCCC1F8FF0900F5CF02F00250002454
:101FDE00D26F000E0120D36F300ED25F000ED35B96
:101FEE00010ECA27000ECB23CC23CAC1F6FFCBC1EC
:101FFE00F7FFCCC1F8FF0900F5CF00F0000E016E1F
:10200E0000C0EFF112DF0052CEE133D0CAC1F6FFAD
:10201E00CBC1F7FFCCC1F8FF0900F5CF01F001509D
:10202E002A0A27E1CDC1E9FFCEC1EAFFEECF00F0CB
:10203E00EECF01F000C0E9FF01C0EAFFEECFD2F112
:10204E00EECFD3F1CDC1E9FFCEC1EAFF020EEE24F1
:10205E00006E000EEE20016ECDC1E1FFCEC1E2FF9B
:10206E0000C0E6FF01C0E6FF010ECA27000ECB231B
:10207E00CC23CAC1F6FFCBC1F7FFCCC1F8FF0900D4
:10208E00F5CF01F001502E0A6FE1010ECA27000EA6
:10209E00CB23CC23CAC1F6FFCBC1F7FFCCC1F8FFCF
:1020AE000900F5CF01F001502A0A28E1CDC1E9FF60
:1020BE00CEC1EAFFEECF00F0EECF01F000C0E9FF97
:1020CE0001C0EAFFEECFCFF1EECFD0F1CDC1E9FFE7
:1020DE00CEC1EAFF020EEE24006E000EEE20016E5F
:1020EE00CDC1E1FFCEC1E2FF00C0E6FF01C0E6FFB9
:1020FE00010ECA27000ECB23CC2335D0CF6BD06B6D
:10210E00CAC1F6FFCBC1F7FFCCC1F8FF0900F5CF6E
:10211E0000F0000E016E00C0EFF187DE005223E0EA
:10212E00CFC100F0D0C101F00A0E046E000E056E94
:10213E0086EC01F0CAC1F6FFCBC1F7FFCCC1F8FFA8
:10214E000900F5CF02F002500024CF6F000E0120DF
:10215E00D06F300ECF5F000ED05B010ECA27000E7F
:10216E00CB23CC23CDD703D0CF6BD06BD589CAC1AF
:10217E0000F0CBC101F0CCC102F0010ECA27000E57
:10218E00CB23CC2300C0F6FF01C0F7FF02C0F8FF3F
:10219E000900F5CFD1F105D1E7C100F0E8C101F09A
:1021AE001200D489E4D7D58537D1D48BD58134D1DB
:1021BE00D58332D1D48D30D12FD1D48BD48F2CD195
:1021CE00CDC1E9FFCEC1EAFFEECF00F0EECF01F0B8
:1021DE0000C0E9FF01C0EAFFEECFDCF1EECFDDF18A
:1021EE00CDC1E9FFCEC1EAFF020EEE24006E000E55
:1021FE00EE20016ECDC1E1FFCEC1E2FF00C0E6FFD1
:10220E0001C0E6FF000EDD1902E1000EDC1911E13E
:10221E00280EE06F6E0EE16F750EE26F6C0EE36FBF
:10222E006C0EE46F290EE56FE66BE00EDC6F010EAF
:10223E00DD6FDE6BDF6BDE51DC25E96EDF51DD21FC
:10224E00EA6EEE520BE0010EDE25006E000EDF216F
:10225E00016E00C0DEF101C0DFF1EDD7CF51D0111C
:10226E000AE0DF51D05D02E1DE51CF5D04E2CFC165
:10227E00DEF1D0C1DFF1D351DF5D02E1D251DE5D7F
:10228E0005E2DE51D25FDF51D35B02D0D26BD36B4E
:10229E00D4B716D0D2C100F0D3C101F0010ED25F77
:1022AE00000ED35B005001100BE0C8C1E1FFC9C1A5
:1022BE00E2FF200EE66EC84BC92BE74BE82BEAD7A0
:1022CE00DEC102F0DFC103F0010EDE5D006E000E16
:1022DE00DF59016E00C0DEF101C0DFF102500310C4
:1022EE0019E0DCC1E9FFDDC1EAFFC8C1E1FFC9C1E8
:1022FE00E2FFEECFE6FFC84BC92B010EDC25006EC8
:10230E00000EDD21016E00C0DCF101C0DDF1E74BF6
:10231E00E82BD6D7D4A716D0D2C100F0D3C101F086
:10232E00010ED25F000ED35B005001100BE0C8C14E
:10233E00E1FFC9C1E2FF200EE66EC84BC92BE74B89
:10234E00E82BEAD78AD5CDC1E9FFCEC1EAFFEECFA1
:10235E0000F0EECF01F000C0E9FF01C0EAFFEECFC2
:10236E00D1F1CDC1E9FFCEC1EAFF020EEE24006E1F
:10237E00000EEE20016ECDC1E1FFCEC1E2FF00C026
:10238E00E6FF01C0E6FFD10EDC6F010EDD6F010E20
:10239E00DE6F000EDF6F62D7C00ED413000ED513A2
:1023AE003BD0D151000AD8B4F7D6D1516C0AD8B46B
:1023BE00F8D6D151660AD8B4F6D6D151450AD8B45A
:1023CE00F4D6D151650AD8B4F1D6D151670AD8B432
:1023DE00EFD6D1516F0AD8B4EDD6D151640AD8B424
:1023EE00EBD6D151690AD8B4E7D6D151700AD8B418
:1023FE00E4D6D151580AD8B4E0D6D151780AD8B41F
:10240E00DDD6D151730AD8B4DBD6D151630A9BE025
:10241E00D151750AC1E0B7D7000ED415006ED55153
:10242E00070B016E00500110D8B4EAEF1AF0D5A9CF
:10243E0004D0060ECF6F000ED06FCDC1E9FFCEC116
:10244E00EAFFEECF00F0EECF01F000C0E9FF01C0D1
:10245E00EAFFEECFD6F1EECFD7F1EECFD8F1EECF39
:10246E00D9F1CDC1E9FFCEC1EAFF040EEE24006E14
:10247E00000EEE20016ECDC1E1FFCEC1E2FF00C025
:10248E00E6FF01C0E6FF046A056A066A076AD6C15E
:10249E0000F0D7C101F0D8C102F0D9C103F05EDC63
:1024AE00010ED8B0000E006E005205E0D87F030E6C
:1024BE00D413000ED513DA6BDB6BD6C100F0D7C187
:1024CE0001F0D8C102F0D9C103F0046A056A066AA8
:1024DE00076A22EC0EF0000ED8A4010E006E005218
:1024EE00D8B48AD0D9C100F0016A026A036AFF0E1D
:1024FE000016000E01167E0E005E000E015A00C080
:10250E00DAF101C0DBF1010E005E000E015A00C0CF
:10251E00DAF101C0DBF1030E046E000E056E86ECDF
:10252E0001F000C0DAF101C0DBF10A0E046E000EFC
:10253E00056E39EC0EF000C0DAF101C0DBF1800E51
:10254E000118026E800E025C02E1000E005C05E2D4
:10255E00010E0101DA5F000EDB5B0101DA510008AA
:10256E00EF6F2AEC08F0D6C104F0D7C105F0D8C140
:10257E0006F0D9C107F0B4EC02F000C0DCF101C0E6
:10258E00DDF102C0DEF103C0DFF1000E046E000EBD
:10259E00056E000E066E7F0E076EDCC100F0DDC10B
:1025AE0001F0DEC102F0DFC103F0B5EC0EF0010E5A
:1025BE00D8B0000E006E005205E0010EDA5F000E7C
:1025CE00DB5B1AD0000E046E000E056E200E066E3A
:1025DE00820E076EDCC100F0DDC101F0DEC102F03B
:1025EE00DFC103F0B5EC0EF0000ED8B0010E006E98
:1025FE00005202E0DA4BDB2B800E006E800EDB19F0
:10260E00005C02E1DA51000803E3010ED16F02D043
:10261E00DAC1D1F1D5B118D0D5A315D0800EDB1902
:10262E00006E7F0E005C02E1FC0EDA5D0BE3800EA5
:10263E00DB19006E800ED019005C02E1CF51DA5D1D
:10264E0001E201D001D0F1D3CF51D01106E0D5A3D4
:10265E0004D0010ECF5F000ED05B000E006ED05185
:10266E00005C02E1CF51080803E2080ED16F02D0E0
:10267E00CFC1D1F1D6C100F0D7C101F0D8C102F05F
:10268E00D9C103F0046A056A066A076A22EC0EF0E5
:10269E00000ED8A4010E006E0052D8B44BD1DAC190
:1026AE00EFF12AEC08F000C004F001C005F002C002
:1026BE0006F003C007F0D6C100F0D7C101F0D8C1B3
:1026CE0002F0D9C103F008EC0BF000C0D6F101C046
:1026DE00D7F102C0D8F103C0D9F10101D1510008E0
:1026EE00EF6F2AEC08F000C004F001C005F002C044
:1026FE0006F003C007F0D6C100F0D7C101F0D8C173
:10270E0002F0D9C103F008EC0BF000C0E9F101C0F2
:10271E00EAF102C0EBF103C0ECF1E9C1D6F1EAC176
:10272E00D7F1EBC1D8F1ECC1D9F1E9C100F0EAC1A2
:10273E0001F0EBC102F0ECC103F07BEC07F017ECFB
:10274E0008F000C004F001C005F002C006F003C09E
:10275E0007F0E9C100F0EAC101F0EBC102F0ECC1F3
:10276E0003F09EEC0CF0000E046E000E056E000ED3
:10277E00066E7E0E076EB5EC0EF0000ED8B0010E92
:10278E00006E00521AE0D6C100F0D7C101F0D8C1D8
:10279E0002F0D9C103F0000E046E000E056E000E9D
:1027AE00066E7E0E076E9EEC03F000C0D6F101C0E1
:1027BE00D7F102C0D8F103C0D9F1D6C100F0D7C10C
:1027CE0001F0D8C102F0D9C103F07BEC07F0010192
:1027DE00D151010F096E0A6A000E0A2209C004F0D7
:1027EE000AC005F0000E0ABEFF0E066E076E043616
:1027FE00049005360636073604360490053606363E
:10280E0007366B0E0424F66E660E0520F76E000E6C
:10281E000620F86E0900F5CF05F00900F5CF06F099
:10282E000900F5CF07F00900F5CF08F00850035C5A
:10283E0008E10750025C05E10650015C02E105501B
:10284E00005C1EE30101D6C100F0D7C101F0D8C172
:10285E0002F0D9C103F0CD0E046ECC0E056E4C0EF7
:10286E00066E7B0E076EB4EC02F000C0D6F101C00E
:10287E00D7F102C0D8F103C0D9F1DA4BDB2B5AD015
:10288E00D6C100F0D7C101F0D8C102F0D9C103F012
:10289E007BEC07F0D1C104F0000E056E066E076EDC
:1028AE00043604900536063607360436049005368F
:1028BE00063607366B0E0424F66E660E0520F76E8E
:1028CE00000E0620F86E0900F5CF05F00900F5CFD1
:1028DE0006F00900F5CF07F00900F5CF08F0085013
:1028EE00035C08E10750025C05E10650015C02E161
:1028FE000550005C1FE20101D6C100F0D7C101F006
:10290E00D8C102F0D9C103F0000E046E000E056EA0
:10291E00200E066E820E076EB4EC02F000C0D6F1E9
:10292E0001C0D7F102C0D8F103C0D9F1010EDA5FB0
:10293E00000EDB5B0101D5A393D0D5B791D0800EED
:10294E00000A006E800ED019005C02E1CF510A0819
:10295E0004E20A0ECF6F000ED06FD6C100F0D7C1C1
:10296E0001F0D8C102F0D9C103F07BEC07F000C032
:10297E00DCF101C0DDF102C0DEF103C0DFF1DC519C
:10298E00DD11DE11DF1142E00A0E046E000E056E3F
:10299E00066E076EDCC100F0DDC101F0DEC102F093
:1029AE00DFC103F0EEEC05F008C000F009C001F045
:1029BE000AC002F00BC003F0000E046E031808E10B
:1029CE000450021805E10450011802E10050000AFB
:1029DE001DE1010ECF5F000ED05B0A0E046E000EDD
:1029EE00056E066E076EDCC100F0DDC101F0DEC1C2
:1029FE0002F0DFC103F0EEEC05F000C0DCF101C027
:102A0E00DDF102C0DEF103C0DFF1B9D7800ED019BF
:102A1E00006E800E005C02E1D151CF5D21E2CF51FC
:102A2E00D15DEF6F2AEC08F000C004F001C005F094
:102A3E0002C006F003C007F0D6C100F0D7C101F006
:102A4E00D8C102F0D9C103F008EC0BF000C0D6F1EA
:102A5E0001C0D7F102C0D8F103C0D9F1CFC1D1F175
:102A6E00050E0101CF25006E000ED021016E005023
:102A7E00D25F0150D35BCF51D01103E1D5B701D056
:102A8E0004D0010ED25F000ED35B030ED415006E80
:102A9E00D5C101F0000E01160050011004E0010E28
:102AAE00D25F000ED35BD4A539D0D4A312D0D4A15B
:102ABE0003D02D0E006E02D02B0E006EC8C1E1FFAA
:102ACE00C9C1E2FF00C0E6FFC84BC92BE74BE82B9C
:102ADE000CD0D4A10AD0C8C1E1FFC9C1E2FF200EBB
:102AEE00E66EC84BC92BE74BE82B800E006E800EAE
:102AFE00D319005C02E1D25100080FE2C8C1E1FF18
:102B0E00C9C1E2FF300EE66EC84BC92BE74BE82B6E
:102B1E00010ED25F000ED35BE8D73AD0D4B718D0EF
:102B2E00800E006E800ED319005C02E1D2510008B7
:102B3E000FE2C8C1E1FFC9C1E2FF200EE66EC84B2D
:102B4E00C92BE74BE82B010ED25F000ED35BE8D703
:102B5E00D4A312D0D4A103D02D0E006E02D02B0E12
:102B6E00006EC8C1E1FFC9C1E2FF00C0E6FFC84B5D
:102B7E00C92BE74BE82B0CD0D4A10AD0C8C1E1FF7A
:102B8E00C9C1E2FF200EE66EC84BC92BE74BE82BFE
:102B9E00D6C100F0D7C101F0D8C102F0D9C103F0FF
:102BAE007BEC07F000C0DCF101C0DDF102C0DEF10C
:102BBE0003C0DFF1D1C100F0000E016E026E036E94
:102BCE00003600900136023603360036009001368C
:102BDE00023603366B0E0024F66E660E0120F76E7B
:102BEE00000E0220F86E0900F5CF04F00900F5CFB3
:102BFE0005F00900F5CF06F00900F5CF07F0DCC1AE
:102C0E0000F0DDC101F0DEC102F0DFC103F0EEEC39
:102C1E0005F0300E0026C8C1E1FFC9C1E2FF00C0B9
:102C2E00E6FFC84BC92BE74BE82BCF51D01103E180
:102C3E00D5B701D06FD0C8C1E1FFC9C1E2FF2E0EDA
:102C4E00E66EC84BC92BE74BE82BD151CF5F000E78
:102C5E00D05BD1534DE0D107D1C100F0000E016E13
:102C6E00026E036E003600900136023603360036D1
:102C7E0000900136023603366B0E0024F66E660E99
:102C8E000120F76E000E0220F86E0900F5CF04F059
:102C9E000900F5CF05F00900F5CF06F00900F5CFD4
:102CAE0007F0DCC100F0DDC101F0DEC102F0DFC1D2
:102CBE0003F0EEEC05F00A0E046E000E056E066EC5
:102CCE00076EEEEC05F008C000F009C001F00AC076
:102CDE0002F00BC003F0300E0026C8C1E1FFC9C1DF
:102CEE00E2FF00C0E6FFC84BC92BE74BE82BB1D77C
:102CFE00CF51D0110FE0C8C1E1FFC9C1E2FF300EC4
:102D0E00E66EC84BC92BE74BE82B010ECF5F000ECA
:102D1E00D05BEED7D4AB0BD0C8C1E1FFC9C1E2FF87
:102D2E00450EE66EC84BC92BE74BE82B0AD0C8C13F
:102D3E00E1FFC9C1E2FF650EE66EC84BC92BE74B3A
:102D4E00E82B800EDB19006E800E005C02E1000E97
:102D5E00DA5D11E2DA510008DA6FDB51000EDB5753
:102D6E00C8C1E1FFC9C1E2FF2D0EE66EC84BC92BEB
:102D7E00E74BE82B0AD0C8C1E1FFC9C1E2FF2B0E19
:102D8E00E66EC84BC92BE74BE82B0A0E046E000EFD
:102D9E00056EDAC100F0DBC101F039EC0EF0300E39
:102DAE000026C8C1E1FFC9C1E2FF00C0E6FF010174
:102DBE00C84BC92BE74BE82B0A0E046E000E056EAE
:102DCE00DAC100F0DBC101F039EC0EF008C000F002
:102DDE0009C001F0300E0026C8C1E1FFC9C1E2FFF3
:102DEE0000C0E6FF0101C84BC92BE74BE82BD4A767
:102DFE001AD0800E006E800ED319005C02E1D25103
:102E0E00000811E2C8C1E1FFC9C1E2FF200EE66E63
:102E1E00C84BC92BE74BE82B010ED25F000ED35BDC
:102E2E00D251D311EFE134EF0FF0D5A3F3D0800ED2
:102E3E00DB19006E800E005C02E1000EDA5D0AE224
:102E4E00010EDA5D006E000EDB59016E0050CF5F91
:102E5E000150D05BD6C100F0D7C101F0D8C102F04D
:102E6E00D9C103F07BEC07F000C0DCF101C0DDF14D
:102E7E0002C0DEF103C0DFF1010ED16FD1510A0A9B
:102E8E0034E0D1C100F0000E016E026E036E00360A
:102E9E0000900136023603360036009001360236B7
:102EAE0003366B0E0024F66E660E0120F76E000ED2
:102EBE000220F86E0900F5CF01F00900F5CF02F0FF
:102ECE000900F5CF03F00900F5CF04F00450DF5DE3
:102EDE0008E10350DE5D05E10250DD5D02E10150C7
:102EEE00DC5D01E202D0D12BC9D7D151CF5DED6FA0
:102EFE00000ED059EE6FEDC1CFF1EEC1D0F1DCC1B5
:102F0E0000F0DDC101F0DEC102F0DFC103F017EC0D
:102F1E0008F000C004F001C005F002C006F003C0C6
:102F2E0007F0D6C100F0D7C101F0D8C102F0D9C167
:102F3E0003F09EEC0CF000C0E9F101C0EAF102C012
:102F4E00EBF103C0ECF1EDC1EFF12AEC08F0E9C1B1
:102F5E0004F0EAC105F0EBC106F0ECC107F0B4ECE9
:102F6E0002F0000E046E000E056E000E066E7E0E52
:102F7E00076E9EEC03F07BEC07F000C0DCF101C0A5
:102F8E00DDF102C0DEF103C0DFF1CF51D01142E01E
:102F9E000A0E046E000E056E066E076EDCC100F0A2
:102FAE00DDC101F0DEC102F0DFC103F0EEEC05F091
:102FBE0008C000F009C001F00AC002F00BC003F017
:102FCE00000E046E031808E10450021805E10450C7
:102FDE00011802E10050000A1DE10A0E046E000EF7
:102FEE00056E066E076EDCC100F0DDC101F0DEC1BC
:102FFE0002F0DFC103F0EEEC05F000C0DCF101C021
:10300E00DDF102C0DEF103C0DFF1010ECF5F000E75
:10301E00D05BBBD7800E006E800ED019005C02E133
:10302E00CF510C0816E3CFC1EFF1A2EC0CF0D6C1D4
:10303E0004F0D7C105F0D8C106F0D9C107F09EEC57
:10304E0003F000C0D6F101C0D7F102C0D8F103C021
:10305E00D9F1D6C100F0D7C101F0D8C102F0D9C163
:10306E0003F0046A056A066A076A22EC0EF0000E87
:10307E00D8A4010E006E0052D8B477D0D6C100F09D
:10308E00D7C101F0D8C102F0D9C103F07BEC07F033
:10309E00000E046E031808E10450021805E10450F6
:1030AE00011802E10050000A60E1800E006E800EF1
:1030BE00DB19005C02E1DA51010857E2DAC1EFF1E7
:1030CE002AEC08F000C004F001C005F002C006F0C2
:1030DE0003C007F0D6C100F0D7C101F0D8C102F08D
:1030EE00D9C103F008EC0BF05F0E046E700E056E86
:1030FE00090E066E810E076EB5EC0EF0010ED8B0FD
:10310E00000E006E005206E0090E0101DA5F000E9D
:10311E00DB5B05D00101080EDA5F000EDB5BDAC166
:10312E00EFF12AEC08F000C004F001C005F002C077
:10313E0006F003C007F0D6C100F0D7C101F0D8C128
:10314E0002F0D9C103F008EC0BF07BEC07F000C0E5
:10315E00DCF101C0DDF102C0DEF103C0DFF10101DF
:10316E00D66BD76BD86BD96B38D0D6C100F0D7C120
:10317E0001F0D8C102F0D9C103F07BEC07F000C01A
:10318E00DCF101C0DDF102C0DEF103C0DFF1DCC114
:10319E0000F0DDC101F0DEC102F0DFC103F017EC7B
:1031AE0008F000C004F001C005F002C006F003C034
:1031BE0007F0D6C100F0D7C101F0D8C102F0D9C1D5
:1031CE0003F09EEC0CF000C0D6F101C0D7F102C0A6
:1031DE00D8F103C0D9F1DA6BDB6B010ED16FD1518F
:1031EE000A0A34E0D1C100F0000E016E026E036EC9
:1031FE000036009001360236033600360090013656
:10320E00023603366B0E0024F66E660E0120F76E44
:10321E00000E0220F86E0900F5CF01F00900F5CF7F
:10322E0002F00900F5CF03F00900F5CF04F00450C9
:10323E00DF5D08E10350DE5D05E10250DD5D02E178
:10324E000150DC5D01E202D0D12BC9D7D151CF257F
:10325E00006E000ED021016EDA510026DB510122E4
:10326E000050D25F0150D35BD5B704D0CF51D011EF
:10327E0001E104D0010ED25F000ED35B030ED41514
:10328E00006ED5C101F0000E01160050011004E0D1
:10329E00010ED25F000ED35BD4A539D0D4A312D0C9
:1032AE00D4A103D02D0E006E02D02B0E006EC8C11D
:1032BE00E1FFC9C1E2FF00C0E6FFC84BC92BE74BD7
:1032CE00E82B0CD0D4A10AD0C8C1E1FFC9C1E2FFDE
:1032DE00200EE66EC84BC92BE74BE82B800E006E16
:1032EE00800ED319005C02E1D25100080FE2C8C172
:1032FE00E1FFC9C1E2FF300EE66EC84BC92BE74BAA
:10330E00E82B010ED25F000ED35BE8D73AD0D4B7CC
:10331E0018D0800E006E800ED319005C02E1D251DF
:10332E0000080FE2C8C1E1FFC9C1E2FF200EE66E40
:10333E00C84BC92BE74BE82B010ED25F000ED35BB7
:10334E00E8D7D4A312D0D4A103D02D0E006E02D094
:10335E002B0E006EC8C1E1FFC9C1E2FF00C0E6FF3F
:10336E00C84BC92BE74BE82B0CD0D4A10AD0C8C14F
:10337E00E1FFC9C1E2FF200EE66EC84BC92BE74B39
:10338E00E82BD1C100F0D10700524CE0D1C100F0C2
:10339E00000E016E026E036E00360090013602368C
:1033AE000336003600900136023603366B0E0024CB
:1033BE00F66E660E0120F76E000E0220F86E090002
:1033CE00F5CF04F00900F5CF05F00900F5CF06F0B2
:1033DE000900F5CF07F0DCC100F0DDC101F0DEC160
:1033EE0002F0DFC103F0EEEC05F00A0E046E000EE3
:1033FE00056E066E076EEEEC05F008C000F009C013
:10340E0001F00AC002F00BC003F0300E0026C8C156
:10341E00E1FFC9C1E2FF00C0E6FFC84BC92BE74B75
:10342E00E82BAFD7800E006E800EDB19005C02E138
:10343E00DA5100080FE2C8C1E1FFC9C1E2FF300E48
:10344E00E66EC84BC92BE74BE82B010EDA5F000E78
:10345E00DB5BE8D7800E000A006E800ED019005C90
:10346E0002E1CF51080803E2080ED16F02D0CFC19E
:10347E00D1F1D151CF5F000ED05BD15303E1D5B75F
:10348E0001D00AD0C8C1E1FFC9C1E2FF2E0EE66E1F
:10349E00C84BC92BE74BE82BD1C1EFF12AEC08F052
:1034AE00D6C104F0D7C105F0D8C106F0D9C107F0D6
:1034BE00B4EC02F0C6EC0BF000C0DCF101C0DDF1A3
:1034CE0002C0DEF103C0DFF1D1534DE0D107D1C10F
:1034DE0000F0000E016E026E036E00360090013693
:1034EE0002360336003600900136023603366B0E76
:1034FE000024F66E660E0120F76E000E0220F86EA6
:10350E000900F5CF04F00900F5CF05F00900F5CF5D
:10351E0006F00900F5CF07F0DCC100F0DDC101F0C7
:10352E00DEC102F0DFC103F0EEEC05F00A0E046E10
:10353E00000E056E066E076EEEEC05F008C000F08C
:10354E0009C001F00AC002F00BC003F0300E0026D5
:10355E00C8C1E1FFC9C1E2FF00C0E6FFC84BC92BDD
:10356E00E74BE82BB1D7CF51D0110FE0C8C1E1FF27
:10357E00C9C1E2FF300EE66EC84BC92BE74BE82BF4
:10358E00010ECF5F000ED05BEED7D4A71AD0800EFF
:10359E00006E800ED319005C02E1D251000811E2D8
:1035AE00C8C1E1FFC9C1E2FF200EE66EC84BC92BB0
:1035BE00E74BE82B010ED25F000ED35BD251D31135
:1035CE00EFE134EF0FF0C00ED415016ED5C102F04D
:1035DE00000E0216000E021802E1000E0118D8A409
:1035EE007CD0D4A927D0CDC1E9FFCEC1EAFFEECF62
:1035FE0000F0EECF01F000C0E9FF01C0EAFFEECF10
:10360E00DCF1EECFDDF1EECFDEF1EECFDFF1CDC1AD
:10361E00E9FFCEC1EAFF040EEE24006E000EEE208E
:10362E00016ECDC1E1FFCEC1E2FF00C0E6FF01C0D9
:10363E00E6FF2BD0CDC1E9FFCEC1EAFFEECF00F001
:10364E00EECF01F000C0E9FF01C0EAFFEECF00F0BF
:10365E00EECF01F000C0DCF101C0DDF1000E01BEC5
:10366E00FF0EDE6FDF6FCDC1E9FFCEC1EAFF020EA6
:10367E00EE24006E000EEE20016ECDC1E1FFCEC134
:10368E00E2FF00C0E6FF01C0E6FF800EDF19006E0C
:10369E00800E005C08E1000EDE5D05E1000EDD5DD2
:1036AE0002E1000EDC5D18E2030ED413000ED513FA
:1036BE00006A016A026A036ADC51005EDD51015A3A
:1036CE00DE51025ADF51035A00C0DCF101C0DDF1B8
:1036DE0002C0DEF103C0DFF14ED0D4A927D0CDC198
:1036EE00E9FFCEC1EAFFEECF00F0EECF01F000C051
:1036FE00E9FF01C0EAFFEECFDCF1EECFDDF1EECF58
:10370E00DEF1EECFDFF1CDC1E9FFCEC1EAFF040E4F
:10371E00EE24006E000EEE20016ECDC1E1FFCEC193
:10372E00E2FF00C0E6FF01C0E6FF25D0CDC1E9FFF4
:10373E00CEC1EAFFEECF00F0EECF01F000C0E9FF00
:10374E0001C0EAFFEECFDCF1EECFDDF1000EDE6F51
:10375E00DF6FCDC1E9FFCEC1EAFF020EEE24006E8F
:10376E00000EEE20016ECDC1E1FFCEC1E2FF00C022
:10377E00E6FF01C0E6FF000ED01902E1000ECF19E0
:10378E000FE1000E006EDF1908E10050DE1905E1B1
:10379E000050DD1902E1DC51000A02E1CF4BD02BC3
:1037AE00C00ED415006E00C005F0AED0010ED16F64
:1037BE00D1510A0A34E0D1C100F0000E016E026E42
:1037CE00036E003600900136023603360036009046
:1037DE000136023603366B0E0024F66E660E01209D
:1037EE00F76E000E0220F86E0900F5CF01F0090009
:1037FE00F5CF02F00900F5CF03F00900F5CF04F084
:10380E000450DF5D08E10350DE5D05E10250DD5D31
:10381E0002E10150DC5D01E202D0D12BC9D782D08A
:10382E00010ED16FD151080A34E0D1C100F0000E63
:10383E00016E026E036E00360090013602360336BC
:10384E0000360090013602360336B30E0024F66EB3
:10385E00660E0120F76E000E0220F86E0900F5CFFD
:10386E0001F00900F5CF02F00900F5CF03F00900D1
:10387E00F5CF04F00450DF5D08E10350DE5D05E195
:10388E000250DD5D02E10150DC5D01E202D0D12B80
:10389E00C9D748D0010ED16FD1510C0A34E0D1C135
:1038AE0000F0000E016E026E036E003600900136BF
:1038BE0002360336003600900136023603363B0ED2
:1038CE000024F66E660E0120F76E000E0220F86ED2
:1038DE000900F5CF01F00900F5CF02F00900F5CF90
:1038EE0003F00900F5CF04F00450DF5D08E103504A
:1038FE00DE5D05E10250DD5D02E10150DC5D01E2BD
:10390E0002D0D12BC9D70ED00550000AD8B44ED74D
:10391E000550C00AD8B44AD70550800A81E0055038
:10392E00400AB8E0800E006E800ED019005C02E1F5
:10393E00CF51D15D03E2CFC1D1F10DD0800ED019A0
:10394E00006E800E005C02E1D151CF5D04E2D1C168
:10395E00CFF1000ED06FD251D3110EE0030ED4155D
:10396E00006ED5C101F0000E01160050011004E0EA
:10397E00010ED25F000ED35B800ED019006E800E4A
:10398E00D319005C02E1D251CF5D05E2CF51D25F77
:10399E00D051D35B02D0D26BD36BC40ED415016E53
:1039AE00D551080B026E0250080A02E1400E0118B2
:1039BE0008E1D251D31104E0010ED25F000ED35BA9
:1039CE001CD0C00ED415016ED551080B026E0250DC
:1039DE00080A02E1800E011810E1800E006E800EC2
:1039EE00D319005C02E1D251020805E2020ED25F49
:1039FE00000ED35B02D0D26BD36BD4A55DD0D4A313
:103A0E0012D0D4A103D02D0E006E02D02B0E006E5C
:103A1E00C8C1E1FFC9C1E2FF00C0E6FFC84BC92B18
:103A2E00E74BE82B34D0D4A10BD0C8C1E1FFC9C1FC
:103A3E00E2FF200EE66EC84BC92BE74BE82B27D0D2
:103A4E00C00ED415016ED551080B026E0250080A35
:103A5E0002E1800E01181BE1C8C1E1FFC9C1E2FFFE
:103A6E00300EE66EC84BC92BE74BE82BD4AB03D018
:103A7E00580E006E02D0780E006EC8C1E1FFC9C1AB
:103A8E00E2FF00C0E6FFC84BC92BE74BE82BD25133
:103A9E00D31111E0C8C1E1FFC9C1E2FF300EE66EDD
:103AAE00C84BC92BE74BE82B010ED25F000ED35B40
:103ABE00D251D311EFE174D0D251D31113E0D4B758
:103ACE0011D0C8C1E1FFC9C1E2FF200EE66EC84B9E
:103ADE00C92BE74BE82B010ED25F000ED35BD25100
:103AEE00D311EFE1D4A312D0D4A103D02D0E006ECA
:103AFE0002D02B0E006EC8C1E1FFC9C1E2FF00C0AB
:103B0E00E6FFC84BC92BE74BE82B0CD0D4A10AD04B
:103B1E00C8C1E1FFC9C1E2FF200EE66EC84BC92B3A
:103B2E00E74BE82BC00ED415016ED551080B026E73
:103B3E000250080A02E1400E01180BE1C8C1E1FF74
:103B4E00C9C1E2FF300EE66EC84BC92BE74BE82B1E
:103B5E0027D0C00ED415016ED551080B026E02503F
:103B6E00080A02E1800E01181BE1C8C1E1FFC9C1BC
:103B7E00E2FF300EE66EC84BC92BE74BE82BD4ABF9
:103B8E0003D0580E006E02D0780E006EC8C1E1FF51
:103B9E00C9C1E2FF00C0E6FFC84BC92BE74BE82BBB
:103BAE00800E006E800ED019005C02E1CF51D15D07
:103BBE000BE2C8C1E1FFC9C1E2FF300EE66EC84B91
:103BCE00C92BE74BE82BECD7CFC100F0D0C101F0E9
:103BDE00010ECF5F000ED05B00500110D8B42AD179
:103BEE00C00ED415006E00C0E9F10AD1CFC100F0AD
:103BFE00D0C101F0000ED0BFFF0E026E036E003674
:103C0E000090013602360336003600900136023639
:103C1E0003366B0E0024F66E660E0120F76E000E54
:103C2E000220F86E0900F5CF04F00900F5CF05F07B
:103C3E000900F5CF06F00900F5CF07F0DCC100F062
:103C4E00DDC101F0DEC102F0DFC103F0EEEC05F0E4
:103C5E000A0E046E000E056E066E076EEEEC05F093
:103C6E0008C000F009C001F00AC002F00BC003F05A
:103C7E00300E0024D16FD3D0D4AB45D0CFC100F0DD
:103C8E00D0C101F0000ED0BFFF0E026E036E0036E3
:103C9E0000900136023603360036009001360236A9
:103CAE000336B30E0024F66E660E0120F76E000E7C
:103CBE000220F86E0900F5CF04F00900F5CF05F0EB
:103CCE000900F5CF06F00900F5CF07F0DCC100F0D2
:103CDE00DDC101F0DEC102F0DFC103F0EEEC05F054
:103CEE000F0E0016000E011602160316C40E002447
:103CFE00F66E670E0120F76E000E0220F86E0900B8
:103D0E00F5CFD1F144D0CFC100F0D0C101F0000EFB
:103D1E00D0BFFF0E026E036E0036009001360236E3
:103D2E00033600360090013602360336B30E0024F9
:103D3E00F66E660E0120F76E000E0220F86E090078
:103D4E00F5CF04F00900F5CF05F00900F5CF06F028
:103D5E000900F5CF07F0DCC100F0DDC101F0DEC1D6
:103D6E0002F0DFC103F0EEEC05F00F0E0016000EB0
:103D7E00011602160316B30E0024F66E670E01200E
:103D8E00F76E000E0220F86E0900F5CFD1F147D084
:103D9E00CFC100F0D0C101F0000ED0BFFF0E026EF9
:103DAE00036E003600900136023603360036009060
:103DBE000136023603363B0E0024F66E660E0120E7
:103DCE00F76E000E0220F86E0900F5CF04F0090020
:103DDE00F5CF05F00900F5CF06F00900F5CF07F095
:103DEE00DCC100F0DDC101F0DEC102F0DFC103F085
:103DFE00EEEC05F0070E0014D16F300ED1270FD068
:103E0E00E951000AD8B4F2D6E951C00AD8B4EED6B8
:103E1E00E951800AD8B430D7E951400AB9E0C8C197
:103E2E00E1FFC9C1E2FFD1C1E6FFC84BC92BE74B89
:103E3E00E82BCAD6D4A71AD0800E006E800ED319E6
:103E4E00005C02E1D251000811E2C8C1E1FFC9C114
:103E5E00E2FF200EE66EC84BC92BE74BE82B010E96
:103E6E00D25F000ED35BD251D311EFE134EF0FF0DE
:0A3E7E00E7C100F0E8C101F01200F6
:103E88005FEC0CF0080E046E000E056E39EC0EF0B7
:103E980008C000F009C001F000C023F101C024F1FE
:103EA8005FEC0CF00F0E046E000E056E39EC0EF090
:103EB80008C000F009C001F000C025F101C026F1DA
:103EC80023C100F024C101F00F0E046E000E056E30
:103ED80086EC01F0350E0026010E01220101255164
:103EE8000024E96E26510120EA6EEECFEFF1A9EC2D
:103EF8000EF0005217E023C100F024C101F00F0EAC
:103F0800046E000E056E86EC01F0350E0026010EDB
:103F1800012225510024E16E26510120E26E16C0CF
:103F2800E6FF58D023C100F024C101F00F0E046E43
:103F3800000E056E86EC01F0350E0026010E0122FA
:103F480025510024E96E26510120EA6EEECFEFF1EB
:103F58009DEC0EF000523DE023C100F024C101F0B9
:103F68000F0E046E000E056E86EC01F0350E00266D
:103F7800010E012225510024E96E26510120EA6E26
:103F8800EECFEFF1B6EC05F0005223E123C100F0CB
:103F980024C101F00F0E046E000E056E86EC01F0D0
:103FA800350E0026010E012225510024C86F265126
:103FB8000120C96FC8C1E9FFC9C1EAFFEECFEFF11F
:103FC800B1EC05F0C8C1E1FFC9C1E2FF00C0E6FFDE
:063FD80001D056D71200D3
:103FDE005FEC0CF0080E046E000E056E39EC0EF060
:103FEE0008C000F009C001F000C023F101C024F1A7
:103FFE005FEC0CF00F0E046E000E056E39EC0EF039
:10400E0008C000F009C001F000C025F101C026F182
:10401E0023C100F024C101F00F0E046E000E056ED8
:10402E0086EC01F0350E0026010E0122010125510C
:10403E000024E96E26510120EA6EEECFEFF1A9ECD5
:10404E000EF0005217E023C100F024C101F00F0E54
:10405E00046E000E056E86EC01F0350E0026010E84
:10406E00012225510024E16E26510120E26E010E3F
:08407E00E66E01D0ADD712007F
:10408600C2EC05F0E80E046E030E056E000E066E19
:10409600076E4DEC03F000C0D0F101C0D1F102C0B3
:1040A600D2F103C0D3F1C8C104F0C9C105F0000EB6
:1040B600066E076EEEEC05F000C0D0F101C0D1F13E
:1040C60002C0D2F103C0D3F100C005F001C006F072
:1040D60002C007F003C008F0083207320632053284
:1040E600089E0832073206320532089E05C000F0E7
:1040F60006C001F007C002F008C003F00332023226
:1041060001320032039E00C0CCF101C0CDF1C2ECF9
:1041160005F0CAC104F0CBC105F0000E066E076EAD
:104126004DEC03F0CCC109F0CDC10AF0000E0B6EC8
:104136000C6E030E086E09C004F00AC005F00BC031
:1041460006F00CC007F0085007E004360490053668
:1041560006360736FF0FF8D7EEEC05F000C0D0F1B3
:1041660001C0D1F102C0D2F103C0D3F10A0E046E30
:10417600000E056ECCC100F0CDC101F06BEC01F074
:1041860000C0CCF101C0CDF1000E015C02E1030ECE
:10419600005C01E212000BC1E9FF0CC1EAFF01015C
:1041A600D351000808E1D251000805E1D1510008B9
:1041B60002E1D051000833E20D51EF12CD530EE06B
:1041C600CE6BCF6B000ECF5D02E1CD51CE5D06E228
:1041D600EF6B64EC07F0CE4BCF2BF4D7CCC1EFF1ED
:1041E60064EC07F00A51EF16CD530EE0CE6BCF6BA1
:1041F600000ECF5D02E1CD51CE5D06E2EF6B64ECC1
:1042060007F0CE4BCF2BF4D7CCC1EFF164EC07F01F
:10421600010ED05F000ED15BD25BD35BC0D70A51D3
:04422600EF1612007D
:0A422A0065500101C815006E120076
:10423400C8C1F6F144EC03F00050060A03E1010E94
:08424400006E1200006A120076
:10424C00C8C1F6F144EC03F000500A0A03E1010E78
:08425C00006E1200006A12005E
:0E426400ADC100F00032009E0032009E12003C
:1042720023C133F124C134F125C11DF126C11EF140
:1042820023C100F024C101F00F0E046E000E056E72
:1042920086EC01F0350E0026010E012201012551A6
:1042A2000024E96E26510120EA6EEECFEFF1E8EC30
:1042B20005F000C005F1005059180EE11D4B1E2BF0
:1042C200800E1E19006E800E005C02E10F0E1D5D55
:1042D20002E31D6B1E6B37D00551581812E1010E17
:1042E2001D5F000E1E5B800E1E19006E800E005CAC
:1042F20002E1000E1D5D04E20E0E1D6F000E1E6F28
:1043020022D0055157180EE1334B342B800E34194D
:10431200006E800E005C02E1080E335D02E3336B37
:10432200346B11D0010E335F000E345B800E3419F2
:10433200006E800E005C02E1000E335D04E2070EA7
:08434200336F000E346F12000E
:10434A000101236B246B800E2419006E800E005C21
:10435A0002E1080E235D1EE2256B266B800E2619EC
:10436A00006E800E005C02E10F0E255D10E225C191
:10437A00EFF123C1F0F1930EF16F660EF26F000EAA
:10438A00F36FCAEC05F00101254B262BE7D7234B27
:06439A00242BD9D712000C
:1043A000C8C101F001360190013601900001FD51B4
:1043B000FB11006E0101AD51001600500110AD6FF0
:0243C0001200E9
:0A43C2005A500101C815006E1200E8
:1043CC00080E0101C815026E080EC915016E0250C7
:1043DC00011802E0006A1200080EC815026E080EE1
:1043EC00C915016E0250011803E0010E006E120097
:0443FC00006A120041
:0A440000FD0E0101C815006E120048
:10440A00C8C1EFF176EC07F00050000A03E1010E93
:08441A00006E1200006A12009E
:10442200C8C100F00032009E0032009E0032009EA1
:064432000032009E1200A2
:10443800C8C100F0003600900036009000360090A9
:0644480000360090120096
:10444E0001010551591824E123C100F024C101F0E6
:10445E000F0E046E000E056E86EC01F0350E002672
:10446E00010E012225510024026E26510120036EF9
:10447E0002C0E9FF03C0EAFFF30EEE14006E5750C0
:10448E00001202C0E1FF03C0E2FF00C0E6FF71D0E0
:10449E000551581824E123C100F024C101F00F0E7C
:1044AE00046E000E056E86EC01F0350E0026010E30
:1044BE00012225510024026E26510120036E02C0F6
:1044CE00E9FF03C0EAFFF30EEE14006E6750001210
:1044DE0002C0E1FF03C0E2FF00C0E6FF4AD0055173
:1044EE00571824E123C100F024C101F00F0E046E11
:1044FE00000E056E86EC01F0350E0026010E01222F
:10450E0025510024026E26510120036E02C0E9FFE0
:10451E0003C0EAFFF30EEE14006E5850001202C0F4
:10452E00E1FF03C0E2FF00C0E6FF23D023C100F08D
:10453E0024C101F00F0E046E000E056E86EC01F024
:10454E00350E0026010E012225510024026E265141
:10455E000120036E02C0E9FF03C0EAFFF30EEE1462
:10456E00006E5950001202C0E1FF03C0E2FF00C00E
:04457E00E6FF120042
:104582000101C06BBDC1E9FFBEC1EAFFEECFBFF1C1
:10459200BF51000A0FE0BFC1C8F128EC0FF00101C2
:1045A200C02BC051BD25E96E000EBE21EA6EEECFD2
:0645B200BFF1EED712007C
:1045B800BDC1C8F102DF0050000A03E1010E006E20
:0645C8001200006A12005F
:1045CE00C20E0101C66F010EC76FBDC1C8F1BEC1DB
:1045DE00C9F1BFC1CAF1C0C1CBF1C1C1CCF1C60E88
:1045EE00CD6F010ECE6F2FEC0FF000C0C4F101C0E5
:1045FE00C5F10050BD25E16E0150BE21E26EE66AA6
:0A460E00C4C100F0C5C101F01200A4
:104618000101236B246B800E2419006E800E005C50
:1046280002E1080E235D72E2256B266B800E2619C7
:10463800006E800E005C02E10F0E255D64E223C16E
:1046480000F024C101F00F0E046E000E056E86EC1A
:1046580001F0350E0026010E012225510024E96ED5
:1046680026510120EA6EEECFC8F1D7DE00500001D6
:10467800FE1923E023C100F024C101F00F0E046EDF
:10468800000E056E86EC01F0350E0026010E0122A3
:10469800010125510024BD6F26510120BE6FBDC107
:1046A800E9FFBEC1EAFFEECFC8F1B7DEBDC1E1FF49
:1046B800BEC1E2FF00C0E6FF23D0010123C100F024
:1046C80024C101F00F0E046E000E056E86EC01F099
:1046D800350E0026010E012225510024BD6F2651FA
:1046E8000120BE6FBDC1E9FFBEC1EAFFEECFF6F102
:1046F80044EC03F0BDC1E1FFBEC1E2FF00C0E6FF2C
:0E470800254B262B93D7234B242B85D712004D
:104716000D0E0101C86F28EC0FF00A0E0101C86FDB
:0647260028EC0FF0120068
:10472C00020E0B6E040E0C6EBA0E0D6E0D2EFED715
:0C473C000C2EFCD70B2EFAD70000120048
:104748000101C26BC36B26EC00F00101BE510E25BE
:104758000201056F0101BF510F210201066F240EEE
:10476800076F5CEC01F0B00E0201006F61EC00F025
:104778008290956A0101C151C35D02E1C051C25DD9
:104788000DE2BDC183FF829423EC00F023EC00F01E
:1047980023EC00F08284C24BC32BECD7B20E02018B
:0847A800006F61EC00F012004B
:1047B000C1C100F261EC00F0C0C100F0000E016E5A
:1047C00012C104F013C105F086EC01F00101BF51E4
:1047D00000240201056F000E0120066F0101035144
:1047E000020105270101045102010623240E076F6F
:1047F0005CEC01F0BDC1E9FFBEC1EAFFEE5213E07F
:10480000BDC1E9FFBEC1EAFF200EEE5C0201006FF0
:1048100057EC00F00101BD4BBE2BC00E0201006F32
:0848200061EC00F0E7D7120083
:104828000101236B246B800E2419006E800E005C3E
:1048380002E1080E235DD8B090D0256B266B800E60
:104848002619006E800E005C02E10F0E255DD8B0BF
:1048580081D023512525006E24512621016E060E94
:10486800046E000E056E39EC0EF008C000F009C0A9
:1048780001F00050011028E0040E046E000E056ED1
:1048880025C100F026C101F039EC0EF008C000F097
:1048980009C001F000C0BDF101C0BEF1030E046EF5
:1048A800000E056E23C100F024C101F039EC0EF0B2
:1048B80008C000F009C001F00101BE51011802E171
:1048C8000050BD1901E02CD0020E046E000E056EDA
:1048D80025C100F026C101F039EC0EF008C000F047
:1048E80009C001F0000E011802E1000E001818E1DD
:1048F80023C100F024C101F00F0E046E000E056EF6
:1049080086EC01F0350E0026010E01220101255129
:104918000024E16E26510120E26E56C0E6FF17D052
:10492800010123C100F024C101F00F0E046E000E36
:10493800056E86EC01F0350E0026010E0122255188
:104948000024E16E26510120E26E66C0E6FF254B89
:10495800262B75D7234B242B66D744EC1FF044EC49
:0C4968001FF0EFEC1FF0356BAD6B120080
:10497400100E836E80AA06D080AA01D0FDD7370E10
:10498400006E120081A206D081A201D0FDD7380E9C
:10499400006E120081A406D081A401D0FDD7390E87
:1049A400006E120081A606D081A601D0FDD7250E87
:1049B400006E1200200E836E80AA06D080AA01D059
:1049C400FDD7340E006E120081A206D081A201D060
:1049D400FDD7350E006E120081A406D081A401D04B
:1049E400FDD7360E006E120081A606D081A601D036
:1049F400FDD72A0E006E1200400E836E80AA06D0E8
:104A040080AA01D0FDD7310E006E120081A206D01B
:104A140081A201D0FDD7320E006E120081A406D00F
:104A240081A401D0FDD7330E006E120081A606D0FA
:104A340081A601D0FDD72D0E006E1200800E836E6C
:104A440080AA06D080AA01D0FDD7430E006E1200C2
:104A540081A206D081A201D0FDD7300E006E1200D3
:104A640081A406D081A401D0FDD73D0E006E1200B2
:104A740081A606D081A601D0FDD72B0E006E1200B0
:064A8400FF0E006E12009F
:0C4A8A000001FB510101AD15006E12008F
:104A9600BDC1C8F115EC21F000500A0A03E1010E70
:084AA600006E1200006A12000C
:0C4AAE000001FD510101AD15006E120069
:104ABA0001010051000828E223C100F024C101F0DD
:104ACA000F0E046E000E056E86EC01F0350E002600
:104ADA00010E012225510024BE6F26510120BF6F0D
:104AEA00BEC1E9FFBFC1EAFFF30EEE14BD6F00C1FC
:104AFA00EFF1E8EC05F0BD510012BEC1E1FFBFC104
:104B0A00E2FF00C0E6FF006B39EC21F033C100F090
:104B1A0034C101F00F0E046E000E056E86EC01F032
:104B2A00350E0026010E01221D510024E96E1E5188
:104B3A000120EA6EEECFC8F16FDC00C0EFF19DEC08
:104B4A000EF0005205E00001FD510101AD13120003
:104B5A0033C100F034C101F00F0E046E000E056E71
:104B6A0086EC01F0350E0026010E01221D510024AB
:104B7A00E96E1E510120EA6EEECFEFF19DEC0EF0C8
:104B8A00005236E023C100F024C101F00F0E046E7A
:104B9A00000E056E86EC01F0350E0026010E01228C
:104BAA0025510024E96E26510120EA6EEECFC8F1A4
:104BBA0033C100F034C101F00F0E046E000E056E11
:104BCA0086EC01F0350E0026010E01221D5100244B
:104BDA00E96E1E510120EA6EEECFC9F1E6EC21F032
:104BEA00005205E00001FD510101AD131200FDD094
:104BFA0033C100F034C101F00F0E046E000E056ED1
:104C0A0086EC01F0350E0026010E01221D5100240A
:104C1A00E96E1E510120EA6EEECFC8F11AEC21F0BE
:104C2A0000523FE023C100F024C101F00F0E046ED0
:104C3A00000E056E86EC01F0350E0026010E0122EB
:104C4A0025510024BE6F26510120BF6FBEC1E9FF66
:104C5A00BFC1EAFFEECFF6F144EC03F000C0BDF1AC
:104C6A0023C100F024C101F00F0E046E000E056E80
:104C7A0086EC01F0350E0026010E01222551002492
:104C8A00E96E26510120EA6EEECFC8F11CEC22F043
:104C9A00BD510012BEC1E1FFBFC1E2FF00C0E6FF85
:104CAA00A4D033C100F034C101F00F0E046E000E1F
:104CBA00056E86EC01F0350E0026010E01221D510B
:104CCA000024BE6F1E510120BF6FBEC1E9FFBFC1E4
:104CDA00EAFFEECFF6F144EC03F000C0BDF123C1C8
:104CEA0000F024C101F00F0E046E000E056E86EC72
:104CFA0001F0350E0026010E012225510024E96E2D
:104D0A0026510120EA6EEECFC8F11CEC22F0BD510B
:104D1A000012BEC1E1FFBFC1E2FF00C0E6FF23C12E
:104D2A0000F024C101F00F0E046E000E056E86EC31
:104D3A0001F0350E0026010E012225510024BE6F16
:104D4A0026510120BF6FBEC1E9FFBFC1EAFFEECF06
:104D5A00F6F144EC03F000C0BDF166C0C8F11CECEA
:104D6A0022F0BD510012BEC1E1FFBFC1E2FF00C087
:104D7A00E6FF33C100F034C101F00F0E046E000EDD
:104D8A00056E86EC01F0350E0026010E01221D513A
:104D9A000024E96E1E510120EA6EEECFEFF1B6EC67
:104DAA0005F000521BE133C100F034C101F00F0ECF
:104DBA00046E000E056E86EC01F0350E0026010E1B
:104DCA0001221D510024E96E1E510120EA6EEECF28
:104DDA00C8F126EC21F0005201E107D032EC21F0B3
:0C4DEA000050010FC86FD0EC21F0120047
:104DF6000101236B246B800E2419006E800E005C6B
:104E060002E1080E235D48E2256B266B800E26190B
:104E1600006E800E005C02E10F0E255D3AE223C1B2
:104E260000F024C101F00F0E046E000E056E86EC34
:104E360001F0350E0026010E012225510024BE6F19
:104E460026510120BF6FFEC0C8F11CEC22F000C045
:104E5600BDF123C100F024C101F00F0E046E000E57
:104E6600056E86EC01F0350E0026010E0122255155
:104E76000024D96E26510120DA6EDE50BD11006E77
:104E8600BEC1E1FFBFC1E2FF00C0E6FF254B262BF6
:0A4E9600BDD7234B242BAFD7120029
:104EA000820E0101C86F000EC96FC80ECA6F000ED6
:104EB000CB6F43EC20F0920E0101C86F000EC96F5A
:104EC000C80ECA6F000ECB6F43EC20F0A40E010198
:104ED000C86F000EC96FC80ECA6F000ECB6F43ECCF
:104EE00020F0AE0E0101C86F000EC96FC80ECA6F68
:104EF000000ECB6F43EC20F0C40E0101C86F000E12
:104F0000C96FC80ECA6F000ECB6F43EC20F0FDC016
:084F100000F1A5EC21F01200F4
:104F1800010E0101BD15016E0150010A03E1010EE8
:084F2800006E1200006A120085
:104F3000BDC1C8F115EC21F00050060A03E1010ED5
:084F4000006E1200006A12006D
:104F48000101016B026B800E0219006E800E005C7D
:104F580002E1050E015D42E239EC21F033C100F0B7
:104F680034C101F00F0E046E000E056E86EC01F0E0
:104F7800350E0026010E01221D510024E96E1E5136
:104F88000120EA6EEECFC8F11AEC21F000521FE1C1
:104F980033C100F034C101F00F0E046E000E056E2F
:104FA80086EC01F0350E0026010E01221D51002469
:104FB800E96E1E510120EA6EEECFC8F111EC22F025
:104FC80000C0EFF19DEC0EF0005201E103D027EC98
:104FD80022F001D003D0014B022BB5D733C100F02A
:104FE80034C101F00F0E046E000E056E86EC01F060
:104FF800350E0026010E01221D510024E96E1E51B6
:105008000120EA6EEECFC8F11AEC21F000521FE140
:1050180033C100F034C101F00F0E046E000E056EAE
:1050280086EC01F0350E0026010E01221D510024E8
:10503800E96E1E510120EA6EEECFC8F111EC22F0A4
:1050480000C0EFF19DEC0EF0005201E101D012001A
:1050580033C100F034C101F00F0E046E000E056E6E
:1050680086EC01F0350E0026010E01221D510024A8
:10507800E96E1E510120EA6EEECFC8F111EC22F064
:1050880000C0C8F105EC22F0005206E00001FD5115
:105098000101AD1392EF2DF033C100F034C101F0DE
:1050A8000F0E046E000E056E86EC01F0350E00261C
:1050B800010E01221D510024E96E1E510120EA6EE5
:1050C800EECFEFF19DEC0EF00052D8B484D233C18C
:1050D80000F034C101F00F0E046E000E056E86EC70
:1050E80001F0350E0026010E01221D510024E96E43
:1050F8001E510120EA6EEECFEFF1E8EC05F000C09A
:10510800C9F105C1C8F1E6EC21F00052D8B437D195
:1051180023C100F024C101F00F0E046E000E056ECD
:1051280086EC01F0350E0026010E012225510024DF
:10513800E96E26510120EA6EEECFEFF1B6EC05F0EC
:105148000052010ED8A4000EBD6F33C100F034C167
:1051580001F00F0E046E000E056E86EC01F0350EA0
:105168000026010E01221D510024E96E1E51012066
:10517800EA6EEECFEFF1B6EC05F0BD51001643E054
:1051880033C100F034C101F00F0E046E000E056E3D
:1051980086EC01F0350E0026010E01221D51002477
:1051A800BE6F1E510120BF6FBEC1E9FFBFC1EAFF3C
:1051B800EECFF6F144EC03F000C0BDF123C100F0DE
:1051C80024C101F00F0E046E000E056E86EC01F08E
:1051D800350E0026010E012225510024E96E2651C4
:1051E8000120EA6EEECFEFF1B1EC05F000C0C8F196
:1051F8001CEC22F0BD510012BEC1E1FFBFC1E2FFAD
:1052080000C0E6FFBBD023C100F024C101F00F0E9F
:10521800046E000E056E86EC01F0350E0026010EB8
:10522800012225510024E96E26510120EA6EEECFB5
:10523800EFF1B6EC05F000C0BDF133C100F034C1A8
:1052480001F00F0E046E000E056E86EC01F0350EAF
:105258000026010E01221D510024E96E1E51012075
:10526800EA6EEECFEFF1B6EC05F00052010ED8A4CD
:10527800000E006EBD51001643E033C100F034C18A
:1052880001F00F0E046E000E056E86EC01F0350E6F
:105298000026010E01221D510024BE6F1E5101205F
:1052A800BF6FBEC1E9FFBFC1EAFFEECFF6F144EC24
:1052B80003F000C0BDF123C100F024C101F00F0EBE
:1052C800046E000E056E86EC01F0350E0026010E08
:1052D800012225510024E96E26510120EA6EEECF05
:1052E800C8F100EC22F000C0C8F11CEC22F0BD515E
:1052F8000012BEC1E1FFBFC1E2FF00C0E6FF3ED021
:1053080033C100F034C101F00F0E046E000E056EBB
:1053180086EC01F0350E0026010E01221D510024F5
:10532800BE6F1E510120BF6FBEC1E9FFBFC1EAFFBA
:10533800EECFF6F144EC03F000C0BDF123C100F05C
:1053480024C101F00F0E046E000E056E86EC01F00C
:10535800350E0026010E012225510024E96E265142
:105368000120EA6EEECFC8F11CEC22F0BD5100120C
:10537800BEC1E1FFBFC1E2FF00C0E6FF2BD133C1D0
:1053880000F034C101F00F0E046E000E056E86ECBD
:1053980001F0350E0026010E01221D510024E96E90
:1053A8001E510120EA6EEECFEFF1B6EC05F0005287
:1053B80043E033C100F034C101F00F0E046E000E5B
:1053C800056E86EC01F0350E0026010E01221D51F6
:1053D8000024BE6F1E510120BF6FBEC1E9FFBFC1CF
:1053E800EAFFEECFF6F144EC03F000C0BDF123C1B3
:1053F80000F024C101F00F0E046E000E056E86EC5D
:1054080001F0350E0026010E012225510024E96E17
:1054180026510120EA6EEECFEFF1B1EC05F000C0A5
:10542800C8F11CEC22F0BD510012BEC1E1FFBFC1A2
:10543800E2FF00C0E6FF42D033C100F034C101F002
:105448000F0E046E000E056E86EC01F0350E002678
:10545800010E01221D510024BE6F1E510120BF6F95
:10546800BEC1E9FFBFC1EAFFEECFF6F144EC03F09D
:1054780000C0BDF123C100F024C101F00F0E046E7D
:10548800000E056E86EC01F0350E0026010E012295
:1054980025510024E96E26510120EA6EEECFC8F1AD
:1054A80000EC22F000C0C8F11CEC22F0BD51001243
:1054B800BEC1E1FFBFC1E2FF00C0E6FF23C100F0AB
:1054C80024C101F00F0E046E000E056E86EC01F08B
:1054D800350E0026010E012225510024E96E2651C1
:1054E8000120EA6EEECFC8F111EC22F00050000165
:1054F800FE1970E123C100F024C101F00F0E046E03
:10550800000E056E86EC01F0350E0026010E012214
:10551800010125510024E96E26510120EA6EEECFE3
:10552800EFF1B6EC05F000522BE023C100F024C1E6
:1055380001F00F0E046E000E056E86EC01F0350EBC
:105548000026010E012225510024BE6F265101209C
:10555800BF6FBEC1E9FFBFC1EAFFEECFF6F144EC71
:1055680003F000C0BDF116C0C8F11CEC22F0BD511B
:105578000012BEC1E1FFBFC1E2FF00C0E6FF2AD0B2
:1055880023C100F024C101F00F0E046E000E056E59
:1055980086EC01F0350E0026010E0122255100246B
:1055A800BE6F26510120BF6FBEC1E9FFBFC1EAFF30
:1055B800EECFF6F144EC03F000C0BDF166C0C8F1CF
:1055C8001CEC22F0BD510012BEC1E1FFBFC1E2FFD9
:1055D80000C0E6FFA3D2010133C100F034C101F0DD
:1055E8000F0E046E000E056E86EC01F0350E0026D7
:1055F800010E01221D510024E96E1E510120EA6EA0
:10560800EECFC8F126EC21F00052D8B440D123C126
:1056180000F024C101F00F0E046E000E056E86EC3A
:1056280001F0350E0026010E012225510024E96EF5
:1056380026510120EA6EEECFEFF1B6EC05F00052EC
:10564800D8B49AD033C100F034C101F00F0E046E03
:10565800000E056E86EC01F0350E0026010E0122C3
:105668001D510024BE6F1E510120BF6FBEC1E9FF4E
:10567800BFC1EAFFEECFF6F144EC03F000C0BDF184
:1056880023C100F024C101F00F0E046E000E056E58
:1056980086EC01F0350E0026010E0122255100246A
:1056A800E96E26510120EA6EEECFC8F11CEC22F01B
:1056B800BD510012BEC1E1FFBFC1E2FF00C0E6FF5D
:1056C80023C100F024C101F00F0E046E000E056E18
:1056D80086EC01F0350E0026010E0122255100242A
:1056E800E96E26510120EA6EEECFC8F111EC22F0E6
:1056F80000500001FE193FE123C100F024C101F070
:105708000F0E046E000E056E86EC01F0350E0026B5
:10571800010E0122010125510024BE6F26510120EE
:10572800BF6FBEC1E9FFBFC1EAFFEECFF6F144EC9F
:1057380003F000C0BDF133C100F034C101F00F0E19
:10574800046E000E056E86EC01F0350E0026010E83
:1057580001221D510024E96E1E510120EA6EEECF90
:10576800C8F11CEC22F0BD510012BEC1E1FFBFC15F
:10577800E2FF00C0E6FF8AD0010133C100F034C166
:1057880001F00F0E046E000E056E86EC01F0350E6A
:105798000026010E01221D510024BE6F1E5101205A
:1057A800BF6FBEC1E9FFBFC1EAFFEECFF6F144EC1F
:1057B80003F000C0BDF123C100F024C101F00F0EB9
:1057C800046E000E056E86EC01F0350E0026010E03
:1057D800012225510024E96E26510120EA6EEECF00
:1057E800EFF1B1EC05F000C0C8F11CEC22F0BD519E
:1057F8000012BEC1E1FFBFC1E2FF00C0E6FF23C146
:1058080000F024C101F00F0E046E000E056E86EC48
:1058180001F0350E0026010E012225510024E96E03
:1058280026510120EA6EEECFC8F111EC22F00050AB
:105838000001FE192BE123C100F024C101F00F0E75
:10584800046E000E056E86EC01F0350E0026010E82
:105858000122010125510024BE6F26510120BF6F8E
:10586800BEC1E9FFBFC1EAFFEECFF6F144EC03F099
:1058780000C0BDF166C0C8F11CEC22F0BD51001299
:10588800BEC1E1FFBFC1E2FF00C0E6FF47D1010191
:1058980033C100F034C101F00F0E046E000E056E26
:1058A80086EC01F0350E0026010E01221D51002460
:1058B800E96E1E510120EA6EEECFEFF1A9EC0EF071
:1058C8000052D8B42BD123C100F024C101F00F0E2F
:1058D800046E000E056E86EC01F0350E0026010EF2
:1058E800012225510024E96E26510120EA6EEECFEF
:1058F800EFF1B6EC05F00052D8B48AD033C100F00D
:1059080034C101F00F0E046E000E056E86EC01F036
:10591800350E0026010E01221D510024BE6F1E51B6
:105928000120BF6FBEC1E9FFBFC1EAFFEECFF6F1AC
:1059380044EC03F000C0BDF123C100F024C101F024
:105948000F0E046E000E056E86EC01F0350E002673
:10595800010E012225510024E96E26510120EA6E2C
:10596800EECFC8F100EC22F000C0C8F11CEC22F028
:10597800BD510012BEC1E1FFBFC1E2FF00C0E6FF9A
:1059880023C100F024C101F00F0E046E000E056E55
:1059980086EC01F0350E0026010E01222551002467
:1059A800E96E26510120EA6EEECFC8F111EC22F023
:1059B80000500001FE192BE123C100F024C101F0C1
:1059C8000F0E046E000E056E86EC01F0350E0026F3
:1059D800010E0122010125510024BE6F265101202C
:1059E800BF6FBEC1E9FFBFC1EAFFEECFF6F144ECDD
:1059F80003F000C0BDF116C0C8F11CEC22F0BD5187
:105A08000012BEC1E1FFBFC1E2FF00C0E6FF86D0C1
:105A1800010133C100F034C101F00F0E046E000E15
:105A2800056E86EC01F0350E0026010E01221D518F
:105A38000024BE6F1E510120BF6FBEC1E9FFBFC168
