:1000000031EF04F00000000000EF00F000000000FD
:0A0010000000000000000000F3D71C
:10001C000F0E0C6E470E0D6E0D2EFED70C2EFCD750
:06002C00000000001200BC
:0A003200210E0D6E0D2EFED71200F8
:06003C00000000001200AC
:10004200C7B409D01F0EC514016E0150000A03E1A6
:0A005200010E006E1200006A120099
:10005C000001ADBF02D0839E01D0838EADBD02D016
:10006C00839C01D0838CADBB02D0839A01D0838A50
:10007C00ADB902D0839801D083889AB102D0848024
:10008C0001D084908482D4DF8492ADB702D0839E59
:10009C0001D0838EADB502D0839C01D0838CADB3DF
:1000AC0002D0839A01D0838AADB102D0839801D05B
:1000BC0083889AB102D0848001D084908482B8DF86
:0E00CC0084929AA102D0A4DF01D0ADDF120011
:1000DA00086A096A100E0C6E013408360936045093
:1000EA00085E0550D8A0053C095ED8B007D0045078
:1000FA0008260550D8B0053C0926D89000360136A6
:06010A000C2EEAD71200E2
:100110000001AA6B050EAA5D0AE2AA51A825E16EAC
:10012000000EA921E26E200EE66EAA2BF3D7AA518B
:10013000A825E16E000EA921E26EE66AAA07AA517F
:10014000A825AB6F000EA921AC6F0A0E046E000E3D
:10015000056EA6C000F0A7C001F0BFDF08C000F028
:1001600009C001F0300E0026ABC0E1FFACC0E2FFD9
:1001700000C0E6FF0A0E046E000E056EA6C000F079
:10018000A7C001F0AADF00C0A6F001C0A7F0000ED2
:10019000011802E1000E001801E102D0AA07CFD732
:0201A00012004B
:0A01A200C582C5A201D0FDD71200EE
:0E01AC00ACB202D00000FCD7A6C0ADFF12001E
:0A01BA00000E9EBA010E006E120046
:0E01C40000019A91A6C0ADF047DF9A811200AB
:1001D2000001A66BA76BA751120802E1A6518E0877
:1001E20008E32EDF005201E004D00001A64BA72B4A
:1001F200F2D70001120EA75D02E18F0EA65D03E3A6
:100202007B0E006E1200C580C5A001D0FDD7006A2A
:020212001200D8
:100214009E96A6C0C9FFC7A401D0FDD79EB601D043
:10022400FDD7C5BC02D0006A1200C584020E006E60
:020234001200B6
:100236000B6A0A6A096A00500402F4CF09F0F3CF88
:1002460008F001500502F4CF0BF0F3CF0AF000508E
:100256000502F3500926F4500A22E86A0B220150DF
:100266000402F3500926F4500A22E86A0B2208C059
:1002760000F009C001F00AC002F00BC003F0120042
:04028600C584120019
:10028A009E96C5869EB601D0FDD7C9CF01F0000162
:10029A00A651000A02E1C58A01D0C59A9E96C58870
:0C02AA009EB601D0FDD701C000F012008C
:1002B6000001A651390806E3300EA65D03E3010EE0
:0802C600006E01D0006A120075
:1002CE00AECF80F0ABA202D0AB98AB8880C000F06E
:0202DE0012000C
:1002E0000001A26BA36BA05342E0A051FF0A01E002
:1002F000A00763DF0050000A01E1FBD7E8DF00C080
:10030000A1F00001A2519C25E16E000E9D21E26E3C
:1003100000C0E6FFA22BA3519E25E96E000E9F218F
:10032000EA6EEE50A11902E1A32B09D0A36B9EC087
:10033000E9FF9FC0EAFFEE50A11901E1A32BA351F1
:100340009E25E96E000E9F21EA6EEE50000A0EE136
:10035000A351A25D006E016A000E015A00509C2557
:10036000E16E01509D21E26EE66A1200BCD79CC08E
:0A037000E1FF9DC0E2FFE66A120003
:10037A00949894968B988B9694889486C79EC79CDB
:06038A00380EC66E1200E1
:1003900000019F6B9CC0E9FF9DC0EAFFEECF9EF07D
:1003A0009E51000A0EE09EC0A6F000DF00019F2BC8
:1003B0009F519C25E96E000E9D21EA6EEECF9EF0C6
:0403C000EFD7120061
:1003C4000900F5CFE6FF0006FBE10106F9E11200A2
:1003D400AC0E00018D6F010E8E6FA60E8F6F000E96
:1003E400906FCE0E856F020E866F000E876F000E23
:1003F400886FBA0E816F010E826F000E836F000E3C
:10040400846FFF0E896FFF0E8A6F000E8B6F000ED4
:100414008C6FAC8A900EAB6E948E949C9EAA03D083
:08042400AECF00F0FBD712007F
:10042C0010D0800E00019C6F1AD0C00E9C6F17D09C
:10043C00940E9C6F14D0D40E9C6F11D0800E9C6FB8
:10044C000ED000019C51010AECE09C51020AEDE037
:10045C009C51030AEDE09C51040AEDE0EFD79D0599
:10046C00006E9C51002600C09CF000C0ADF0F0DD89
:10047C009A91A06BA0519E25E96E000E9F21EA6E09
:10048C00EE520BE0A0519E25E96E000E9F21EA6E04
:0E049C00EECFA6F091DEA02BEDD79A811200D4
:1004AA000001A26BA36B9CC0A4F09DC0A5F0800EB6
:1004BA009D19006E800E005C02E1000E9C5D0BE24D
:1004CA00010EA26F000EA36F9C510008A46F9DC07D
:1004DA00A5F0000EA557A4C0A6F0A5C0A7F09EC01F
:1004EA00A8F09FC0A9F00FDE060EA06F000EA16F44
:1004FA00000E006EA151005C02E1A051000819E251
:10050A00A0519E25E16EA1519F21E26E010EA05DD0
:10051A00006E000EA159016E00509E25E96E015031
:10052A009F21EA6EEECFE6FF010EA05F000EA15BEF
:10053A00DFD79EC0E1FF9FC0E2FF200EE66EA25108
:10054A00A3111AE0A06BA16BA0519E25E96EA151DF
:10055A009F21EA6EEE50200A03E1A04BA12BF4D7AB
:10056A00010EA05F000EA15BA0519E25E16EA15174
:0A057A009F21E26E2D0EE66E1200C6
:100584009CC0E9FF9DC0EAFFEECF03F0F00E031418
:10059400026E02C000F00032009E0032009E003263
:1005A400009E0032009E0A0E0002F3CF01F00F0EEF
:1005B4000314006E9CC0E1FF9DC0E2FF00500124C3
:1005C400E66E9EC0E9FF9FC0EAFFEECF03F0F00E97
:1005D4000314026E02C000F00032009E0032009E3E
:1005E4000032009E0032009E0A0E0002F3CF01F09A
:1005F4000F0E0314006E9EC0E1FF9FC0E2FF005087
:100604000124E66EA0C0E9FFA1C0EAFFEECF03F02B
:10061400F00E0314026E02C000F00032009E00329D
:10062400009E0032009E0032009E0A0E0002F3CFAC
:1006340001F00F0E0314006EA0C0E1FFA1C0E2FFA1
:0806440000500124E66E1200D3
:10064C00C2DDD00EA66FE0DD9CC0A6F0DDDDA3DD23
:10065C00D10E0001A66FD8DD0001A66B10DE00C024
:10066C009EF0000E00019F6F08DE9EC000F09FC040
:04067C0001F0120077
:10068000969296909598959A959C959E8492849032
:10069000839E839C839A8398C1DCC0DCBFDC838A01
:1006A00083888482CBDC8492B9DC8482C7DC849228
:1006B000B5DC8482C3DC8492B1DC83988482BEDCA6
:1006C0008492ACDC8482BADC8492839A838E8482A6
:1006D000B5DC8492A3DC839E83888482AFDC849221
:1006E00083988482ABDC849299DC8482A7DC849238
:1006F00083888482A3DC849291DC839884829EDC4C
:100700008492838E838C838A8388848297DC84920C
:0807100085DC00019A81120052
:100718009CC0E9FF9DC0EAFFEECF9EF0000E0001ED
:100728009F6F000E9F6F000E9F1902E1200E9E1909
:1007380007E0000E9F1902E1090E9E1901E003D09F
:100748009C4B9D2BE5D7A06BA16BA26BA36B000EF6
:100758009F1902E12D0E9E1905E1A24BA32B9C4B7C
:100768009D2B08D0000E9F1902E12B0E9E1902E165
:100778009C4B9D2B9CC0E9FF9DC0EAFFEECF9EF0ED
:10078800000E9F6F000E9F6F9EC0A6F090DD005276
:1007980018E0A0C000F0A1C001F00A0E046E000E1F
:1007A800056E45DD300E9E5D026E000E9F59036E8C
:1007B80002500024A06F03500120A16F9C4B9D2B79
:1007C800D9D7A251A31108E0A0510008006EA1C01A
:1007D80001F0000E01561200A0C000F0A1C001F007
:0207E8001200FD
:1007EA000D0E0001A66FDDDC0A0E0001A66FD9DC32
:0207FA001200EB
:1007FC00400E0001AD6F2CDC9C6B9C51070811E383
:10080C00300E9C25F66E0A0EF76E000EF722000EC7
:10081C00F86E000EF8220900F5CFA6F0CDDC9C2B6B
:10082C00ECD79C6B9C51070811E3280E9C25F66EA7
:10083C000A0EF76E000EF722000EF86E000EF8226C
:10084C000900F5CFA6F0B8DC9C2BECD7020EAD6FEF
:06085C002EEC00F012007A
:100862001CEC05F0190EAF6EAC84B3DD140EC86E2D
:1008720083DD3A0E00019C6F000E9D6F88DD9CDCCB
:100882000050010A01E0FBD75D0E9C6F000E9D6FC8
:10089200550E9E6F000E9F6F200EA06F20DD5D0E25
:1008A2009C6F000E9D6F73DD5D0E9C6F000E9D6F41
:1008B20032DF00C07EF001C07FF00E0EC16E0F0E5F
:1008C200936E816ADCDE0C0EAD6F2EEC00F095DFCC
:1008D200010E9C6F020E9D6F280E9E6F000E9F6F81
:1008E200A4DD030E9C6F020E9D6F150E9E6F000E0F
:1008F2009F6F9BDD040E9C6F090E9D6F5D0E9E6FB8
:10090200000E9F6F92DDA66B5CDC430EA66F59DC76
:1009120000019C6B9D6B99DE00C057F001C058F03E
:10092200010E9C6F000E9D6F90DE00C05BF001C057
:100932005CF0020E9C6F000E9D6F87DE00C059F0C6
:1009420001C05AF0570E9C6F000E9D6F5B0E9E6F9A
:10095200000E9F6F590EA06F000EA16F12DE59C0DC
:100962009CF05AC09DF0930E9E6F000E9F6F9CDD0F
:10097200930E9C6F000E9D6F0ADD3A0EA66F15DC7A
:100982005BC09CF05CC09DF0930E00019E6F000E58
:100992009F6F8ADD930E9C6F000E9D6FF8DC3A0EFE
:1009A200A66F03DC57C09CF058C09DF0930E000167
:1009B2009E6F000E9F6F78DD930E9C6F000E9D6FF1
:1009C200E6DC12DF0B0E0B6E260E0C6E5D0E0D6E4C
:1009D2000D2EFED70C2EFCD70B2EFAD700000000EE
:0409E20097D7FFD7CD
:100A380010EE15F0420E006E010E016EE60EF66E17
:0E0A4800090EF76E000EF86EE2EC01F01200DF
:1009E60054454D5045524154555241204D41584968
:0309F6004D410070
:1009F90054454D5045524154555241204154554159
:020A09004C009F
:100A0B005155414C20412054454D50455241545570
:0B0A1B005241204D4158494D410D0053
:020A26000D00C1
:080A28000101010101010101BE
:080A30000303000000000000B8
:020000040030CA
:0D000100021F1EFF8381FF0FC00FE00F40A4
:00000001FF
